:100000000C946B100C9493100C9493100C9493100C
:100010000C9493100C9493100C9493100C949310D4
:100020000C9493100C9493100C94F3210C9465226F
:100030000C9493100C9493100C9493100C949310B4
:100040000C9493100C9493100C9493100C949310A4
:100050000C9493100C9493100C9493100C942318FC
:100060000C9493100C9493100C9493100C94931084
:100070000C9493100C9493100C9493100C94931074
:100080000C946D180C9493100C9493100C94931082
:100090000C9493100C9493100C9493100C94931054
:1000A0000C9493100C9493100C9493109D2C992CF9
:1000B000A22CA42CB02CAC2CB42CB62C0A2D062DC2
:1000C0000F2D112D1D2D192D212D232DF031F23144
:1000D000F431F931FE31FE31FE31FE3107320732A3
:1000E000073207328D2E8D2E8D2E8D2E8B2E0E02E9
:1000F000010A4744CCC0A8A93D331B15060E0201D6
:10010000070A040C05404849CDC3EBE60E4042C443
:10011000C6888A252C313337191B0D0E4E4748E906
:10012000EDA03132131A0B0C0405260E2021725358
:100130004445C6C7C8898AEB3C3DD5F08D14A1C89B
:1001400081CFD9F1AF20005504A8000000B00055C0
:1001500004A80000005C013F03A8005504A800DCCF
:10016000030C067003A8000000B0007003A8000094
:10017000005C017003A800E402A8007003A800A4BA
:1001800003E200E402E200A403E2001704E2003FFD
:1001900003E2001704E2005504A8000000B0005577
:1001A00004A80000005C013F03A8005504A800DC7F
:1001B000030C067003A8000000B0007003A8000044
:1001C000005C017003A800E402A8007003A800A46A
:1001D00003E200E402E200A403E2001704E2003FAD
:1001E00003E200DD04E2007505CF08BA020604E46C
:1001F00002A8001003A8003F035F05A403560300F4
:100200000007001704A8005504A800DD04A8007525
:10021000055F05C805560300000700490755017D25
:1002200006A800C8055F05DD04560300000700C8E6
:100230000555017505A80055045603000007001771
:1002400004A800A403A8003F03A800BA020604E41F
:1002500002A8001003A8003F035F05A40356030093
:100260000007001704A8005504A800DD04A80075C5
:10027000055F05C805560300000700490755017DC5
:1002800006A800C8055F05DD04AE023F035501C89E
:1002900005A8007505A80055045F0500800B1E1514
:1002A00000040E1F001F0E0400150000F20A7A8AD7
:1002B00072020200000000089494A22200000000D4
:1002C00000002F20272827202000000C3B001500CD
:1002D00011111F11110A0400150000008E504C422C
:1002E000DC400000000000007924242419000000F4
:1002F00000000000C121212BE520000000E01000DB
:10030000E0101010E0000000000001017925252513
:1003100018000000000000009555D5558B00000026
:10032000000000000700030403000000002A7A50C8
:10033000A050A010A090A0808080808000408040CD
:10034000804080408040804080408050A8542A9562
:100350004A241010204080000055AA55AA00FF0032
:100360000000000000070405040504050405040559
:100370000405040504050405040506040000000046
:100380000001FE01020102001F1010101010101ECB
:10039000020202020202020202020202020202023D
:1003A0000202020202020202020202020354AA54E0
:1003B000AA04F2141214121412101010F000A0501B
:1003C000A8542A944A241214121412141214121447
:1003D0001010204080000055AA55AA00FF00000020
:1003E000000000E020203F00AA5500FE01000000B0
:1003F00000E02020A020A02020E00000000000015C
:10040000FE152A55AA00FF0000000000001F10146E
:1004100012141215101F00000000001F10151215F5
:100420001215101F000000000000FF000000000077
:10043000010204081020202020202020202020203D
:1004400020202020202020202020202020202020AC
:10045000100804020100000000000000000000007D
:10046000009468946814C814081408100810001048
:10047000406080808040008000000000000000405C
:10048000A040A040204020000000002A55AA5500AE
:10049000FF0000000000F01090202040408081010B
:1004A0000302020504080810F055AA55AA00FF012E
:1004B00001010101011F101215101F0000000000B2
:1004C0001F10121512151214101111121E00000027
:1004D0000000FF050A050A00FF808080808080F010
:1004E00010101010F08080808080F010101010101C
:1004F0001010101010101010101010101F0000001D
:100500008040A040A040204000000000000000000B
:100510000000000000000040A040A040204020401B
:100520000000000000000054AA55AA05F2190C06AC
:10053000030101010101FF00A040A040A000000054
:1005400000152A152A00FF0101010101020408100B
:10055000E055AA55AA00FF000000000000FE02427C
:100560002B502A5500FE0202020202FE00205028F3
:10057000532A02FE000000000000FF0102050A00ED
:100580001F20408000000001010101010101010163
:100590000080800000010101010101010101000052
:1005A000008040201F000000000000000000010249
:1005B0000202020202020202020201000001020221
:1005C0000202020202020202020201000000000016
:1005D000002C015D0152005D0152005D0152005D81
:1005E00001520000000300720152007201520072B9
:1005F000015200720152000000030088015200887D
:100600000152008801520088015200000003009F3F
:100610000152009F0152009F0152009F01520000B1
:10062000000300B8015200B8015200B8015200B8EE
:1006300001520000000300D2015200D2015200D248
:10064000015200D201520000000300EE015200EE00
:10065000015200EE015200EE015200000003000BB7
:100660000252000B0252000B0252000B0252000019
:100670000003000080E4020200750506007D060804
:1006800000750504000080DC00090093000A008367
:10069000000600AF000A000080AF0003002601043E
:1006A00000B8010400A50001000080AF001600AFF3
:1006B000001600AF0016000080387CFEFEFE7CFEB7
:1006C000FFBA00000000000000010010387CFEFFAF
:1006D000FFFFFE6C0000000001010100001FFFFF92
:1006E000FFFFFFFFFEE440000101010101010100E5
:1006F00000090900384444442854920000000000D6
:10070000000000000009090010387CFEFEFE6C00AD
:100710000000000000000000000A09000EEEEEEEEE
:10072000EAAAA44000000000000000000000000051
:1007300080F8FC5EAFDEBC78F0C000001E7FFFAA30
:10074000D7AB57AF5FFFFEF8E080EF7FBA55AB57EE
:10075000AEDFFFF7E34007FFFDEA57EF77FFFF7FCC
:10076000070300000003070D060703010000000057
:100770000D24000080F85CAEDCB870C00000000002
:100780001E7FAAD7AB57AF5FFEF8E00000806FBABC
:1007900055AB57AEDFF7E340000007FDEA57EF77B0
:1007A000FF7F0703000000000003050203010000B3
:1007B0000000005504690200000D005504690000A6
:1007C000000D0055046900000001001704AB010092
:1007D0000001001704D500000001001704D5000037
:1007E000000100DC03810200000100DC03D50000F1
:1007F000000100A4031C0100000100A40346000046
:10080000006C00A403220000006C00A4032200007E
:10081000006C00A40322000000480070031C0100CB
:10082000000100E4021C010000010070031C010033
:100830000001003F031C010000010093021C0100A5
:100840000001003F031C0100000100E402810200DE
:100850000001006E024600000001000B024600008D
:100860000001006E024600000001002A027B030026
:1008700080E402F20100009000E40222000000483F
:1008800000E402220000004800E402B10000006C15
:1008900000E402690000002400E402460000004871
:1008A000003F03690000002400A403690000002445
:1008B00000DC030A040000FB00DC036900000024E4
:1008C000005504460000004800DD044600000048D2
:1008D0000075055D02000024007505220000004837
:1008E000007505220000004800750522000000B3D5
:1008F000005504B1000000240075054600000048C2
:1009000000C8057500000018007D0669000000247D
:1009100000C80569060080570016005700160057EA
:100920000016000080072991111515951B11F30180
:10093000E111E100013C4138047900008E44444457
:1009400086000413141434D30000010101010000D7
:10095000000B3B150011111F11110A0400150000B6
:10096000E01010101010E00000000038454444383A
:1009700001000000000011111113CD000000000063
:1009800000E2454141670141000000004444444CFD
:10099000340000000000009659D151910000000081
:1009A0000000030007040300000000071C84444407
:1009B0004484151F83444444F3404078253820196B
:1009C00000000E04040404040607050E1113151993
:1009D000110E0E0404040406041F01010E10110E72
:1009E0000E11100C10110E08081F090A0C080E1128
:1009F00010100F011F0E11110F01021C010204083B
:100A000010101F0E11110E11110E0708101E1111DA
:100A10000E071D8E51504E81110EE3141014E30089
:100A2000000405054D3400000E011F110E000013D7
:100A300022000000FC00FE0101FDA955FD0101FEA0
:100A400000000000C03008043261E0C0C1E0F1F9EC
:100A5000800003040830C00F30408030181F0F0F93
:100A60001F3F7F0703038340300F000000FC01FE9F
:100A70000000FE54AAFE0000FF000000000000007D
:100A80000000010202020202020202010000000054
:100A9000400004000150000081400005FF015000AB
:100AA0000081400006FF00251A0105FF0118031808
:100AB00004000119000081400006FF0040FF0028EB
:100AC000FF005000008180C0E0F0F8F8FCFCFCFE64
:100AD000FEFEFFFFFFFFFFFFFFFFFFFFFFFFFFFF28
:100AE000FFFFFFFFFFFEFEFEFCFCF8F0C00001036D
:100AF000070F0F1F1F1F3F3F3F7F7F7F7F7F7F7F3E
:100B00007F7F7F7F7F7F7F7F7F7F7F7F3F3F3F1F15
:100B10001F0F0701FFFFFFFFFFFFFFFFFF010101A5
:100B20000101010101010910FEFDC3BBBBBBC7FFF1
:100B3000FF010101010101010101271080C060B026
:100B400058A85CAC54AEFA8EF7959FF5979DF79533
:100B50009FFDFFFD7F7D3FDDDFDD3FFEFEFE0CFCE8
:100B600018F0C0000103060D0A1D1A153A2F387738
:100B7000547C57745C77547C5F7F5F7F5F7E5D7DC4
:100B80005D7E3F3F3F181F0C07010910FF7F87BBA9
:100B9000BBBBC7FFFF0001010101010101010910F9
:100BA000FFFFC7BB3BBBC7FFFF0101010100010104
:100BB00001010910FFFFC7BBBBBB877FFF0101011C
:100BC0000101010101000910FFFFC7BBBBBBC7EF5B
:100BD000EF0101010101010101010910FFFFC7BB84
:100BE000BBBBC3FDFE0101010101010101010910AF
:100BF000FFFFC7BBB8BBC7FFFF0101010101010136
:100C000001010000000000F0FEFFFFFEFCE000001C
:100C100000000000000000008000000010387CFE92
:100C2000FEFFFFFFFFFFFFFFFFFEFEFE7C7C7C7CE4
:100C3000FEFFFFFFFE1000000000001FFFFFFFFF90
:100C40007F0F010000000000000000010301000010
:100C50000000000000000001010000000000000092
:100C6000000000000000000000001A190000000051
:100C70000000F09E9EFCE00000000000000000006C
:100C80000000000000000010387C547CFFBBBBBBA0
:100C9000BBFF7C7C7C7C3838383828D6D7FE1000E7
:100CA0000000000000001FF3F37F0F0100000000B0
:100CB0000000000000000100000000000000000033
:100CC0000000000000000000000000000000000024
:100CD00000000000111100001C3CFCD8B070E8C4FA
:100CE00022120E00000000001C1211080503030769
:100CF000074F6C30380C00000000000000000000BE
:100D0000000000000000000000111100008080FCC5
:100D1000828CF08080800000C0E0000000010303AE
:100D20007E82621F0303030101070F010000000020
:100D30000000000000000000000000000000111191
:100D40000070901020408080C0C0E46C18386000B3
:100D500000000070797E371B1D2F478990E000004E
:100D60000000000000000000000000000000000083
:100D700000000011110000000000040CCCFECC0C9F
:100D8000040000000000000814141212127FE37F18
:100D900012121214140800000000000000000000ED
:100DA0000000000000000000111100006038186C05
:100DB000E4C0C0808040201090700000000000E07F
:100DC0009089472F1D1B377E7970000000000000BE
:100DD00000000000000000000000000000111100F1
:100DE00000E0C00000808080F08C82FC8080008069
:100DF00000010F0701010303031F62827E03030149
:100E000000000000000000000000000000000000E2
:100E100000001111000000000E1222C4C870B0D8EA
:100E2000FC3C1C000000000C38306C4F070703032B
:100E3000050811121C000000000000000000000066
:100E40000000000000000011110020505090909010
:100E5000FC8EFC909090505020000000000000405C
:100E60006067FF67604000000000000000000000B5
:100E7000000000000000000000000000060002F07A
:100E8000D0000000010002F0D010000001010000BD
:100E9000F02400000201000002240000020002F021
:100EA000204A0001010002F0205A00010105000261
:100EB000F0D0000000010002F0D028000001010085
:100EC00000F94400000200020020000101010002BC
:100ED000002028010101050002F0D00000000100FF
:100EE00002F0D028000001010000F94400000200D7
:100EF000020020000101010002002028010101057B
:100F00000300000E04000005030000E03E000005A1
:100F10000002F0D0000000010002F0D02300000128
:100F20000002F0D04600000106000000F0120000B0
:100F300001000000F90000000100000002120000A2
:100F400001020000E440000002020000F52C000055
:100F5000020200000640000002060003D6D0000096
:100F600000010003E6E000000001010000EB1400B6
:100F70000002010000F92400000201000007340013
:100F80000002010000F940000002050002F0D0005C
:100F90000000010002F0D028000001010000F94427
:100FA0000000020002F020140001010002F0203CC9
:100FB00000010104000000F012000001000000F92F
:100FC0000000000100000002120000010300000EFA
:100FD0003000000A050001000500000001000100CA
:100FE0000514000001000100EC00000101000100F7
:100FF000EC14000101000000F928000101040000C8
:1010000000E700000001000000F9000000010000FE
:10101000000B00000001020000F5160000010400B2
:101020000000F100000001000000030000000101C9
:101030000000F1120000020100000312000002058E
:101040000001000500000101000100EC1400000196
:10105000010000E732000002010000F93200000246
:101060000100000B3200000205010000E72400002F
:1010700002000000F012000001000000F900000072
:101080000100000002120000010100000B2400001A
:10109000020200000005000000010000000018002E
:1010A0000001000000FB50000001000000F6680095
:1010B0000001EE0BDA0BC60BB20B9E0B8A0B3A0B40
:1010C000260B140B140B140B140B140B140BC60A65
:1010D000140BCE1D9C1D6A1D381D081DD81CA81C94
:1010E000781C6A0C6A0C6A0C6A0C6A0C6A0C6A0C32
:1010F0006A0C020C020C020C020C020C020C020C18
:10110000020CCE1D9C1D6A1D381D081DD81CA81C74
:10111000781C470E120EDD0DA80D730D3E0D090D46
:10112000D40C171AE419B1197E194B191819E518BE
:10113000B218CE1D9C1D6A1D381D081DD81CA81C88
:10114000781C050403040A090605040609060906B5
:101150000504020204080F05040609070106050438
:10116000070807010F050404040F05060504060916
:1011700004090605040F0204090605040E0404060A
:1011800004050406090909062018000000000040B3
:1011900000000080800000800000000000000000CF
:1011A00000000000000000000000FBBBFBFB6BFB2D
:1011B000F3F7E6D6E6EEAEECE4ECCCDCDC98D8D87F
:1011C000D858DA9A90B4B4B0B0B0AB57AA57AF576A
:1011D000AA57AB55AE55AA55AB57AB55AB57AA5707
:1011E000AB55AB57AD5BAF57AD57201800000000B3
:1011F0000080A090CCE0787C743EB6BFBFBF3F7E3D
:101200007EFCFCF8F0F4E4E0C8C09000FBFBF37750
:10121000F7B7F3FBF97CBE7FFF77EFFFFB7FEF7F34
:10122000BEFEBE5CBD5DFD7DD9FB7BFBAB55AB5708
:10123000AA55AA55AA55AA55AA55AA55AA55AA55B6
:10124000AA55AA55AA55AB55AB55AB552018000069
:10125000008080800000404040008080000000004E
:101260000000000000804000A0A0A0800000FBDB88
:10127000FBFBF3D7F777F5D7EB6EEECEE6E6EFADF7
:10128000EF6EEAE6F6B2E677F7D5E777F7F5AB5F0C
:10129000AB56AF5BAF57AF57AB57AF55AB57AB552F
:1012A000AB57AB57AE57AB55AB57AD57AB552018F7
:1012B00000008020A090D0D0C0E0C0C0C0E0E0E03E
:1012C000E0C0E8C8D090200000004040408000000E
:1012D000FB7BEBFBBBFBFBFBF3F9BAF9FCFDBC7939
:1012E000FB69FBFBBBD3F3F6F3B7F7F7F676D6F75C
:1012F000AB55AB57AB55AF55AB57AB56AB57AB57E1
:10130000BB55AB55AA55AB57AB55AB57AB57AB57C6
:1013100020188080809010A0200040000000000075
:1013200000000000000000008080804040000000BD
:101330000040F7B367EFE76FEFEFCECCD8CC98B2B1
:10134000B2B4B098DCDE4CDECEDECCEEEEA7EFEF32
:101350006EE6AB57AB57AB57AF56AB57AA5FAD571F
:10136000AE57AF57AB57AB57AE57AF57AA57AB5760
:10137000AB55201800400020A08080C0C8C4E4F213
:10138000B2D8F87C7C7C6C7CFCFC78D8F0B4E4E0CF
:10139000C8C08000F777D7F3BBFBBB5BFB79FD5C74
:1013A000FE5AFE7EBFFBEFFEB47EFE76FC5DF5F5D9
:1013B000BDD9FBDBAB55AB55AA55AA57AB55AF55BD
:1013C000AA55AB55AB55AA57AA55AA55AB55AA5520
:1013D000AA55AA57201800000000000000000000D5
:1013E000000000000000000080000080800000007D
:1013F000400000000000B0B0B0B4B4909ADA58D801
:10140000D8D898DCDCCCECE4ECAEEEE6D6E6F7F32C
:10141000FB6BFBFBBBFB57AD57AF5BAD57AB55ABA6
:1014200057AA57AB55AB57AB55AA55AE55AB57AAB4
:1014300057AF57AA57AB2018EAB5EAF5DAB5EAD59F
:10144000AAD5EA55EAD5AAD5EAD5AA55AA75AAD544
:10145000EA55EAF5EA55EAD50D0D0D2D2D09595B32
:101460001A1B1B1B193B3B333727377577676B6795
:10147000EFCFDFD6DFDFDDDF00000000000000007F
:101480000000000000000000000001000001010059
:1014900000000200000000002018D5AAD5EA55AAD5
:1014A00055AA55AA55AA55AA55AA55AA55AA55AA44
:1014B00055AA55AAD5AAD5AAD5AADFDFCFEEEFED5A
:1014C000CFDF9F3E7DFEFFEEF7FFDFFEF7FE7D7F65
:1014D0007D3ABDBABFBE9BDFDEDF00000000000129
:1014E000050933071E3E2E7C6DFDFDFDFC7E7E3F13
:1014F0003F1F0F2F2707130309002018D5FAD56ABD
:10150000F5DAF5EAF5EAD5EAF5AAD5EAD5AAD5EAF3
:10151000D5EA75EAD5AAD5EAB5EAD5AADFDBDFDFD9
:10152000CFEBEFEEAFEBD77677736767F7B5F7766C
:1015300057676F4D67EEEFABE7EEEFAF00000001CE
:101540000101000002020200010100000000000091
:101550000000000102000505050100002018D5AAC1
:10156000D5EAD5AAF5AAD5EAD56AD5EAD5EADDAA9B
:10157000D5AA55AAD5EAD5AAD5EAD5EAD5EADFDEB5
:10158000D7DFDDDFDFDFCF9F5D9F3FBF3D9EDF9673
:10159000DFDFDDCBCF6FCFEDEFEF6F6E6BEF0000D6
:1015A000010405090B0B03070303030707070703E0
:1015B00017130B09040000000202020100002018AA
:1015C000D5EAD5EAD5EAF56AD5EA55FAB5EA75EA73
:1015D000F5EAD5EAD5EA75EAF5EA55EAD5EAD5AAF3
:1015E000EFCDE6F7E7F6F7F773331B33194D4D2DC3
:1015F0000D193B7B327B737B337777E5F7F77667A3
:1016000001010109080504000200000000000000BB
:1016100000000000000001010102020000000002C1
:101620002018D5AAD5AA55AA55EAD5AAF5AA55AA29
:10163000D5AAD5AA55EA55AA55AAD5AA55AA55AAF2
:1016400055EAEFEEEBCFDDDFDDDADF9EBF3A7F5A02
:101650007F7EFDDFF77F2D7E7F6E3FBAAFAFBD9BF4
:10166000DFDB00020004050101031323274F4D1B9C
:101670001F3E3E3E363E3F3F1E1B0F2D27071303E6
:1016800001002018D5EA55EAF5EA55EAD5AA75AA67
:1016900055AAD5EAD5AAD5EA55EAD5AAD5EAB5DA42
:1016A000F5EAB5EADFDDDFDFD6DFCFEF676B67771F
:1016B00075372737333B3B191B1B1B1A5B59092D09
:1016C0002D0D0D0D000000000002000000010100C2
:1016D0000001000000000000000000000000000009
:1016E000000000000503050507050205056E1171E0
:1016F000116E050301010301070505040E1F1F0AF2
:1017000005050E041F04040000D41372131013AE59
:10171000124C12EA118811000082162016BE155CC8
:1017200015FA1498143614111638787870327A3AFB
:1017300068726460A040C08010609DDF9F97BFBB4F
:10174000BF2FBD3F1E8CC1E3FFBE0C010009131764
:10175000272F070F0F070313111310081116044248
:10176000F2E2F270383C7C387D797A7264C0608C29
:101770001F7FF1A04C9EBFAFBD3FB73FBABEBE2E8C
:1017800001020000000101091305171713030707E1
:10179000070B0DF80681A6B0B8181830604007088E
:1017A000101707070303010100090CF00E41CED00A
:1017B000C08080800304080B03030101000910208E
:1017C00080000000000011040200000088200000DA
:1017D00000091000000011040000400088200000F3
:1017E000000000040107319E51990181011E5752EA
:1017F0005352B1000039057D453800003844444457
:10180000444438844AD15191000013101734D30056
:101810000000000001000000123C1CA2A09C8222DB
:101820001C0000000000000000000000CB2C282855
:10183000C800000000000044445454546C44718AB1
:10184000088A71000000000000CE04844486000471
:101850009C023EA21C000000000000F304E310E71D
:101860000000E708C720CF0000000000003811107A
:10187000101900102122217023A040000000004E0A
:101880005151D14E00002C322222220000000000D3
:101890000004040404030000070202020202030021
:1018A00000000000000000000000010204081020F9
:1018B0004080001E3EFEFEFCF8F8FCFEFF3F1F0FBE
:1018C0000000003C3E3F3F1F0F07070FCFFFFF7C8C
:1018D0007C7E0E0000000000000000000000000000
:1018E00000000000000080C0FCFEFFFEFCF0C0C055
:1018F00080C0E0F0E0000103077FFFFFFF7F1F07CC
:101900000703070F1F0F0100000000000100000087
:10191000000000000000000078F8F8F8F0E0C0C017
:10192000E0E6FEFE7C7CFCE00000F0F9FFFF7F3F7C
:101930003F7FFFFFF9F0E000000000000000000022
:10194000000000000101010100000000000000048F
:101950000EDEFEFFFEDE0E0400000000081C3E3E10
:101960003F3F7FFFFFFF7F3F3F3E3E1C08000000E0
:10197000000000000001000000000000000000E086
:10198000FC7C7CFEFEE6E0C0C0E0F0F8F8F87800F1
:101990000000E0F0F9FFFF7F3F3F7FFFFFF9F0001D
:1019A0000000000101010100000000000000000033
:1019B0000000E0F0E0C080C0C0F0FCFEFFFEFCC014
:1019C0008000010F1F0F070307071F7FFFFFFF7F27
:1019D00007030100000000000000000000000100FB
:1019E000000000000000000F1F3FFFFEFCF8F8FCA5
:1019F000FEFE3E1E00000E7E7C7CFFFFCF0F070721
:101A00000F1F3F3F3E3C00000000000000000000B0
:101A1000000000000000002070F8F8F8F8FCFEFF5D
:101A2000FEFCF8F8F8F870200000000041E1F7FF34
:101A3000FFFFF7E14100000000000000000000008F
:101A400000010000000000000000111100001C3C1B
:101A5000FCD8B070F8EC3E1E0E00000000001C1E0A
:101A60001F0D07030307074F6C30380C0000000000
:101A70000000000000000000000000000000001155
:101A80001100008080FCEEFCF08080800000C0E04F
:101A90000000000103037EEE7E1F03030301010724
:101AA0000F01000000000000000000000000000026
:101AB0000000000011110070F0F060C08080C0C014
:101AC000E46C1838600000000070797F371B1D3F00
:101AD0006FF9F0E0000000000000000000000000CE
:101AE00000000000000000000011110000000000D4
:101AF000040CCCFECC0C04000000000000081C1CF0
:101B0000161E1E7FE37F1E1E161C1C080000000010
:101B100000000000000000000000000000001111A3
:101B200000006038186CE4C0C08080C060F0F070C5
:101B30000000000000E0F0F96F3F1D1B377F797057
:101B40000000000000000000000000000000000095
:101B500000000011110000E0C00000808080F0FC57
:101B6000EEFC8080008000010F0701010303031FCA
:101B70007EEE7E0303010000000000000000000074
:101B800000000000000000001111000000000E1E07
:101B90003EECF870B0D8FC3C1C000000000C383063
:101BA0006C4F07070303070D1F1E1C0000000000F9
:101BB0000000000000000000000000000011110003
:101BC000207070D0F0F0FC8EFCF0F0D0707020002F
:101BD0000000000000406067FF67604000000000F8
:101BE00000000000000000000000000000000000F5
:101BF000000080E0F0E0000A3F7F3F0200000000AC
:101C00000040F0F8F000127FFF7F020000000000AB
:101C100040FCFEFC4017FFFFFF12000103010060C3
:101C2000FEFFFE702037FFFFFF772200030703004F
:101C30000005130080E00000000A3F0200000000E1
:101C4000000005130040F0000000127F02000000B9
:101C500000000005130040FC40000017FF120000C8
:101C60000001000006130060FE2020000037FF275F
:101C700022000000030000000E0EEEE0E00080DC19
:101C8000DFFF677373700000E0E0FBBB3FE7E7E74F
:101C9000070100C0DCDC1C0001030303000000009E
:101CA00000000001010100000F1F6FF4E8FCDEFFDF
:101CB000FFE7F07F1F47E040C0E8FECF0F67F7FF68
:101CC000FF9F3D10C0E2F762010101030100000027
:101CD000010000030303000000001C1C7CFCFCF856
:101CE000F8FC3C1C00000000000038383E1F0F0FBD
:101CF000070F1F1E1C000000000000000000000075
:101D0000000000000000000070F0F0FEFEFEF8F0A1
:101D1000F8F8FC7E3E0E000000F0FDFF7F7F3F1FC5
:101D20000F1F3F3F7C7070000001010100000000A8
:101D3000000000000000000010120004004000003D
:101D40000080884200012000000080400011000255
:101D500040020000000080080000000001000000B8
:101D6000000000000000000000001012060F0460D8
:101D7000C0C88C9EC7C060100200400080C0C8066A
:101D8000070363678F0D100000C0620000000001B0
:101D90000000000000000000010000001012000020
:101DA00000001070E0E0F0300800000000000000CB
:101DB0000010080E070703070608000000000000D7
:101DC00000000000000000000000000000001012F1
:101DD0002060E0E0FCF8F0E0F0F078380C00000063
:101DE0000000E07D3F3F1F0F070F1F1C3020000049
:101DF00000000000000000000000000000000000E3
:101E000060FEFFFE702037FFFFFF7722000307030D
:101E10000000000080F0FCFEFFFEFCF0F0F070F02F
:101E2000F8F8F02002070F7FFFFFFFFFFF7F7F7AA8
:101E300070FFFFFFFF200000000001030703010007
:101E400000000000000000000000A0FEFFFEFC708B
:101E5000F0F8F02002072FFFFFFFFF777FFF7F20C2
:101E60000000000307030100000000007070FEFF87
:101E7000FE707277FFFFFF7700000307030070F822
:101E8000F8F870FCFEFFFEF0000070FFFFFF77FF28
:101E9000FFFFFF7F070200000000000103070300AF
:101EA000000070F8F8F8F870F0F0F0FCFEFFFEFCAF
:101EB000F080000070FFFFFFFF707A7F7FFFFFFF61
:101EC000FFFF7F0F0702000000000000000000017C
:101ED000030703010000000006130060FE2020003D
:101EE0000037FF272200000003000000121300004B
:101EF000000060FCFEFC606060202020F0F020000C
:101F00000002070737FFFFFF3737322020207F7F8F
:101F1000200000000000000103010000000000009C
:101F2000000000000C1300000020FEFC202020F028
:101F3000200000020727FFFF272220FF20000000CB
:101F4000000003010000000000000613002020FE36
:101F50006000002227FF37000000000300000C1380
:101F60000020F0202060FCFE2000000000207F20E8
:101F70002237FDFF250702000000000000000103DA
:101F80000000000012130020B0F0202020606060EC
:101F9000BC66BC600030000000206F7F2020203233
:101FA0003735ED37ED35076702000000000000000F
:101FB0000000000001030100000000007CFEFFFFA4
:101FC000FFFFFFFFFEFFFE7C000001010101010198
:101FD000010100000C09007C8282AA92AA82848EF0
:101FE0007400000000000000000000000000BD1BA5
:101FF000881B531B1E1BE91AB41A7F1A4A1A171A98
:10200000E419B1197E194B191819E518B218CE1D2B
:102010009C1D6A1D381D081DD81CA81C781C841F17
:102020005E1F4A1F241FEC1E241FD81E5E1FA21E07
:102030007E1E6C1E481E121E481E001E7E1ECE1DD9
:102040009C1D6A1D381D081DD81CA81C781C641C0A
:10205000531C421C311C1F1C101C011CF21B080BC2
:102060000002020201000904000001020200000552
:1020700024001001052401010104240206052406A0
:1020800000010705810310004009040100020A0055
:10209000000007050202400000070583024000001F
:1020A0000403090412010002EF02014041233680BB
:1020B00000010102030141726475696E6F204C4C8E
:1020C000430041726475696E6F204C656F6E61727A
:1020D000646F00009C3211241FBECFEFDAE0DEBF38
:1020E000CDBF11E0A0E0B1E0E6E4FEE602C005905D
:1020F0000D92A83DB107D9F727E0A8EDB1E001C0E6
:102100001D92AB3EB207E1F710E1CBE6D0E104C08F
:102110002197FE010E942636CA36D107C9F70E94D0
:1021200095240C9421370C940000CF92DF92EF920B
:10213000FF920F931F93CF93DF93EC018885882341
:1021400009F4EFC08E89882311F081508E8B8E891F
:102150008111E7C02B8D2111AAC0498D5A8DEF88BE
:10216000F88CF7013296E40FF51F0491FA01EE0D99
:10217000FF1D849197012F5F3F4FFA01E20FF31F7C
:1021800014919D89292F207FC22EE82F09F0E19517
:102190009F70D92E09F01195013809F486C00830D6
:1021A00008F051C06889062E000C770B6E0F711D68
:1021B000E7FD7A95072E000C880B990B0E94F934E5
:1021C00020E030E040E852E40E94553420E030E066
:1021D00040E857E40E9485350E94C13468837983C2
:1021E0008A839B836989062E000C770B610F711D12
:1021F00017FD7A95072E000C880B990B0E94F93475
:1022000020E030E040E052E40E94553420E030E02D
:1022100040E857E40E9485350E94C1346C837D8379
:102220008E839F838D85833019F486E08E8701C06D
:102230000E87CC2009F468C0EE85D1106CC0F0E0A8
:10224000E35BFE4F6BC0EC8F1D8F8E2FEE0F990B53
:10225000AA0BBB0BDC0199278827488159816A8129
:102260007B81840F951FA61FB71F88839983AA833C
:10227000BB83812F110F990BAA0BBB0BDC01992794
:1022800088274C815D816E817F81840F951FA61FF9
:10229000B71F8C839D83AE83BF8301500B8F83E078
:1022A000E80EF11CF88EEF8A3CC018863AC08C8D7F
:1022B000082E000C990BAA0BBB0BDC019927882771
:1022C000488159816A817B81840F951FA61FB71FA2
:1022D00088839983AA83BB838D8D082E000C990B6C
:1022E000AA0BBB0BDC01992788274C815D816E818D
:1022F0007F81840F951FA61FB71F8C839D83AE839C
:10230000BF8321502B8F0DC0DD2049F2EE85F0E018
:10231000EB5BFE4F03C0F0E0E35CFE4F80818E87F5
:10232000BECFDF91CF911F910F91FF90EF90DF9083
:10233000CF90089590910A0224E0929FF001112419
:10234000E85AF94F8E5E8083675F6183428381E044
:10235000838380916B07815080936B079F5F9F30D1
:1023600019F090930A02089510920A020895DC0170
:102370001B96ED91FC911C973E9685919491FC01E2
:1023800084910895DC011B96ED91FC911C973C967D
:1023900085919491FC01849108950F931F93CF939D
:1023A000DF9300D000D000D0CDB7DEB78C01FC01A8
:1023B00080819181A281B381CD0101969A83898325
:1023C00084819581A681B781CD0101969C838B8301
:1023D000C8010E94C2118D83C8010E94B7112981D2
:1023E0003A814B815C816D81782F80E090E0269668
:1023F0000FB6F894DEBF0FBECDBFDF91CF911F9116
:102400000F9108952F923F924F925F926F927F9219
:102410008F929F92AF92BF92CF92DF92EF92FF92F4
:102420000F931F93CF93DF93CDB7DEB762970FB6AD
:10243000F894DEBF0FBECDBF8A8BA3EB2A2EA6E099
:102440003A2EB6EA8B2EB6E09B2E8EEA96E09F8758
:102450008E87ACEBB6E0B98BA88BE5EBF6E0F9879D
:10246000E887FA89F11105C0D1018C91833029F4F4
:102470001CC0F10180818330C1F4C4010E94951019
:10248000C4010E94CD1129833A834B835C83298147
:102490003A818B819C81AE85BF854C91442329F084
:1024A000A889B9894C91442399F1FEE12F0E311C82
:1024B0002EE1820E911C8E859F854E969F878E877A
:1024C000A889B9895E96B98BA88BE885F9857E962F
:1024D000F987E887F7E62F16F7E03F0611F66296D0
:1024E0000FB6F894DEBF0FBECDBFDF91CF911F9125
:1024F0000F91FF90EF90DF90CF90BF90AF909F90A3
:102500008F907F906F905F904F903F902F900895A5
:10251000A901460F511D141615063CF62038310549
:1025200024F69C01270F311D37FDBFCF8034910564
:102530000CF0BBCFF101F081FF83F33009F031C122
:1025400080915A0790915B07A0915C07B0915D075D
:102550003D01E9E06E0E711C80915E0790915F076E
:10256000A0916007B09161078D01075F1F4FF401D3
:1025700080819181A281B3817D01FDE1EF0EF11C8B
:10258000F40184819581A681B7815D01DD24B7FCCA
:10259000D094CD2CC4010E94B7116E187F08869587
:1025A00090E08A0D9B1D2801481A590A6114710494
:1025B00009F43FC0C201550CAA0BBB0BDC019927E3
:1025C00088276C017D01FF0CCC08DC2C76019C0176
:1025D000AD016C2D7C2D8C2D9C2D00E10E940337CC
:1025E0006301770CEE08FF088601FF24EE245701F3
:1025F0006801DD0CAA08BA2C6501AA86BB86CC86C8
:10260000DD8657016801EA84FE2C0E2D1E2D0E94E6
:102610002E36F22FE32F8F2F9E2FA42FB52FB7FF2B
:102620000CC0B095A095909581959F4FAF4FBF4F2F
:1026300004C080E090E0A7EEB3E014145CF116143F
:1026400074F4AC01BD014150510961097109473071
:102650005A466105710508F059C082E073C06620D2
:1026600071F0AC01BD014150510961097109473058
:102670005A466105710508F058C096E071C08B5F3D
:102680009946A240B10985309649A44EB340C0F5A1
:102690001F8267C0161474F4AC01BD01415051098A
:1026A0006109710947305A466105710598F4B2E035
:1026B000BF8357C06620C9F0AC01BD01415051092C
:1026C0006109710947305A4661057105E8F5E6E090
:1026D000EF8347C0AC01BD0149505A4661097109F9
:1026E000413F5F4F61407105E0F18B5F9946A24029
:1026F000B10986309649A44EB34028F424E013C0B3
:10270000A9E0AF832EC0F9E0FF832BC0AC01BD016F
:1027100049505A4661097109413F5F4F6140710557
:1027200008F0ADCF21E02F831CC0AC01BD014950A2
:102730005A4661097109413F5F4F6140710508F0D8
:102740009ECF87E08F830DC0AC01BD0149505A4632
:1027500061097109413F5F4F6140710530F695E0B5
:102760009F83A885B9858C91BF81B930B9F0B8171E
:10277000A9F09F81692F70E0482F50E09B01241B36
:10278000350BF90133963797A8F512161306D4F1D5
:10279000932F991F9927991F09F04BC0E885F98558
:1027A0008083D401CD90DD90ED90FC90139714962A
:1027B0004D905D906D907C901797EE85FF858081A0
:1027C000882309F472CEA889B9898C9181116DCEC4
:1027D0006701FF24D7FCF094EF2C8601C4010E940E
:1027E000C21190E08C0D9D1D97FD5FCE0038110544
:1027F00034F15BCE9B01285F3F4F241B350B121633
:1028000013067CF4873011F08F5F01C080E0482F01
:1028100050E09B01241B350BF9013396379708F4E0
:10282000B7CF28EF3FEF241B350B620F731F972F95
:10283000B0CF882311F08150B1CF87E0AFCF230113
:10284000772457FC7094672CD4011B964D915C91B2
:102850001C97E885F9853197E081F0E03896CF0143
:10286000880F991FFA01E80FF91F25913491FC0197
:102870007097E40FF51F45915491B201C6010E9473
:10288000401FF1018081833031F4A885B985EC9136
:10289000E63009F083C0F401818592851816190687
:1028A0000CF44AC080549109928781872285822F37
:1028B000022E000C990B97FF03C091958195910909
:1028C0002F3FD4F42D3F1CF52C3F09F035C0D40127
:1028D0001B968D919C911C97FC01BE96259134917D
:1028E000FC01B69645915491B201C6010E94401F69
:1028F000EE85FF85108220C01216F4F0D4011B96DD
:102900004D915C911C97FC017496CF0104C0F401B9
:10291000438554854496880F991FFA01E80FF91FE3
:1029200025913491FC013897E40FF51F459154919E
:10293000B201C6010E94401FD40152968D919C9114
:102940005397181619060CF0B0CD923071F09330F1
:1029500011F09130D9F4F40183859485FC01B89687
:1029600025913491FC01B0960BC0D4011B968D913A
:102970009C911C97FC01BA9625913491FC01B2966A
:1029800045915491B201C6010E94401FF401828911
:10299000938980549140938B828B87CDD4011B9671
:1029A0004D915C911C97F0E03896CF01880F991FEC
:1029B000FA01E80FF91F25913491FC017097E40F9B
:1029C000F51F45915491B2016D5F7F4FC601489646
:1029D0000E94401F60CFFC0110821182128213827C
:1029E00014821582168217821286118654874387B5
:1029F000138A128A6587108683E0848B138E86E0A3
:102A0000878708957F928F929F92AF92BF92CF92C5
:102A1000DF92EF92FF920F931F93CF93DF93CDB787
:102A2000DEB76E970FB6F894DEBF0FBECDBFB82EDF
:102A3000882349F081E08093D901FB018491809340
:102A4000EF0180930C028091D90191E0980F90934F
:102A5000D901FB01E80FF11D6491E62FEF70E093BF
:102A60000B02862F807C80930D02607360930E02B0
:102A7000F0E0EE0FFF1FEB58FE4F0190F081E02DCC
:102A80001092AE061092CC061092EA061092080739
:102A90001092260710924407849006EAE02E06E082
:102AA000F02E8F010E5F1F4F8CEBC82E86E0D82EC4
:102AB000912C9EE1A92E25E0722E981409F480C075
:102AC000F8013197E491E130E1F0B8F0E23049F1FA
:102AD000E33059F542EB50E163E0CE0101960E94EC
:102AE000EB14FE013196D7018A2D01900D928A9543
:102AF000E1F7F6013797708218C04EEE5FE160E0B3
:102B000003C042E151E161E0CE0101960E94EB1465
:102B1000FE013196D7018A2D01900D928A95E1F739
:102B200004C042EE50E162E0EFCFF8018491E82F5B
:102B3000F0E0EE0FFF1FEB5AFE4F80819181D7012D
:102B40005A969C938E93599758961C921E9257971B
:102B5000F8013196E491D6011697EC93F80132967C
:102B6000E4911196EC93F8013396E491D601EC933D
:102B7000F8013496E491F60131971082F801359608
:102B8000E491F8013696E491D70119961C921997B1
:102B90001A96EC931A9753961C921E925297F6012E
:102BA0003E9781E08083C7010E9495109394BEE117
:102BB000EB0EF11C085F1F4FEEE1CE0ED11C7DCF56
:102BC0008091EF0181508093EF01BB2009F474C024
:102BD0008091040290E0FC01EE58FE4F208160914C
:102BE000000170910101620F711D27FD7A957093AC
:102BF000010160930001FC01E159FE4F2081022E8A
:102C0000000C330B4091020150910301420F531FFE
:102C1000509303014093020140910401509105013A
:102C2000240F351F309305012093040120910A01E0
:102C300030910B012130F5E23F076CF0FC01EE0F03
:102C4000FF1FE759FE4F40815181241B350B309304
:102C50000B0120930A0120910601309107012130D8
:102C600047E034076CF0FC01EE0FFF1FED59FE4FFB
:102C700040815181241B350B3093070120930601BD
:102C800020910801309109012130A7E03A076CF04A
:102C9000880F991FFC01E35AFE4F80819181281B08
:102CA000390B3093090120930801772788EE93E0D0
:102CB0000E941236609377076E960FB6F894DEBFC7
:102CC0000FBECDBFDF91CF911F910F91FF90EF907D
:102CD000DF90CF90BF90AF909F908F907F9008959E
:102CE000CF92DF92EF92FF920F931F93CF93DF93D8
:102CF0006C017A018B01C0E0D0E0CE15DF0589F0D0
:102D0000D8016D918D01D601ED91FC910190F0817A
:102D1000E02DC6010995892B11F47E0102C0219690
:102D2000ECCFC701DF91CF911F910F91FF90EF90F2
:102D3000DF90CF90089580911802E0911602F091F3
:102D40001702882349F0CF010296909317028093CF
:102D50001602859194910895CF01029690931702DF
:102D600080931602808191810895CF92DF92EF9235
:102D7000FF920F931F93CF93DF930E949B168115B1
:102D800020E8920761F4809171008D7F809371003B
:102D900010929100469847981092EE018BC021E066
:102DA0002093EE01813020E8920751F480911402C3
:102DB0009091150290931702809316020E949B1621
:102DC00097FD05C020911302222309F43FC02091F2
:102DD000120221113BC021E020931902EC01DF77A0
:102DE000209769F481E080931A0246983FE9C32E48
:102DF0003FE0D32EE12CF12CCAEFD0E014C08E01BD
:102E000020E030E060E472E48FE090E0A9019801F6
:102E10000E94F13369017A0181E0C81AD108E10802
:102E2000F10810921A02E0912E06F0912F060995F2
:102E3000811103C081E080931A02809119028823D6
:102E4000B9F180911A02811133C003C010921902A6
:102E5000C5CF46992DC0479A0E949B16009771F0E6
:102E60009C01DE010E944534DC01CB0129E0B595CF
:102E7000A795979587952A95D1F703C08FEF9FEF78
:102E8000DC01109290002AE020939100D0929900EA
:102E9000C092980080931B0290931C02A0931D0285
:102EA000B0931E028091710082608093710002C015
:102EB0004798D2CFDF91CF911F910F91FF90EF9064
:102EC000DF90CF9008958091D801089508950895D6
:102ED00080E090E00895813021F0873021F083E098
:102EE00003C080E001C086E0613029F0673011F452
:102EF0008E5F08958F5F08950E941C37CF93DF93F4
:102F000000D000D0CDB7DEB7611571058105910500
:102F100079F09B01AC0169833A834B835C830E9407
:102F2000CD3329813A814B815C810E94F13303C00A
:102F300060E070E0CB010F900F900F900F90DF9149
:102F4000CF910895CF92DF92EF92FF920F931F934C
:102F5000621773078407950784F489019A016B014E
:102F60007C01C901B8016C197D098E099F090E9475
:102F70007E176C0D7D1D8E1D9F1D1F910F91FF9063
:102F8000EF90DF90CF9008953FB7F89480912002A2
:102F900090912102A0912202B091230226B5A89B14
:102FA00005C02F3F19F00196A11DB11D3FBFBA2FDB
:102FB000A92F982F8827820F911DA11DB11DBC013B
:102FC000CD0142E0660F771F881F991F4A95D1F700
:102FD00008958F929F92AF92BF92CF92DF92EF921D
:102FE000FF926B017C010E94C4174B015C01C1146C
:102FF000D104E104F104F1F00E94C417DC01CB011B
:1030000088199909AA09BB09883E9340A105B10511
:1030100070F321E0C21AD108E108F10888EE880EA9
:1030200083E0981EA11CB11CC114D104E104F10479
:1030300019F7DDCFFF90EF90DF90CF90BF90AF906A
:103040009F908F9008951F920F920FB60F921124A8
:103050002F933F938F939F93AF93BF9380912802B9
:1030600090912902A0912A02B0912B0230911F0267
:1030700023E0230F2D3720F40196A11DB11D05C0BB
:1030800026E8230F0296A11DB11D20931F028093F5
:10309000280290932902A0932A02B0932B028091D8
:1030A000200290912102A0912202B0912302019668
:1030B000A11DB11D8093200290932102A0932202B2
:1030C000B0932302BF91AF919F918F913F912F9128
:1030D0000F900FBE0F901F9018951F920F920FB672
:1030E0000F9211242F933F934F935F936F937F938E
:1030F0008F939F93AF93BF93EF93FF9380911B02A6
:1031000090911C02A0911D02B0911E02892B8A2B66
:103110008B2B81F180911A0281110BC098B180E450
:10312000892788B980911902882319F088B18058BD
:1031300088B980911B0290911C02A0911D02B09150
:103140001E02181619061A061B06B4F480911B02FB
:1031500090911C02A0911D02B0911E020197A1093D
:10316000B10980931B0290931C02A0931D02B0939F
:103170001E0202C00E94B516FF91EF91BF91AF9160
:103180009F918F917F916F915F914F913F912F917F
:103190000F900FBE0F901F9018959C01E1E7F0E093
:1031A00090819D7F908381E0809318023093170275
:1031B0002093160230931502209314020C94B51636
:1031C000EF920F931F933AEFE32E00E010E00E947E
:1031D000261D1F910F91EF900895EF920F931F936B
:1031E00032E0E32E00E010E00E94261D1F910F91B7
:1031F000EF9008958FB18095807F669B88601C9BBF
:103200008460089560387105D0F440345105B8F4F5
:10321000EAEAF8E180E1849FD001A0781124A60FAA
:103220004770E40FF11D8491A25DBD4F222319F078
:103230006C91862B03C080956C9186238C930895A6
:103240000C94DB33CF93DF930E9490208823E1F32B
:103250008091050220E0843059F448E158E162E0B1
:1032600070E08AE690E00E94ED18C0E0D0E007C070
:1032700045EE57E168E070E080E790E0F4CF21E0B0
:10328000AE0166E670E080E797E00E9402192196A1
:10329000C134D105A1F7C0E0D0E021E0AE016FE775
:1032A00070E080E797E00E9402192196C134D105B1
:1032B000A1F7DF91CF9108950F931F93CF93DF93E1
:1032C0001F92CDB7DEB78C0179830E94E3337981F9
:1032D000672FC80101960F90DF91CF911F910F9139
:1032E0000C94E3336F927F928F929F92AF92BF9232
:1032F000CF92DF92EF92FF920F931F93CF93DF93C2
:10330000B82E0AED11E05CEDE52E51E0F52EE70157
:103310006801812C912CC40186529E4F3C01FC0116
:103320002381223029F150F4222341F12130B1F5DB
:10333000688170E020E041ED57E12BC0233021F19E
:103340002650233058F5688170E04CE557E1F601CE
:10335000808191810E94E018F301248126506881C8
:1033600070E0F6018081918147E257E1419614C0F7
:10337000688170E020E04DEB57E10BC0688170E0A0
:1033800020E049EA57E105C0688170E020E041E9AA
:1033900057E1F601808191810E94E018F5E08F0EDF
:1033A000911C25E0C20ED11C259684E1881691045B
:1033B00009F0B1CFC12CD12CC0E0D0E0DE01A65085
:1033C000BE4F1196EC911197EE23B1F0F0E0EE0FA5
:1033D000FF1FE95EF84E459154916C91062E000C4A
:1033E000770B6C5171098091110220E0F601E81B06
:1033F000F109CF010E94E018DE01A051BE4F1196E5
:10340000EC911197EE23B1F0F0E0EE0FFF1FE95FB2
:10341000F84E459154916C91062E000C770B605C30
:103420007F4F8091110220E0F601E81BF109CF01E6
:103430000E94E0182296F0E2CF0ED11CCA30D105CE
:1034400009F0BCCFB11032C1CDEDD1E082EAC82E77
:10345000D12C96E0A92E25E0922EF8018081918151
:103460000197918380838A3C9F4F0CF077C08091B5
:103470000502843009F472C0F801D182C082BB20F9
:1034800019F03297808102C08091EC01863028F4D7
:1034900068E170E080E090E004C065E170E080E009
:1034A00090E00E947E17962F969596952091F601B2
:1034B000E0910002953030F0862F692D0E94F235A0
:1034C0009C5F12C0933080F49883245C203224F0F7
:1034D0002F321CF02EE201C020E2022E000C330B32
:1034E000440B550BEC5F13C08CEF890F8230B8F49E
:1034F0009883245B203224F02F321CF02EE201C08E
:1035000020E2022E000C330B440B550BE051E2304D
:1035100024F0E132D4F0E0E218C0E2E016C0A88264
:10352000A982245C253124F02D311CF02CE101C04E
:1035300025E1022E000C330B440B550BEC5FE531FB
:1035400014F0E4E102C0E7FDE0E06E2FEE0F770B30
:10355000880B990B0E94A217F7016083B3940B5F4D
:103560001F4FF5E0EF0EF11C259624E0B21275CF47
:10357000809111028F5F803219F08093110296C002
:1035800010921102EAEFF1E0A0EFB1E082819381A5
:103590008193919312968D919C9113978D939D9306
:1035A00082E0E230F80791F7C091F80180910E02B5
:1035B000803149F018F4882331F016C0803231F0A0
:1035C000803349F011C0C53194F002C0C03F94F47B
:1035D00027E062E013C0C03F24F0C5316CF461E025
:1035E00001C062E028E00AC020E060E007C028E0F7
:1035F00067E004C022E001C027E061E030E040E085
:1036000050E070E080E090E00E94A217862F609367
:10361000F9016091F7010E946B17E82FF0E0E05587
:10362000FE4F8081C80FC093F801C09102028091C3
:103630000D02803449F018F4882349F016C0803810
:1036400031F0803C49F011C0C53194F002C0C03F58
:1036500094F427E062E013C0C03F24F0C5316CF45D
:1036600061E001C062E028E00AC020E060E007C03D
:1036700028E067E004C022E001C027E061E030E01C
:1036800040E050E070E080E090E00E94A217862FBA
:1036900060930302609101020E946B17E82FF0E033
:1036A000E955FE4F8081C80FC0930202DF91CF9190
:1036B0001F910F91FF90EF90DF90CF90BF90AF9050
:1036C0009F908F907F906F900895CF93DF93C82F36
:1036D00088EC90E00E942019D82F89EC90E00E949D
:1036E0002019D43321F4833311F4CC2331F164E372
:1036F00070E088EC90E00E945C1963E370E089EC74
:1037000090E00E945C1960E070E08AEC90E00E941A
:103710005C1960E070E08CEC90E00E945C1960E065
:1037200070E08EEC90E00E945C1960E070E080ED4B
:1037300090E0DF91CF910C945C19DF91CF910895C7
:10374000CF93DF9380912C0290912D0201968F31BF
:10375000910528F490932D0280932C0204C01092BE
:103760002D0210922C0280910F029091100201966E
:10377000813921E0920728F49093100280930F0280
:1037800004C01092100210920F02C0916707D091EE
:10379000680720E448E060E070E088E790E00E947D
:1037A0009E1F20E430E049E750E060E070E089E7E8
:1037B00090E00E94DA1F20E040E057E160E070E016
:1037C0008BE790E00E94ED18CE0164E670E00E9465
:1037D000FE35EC01660F771FFB01ED56FE4F408171
:1037E000518120E066E070E08BE790E00E94ED18E8
:1037F000CE016AE070E00E94FE35EC01660F771F93
:10380000FB01ED56FE4F4081518120E06BE070E0FE
:103810008BE790E00E94ED18CC0FDD1FCD56DE4FF8
:103820004881598120E060E170E08BE790E00E94E0
:10383000ED1880910F029091100268EC70E00E94E8
:10384000FE356115710521F061307105F1F040C060
:10385000809163079091640797FD02C0292F01C0F2
:1038600020E04EE169EF76E187E10E945F208091E0
:103870006C0790916D0797FD02C0292F01C020E0D1
:1038800043E362EF76E18EE215C080916F078823F3
:1038900031F080912C0290912D020F9778F4809155
:1038A0006B072BEA829F212D1124269547E264EEB7
:1038B00076E182E2DF91CF910C945F2020E04BEE25
:1038C00056E168E170E08BE790E00E94ED18E7CFE9
:1038D000DF91CF9108952FB7F89483E08093E900AA
:1038E0009091E800892F807295FF04C09091F200BA
:1038F00080E4891B2FBF0895CF93DF931F92CDB72C
:10390000DEB76983DC01ED91FC910280F381E02D4B
:1039100041E050E0BE016F5F7F4F09950F90DF914E
:10392000CF91089583E08093E9008091F20088238D
:1039300019F08AE38093E80008950E946B1C90E0E0
:1039400008958F929F92AF92BF92CF92DF92EF92A3
:10395000FF920F931F93CF93DF935C016B017A016A
:1039600080911601882309F45BC080912702882387
:1039700009F456C08091250280FF05C08091E000C7
:1039800082608093E000E70110E00AEF83E0882E78
:103990009AE3992E2097D9F10E946B1C81110AC0DD
:1039A000015009F43DC061E070E080E090E00E94C9
:1039B000E917F0CF282F30E0C217D3070CF48C2F73
:1039C0004FB7F8948092E9009091E80095FF1DC0F0
:1039D000282F30E0C21BD30BF601982F915020F016
:1039E00081918093F100FACFC20ED31E112319F0FA
:1039F0009092E80009C08091E80085FD06C0909291
:103A0000E80011E0209709F010E04FBFC3CF11117B
:103A1000C3CF5D9884E6809324021E141F0444F0F3
:103A200081E090E0F5019383828380E090E001C023
:103A3000C701DF91CF911F910F91FF90EF90DF9021
:103A4000CF90BF90AF909F908F9008956F927F928C
:103A50008F929F92AF92BF92CF92DF92EF92FF929E
:103A60000F931F93CF93DF9300D000D0CDB7DEB775
:103A7000DC014B017E2D4115510509F4EEC1FA011F
:103A80006491319694915A01F2E0AF0EB11CC62EAA
:103A9000D12C222309F1492F469546954695E42FCE
:103AA000F0E041E050E0892F877011F440E050E0F1
:103AB0004E0F5F1FC49EF001C59EF00DD49EF00D09
:103AC0001124733011F4EE0FFF1F2E9FA0012F9FC2
:103AD000500D1124A40EB51E7F3F31F401151105C0
:103AE00011F071E001C072E0AD014C0D5D1D1416C6
:103AF00015060CF0B2C1A038B1050CF0AEC19401AE
:103B0000290F311D121613060CF0A7C180E4881688
:103B100091040CF0A2C1A114B10409F49EC1382D86
:103B20003770F40197FC379623E0F595E7952A95D1
:103B3000E1F72E2F97FE04C0332311F02FEF2E0F45
:103B4000B7FF05C0EE27FF27EA1BFB0B02C0E0E032
:103B5000F0E04038510524F050E85A1B952E01C082
:103B6000962E9E1AE22E022E000CFF082F3F1CF408
:103B70005E2D509501C050E041E0892F877009F417
:103B800040E0969596959695490FE40EF11C99E0C4
:103B9000E916F10414F048E0421BF42EF51A250F43
:103BA00040E82403A00DB11D1124AE0FBF1F569F86
:103BB000E00DF11D1124A5014E0F5F1F81E090E083
:103BC0005C01032E02C0AA0CBB1C0A94E2F77330FE
:103BD00009F400C1A0F4713009F4B3C0723009F0E7
:103BE0003CC18FEF8A9DB0018B9D700D11246095B3
:103BF00070957C836B837C806F2C620E29C07A3F2A
:103C000029F07B3F09F029C1F20E87C0F20E51C0A6
:103C1000FA01E00FF11FE491EA9D7001EB9DF00CB9
:103C20001124FA82E98227FD07C0FC01F080EF2D04
:103C3000E623EE2AFC01E082311113C00F5F1F4F13
:103C40000196091528F32F5F4C0D5D1DA058BF4F3D
:103C5000261509F402C1CD01825D9D4F00E010E000
:103C6000F0CF27305CF7FC01E058FF4FE080E72001
:103C70008A80E828E082E2CFFA01E60FF71FE4919C
:103C8000EA9D8001EB9D100D11241A83098327FD05
:103C900004C0FC011081012B0083311113C06F5F40
:103CA0007F4F0196691540F32F5F4C0D5D1DA058A5
:103CB000BF4F2F1509F4D1C0CD01825D9D4F60E04B
:103CC00070E0F0CF27305CF78C0100581F4FF801EF
:103CD000E080FA81EF2AF801E082E1CFFA01E00FFB
:103CE000F11FE491EA9DC001EB9D900D11249A8390
:103CF000898327FD05C08095FB01908189238083FE
:103D0000311114C00F5F1F4F6F5F7F4F091530F3E4
:103D10002F5F4C0D5D1DA058BF4F2F1509F49DC09E
:103D2000BD01625D7D4F00E010E0F0CF273054F719
:103D3000FB01E058FF4F8A81809590818923808321
:103D4000E1CF0E0F1F1F8F2C820E281509F485C09E
:103D5000CD01825D9D4F7C0160E070E0691590F5BA
:103D6000F801E60FF71FE491EA9DC001EB9D900D6D
:103D70001124809590959C838B83FA01E60FF71FA1
:103D8000E491EA9D3001EB9D700C11247A826982E6
:103D900027FD05C0F70190818923682A60823323BB
:103DA00059F027304CF4F701E058FF4F90818C8197
:103DB00089239A81892B80836F5F7F4FFFEFEF1AF2
:103DC000FF0ACCCF2F5F4C0D5D1D0C0D1D1DA058A3
:103DD000BF4FBBCF892D90E0E40FF51FA25DBD4F13
:103DE00060E870E0681B790BC81AD90A8601000FD9
:103DF000111F592D4F2D792CE32ECF93DF93ED0119
:103E0000EF96EF9622968590C590EE2059F08A9C09
:103E10004001CA9C600127302CF4F880D094FD202A
:103E2000F928F99222233AF0FC90C094FC20F8285B
:103E3000FD920C941C1F11965A9529F74A9551F042
:103E4000572D23951124E00FF11DA60FB11DC60FAC
:103E5000D11DD9CFDF91CF9111240F900F900F90EA
:103E60000F90DF91CF911F910F91FF90EF90DF9016
:103E7000CF90BF90AF909F908F907F906F9008955C
:103E8000EF920F931F93EE24E394890120E00E94A8
:103E9000261D1F910F91EF900895CF93DF9300D0CF
:103EA00000D000D0CDB7DEB7EAE5F7E080819181A0
:103EB000A281B381CD010196282F9A8389838481C1
:103EC0009581A681B781CD010196482F9C838B8374
:103ED00083859485FC0165917491FB016491625026
:103EE000FC0185919491FC013196749172503A8154
:103EF0005C8180E090E026960FB6F894DEBF0FBE9E
:103F0000CDBFDF91CF91089520917607282329F422
:103F100090917507982381E009F480E00895EEE21E
:103F2000F2E0A0E0B8E000800EBC8111012C1197F6
:103F3000A0FDFDCF0192B9F70DB40895AF92BF92E5
:103F4000CF92DF92EF92FF920F931F93CF93DF9365
:103F50007B01EC015C01A40EB11C6B01C20ED11CF3
:103F6000CA15DB05E4F48701F7FE0FC000E010E09E
:103F70000CC0081719078CF420E0A801BE0180E7E7
:103F800097E00E9402190F5F1F4FC60121E4C2167D
:103F9000D1047CF380E490E0ECCF2196E1CFDF9177
:103FA000CF911F910F91FF90EF90DF90CF90BF9036
:103FB000AF9008955F926F927F928F929F92AF928F
:103FC000BF92CF92DF92EF92FF920F931F93CF9306
:103FD000DF93EC018B017A01A901461B570B57FFB8
:103FE00003C0519541955109C7018C1B9D0B97FF4B
:103FF00003C0919581959109552453948417950791
:1040000014F0512C0AC09E2D8F2D7901292F382FA5
:104010009C2F8D2FE801092F182FEC16FD0654F464
:10402000902F812F8901292F382F9C2F8D2FE70169
:10403000E92EF82E37016C1A7D0A5901A01AB10A2F
:10404000B7FE03C0B194A194B108630177FE03C029
:104050008FEFC81AD80AD594C7940217130714F023
:104060008FEF01C081E0882E880F9908EC16FD06BD
:10407000B4F021E0552019F0AE01B80102C0A8014A
:10408000BE0180E797E00E940219CA18DB08D7FE3C
:1040900004C0080D191DC60CD71C2196E7CFDF916F
:1040A000CF911F910F91FF90EF90DF90CF90BF9035
:1040B000AF909F908F907F906F905F9008950F9337
:1040C0001F93CF93DF93042FD22F90E020E0AB011A
:1040D000BC018BE790E00E94ED18D53030F4809160
:1040E0002C0290912D020F9780F0C0E010E0CD17C8
:1040F00060F4B8016C0F711D9B0140E850E08BE744
:1041000090E00E94DA1FCE5FF2CFDF91CF911F9136
:104110000F91089565E070E080E090E00C94E9175D
:104120008FB7F894409128025091290260912A0299
:1041300070912B028FBF80917807942F981B8091EC
:104140007907882331F090937A071092790780E0FD
:10415000089520917707921740F49F5F9217A0F47B
:1041600091E093BF889513BE089581E0809379070D
:10417000409378078091730790917407019690930C
:1041800074078093730781E00895FC0180912702F2
:10419000811103C08FEF9FEF08959FB7F89482E0DD
:1041A0008093E9002091F20030E01216130614F417
:1041B00021E030E02115310559F0289884E68093FC
:1041C00026028091F10080838091F200882319F00B
:1041D0009FBFC90108958BE68093E800F9CF8091D5
:1041E0007F0781110DC082E080937B0784E080937C
:1041F0007C0710927E0710927D0781E080937F07F5
:104200008BE797E00895FC018485958597FD0BC0A9
:104210009FB7F89482E08093E9008091F2009FBFFD
:1042200090E0019608959FB7F89482E08093E900AA
:104230008091F2009FBF90E008954091E90750916E
:10424000EA072091E7073091E80742175307B4F4D3
:104250009091E8009570E1F39091E80092FD19C00B
:104260008093F1008091E9079091EA0701968F739E
:104270009927892B19F48EEF8093E8008091E90744
:104280009091EA0701969093EA078093E90781E00D
:10429000089580E00895DF92EF92FF920F931F93AD
:1042A000CF93DF93D82E8A017B01E40EF51EEB013C
:1042B000CE15DF0571F0D7FE03C0FE01849101C069
:1042C00088810E941D2121968111F2CF8FEF9FEFEF
:1042D00001C0C801DF91CF911F910F91FF90EF9026
:1042E000DF900895615030F02091F100FC012083AF
:1042F0000196F8CF289884E6809326020895CF93FC
:10430000DF931F92CDB7DEB7FC018485958597FDBD
:1043100005C02FEF3FEF358724870BC0CE010196F4
:104320000E94C520019719F4898190E002C08FEFA7
:104330009FEF0F90DF91CF9108950F931F93CF932D
:10434000DF931F92CDB7DEB78C01FC018485958584
:1043500097FF0EC0CE0101960E94C520019719F467
:10436000298130E002C02FEF3FEFF8013587248725
:10437000F801848595850F90DF91CF911F910F9162
:1043800008950F931F93CF93DF931F92CDB7DEB79E
:1043900082E0898342E450E06EE570E280E80E94AA
:1043A0004B210E94EF20DC0112960D911C91139776
:1043B0000115110569F0D801ED91FC910280F3819E
:1043C000E02DBE016F5F7F4FC801099597FF07C0C1
:1043D00089810F90DF91CF911F910F910895F8017E
:1043E00000851185E5CF1F920F920FB60F92112411
:1043F0008F939F938091E1009091E100937F909340
:10440000E10083FF0FC01092E90091E09093EB0070
:104410001092EC0092E39093ED001092270298E046
:104420009093F00082FF20C093E09093E900909178
:10443000F200992319F09AE39093E80090912402F6
:10444000992339F09091240291509093240299235A
:1044500089F190912602992339F09091260291508A
:1044600090932602992341F184FF10C08091E200CD
:104470008E7E81608093E2008091E1008F7E809348
:10448000E100809125028E7E806111C080FF16C000
:104490008091E2008E7E80618093E2008091E10055
:1044A0008E7E8093E100809125028E7E81608093D4
:1044B000250204C05D9ACDCF289AD6CF9F918F91C7
:1044C0000F900FBE0F901F9018951F920F920FB66E
:1044D0000F921124CF92DF92EF92FF920F931F93CE
:1044E0002F933F934F935F936F937F938F939F93FC
:1044F000AF93BF93EF93FF93CF93DF93CDB7DEB727
:104500006C97DEBFCDBF1092E9008091E80083FF79
:10451000EDC168E0CE0145960E94722182EF809342
:10452000E8008D8987FF05C09091E80090FFFCCFDF
:1045300003C09EEF9093E800982F907609F0C6C0D4
:104540009E892F89188D91110CC0803829F4809193
:10455000E6078093F10002C01092F1001092F10082
:1045600048C1422F50E0512B913051F4811141C18B
:104570004130510509F03DC18091E6078D7F0BC0A8
:10458000933061F4811135C14130510509F031C1D9
:104590008091E60782608093E6072BC1953041F455
:1045A0008091E80080FFFCCF20682093E30021C1C8
:1045B000963009F05FC0EB8CFC8C1092E9001092F1
:1045C000EA071092E907123091F51092E80710926D
:1045D000E7070E94C12199E0BE016F5F7F4FDB01B9
:1045E000E92F1D92EA95E9F799831A8391E09E835A
:1045F00090EA98879AEF99872091E9073091EA0726
:10460000275F3F4F3C832B838D831092E9001092EC
:10461000EA071092E907F092E807E092E70749E01D
:1046200050E080E00E944B210E94C121E2C0F09244
:10463000E807E092E7070E94EF20DC011296ED9078
:10464000FC901397E114F10409F4C0C0D701ED9177
:10465000FC910480F581E02DBE016B5E7F4FC701A8
:104660000995009719F00CF0C4C0C7C0F701E084A9
:10467000F184E8CF973009F4C0C0983021F481E08C
:104680008093F100B6C0993009F0B3C0837009F08F
:10469000B4C0E2EDF1E081E021E036E390819923BE
:1046A00061F08093E9002093EB0091919093EC00EE
:1046B0003093ED008F5F873089F78EE78093EA00B3
:1046C0001092EA008F898093270293C08B8D9C8D76
:1046D0001092E9001092EA071092E9079093E80718
:1046E0008093E707898D811156C08E899D89913A03
:1046F00059F4813209F081C047E050E06FE071E089
:1047000080E00E944B2175C0913209F076C083325F
:1047100089F4888D90E0982F88272F89822BA0E03C
:10472000B0E08093170190931801A0931901B09302
:104730001A015FC0803269F48091E80082FFFCCFEB
:1047400067E08FE091E00E9472218BEF8093E80098
:1047500006C0823209F04DC08F8980931601809186
:10476000E507882319F0EEEFFAE002C0E0E0F8E098
:1047700080910F0190911001A0911101B09112014F
:10478000803B9440A105B10509F07BC080911601E2
:1047900080FF93C076C00E94EF20DC0112960D913D
:1047A0001C9113970115110541F1D801ED91FC9170
:1047B0000190F081E02DBE016B5E7F4FC80109952D
:1047C000811117C0F80100851185ECCF113009F473
:1047D0004EC0133091F48F89882309F445C082308C
:1047E00081F440E860E182EC90E20E944233882349
:1047F00021F08EEF8093E80079C081E28093EB0096
:1048000075C0813029F440E86BE086EB90E2EDCF93
:10481000833099F70E94EF20DC011296ED90FC9016
:1048200013978E010F5F1F4F6801E114F10479F0B7
:10483000D701ED91FC910680F781E02DB801C70109
:104840000995080F111DF701E084F184EECFD8011E
:104850001C92F60101900020E9F73197BF016C1915
:104860007D0940E0C601C1CF60EA70E202C064EA9F
:1048700070E26115710509F2FB01449150E080E896
:1048800040CF0FB6F894A89580916000886180931E
:104890006000109260000FBEA895EE3F2AE0F2077C
:1048A00039F08091FE0A9091FF0A91838083A1CF15
:1048B0001092FF0A1092FE0A9CCFEE3F8AE0F807A2
:1048C00031F0808191819093FF0A8093FE0A87E7FF
:1048D00097E7918380839BE088E10FB6F894A895D1
:1048E000809360000FBE9093600083CF6C960FB6EC
:1048F000F894DEBF0FBECDBFDF91CF91FF91EF9156
:10490000BF91AF919F918F917F916F915F914F91E7
:104910003F912F911F910F91FF90EF90DF90CF90DB
:104920000F900FBE0F901F901895CF93DF93CDB7C8
:10493000DEB7A7970FB6F894DEBF0FBECDBF789451
:1049400084B5826084BD84B5816084BD85B5826094
:1049500085BD85B5816085BD80916E008160809345
:104960006E001092810080918100826080938100AE
:1049700080918100816080938100809180008160BE
:10498000809380008091910082608093910080915B
:10499000910081608093910080919000816080936C
:1049A00090008091C10084608093C1008091C1001B
:1049B00082608093C1008091C10081608093C100BA
:1049C0008091C30081608093C3008091C0008260A9
:1049D0008093C0008091C20081608093C20080916A
:1049E0007A00846080937A0080917A00826080935C
:1049F0007A0080917A00816080937A0080917A00B9
:104A0000806880937A00109227021092E607109235
:104A100025028091D70081608093D70080EA80933F
:104A2000D80089B5806189BD89B5826089BD09B426
:104A300000FEFDCF61E070E080E090E00E94E917A9
:104A40008091D8008F7C80618093D8008091E000B5
:104A5000807F8093E0008091E1008E7E8093E10072
:104A60008DE08093E200559A209AEEEFFFE7859162
:104A700094918B3F9C4D19F481E08093E50780E091
:104A80000E94651B81EC80937C0085B1806F85B9A5
:104A900084B1877E84B984B1876E84B95E9A5F9849
:104AA0008AB1806D8AB9769A6E9881B3806F81BB26
:104AB000899880B38D7080BB80E58CBD81E08DBD11
:104AC0000E948A205F9A0E948A205E985C98EAE39E
:104AD000F1E08DE08E0F94919EBD00000DB407FEB5
:104AE000FDCF31968E13F7CF5C9A81E880936400F6
:104AF000809165008160809365000E94FA1887FFAD
:104B000015C05C9885EA8EBD00000DB407FEFDCF90
:104B10005C9A2E982F982D988091640080628093E3
:104B2000640081E083BF889513BEFCCF82E090E0F3
:104B30000E94DB33882331F03E9A3F9A81E08093D4
:104B4000D80104C01092D8013E983F988DE790E0BC
:104B500090930301809302018CE291E09093050110
:104B60008093040180E09BE490930B0180930A0101
:104B700080E09EE0909307018093060190930901E5
:104B80008093080182E390E09093010180930001FB
:104B900080ED90E00E9420198093040284E18093CC
:104BA0007707809164008E7F8093640080917A0003
:104BB000806480937A0080917A0086FDFCCF00911A
:104BC0007800109179000E94C41720E030E098012D
:104BD00011270027600F711F821F931F6115710538
:104BE0008105910511F00E94D233809164008160AB
:104BF00080936400AE014F5F5F4F5A8F498F0E94D0
:104C00009020882311F40C94E82F80E0EEE2F2E08B
:104C100081118FEF00248193819381938193039479
:104C2000D1F780917507809376070E94FA188093D8
:104C3000750780910502823009F411C138F4882388
:104C400071F0813009F46AC00C94E82F833009F4C4
:104C50008BC1863010F40C94F92E0C94E82F10922E
:104C600009021092D90180EE9FEF90930802809381
:104C7000070211E01093050287E491E00E94CD182D
:104C800010926A071092690710926F0780E09EE009
:104C900090936D0780936C079093640780936307EC
:104CA0002BE420936B07109268071092670710920D
:104CB0006E0710936207A12CB12C6501C394A092DA
:104CC0005A07B0925B07C0925C07D0925D0720E064
:104CD00030E048E150E020935E0730935F07409357
:104CE0006007509361072DE730E030930301209374
:104CF00002012CE231E0309305012093040120E011
:104D00003BE430930B0120930A01909307018093B9
:104D1000060190930901809308011BC100910702CD
:104D20001091080220E04DE253E0B80186E590E0E2
:104D30000E94ED1820E04BEC52E063E070E08EE062
:104D400090E00E94ED1866E470E0601B710B20E0BB
:104D500049EE5AE187E390E00E94ED1864E370E0C9
:104D6000601B710B20E049EE5AE189E290E00E945D
:104D7000ED186EE170E0601B710B20E049EE5AE126
:104D800082E390E00E94ED1820E04DE952E063E0FC
:104D900070E080E090E00E94ED18E0900402FF24B3
:104DA000F394FE0C2F2D49EC59E065E270E082E0AF
:104DB00090E00E94ED18015011090E373FEF1307E4
:104DC0002CF0109308020093070206C080E590E0E3
:104DD000909308028093070281E00E948F1F80E475
:104DE0000E94841F882399F041E04E1510F0F09244
:104DF00004026091040280ED90E06FA30E94DB3317
:104E00006FA1681721F080ED90E00E94E33380E20B
:104E10000E94841F8823A9F080910402882319F03E
:104E20008150809304026091040280ED90E06FA3B2
:104E30000E94DB336FA1681721F080ED90E00E94A3
:104E4000E33388E00E94841F882311F40C94E82F38
:104E500082E080930502109209020C94E82F1092D0
:104E6000AE061092CC061092EA0610920807109235
:104E700026071092440780E090E0FC01E85AF94FC1
:104E8000138204968C339105C1F780E090E0FC0119
:104E9000E05DF94F1382049688329105C1F71092B4
:104EA0006F0700E01EE010936D0700936C071093EE
:104EB0006407009363078BE480936B071092680785
:104EC0001092670710926E0781E08093620780E07E
:104ED00090E0A1E0B0E080935A0790935B07A09325
:104EE0005C07B0935D07A12CB12CF8E1CF2ED12C3B
:104EF000A0925E07B0925F07C0926007D0926107F0
:104F000010929C068FEC95E00E94CD1880E590E011
:104F1000909308028093070283E0809305028DE757
:104F200090E090930301809302018CE291E09093D2
:104F300005018093040180E09BE490930B01809332
:104F40000A011093070100930601109309010093D1
:104F5000080182E390E0909301018093000184E1D5
:104F6000809377070C94E82F80910902843630F4FF
:104F70008A3038F4E6E0BE2E09E206C0B12C0EE21B
:104F800003C073E0B72E0CE28091730781700E941A
:104F90007219E0900702F090080220E5E216F10491
:104FA000F4F432E0E316F1040CF050C0EA94EF2878
:104FB00009F0B6C08091090265E00E94F235E92F40
:104FC000F0E0EE0FFF1FED5CFE4F6081718181E02C
:104FD0000E9402151092080210920702A1C050E52B
:104FE000E516F10409F09CC085E0EFE1F1E0AAEDDF
:104FF000B1E001900D928A95E1F785E0E4E2F1E0FD
:10500000AFEDB1E001900D928A95E1F785E0E9E21C
:10501000F1E0A4EEB1E001900D928A95E1F785E010
:10502000EEE2F1E0A9EEB1E001900D928A95E1F790
:1050300080E090E0FC01E650FE4F1082FC01E05160
:10504000FE4F108202968A309105A1F76B2D70E019
:105050006E5F7F4F20E045E259E08CE390E00E94D4
:10506000ED1880910902C82ED12C10E0833678F01B
:10507000C601019664E670E00E941236262F49ECC4
:1050800059E0B8018CE390E00E94ED1802C089302D
:10509000A8F0C60101966AE070E00E941236CB01CA
:1050A0006AE070E00E941236282F49EC59E0B801FE
:1050B0006A5F7F4F8CE390E00E94ED18C601019675
:1050C0006AE070E00E941236B801645F7F4F282FBB
:1050D00049EC59E08CE390E00E94ED1810E41B19B4
:1050E0000B2D402F50E021E069E370E080E797E06E
:1050F0000E9402190F5F1017A0F74B2D50E021E01E
:1051000065E470E080E797E00E940219B3941B15F4
:10511000A0F781E0E81AF108F0920802E092070295
:1051200080916C0790916D07181619060CF0EAC370
:105130002091630730916407121613060CF0E2C346
:1051400020916E072111DEC302978F3FAFEF9A07C0
:1051500029F090936D0780936C0704C010926D073F
:1051600010926C070E94FA1887FF1AC080915E07A0
:1051700090915F07A0916007B09161078D3CECECC6
:105180009E07A105B10564F08C5C9C4CA109B10996
:1051900080935E0790935F07A0936007B0936107C9
:1051A0000E94FA1884FF19C080915E0790915F07F2
:1051B000A0916007B09161070097FDE2AF07B105CC
:1051C00064F484539343AF4FBF4F80935E07909333
:1051D0005F07A0936007B09361070E94FA1885FFEC
:1051E0001AC080915A0790915B07A0915C07B0911B
:1051F0005D07873626EE9207A105B10564F0865655
:10520000964EA109B10980935A0790935B07A0932A
:105210005C07B0935D070E94FA1886FF19C0809161
:105220005A0790915B07A0915C07B0915D070097CA
:1052300036E6A307B10564F484539343AF4FBF4FE1
:1052400080935A0790935B07A0935C07B0935D0728
:1052500084E00E94841F882319F088E080936E0701
:1052600088E00E94841F882309F440C080916B0766
:105270008823E1F18091EE01811104C087E199E07A
:105280000E94CD18C0905A07D0905B07E0905C0751
:10529000F0905D076701FF24D7FCF094EF2C80901D
:1052A0005E0790905F07A0906007B090610745018E
:1052B000BB2497FCB094AB2C42E0682D8C2D0E944F
:1052C0009A1180916F07882389F090916B07923033
:1052D00068F0815080936F0741E0682D8C2D0E940B
:1052E0009A1143E0682D8C2D0E949A11809107023B
:1052F00090910802892B09F005C380919C068823B0
:1053000009F45DC040909406509095066090960612
:10531000709097062301772457FC7094672C809037
:10532000980690909906A0909A06B0909B06E091FE
:10533000A206F091A3060491319614910E944D1F8C
:105340002B8B3C8B4D8B5E8B6F8B788F2B893C89A5
:105350008D899E89A901460F511D441655067CF57D
:10536000402F50E0440E551E2415350544F54501E7
:10537000BB2497FCB094AB2C9C01270F311D8216E7
:105380009306ECF4E12FF0E0E80DF91D8E179F076E
:10539000B4F428C6813008F035C680919F069091FC
:1053A000A00690936D0780936C0710929C068091E5
:1053B000EE01811104C085E796E00E94CD180BE54F
:1053C000E02E06E0F02E812C83E0982ED7018C9100
:1053D0008823E9F1F7013397C080D12C3196A08062
:1053E000B12C06EA16E0F8018085882351F13801D6
:1053F000F9E06F0E711CD80119968D919C911A9746
:1054000018161906F4F4C8010E94CD112D873E87A5
:105410004F87588B698B7A8B2D853E858F85988930
:10542000C216D30674F0260F311DC216D3064CF4F3
:10543000A816B90634F0870F911DA816B9060CF40A
:1054400013C6025E1F4FF7E00A351F0761F624E01E
:10545000E20EF11C37E9E31636E0F30609F0B6CFA9
:1054600080916E0781117DC00E944D1F872F298377
:105470003A834B835C836D837E83C980DA804B8162
:105480005C81D601A60FB11DBD018A01080F111D57
:10549000E3E3F6E080E090E020812223D9F09F0151
:1054A00023503109D9012C9130E07F01B2E0EB1A91
:1054B000F108D701FC902C153D0564F0261737073D
:1054C0004CF42F2D30E02417350724F02017310736
:1054D0000CF4F7C5019634968A309105E9F60E94DE
:1054E0004D1F29833A834B835C836D837E8300E069
:1054F00010E0C8018A55994FFC012085222361F1F3
:105500002585233049F10E94CD112F8338874987A3
:105510005A876B877C87E981FA814B815C81FE80A9
:105520002F81388589859A85AD815F01AA0EB11CCE
:105530002A153B058CF4260F311DE217F30764F49E
:105540009A012F0D311D8217930734F4870F911D97
:10555000481759070CF4D6C7025E1F4F043B1105CC
:1055600041F680910E01815080930E01811122C17C
:10557000B6EA8B2EB6E09B2E1CEB212E16E0312EC8
:1055800023EB36E03C8F2B8F412C512CC4010E9421
:10559000CD1129833A834B835C836D837E8329817C
:1055A0003A818B819C81F1013E974081442309F42B
:1055B000E0C0D1014C914111DCC03C9640814423B4
:1055C00009F4D7C0A901460F511D141615060CF099
:1055D000D0C0203831050CF0CCC09C01270F311D04
:1055E00037FDC7C0803491050CF0C3C080915A07C5
:1055F00090915B07A0915C07B0915D073D01E9E0E8
:105600006E0E711C80915E0790915F07A0916007FC
:10561000B09161075D01F9E0AF0EB11CD4010D91AD
:105620001D912D913C916901FF24D7FCF094EF2C42
:10563000EB8DFC8D8081833009F4E2C5C4010E94AA
:10564000C2118695082F10E00C0D1D1DF401C480B9
:10565000D580E680F7806701FF24D7FCF094EF2C1B
:10566000AB8DBC8D8C91833009F444C5C4010E947C
:10567000B711869590E0601A710AC80ED91EF5011F
:10568000EC19FD09FAA3E9A36114710409F435C505
:10569000CF01FF0FAA0BBB0BDC01992788276C01F8
:1056A0007D01FF0CCC08DC2C76019C01AD016C2D3A
:1056B0007C2D8C2D9C2D00E10E9403376301072C6B
:1056C000000CEE08FF088601FF24EE245701680154
:1056D000DD0CAA08BA2C6501AD8EBE8ECF8ED8A285
:1056E00057016801ED8CFE2C0E2D1E2D0E942E36CA
:1056F000F22FE32F8F2F9E2FA42FB52FB7FF07C0B8
:10570000B095A095909581959F4FAF4FBF4FEB8D72
:10571000FC8D3081F101333009F0F4C437972081DA
:10572000A9A0BAA01A141B040CF409C51614170476
:105730000CF06DC5843B41E29407A105B1050CF462
:10574000E3C4AC01BD014D56544C610971094F329F
:1057500059486105710518F4213009F4D8C4805EF8
:105760009749A740B10981329846AF4DB34008F43C
:105770004AC5AFEF4A1A5A0ABEE18B0E911CEEE100
:105780002E0E311C2B8D3C8D225E3F4F3C8F2B8F7C
:1057900036E04316510409F0F9CE6AE070E080E08B
:1057A00090E00E947E17DC01CB010A96A11DB11D7D
:1057B00080930E0180910C0190910D0101979093BF
:1057C0000D0180930C01892B09F09CC080919C06EF
:1057D000811198C064E070E080E090E00E947E1744
:1057E000B62E80916C0790916D07813094400CF437
:1057F00085C58091630790916407813094400CF4D3
:105800009BC551E0B51254C500910A0110910B01DE
:10581000C801012E000CAA0BBB0B6627782F892F1D
:105820009A2F20E032E040E050E00E94F13349013D
:105830006DEDE62E66E0F62E79E1C72E77E0D72EE5
:10584000B092A10681E080939C0620E030E040E821
:1058500050E020939406309395064093960650931B
:10586000970666E370E080E090E00E947E17DB011F
:10587000992788278093980690939906A0939A0673
:10588000B0939B060E94CD339B0177FF04C0222773
:105890003327261B370BC9019927939590939E06B2
:1058A00080939D060E94CD339B0177FF04C0222781
:1058B0003327261B370BB80168197909C9010E94E3
:1058C00012369401280F391F3093A00620939F06AB
:1058D000D092A306C092A206F092A506E092A4067A
:1058E000209104013091050140E050E060910201F7
:1058F0007091030180E090E00E94A21770930D0167
:1059000060930C0108E516E02BE5C22E26E0D22EAE
:1059100039E5E32E36E0F32EF6013197E0818E2F44
:1059200090E08830910550F5FC01EA5AFF4F0C9445
:105930002636F80180818F5F8083D7018C9181505A
:105940008C931CC0F80105C0D8018C918F5F8C939B
:10595000F70180818F5F11C0F801808181508083C1
:10596000D7018C918F5FECCFF80105C0D8018C91E5
:1059700081508C93F701808181508083D8018C9174
:10598000893710F0F6011082D7016C91613410F064
:10599000F6011082D6019C919923A1F070E061502C
:1059A000710990E023E043E001970E949E1FF701F8
:1059B000408150E0D8016C9170E021E080E797E0F1
:1059C0000E9402190C5F1F4FB4E0CB0ED11CE4E023
:1059D000EE0EF11CF6E004391F0709F09DCF00E33D
:1059E00016E083E3C82E86E0D82E91E3E92E96E0F8
:1059F000F92EF6013197E0818E2F90E088309105E5
:105A000050F5FC01E25AFF4F0C942636F8018081D4
:105A10008E5F8083D7018C9182508C931CC0F801DB
:105A200005C0D8018C918E5F8C93F70180818E5FC9
:105A300011C0F801808182508083D7018C918E5FE4
:105A4000ECCFF80105C0D8018C9182508C93F701FE
:105A5000808182508083D8018C91893710F0F601C3
:105A60001082D7018C91813410F0F6011082D6019A
:105A70008C918823C1F0F701608170E06150710959
:105A8000D8018C9190E023E043E001970E949E1F93
:105A9000F701408150E0D8016C9170E021E080E78F
:105AA00097E00E9402190C5F1F4FB4E0CB0ED11C8F
:105AB000E4E0EE0EF11CF6E008351F0709F099CF7F
:105AC00081E00E94021280919C06882309F444C060
:105AD00040919D0650919E06052E000C660B770B9B
