:100000000C9480100C94A8100C94A8100C94A810B8
:100010000C94A8100C94A8100C94A8100C94A81080
:100020000C94A8100C94A8100C9408220C947A221A
:100030000C94A8100C94A8100C94A8100C94A81060
:100040000C94A8100C94A8100C94A8100C94A81050
:100050000C94A8100C94A8100C94A8100C945D1289
:100060000C94A8100C94A8100C94A8100C94A81030
:100070000C94A8100C94A8100C94A8100C94A81020
:100080000C94A7120C94A8100C94A8100C94A8100F
:100090000C94A8100C94A8100C94A8100C94A81000
:1000A0000C94A8100C94A8100C94A810B32CAF2C8E
:1000B000B82CBA2CC62CC22CCA2CCC2C202D1C2D12
:1000C000252D272D332D2F2D372D392D0E32103282
:1000D000123217321C321C321C321C3225322532AD
:1000E00025322532A32EA32EA32EA32EA12E0E023F
:1000F000010A4744CCC0A8A93D331B15060E0201D6
:10010000070A040C05404849CDC3EBE60E4042C443
:10011000C6888A252C313337191B0D0E4E4748E906
:10012000EDA03132131A0B0C0405260E2021725358
:100130004445C6C7C8898AEB3C3DD5F08D14A1C89B
:1001400081CFD9F1AF20005504A8000000B00055C0
:1001500004A80000005C013F03A8005504A800DCCF
:10016000030C067003A8000000B0007003A8000094
:10017000005C017003A800E402A8007003A800A4BA
:1001800003E200E402E200A403E2001704E2003FFD
:1001900003E2001704E2005504A8000000B0005577
:1001A00004A80000005C013F03A8005504A800DC7F
:1001B000030C067003A8000000B0007003A8000044
:1001C000005C017003A800E402A8007003A800A46A
:1001D00003E200E402E200A403E2001704E2003FAD
:1001E00003E200DD04E2007505CF08BA020604E46C
:1001F00002A8001003A8003F035F05A403560300F4
:100200000007001704A8005504A800DD04A8007525
:10021000055F05C805560300000700490755017D25
:1002200006A800C8055F05DD04560300000700C8E6
:100230000555017505A80055045603000007001771
:1002400004A800A403A8003F03A800BA020604E41F
:1002500002A8001003A8003F035F05A40356030093
:100260000007001704A8005504A800DD04A80075C5
:10027000055F05C805560300000700490755017DC5
:1002800006A800C8055F05DD04AE023F035501C89E
:1002900005A8007505A80055045F0500800B1E1514
:1002A00000040E1F001F0E0400150000F20A7A8AD7
:1002B00072020200000000089494A22200000000D4
:1002C00000002F20272827202000000C3B001500CD
:1002D00011111F11110A0400150000008E504C422C
:1002E000DC400000000000007924242419000000F4
:1002F00000000000C121212BE520000000E01000DB
:10030000E0101010E0000000000001017925252513
:1003100018000000000000009555D5558B00000026
:10032000000000000700030403000000002A7A50C8
:10033000A050A010A090A0808080808000408040CD
:10034000804080408040804080408050A8542A9562
:100350004A241010204080000055AA55AA00FF0032
:100360000000000000070405040504050405040559
:100370000405040504050405040506040000000046
:100380000001FE01020102001F1010101010101ECB
:10039000020202020202020202020202020202023D
:1003A0000202020202020202020202020354AA54E0
:1003B000AA04F2141214121412101010F000A0501B
:1003C000A8542A944A241214121412141214121447
:1003D0001010204080000055AA55AA00FF00000020
:1003E000000000E020203F00AA5500FE01000000B0
:1003F00000E02020A020A02020E00000000000015C
:10040000FE152A55AA00FF0000000000001F10146E
:1004100012141215101F00000000001F10151215F5
:100420001215101F000000000000FF000000000077
:10043000010204081020202020202020202020203D
:1004400020202020202020202020202020202020AC
:10045000100804020100000000000000000000007D
:10046000009468946814C814081408100810001048
:10047000406080808040008000000000000000405C
:10048000A040A040204020000000002A55AA5500AE
:10049000FF0000000000F01090202040408081010B
:1004A0000302020504080810F055AA55AA00FF012E
:1004B00001010101011F101215101F0000000000B2
:1004C0001F10121512151214101111121E00000027
:1004D0000000FF050A050A00FF808080808080F010
:1004E00010101010F08080808080F010101010101C
:1004F0001010101010101010101010101F0000001D
:100500008040A040A040204000000000000000000B
:100510000000000000000040A040A040204020401B
:100520000000000000000054AA55AA05F2190C06AC
:10053000030101010101FF00A040A040A000000054
:1005400000152A152A00FF0101010101020408100B
:10055000E055AA55AA00FF000000000000FE02427C
:100560002B502A5500FE0202020202FE00205028F3
:10057000532A02FE000000000000FF0102050A00ED
:100580001F20408000000001010101010101010163
:100590000080800000010101010101010101000052
:1005A000008040201F000000000000000000010249
:1005B0000202020202020202020201000001020221
:1005C0000202020202020202020201000000000016
:1005D000002C015D0152005D0152005D0152005D81
:1005E00001520000000300720152007201520072B9
:1005F000015200720152000000030088015200887D
:100600000152008801520088015200000003009F3F
:100610000152009F0152009F0152009F01520000B1
:10062000000300B8015200B8015200B8015200B8EE
:1006300001520000000300D2015200D2015200D248
:10064000015200D201520000000300EE015200EE00
:10065000015200EE015200EE015200000003000BB7
:100660000252000B0252000B0252000B0252000019
:100670000003000080E4020200750506007D060804
:1006800000750504000080DC00090093000A008367
:10069000000600AF000A000080AF0003002601043E
:1006A00000B8010400A50001000080AF001600AFF3
:1006B000001600AF0016000080387CFEFEFE7CFEB7
:1006C000FFBA00000000000000010010387CFEFFAF
:1006D000FFFFFE6C0000000001010100001FFFFF92
:1006E000FFFFFFFFFEE440000101010101010100E5
:1006F00000090900384444442854920000000000D6
:10070000000000000009090010387CFEFEFE6C00AD
:100710000000000000000000000A09000EEEEEEEEE
:10072000EAAAA44000000000000000000000000051
:1007300080F8FC5EAFDEBC78F0C000001E7FFFAA30
:10074000D7AB57AF5FFFFEF8E080EF7FBA55AB57EE
:10075000AEDFFFF7E34007FFFDEA57EF77FFFF7FCC
:10076000070300000003070D060703010000000057
:100770000D24000080F85CAEDCB870C00000000002
:100780001E7FAAD7AB57AF5FFEF8E00000806FBABC
:1007900055AB57AEDFF7E340000007FDEA57EF77B0
:1007A000FF7F0703000000000003050203010000B3
:1007B0000000005504690200000D005504690000A6
:1007C000000D0055046900000001001704AB010092
:1007D0000001001704D500000001001704D5000037
:1007E000000100DC03810200000100DC03D50000F1
:1007F000000100A4031C0100000100A40346000046
:10080000006C00A403220000006C00A4032200007E
:10081000006C00A40322000000480070031C0100CB
:10082000000100E4021C010000010070031C010033
:100830000001003F031C010000010093021C0100A5
:100840000001003F031C0100000100E402810200DE
:100850000001006E024600000001000B024600008D
:100860000001006E024600000001002A027B030026
:1008700080E402F20100009000E40222000000483F
:1008800000E402220000004800E402B10000006C15
:1008900000E402690000002400E402460000004871
:1008A000003F03690000002400A403690000002445
:1008B00000DC030A040000FB00DC036900000024E4
:1008C000005504460000004800DD044600000048D2
:1008D0000075055D02000024007505220000004837
:1008E000007505220000004800750522000000B3D5
:1008F000005504B1000000240075054600000048C2
:1009000000C8057500000018007D0669000000247D
:1009100000C80569060080570016005700160057EA
:100920000016000080072991111515951B11F30180
:10093000E111E100013C4138047900008E44444457
:1009400086000413141434D30000010101010000D7
:10095000000B3B150011111F11110A0400150000B6
:10096000E01010101010E00000000038454444383A
:1009700001000000000011111113CD000000000063
:1009800000E2454141670141000000004444444CFD
:10099000340000000000009659D151910000000081
:1009A0000000030007040300000000071C84444407
:1009B0004484151F83444444F3404078253820196B
:1009C00000000E04040404040607050E1113151993
:1009D000110E0E0404040406041F01010E10110E72
:1009E0000E11100C10110E08081F090A0C080E1128
:1009F00010100F011F0E11110F01021C010204083B
:100A000010101F0E11110E11110E0708101E1111DA
:100A10000E071D8E51504E81110EE3141014E30089
:100A2000000405054D3400000E011F110E000013D7
:100A300022000000FC00FE0101FDA955FD0101FEA0
:100A400000000000C03008043261E0C0C1E0F1F9EC
:100A5000800003040830C00F30408030181F0F0F93
:100A60001F3F7F0703038340300F000000FC01FE9F
:100A70000000FE54AAFE0000FF000000000000007D
:100A80000000010202020202020202010000000054
:100A9000050403040A0906050406090609060504F7
:100AA000020204080F0504060907010605040708E9
:100AB00007010F050404040F0506050406090409CF
:100AC0000605040F0204090605040E0404060405C5
:100AD00004060909090620180000000000000000B3
:100AE0000000000000000000000000000000000006
:100AF0000000000000000000AB55AB55AB55AB56F5
:100B0000AA56AA56AE54AC54AC54AC58A858A858DF
:100B1000A858B050B050B050AA55AA55AA55AA55D9
:100B2000AA55AA55AA55AA55AA55AA55AA55AA55CD
:100B3000AA55AA55AA55AA55201800000000000081
:100B400000000000000000000000000000000000A5
:100B500000000000000000000000AB55AB55AB5595
:100B6000AB55AB57AA56AA56AA56AA56AA56AA5683
:100B7000AA56AA57AB55AB55AB55AA55AA55AA5577
:100B8000AA55AA55AA55AA55AA55AA55AA55AA556D
:100B9000AA55AA55AA55AA55AA5520180000000022
:100BA0000000000080808080808080808080808045
:100BB000800000008080808080808000AB55AB5D2D
:100BC000BB75FB75FB7DBA7DBE7DBE7DFA7DFA7D72
:100BD000BB5DAB55AB55AB55AA55AB55AA55AA5500
:100BE000AA55AA55AA55AA55AA55AA55AA55AA550D
:100BF000AA55AA55AA55AA55AA55AA552018008043
:100C00008080C040E060E0E0E0E0E0E0E0C0C0C044
:100C1000C080808080800000000000000000AB5594
:100C2000AB55AA55AA55AA55AA55AB57AB57AF5FB6
:100C3000AF5FBF7FFFFFFB75AB55AB55AB55AA55FB
:100C4000AA55AA55AA55AA55AA55AA55AA55AA55AC
:100C5000AA55AA55AA55AB55AA55AA55AA55201862
:100C600000000000808080C0C040E0F0F0F8F8DCB8
:100C7000BC5CAC5CAC5CA858B070E060C0C08000EC
:100C8000AB55AB55AA55AA55AA55AA55AB55AB5F5E
:100C9000BF75AA55AA55AA55AA55AA55AA55AB5526
:100CA000AA55AA55AA55AA55AA55AA55AA55AA554C
:100CB000AA55AA55AA55AA55AA55AA55AA55AA553C
:100CC00020180000000000808080C060B85CAC5636
:100CD000BA7FFFFDFFFEFEFCFCF8F0F0E0E0C0C0D4
:100CE0008000AB55AB55AB55AA55AA55AA55AA5588
:100CF000AA55AA55AA55AF5FBF5FAF57AA55AA55C7
:100D0000AB55AA55AA55AA55AA55AA55AA55AA55EA
:100D1000AA55AA55AA55AA55AA55AA55AA55AA55DB
:100D2000AA5520180000000000000000000000008C
:100D300000000000000000000000000000000000B3
:100D400000000000B050B050B050B858A858A85893
:100D5000A85CAC54AC54AC56AA56AA56AA57AB558C
:100D6000AB55AB55AA55AA55AA55AA55AA55AA5589
:100D7000AA55AA55AA55AA55AA55AA55AA55AA557B
:100D8000AA55AA55201855AA55AA55AA55AA55AA32
:100D900055AA55AA55AA55AA55AA55AA55AA55AA5B
:100DA00055AA55AA55AA0D0A0D0A0D0A1D1A151A9B
:100DB000151A153A352A352A356A556A556A55EA9B
:100DC000D5AAD5AAD5AA00000000000000000000A6
:100DD0000000000000000000000000000000000013
:100DE000000000000000201855AA55AA55AA55AACF
:100DF00055AA55AA55AA55AA55AA55AA55AA55AAFB
:100E000055AA55AA55AA55AAD5AAD5AAD5AAD5AAEA
:100E1000D5EA556A556A556A556A556A556A556ADA
:100E200055EAD5AAD5AAD5AA000000000000000006
:100E300000000000000000000000000000000000B2
:100E40000000000000000000201855AA55AA55AA6D
:100E500055AA7DEA55AA55AA55AA55AE5DFAD5AA56
:100E600055AA55AA55AA55AA55AAD5AAD5AAD5AA0A
:100E7000D5AAD5BB5FBA55AA55AA55AA55AED7AFC4
:100E8000D7EE556A556A55EAD5AA00000000000061
:100E90000000010101010101010101010101010045
:100EA00000000000000000000000201855AA55AA0C
:100EB00055AA55AA55EAF5AA55AA55AA55AA55AA5A
:100EC00055AA55AAD5AA55AA55AA55AAD5AAD5AAAA
:100ED00055AA55AAD5FF7FBF7DEAF5AA75BA75BA9E
:100EE000DDFEFFFFDFAED5AAD5AAD5AA000001011D
:100EF00001030302030303030303030303030301C7
:100F0000010101010000000000000000201855AAA6
:100F100055AA55AA55AA55AA55AA55AA55AA55AAD9
:100F200055AA55AA55AA55AA55AA55AA55AAD5AA49
:100F3000D5AA55AA55AA55AA55AAD5AAD5FAFDAE3D
:100F400055AA55AA55AA55AA55AA55AAD5AA000028
:100F50000000010101030302070F0F1F1F3B3D3A71
:100F6000353A353A151A0D0E07060303010020180D
:100F700055AA55AA55AA55AA55AA55AA55AA55AA79
:100F800055AA55AA55AA55AA55AA55AA55AA55AA69
:100F9000D5AAD5AAD5AA55AA55AA55AA55AA55AAD9
:100FA00055AA55AAF5FAFDFAF5EA55AA55AAD5AA01
:100FB000000000000101010203060D0A1D1A3D3E5A
:100FC0003F3F3F1F1F1F1F1F0F0F07070303010096
:100FD000201855AA55AA55AA55AA55AA55AA55AAE0
:100FE00055AA55AA55AA55AA55AA55AA55AA55AA09
:100FF00055AAD5AAD5AAD5AAD56A556A556A752A19
:10100000352A352A351A151A151A151A0D0A0D0A18
:101010000D0A0000000000000000000000000000B9
:1010200000000000000000000000000000000000C0
:1010300000000503050507050205056E1171116E17
:10104000050301010301070505040E1F1F0A05051D
:101050000E041F04040000220DC00C5E0CFC0B9A51
:101060000B380BD60A0000D00F6E0F0C0FAA0E48DB
:101070000EE60D840D1818B050B058A858A858ACFA
:1010800054AC56AB55AB55AB55AB55EB351B0EAA17
:1010900055AA55AA55AA55AA55AA55AA55AA55AA58
:1010A00055AAD56F382000AAD5EA556A556A556AFF
:1010B000351A0D0A0D060506030100000000001890
:1010C00018F058AC56BB75FBF5EAD6AC58A858B822
:1010D00050B058A858A858B050037FEA55BAF5EA5E
:1010E00075AB77AF5DAA55AA55AA55AA55AA55AAB8
:1010F00055000001030605060D0A0D1A356A556AEA
:10110000752A351A151A151A150B0DF80681A6B091
:10111000B8181830604007081017070703030101CB
:1011200000090CF00E41CED0C08080800304080B73
:1011300003030101000910208000000000001104D9
:1011400002000000882000000009100000001104C7
:101150000000400088200000000000040107319ECC
:1011600051990181011E57525352B1000039057D3A
:101170004538000038444444444438844AD15191AD
:10118000000013101734D30000000000010000001D
:10119000123C1CA2A09C82221C0000000000000047
:1011A00000000000CB2C2828C800000000000044EC
:1011B000445454546C44718A088A71000000000041
:1011C00000CE0484448600049C023EA21C00000061
:1011D000000000F304E310E70000E708C720CF0099
:1011E0000000000000381110101900102122217099
:1011F00023A040000000004E5151D14E00002C327F
:101200002222220000000000000404040403000065
:1012100007020202020203000000000000000000BA
:1012200000000102040810204080001E3EFEFEFC6B
:10123000F8F8FCFEFF3F1F0F0000003C3E3F3F1F41
:101240000F07070FCFFFFF7C7C7E0E000000000021
:10125000000000000000000000000000000080C04E
:10126000FCFEFFFEFCF0C0C080C0E0F0E000010327
:10127000077FFFFFFF7F1F070703070F1F0F0100F7
:10128000000000000100000000000000000000005D
:1012900078F8F8F8F0E0C0C0E0E6FEFE7C7CFCE008
:1012A0000000F0F9FFFF7F3F3F7FFFFFF9F0E00014
:1012B000000000000000000000000000010101012A
:1012C00000000000000000040EDEFEFFFEDE0E0443
:1012D00000000000081C3E3E3F3F7FFFFFFF7F3FB6
:1012E0003F3E3E1C0800000000000000000100001E
:1012F00000000000000000E0FC7C7CFEFEE6E0C098
:10130000C0E0F0F8F8F878000000E0F0F9FFFF7FA7
:101310003F3F7FFFFFF9F0000000000101010100E5
:1013200000000000000000000000E0F0E0C080C00D
:10133000C0F0FCFEFFFEFCC08000010F1F0F070382
:1013400007071F7FFFFFFF7F07030100000000006A
:101350000000000000000100000000000000000F7D
:101360001F3FFFFEFCF8F8FCFEFE3E1E00000E7E56
:101370007C7CFFFFCF0F07070F1F3F3F3E3C000065
:10138000000000000000000000000000000000203D
:1013900070F8F8F8F8FCFEFFFEFCF8F8F8F870209A
:1013A0000000000041E1F7FFFFFFF7E1410000000E
:1013B000000000000000000000010000000000002C
:1013C0000000111100001C3CFCD8B070F8EC3E1E6F
:1013D0000E00000000001C1E1F0D07030307074F2F
:1013E0006C30380C0000000000000000000000001D
:1013F00000000000000000111100008080FCEEFCE5
:10140000F08080800000C0E00000000103037EEE59
:101410007E1F0303030101070F010000000000000D
:10142000000000000000000000000000111100702A
:10143000F0F060C08080C0C0E46C1838600000002C
:101440000070797F371B1D3F6FF9F0E0000000004E
:10145000000000000000000000000000000000008C
:101460000011110000000000040CCCFECC0C0400A4
:101470000000000000081C1C161E1E7FE37F1E1EBD
:10148000161C1C0800000000000000000000000006
:10149000000000000000111100006038186CE4C06A
:1014A000C08080C060F0F0700000000000E0F0F943
:1014B0006F3F1D1B377F79700000000000000000A7
:1014C000000000000000000000000011110000E01A
:1014D000C00000808080F0FCEEFC80800080000175
:1014E0000F0701010303031F7EEE7E0303010000CB
:1014F00000000000000000000000000000000000EC
:101500001111000000000E1E3EECF870B0D8FC3C3B
:101510001C000000000C38306C4F07070303070D58
:101520001F1E1C0000000000000000000000000062
:101530000000000000111100207070D0F0F0FC8E4F
:10154000FCF0F0D0707020000000000000406067E8
:10155000FF67604000000000000000000000000085
:101560000000000000000000000080E0F0E0000A41
:101570003F7F3F02000000000040F0F8F000127FC3
:10158000FF7F02000000000040FCFEFC4017FFFF50
:10159000FF12000103010060FEFFFE702037FFFF15
:1015A000FF772200030703000005130080E000001E
:1015B000000A3F0200000000000005130040F00098
:1015C0000000127F0200000000000005130040FC34
:1015D00040000017FF120000000100000613006029
:1015E000FE2020000037FF2722000000030000003B
:1015F0000E0EEEE0E00080DCDFFF6773737000002A
:10160000E0E0FBBB3FE7E7E7070100C0DCDC1C00D4
:1016100001030303000000000000000101010000BD
:101620000F1F6FF4E8FCDEFFFFE7F07F1F47E0408D
:10163000C0E8FECF0F67F7FFFF9F3D10C0E2F762E3
:101640000101010301000000010000030303000089
:1016500000001C1C7CFCFCF8F8FC3C1C000000009A
:10166000000038383E1F0F0F070F1F1E1C00000020
:10167000000000000000000000000000000000006A
:1016800070F0F0FEFEFEF8F0F8F8FC7E3E0E000072
:1016900000F0FDFF7F7F3F1F0F1F3F3F7C707000FA
:1016A0000001010100000000000000000000000037
:1016B0001012000400400000008088420001200059
:1016C000000080400011000240020000000080087D
:1016D0000000000001000000000000000000000009
:1016E00000001012060F0460C0C88C9EC7C06010B6
:1016F0000200400080C0C806070363678F0D10001A
:1017000000C06200000000010000000000000000B6
:10171000010000001012000000001070E0E0F03046
:1017200008000000000000000010080E0707030773
:10173000060800000000000000000000000000009B
:1017400000000000000010122060E0E0FCF8F0E073
:10175000F0F078380C0000000000E07D3F3F1F0FE4
:10176000070F1F1C302000000000000000000000D8
:10177000000000000000000060FEFFFE702037FF48
:10178000FFFF7722000307030000000080F0FCFE4B
:10179000FFFEFCF0F0F070F0F8F8F02002070F7F89
:1017A000FFFFFFFFFF7F7F7A70FFFFFFFF2000003A
:1017B000000001030703010000000000000000001A
:1017C0000000A0FEFFFEFC70F0F8F02002072FFFE3
:1017D000FFFFFF777FFF7F2000000003070301006A
:1017E000000000007070FEFFFE707277FFFFFF7751
:1017F00000000307030070F8F8F870FCFEFFFEF02D
:10180000000070FFFFFF77FFFFFFFF7F0702000070
:101810000000000103070300000070F8F8F8F870FA
:10182000F0F0F0FCFEFFFEFCF080000070FFFFFF18
:10183000FF707A7F7FFFFFFFFFFF7F0F070200002F
:101840000000000000000001030703010000000089
:1018500006130060FE2020000037FF272200000052
:101860000300000012130000000060FCFEFC60603A
:1018700060202020F0F020000002070737FFFFFF64
:101880003737322020207F7F200000000000000139
:101890000301000000000000000000000C13000025
:1018A0000020FEFC202020F0200000020727FFFF80
:1018B000272220FF2000000000000301000000009C
:1018C00000000613002020FE6000002227FF3700E2
:1018D0000000000300000C130020F0202060FCFE3C
:1018E0002000000000207F202237FDFF2507020096
:1018F000000000000000010300000000121300209F
:10190000B0F0202020606060BC66BC600030000049
:1019100000206F7F202020323735ED37ED35076707
:1019200002000000000000000000000001030100B0
:10193000000000007CFEFFFFFFFFFFFFFEFFFE7CBC
:101940000000010101010101010100000C09007CFE
:101950008282AA92AA82848E740000000000000095
:1019600000000000000035150015CB14961461141A
:101970002C14F713C2138F135C132913F612C3121E
:1019800090125D122A1246171417E216B01680162E
:1019900050162016F015FC18D618C2189C1864189A
:1019A0009C185018D6181A18F617E417C0178A177B
:1019B000C0177817F61746171417E216B0168016D8
:1019C00050162016F015DC15CB15BA15A91597156C
:1019D000881579156A154000040001500000814007
:1019E0000005FF0150000081400006FF00251A019C
:1019F00005FF0118031804000119000081400006CA
:101A0000FF0040FF0028FF005000008180C0E0F090
:101A1000F8F8FCFCFCFEFEFEFFFFFFFFFFFFFFFFF0
:101A2000FFFFFFFFFFFFFFFFFFFFFFFEFEFEFCFCCF
:101A3000F8F0C0000103070F0F1F1F1F3F3F3F7F3C
:101A40007F7F7F7F7F7F7F7F7F7F7F7F7F7F7F7FA6
:101A50007F7F3F3F3F1F1F0F0701FFFFFFFFFFFF7C
:101A6000FFFFFF0101010101010101010910FEFD5C
:101A7000C3BBBBBBC7FFFF010101010101010101A4
:101A8000271080C060B058A85CAC54AEFA8EF795B1
:101A90009FF5979DF7959FFDFFFD7F7D3FDDDFDD86
:101AA0003FFEFEFE0CFC18F0C0000103060D0A1DEF
:101AB0001A153A2F3877547C57745C77547C5F7FC3
:101AC0005F7F5F7E5D7D5D7E3F3F3F181F0C07019E
:101AD0000910FF7F87BBBBBBC7FFFF0001010101EE
:101AE000010101010910FFFFC7BB3BBBC7FFFF019D
:101AF00001010100010101010910FFFFC7BBBBBBD0
:101B0000877FFF0101010101010101000910FFFFB1
:101B1000C7BBBBBBC7EFEF0101010101010101011F
:101B20000910FFFFC7BBBBBBC3FDFE0101010101E3
:101B3000010101010910FFFFC7BBB8BBC7FFFF01CF
:101B400001010101010101010000000000F0FEFFA0
:101B5000FFFEFCE00000000000000000000080002C
:101B6000000010387CFEFEFFFFFFFFFFFFFFFFFEBF
:101B7000FEFE7C7C7C7CFEFFFFFFFE100000000070
:101B8000001FFFFFFFFF7F0F0100000000000000AB
:101B9000000103010000000000000000000101003E
:101BA0000000000000000000000000000000000035
:101BB0001A19000000000000F09E9EFCE0000000EA
:101BC0000000000000000000000000000010387C51
:101BD000547CFFBBBBBBBBFF7C7C7C7C383838387B
:101BE00028D6D7FE10000000000000001FF3F37F8E
:101BF0000F010000000000000000000001000000D4
:101C000000000000000000000000000000000000D4
:101C100000000000000000000000111100001C3C4A
:101C2000FCD8B070E8C422120E00000000001C12A4
:101C3000110805030307074F6C30380C0000000043
:101C40000000000000000000000000000000001183
:101C50001100008080FC828CF08080800000C0E059
:101C60000000000103037E82621F030303010107DA
:101C70000F01000000000000000000000000000054
:101C80000000000011110070901020408080C0C042
:101C9000E46C1838600000000070797E371B1D2F3F
:101CA000478990E0000000000000000000000000F4
:101CB0000000000000000000001111000000000002
:101CC000040CCCFECC0C040000000000000814142E
:101CD0001212127FE37F1212121414080000000087
:101CE00000000000000000000000000000001111D2
:101CF00000006038186CE4C0C080804020109070F4
:101D00000000000000E09089472F1D1B377E79708E
:101D100000000000000000000000000000000000C3
:101D200000000011110000E0C00000808080F08CF5
:101D300082FC8080008000010F0701010303031F64
:101D400062827E030301000000000000000000002A
:101D500000000000000000001111000000000E1241
:101D600022C4C870B0D8FC3C1C000000000C383005
:101D70006C4F07070303050811121C000000000048
:101D80000000000000000000000000000011110031
:101D9000205050909090FC8EFC90909050502000DD
:101DA0000000000000406067FF6760400000000026
:101DB0000000000000000000000000000000000023
:101DC0000000060002F0D0000000010002F0D01078
:101DD000000001010000F0240000020100000224C4
:101DE0000000020002F0204A0001010002F0205A27
:101DF000000101050002F0D0000000010002F0D057
:101E000028000001010000F9440000020002002047
:101E1000000101010002002028010101050002F07B
:101E2000D0000000010002F0D028000001010000F5
:101E3000F94400000200020020000101010002003C
:101E40002028010101050300000E04000005030025
:101E500000E03E0000050002F0D00000000100029A
:101E6000F0D0230000010002F0D04600000106007F
:101E70000000F012000001000000F9000000010065
:101E800000000212000001020000E4400000020213
:101E90000000F52C000002020000064000000206CF
:101EA0000003D6D0000000010003E6E000000001BE
:101EB000010000EB14000002010000F92400000200
:101EC0000100000734000002010000F94000000298
:101ED000050002F0D0000000010002F0D028000050
:101EE00001010000F9440000020002F0201400018A
:101EF000010002F0203C00010104000000F012008B
:101F00000001000000F900000001000000021200C2
:101F100000010300000E3000000A0500010005006A
:101F20000000010001000514000001000100EC00A8
:101F3000000101000100EC14000101000000F9287B
:101F400000010104000000E700000001000000F9AA
:101F5000000000010000000B00000001020000F57D
:101F60001600000104000000F10000000100000064
:101F70000300000001010000F11200000201000056
:101F8000031200000205000100050000010100012C
:101F900000EC14000001010000E732000002010023
:101FA00000F9320000020100000B320000020501BE
:101FB0000000E724000002000000F0120000010011
:101FC0000000F90000000100000002120000010101
:101FD00000000B24000002020000000500000001C8
:101FE0000000000018000001000000FB500000018C
:101FF000000000F668000001341B201B0C1BF81ABF
:10200000E41AD01A801A6C1A5A1A5A1A5A1A5A1AF8
:102010005A1A5A1A0C1A5A1A46171417E216B016F8
:10202000801650162016F015B01BB01BB01BB01B4D
:10203000B01BB01BB01BB01B481B481B481B481BE8
:10204000481B481B481B481B46171417E216B016BE
:10205000801650162016F0158D1D581D231DEE1CE0
:10206000B91C841C4F1C1A1C8F135C132913F61205
:10207000C31290125D122A1246171417E216B016F8
:10208000801650162016F015080B000202020100FF
:1020900009040000010202000005240010010524CB
:1020A000010101042402060524060001070581033D
:1020B00010004009040100020A00000007050202A6
:1020C00040000007058302400000040309041201D8
:1020D0000002EF02014041233680000101020301AA
:1020E00041726475696E6F204C4C43004172647597
:1020F000696E6F204C656F6E6172646F0000BA325A
:1021000011241FBECFEFDAE0DEBFCDBF11E0A0E0AB
:10211000B1E0E2E8FEE602C005900D92A83DB107ED
:10212000D9F727E0A8EDB1E001C01D92AB3EB207A0
:10213000E1F710E1C0E8D0E104C02197FE010E9460
:102140004436CF37D107C9F70E94AA240C943F37F1
:102150000C940000CF92DF92EF92FF920F931F93A7
:10216000CF93DF936C017A018B01C0E0D0E0CE15F4
:10217000DF0589F0D8016D918D01D601ED91FC91BB
:102180000190F081E02DC6010995892B11F47E01A3
:1021900002C02196ECCFC701DF91CF911F910F9123
:1021A000FF90EF90DF90CF90089580911502E0911D
:1021B0001302F0911402882349F0CF010296909304
:1021C000140280931302859194910895CF01029691
:1021D0009093140280931302808191810895CF928D
:1021E000DF92EF92FF920F931F93CF93DF930E94A2
:1021F000D510811520E8920761F4809171008D7FE0
:102200008093710010929100469847981092EE01C9
:102210008BC021E02093EE01813020E8920751F439
:1022200080911102909112029093140280931302F4
:102230000E94D51097FD05C020911002222309F4B9
:102240003FC020910F0221113BC021E020931602D4
:10225000EC01DF77209769F481E0809317024698BC
:102260003FE9C32E3FE0D32EE12CF12CCAEFD0E0A2
:1022700014C08E0120E030E060E472E48FE090E072
:10228000A90198010E940F3469017A0181E0C81AFE
:10229000D108E108F10810921702E0912B06F091A5
:1022A0002C060995811103C081E08093170280916B
:1022B00016028823B9F180911702811133C003C03F
:1022C00010921602C5CF46992DC0479A0E94D5108C
:1022D000009771F09C01DE010E946334DC01CB01A8
:1022E00029E0B595A795979587952A95D1F703C0CD
:1022F0008FEF9FEFDC01109290002AE02093910075
:10230000D0929900C092980080931802909319027D
:10231000A0931A02B0931B02809171008260809397
:10232000710002C04798D2CFDF91CF911F910F91DA
:10233000FF90EF90DF90CF9008958091D80108959D
:102340000895089580E090E00895813021F087306D
:1023500021F083E003C080E001C086E0613029F015
:10236000673011F48E5F08958F5F08950E943A37A9
:10237000CF93DF9300D000D0CDB7DEB761157105E4
:102380008105910579F09B01AC0169833A834B8308
:102390005C830E94EB3329813A814B815C810E94EE
:1023A0000F3403C060E070E0CB010F900F900F90EE
:1023B0000F90DF91CF910895CF92DF92EF92FF922D
:1023C0000F931F93621773078407950784F489019D
:1023D0009A016B017C01C901B8016C197D098E0954
:1023E0009F090E94B8116C0D7D1D8E1D9F1D1F91B0
:1023F0000F91FF90EF90DF90CF9008953FB7F89442
:1024000080911D0290911E02A0911F02B0912002A6
:1024100026B5A89B05C02F3F19F00196A11DB11D3F
:102420003FBFBA2FA92F982F8827820F911DA11D7A
:10243000B11DBC01CD0142E0660F771F881F991FB7
:102440004A95D1F708958F929F92AF92BF92CF9203
:10245000DF92EF92FF926B017C010E94FE114B0113
:102460005C01C114D104E104F104F1F00E94FE11F9
:10247000DC01CB0188199909AA09BB09883E934060
:10248000A105B10570F321E0C21AD108E108F108F5
:1024900088EE880E83E0981EA11CB11CC114D104E3
:1024A000E104F10419F7DDCFFF90EF90DF90CF90BA
:1024B000BF90AF909F908F9008951F920F920FB68C
:1024C0000F9211242F933F938F939F93AF93BF93BA
:1024D0008091250290912602A0912702B0912802B6
:1024E00030911C0223E0230F2D3720F40196A11D0B
:1024F000B11D05C026E8230F0296A11DB11D209332
:102500001C028093250290932602A0932702B09389
:10251000280280911D0290911E02A0911F02B0918D
:1025200020020196A11DB11D80931D0290931E02F1
:10253000A0931F02B0932002BF91AF919F918F9102
:102540003F912F910F900FBE0F901F9018951F92E3
:102550000F920FB60F9211242F933F934F935F93D7
:102560006F937F938F939F93AF93BF93EF93FF935B
:102570008091180290911902A0911A02B0911B0249
:10258000892B8A2B8B2B81F18091170281110BC033
:1025900098B180E4892788B980911602882319F0C0
:1025A00088B1805888B98091180290911902A09141
:1025B0001A02B0911B02181619061A061B06B4F46B
:1025C0008091180290911902A0911A02B0911B02F9
:1025D0000197A109B1098093180290931902A09361
:1025E0001A02B0931B0202C00E94EF10FF91EF91FC
:1025F000BF91AF919F918F917F916F915F914F911B
:102600003F912F910F900FBE0F901F9018959C0136
:10261000E1E7F0E090819D7F908381E08093150257
:10262000309314022093130230931202209311026C
:102630000C94EF10EF920F931F933AEFE32E00E00C
:1026400010E00E94FE181F910F91EF900895EF92F5
:102650000F931F9332E0E32E00E010E00E94FE187B
:102660001F910F91EF9008958FB18095807F669BA9
:1026700088601C9B8460089560387105D0F44034F4
:102680005105B8F4E2E2F2E180E1849FD001A07844
:102690001124A60F4770E40FF11D8491A55DBD4F75
:1026A000222319F06C91862B03C080956C918623B0
:1026B0008C930895CF92DF92EF92FF920F931F9326
:1026C000CF93DF93EC018885882309F4EFC08E89CE
:1026D000882311F081508E8B8E898111E7C02B8D5C
:1026E0002111AAC0498D5A8DEF88F88CF7013296D6
:1026F000E40FF51F0491FA01EE0DFF1D849197017F
:102700002F5F3F4FFA01E20FF31F14919D89292F8C
:10271000207FC22EE82F09F0E1959F70D92E09F095
:102720001195013809F486C0083008F051C0688955
:10273000062E000C770B6E0F711DE7FD7A95072EA4
:10274000000C880B990B0E94173520E030E040E820
:1027500052E40E94733420E030E040E857E40E94E5
:10276000A3350E94DF34688379838A839B836989D8
:10277000062E000C770B610F711D17FD7A95072E41
:10278000000C880B990B0E94173520E030E040E0E8
:1027900052E40E94733420E030E040E857E40E94A5
:1027A000A3350E94DF346C837D838E839F838D8568
:1027B000833019F486E08E8701C00E87CC2009F49F
:1027C00068C0EE85D1106CC0F0E0ED58FE4F6BC0D4
:1027D000EC8F1D8F8E2FEE0F990BAA0BBB0BDC011C
:1027E00099278827488159816A817B81840F951FA9
:1027F000A61FB71F88839983AA83BB83812F110FDC
:10280000990BAA0BBB0BDC01992788274C815D81B2
:102810006E817F81840F951FA61FB71F8C839D83B8
:10282000AE83BF8301500B8F83E0E80EF11CF88E5E
:10283000EF8A3CC018863AC08C8D082E000C990B8C
:10284000AA0BBB0BDC0199278827488159816A8133
:102850007B81840F951FA61FB71F88839983AA8346
:10286000BB838D8D082E000C990BAA0BBB0BDC01D2
:10287000992788274C815D816E817F81840F951F08
:10288000A61FB71F8C839D83AE83BF8321502B8FE0
:102890000DC0DD2049F2EE85F0E0E559FE4F03C0A2
:1028A000F0E0ED59FE4F80818E87BECFDF91CF9152
:1028B0001F910F91FF90EF90DF90CF900895DC0172
:1028C0001B96ED91FC911C973E9685919491FC018D
:1028D00084910895DC011B96ED91FC911C973C9628
:1028E00085919491FC01849108950F931F93CF9348
:1028F000DF9300D000D000D0CDB7DEB78C01FC0153
:1029000080819181A281B381CD0101969A838983CF
:1029100084819581A681B781CD0101969C838B83AB
:10292000C8010E946A148D83C8010E945F14298126
:102930003A814B815C816D81782F80E090E0269612
:102940000FB6F894DEBF0FBECDBFDF91CF911F91C0
:102950000F910895FC011082118212821382148259
:102960001582168217821286118654874387138A2E
:10297000128A6587108683E0848B138E86E08787B2
:1029800008950C94F933CF93DF930E94311C882370
:10299000E1F38091050220E0843059F440E951E1EF
:1029A00062E070E08AE690E00E942713C0E0D0E089
:1029B00007C04DE551E168E070E080E790E0F4CFBA
:1029C00021E0AE0166E670E08DE697E00E943C13E0
:1029D0002196C134D105A1F7C0E0D0E021E0AE01DD
:1029E0006FE770E08DE697E00E943C132196C134BA
:1029F000D105A1F7DF91CF9108950F931F93CF9346
:102A0000DF931F92CDB7DEB78C0179830E9401342A
:102A10007981672FC80101960F90DF91CF911F91A7
:102A20000F910C9401346F927F928F929F92AF928C
:102A3000BF92CF92DF92EF92FF920F931F93CF93AB
:102A4000DF93B82E0AED11E05CEDE52E51E0F52E96
:102A5000E7016801812C912CC40186529E4F3C01F4
:102A6000FC012381223029F150F4222341F121304D
:102A7000B1F5688170E020E049E451E12BC02330DA
:102A800021F12650233058F5688170E04FEB50E17A
:102A9000F601808191810E941A13F301248126504E
:102AA000688170E0F6018081918145E750E14896A8
:102AB00014C0688170E020E045E351E10BC06881FB
:102AC00070E020E041E251E105C0688170E020E063
:102AD00049E051E1F601808191810E941A13F5E0ED
:102AE0008F0E911C25E0C20ED11C259684E188161C
:102AF000910409F0B1CFC12CD12CC0E0D0E0DE01AF
:102B0000A650BE4F1196EC911197EE23B1F0F0E074
:102B1000EE0FFF1FEB59FF4E459154916C91062E1D
:102B2000000C770B6C51710980910E0220E0F601C8
:102B3000E81BF109CF010E941A13DE01A051BE4F1C
:102B40001196EC911197EE23B1F0F0E0EE0FFF1F1C
:102B5000EB5AFF4E459154916C91062E000C770B69
:102B6000605C7F4F80910E0220E0F601E81BF109C6
:102B7000CF010E941A132296F0E2CF0ED11CCA3068
:102B8000D10509F0BCCFB11032C1CDEDD1E082EA60
:102B9000C82ED12C96E0A92E25E0922EF801808136
:102BA00091810197918380838A3C9F4F0CF077C07D
:102BB00080910502843009F472C0F801D182C0828C
:102BC000BB2019F03297808102C08091EC018630E1
:102BD00028F468E170E080E090E004C065E170E016
:102BE00080E090E00E94B811962F969596952091DE
:102BF000F601E0910002953030F0862F692D0E9499
:102C000010369C5F12C0933080F49883245C20328D
:102C100024F02F321CF02EE201C020E2022E000C24
:102C2000330B440B550BEC5F13C08CEF890F8230D4
:102C3000B8F49883245B203224F02F321CF02EE26B
:102C400001C020E2022E000C330B440B550BE05167
:102C5000E23024F0E132D4F0E0E218C0E2E016C045
:102C6000A882A982245C253124F02D311CF02CE1AE
:102C700001C025E1022E000C330B440B550BEC5F19
:102C8000E53114F0E4E102C0E7FDE0E06E2FEE0F65
:102C9000770B880B990B0E94DC11F7016083B394CA
:102CA0000B5F1F4FF5E0EF0EF11C259624E0B212EA
:102CB00075CF80910E028F5F803219F080930E02E3
:102CC00096C010920E02EAEFF1E0A0EFB1E082812F
:102CD00093818193919312968D919C9113978D93EB
:102CE0009D9382E0E230F80791F7C091F80180915E
:102CF0000B02803149F018F4882331F016C080327D
:102D000031F0803349F011C0C53194F002C0C03FAA
:102D100094F427E062E013C0C03F24F0C5316CF4A6
:102D200061E001C062E028E00AC020E060E007C086
:102D300028E067E004C022E001C027E061E030E065
:102D400040E050E070E080E090E00E94DC11862FCF
:102D50006093F9016091F7010E94A511E82FF0E05E
:102D6000E65AFE4F8081C80FC093F801C09102025D
:102D700080910A02803449F018F4882349F016C083
:102D8000803831F0803C49F011C0C53194F002C068
:102D9000C03F94F427E062E013C0C03F24F0C53187
:102DA0006CF461E001C062E028E00AC020E060E06D
:102DB00007C028E067E004C022E001C027E061E02E
:102DC00030E040E050E070E080E090E00E94DC11F4
:102DD000862F60930302609101020E94A511E82FE3
:102DE000F0E0EF5AFE4F8081C80FC0930202DF91DE
:102DF000CF911F910F91FF90EF90DF90CF90BF90F8
:102E0000AF909F908F907F906F900895CF93DF93B6
:102E1000C82F88EC90E00E94C114D82F89EC90E074
:102E20000E94C114D43321F4833311F4CC2331F143
:102E300064E370E088EC90E00E94FD1463E370E0CE
:102E400089EC90E00E94FD1460E070E08AEC90E074
:102E50000E94FD1460E070E08CEC90E00E94FD1494
:102E600060E070E08EEC90E00E94FD1460E070E0A5
:102E700080ED90E0DF91CF910C94FD14DF91CF9124
:102E80000895CF93DF938091290290912A020196B1
:102E90008F31910528F490932A028093290204C06F
:102EA00010922A021092290280910C0290910D0238
:102EB0000196813921E0920728F490930D028093C6
:102EC0000C0204C010920D0210920C02C091640713
:102ED000D091650720E448E060E070E088E790E08A
:102EE0000E943F1B20E430E049E750E060E070E0E2
:102EF00089E790E00E947B1B20E04EE450E160E017
:102F000070E08BE790E00E942713CE0164E670E04A
:102F10000E941C36EC01660F771FFB01E35CFE4F3D
:102F20004081518120E066E070E08BE790E00E94F4
:102F30002713CE016AE070E00E941C36EC01660F98
:102F4000771FFB01E35CFE4F4081518120E06BE085
:102F500070E08BE790E00E942713CC0FDD1FC35C6D
:102F6000DE4F4881598120E060E170E08BE790E01E
:102F70000E94271380910C0290910D0268EC70E082
:102F80000E941C366115710521F061307105F1F068
:102F900040C0809160079091610797FD02C0292F82
:102FA00001C020E04EE167E470E187E10E94001C6F
:102FB0008091690790916A0797FD02C0292F01C08F
:102FC00020E043E360E470E18EE215C080916C077D
:102FD000882331F08091290290912A020F9778F48A
:102FE000809168072BEA829F212D1124269547E2C4
:102FF00062E370E182E2DF91CF910C94001C20E04B
:1030000049E350E168E170E08BE790E00E9427130C
:10301000E7CFDF91CF9108952FB7F89483E08093A5
:10302000E9009091E800892F807295FF04C090918B
:10303000F20080E4891B2FBF0895CF93DF931F9286
:10304000CDB7DEB76983DC01ED91FC910280F3819D
:10305000E02D41E050E0BE016F5F7F4F09950F907A
:10306000DF91CF91089583E08093E9008091F20091
:10307000882319F08AE38093E80008950E940C18D1
:1030800090E008958F929F92AF92BF92CF92DF927D
:10309000EF92FF920F931F93CF93DF935C016B012D
:1030A0007A0180911601882309F45BC08091240283
:1030B000882309F456C08091220280FF05C08091C8
:1030C000E00082608093E000E70110E00AEF83E017
:1030D000882E9AE3992E2097D9F10E940C1881111D
:1030E0000AC0015009F43DC061E070E080E090E06A
:1030F0000E942312F0CF282F30E0C217D3070CF420
:103100008C2F4FB7F8948092E9009091E80095FFDA
:103110001DC0282F30E0C21BD30BF601982F915011
:1031200020F081918093F100FACFC20ED31E1123BB
:1031300019F09092E80009C08091E80085FD06C072
:103140009092E80011E0209709F010E04FBFC3CF44
:103150001111C3CF5D9884E6809321021E141F04D1
:1031600044F081E090E0F5019383828380E090E079
:1031700001C0C701DF91CF911F910F91FF90EF9098
:10318000DF90CF90BF90AF909F908F900895CF9396
:10319000DF9300D000D000D0CDB7DEB7E7E5F7E091
:1031A00080819181A281B381CD010196282F9A83DC
:1031B000898384819581A681B781CD010196482FAD
:1031C0009C838B8383859485FC0165917491FB01BD
:1031D00064916250FC0185919491FC013196749147
:1031E00072503A815C8180E090E026960FB6F894A8
:1031F000DEBF0FBECDBFDF91CF9108956F927F925A
:103200008F929F92AF92BF92CF92DF92EF92FF92F6
:103210000F931F93CF93DF9300D000D0CDB7DEB7CD
:10322000DC014B017E2D4115510509F4EEC1FA0177
:103230006491319694915A01F2E0AF0EB11CC62E02
:10324000D12C222309F1492F469546954695E42F26
:10325000F0E041E050E0892F877011F440E050E049
:103260004E0F5F1FC49EF001C59EF00DD49EF00D61
:103270001124733011F4EE0FFF1F2E9FA0012F9F1A
:10328000500D1124A40EB51E7F3F31F40115110518
:1032900011F071E001C072E0AD014C0D5D1D14161E
:1032A00015060CF0B2C1A038B1050CF0AEC1940106
:1032B000290F311D121613060CF0A7C180E48816E1
:1032C00091040CF0A2C1A114B10409F49EC1382DDF
:1032D0003770F40197FC379623E0F595E7952A952A
:1032E000E1F72E2F97FE04C0332311F02FEF2E0F9E
:1032F000B7FF05C0EE27FF27EA1BFB0B02C0E0E08B
:10330000F0E04038510524F050E85A1B952E01C0DA
:10331000962E9E1AE22E022E000CFF082F3F1CF460
:103320005E2D509501C050E041E0892F877009F46F
:1033300040E0969596959695490FE40EF11C99E01C
:10334000E916F10414F048E0421BF42EF51A250F9B
:1033500040E82403A00DB11D1124AE0FBF1F569FDE
:10336000E00DF11D1124A5014E0F5F1F81E090E0DB
:103370005C01032E02C0AA0CBB1C0A94E2F7733056
:1033800009F400C1A0F4713009F4B3C0723009F03F
:103390003CC18FEF8A9DB0018B9D700D112460950B
:1033A00070957C836B837C806F2C620E29C07A3F82
:1033B00029F07B3F09F029C1F20E87C0F20E51C0FF
:1033C000FA01E00FF11FE491EA9D7001EB9DF00C12
:1033D0001124FA82E98227FD07C0FC01F080EF2D5D
:1033E000E623EE2AFC01E082311113C00F5F1F4F6C
:1033F0000196091528F32F5F4C0D5D1DA058BF4F96
:10340000261509F402C1CD01855D9D4F00E010E055
:10341000F0CF27305CF7FC01E058FF4FE080E72059
:103420008A80E828E082E2CFFA01E60FF71FE491F4
:10343000EA9D8001EB9D100D11241A83098327FD5D
:1034400004C0FC011081012B0083311113C06F5F98
:103450007F4F0196691540F32F5F4C0D5D1DA058FD
:10346000BF4F2F1509F4D1C0CD01855D9D4F60E0A0
:1034700070E0F0CF27305CF78C0100581F4FF80147
:10348000E080FA81EF2AF801E082E1CFFA01E00F53
:10349000F11FE491EA9DC001EB9D900D11249A83E8
:1034A000898327FD05C08095FB0190818923808356
:1034B000311114C00F5F1F4F6F5F7F4F091530F33D
:1034C0002F5F4C0D5D1DA058BF4F2F1509F49DC0F7
:1034D000BD01655D7D4F00E010E0F0CF273054F76F
:1034E000FB01E058FF4F8A8180959081892380837A
:1034F000E1CF0E0F1F1F8F2C820E281509F485C0F7
:10350000CD01855D9D4F7C0160E070E0691590F50F
:10351000F801E60FF71FE491EA9DC001EB9D900DC5
:103520001124809590959C838B83FA01E60FF71FF9
:10353000E491EA9D3001EB9D700C11247A8269823E
:1035400027FD05C0F70190818923682A6082332313
:1035500059F027304CF4F701E058FF4F90818C81EF
:1035600089239A81892B80836F5F7F4FFFEFEF1A4A
:10357000FF0ACCCF2F5F4C0D5D1D0C0D1D1DA058FB
:10358000BF4FBBCF892D90E0E40FF51FA55DBD4F68
:1035900060E870E0681B790BC81AD90A8601000F31
:1035A000111F592D4F2D792CE32ECF93DF93ED0171
:1035B000EF96EF9622968590C590EE2059F08A9C62
:1035C0004001CA9C600127302CF4F880D094FD2083
:1035D000F928F99222233AF0FC90C094FC20F828B4
:1035E000FD920C94F41A11965A9529F74A9551F0C8
:1035F000572D23951124E00FF11DA60FB11DC60F05
:10360000D11DD9CFDF91CF9111240F900F900F9042
:103610000F90DF91CF911F910F91FF90EF90DF906E
:10362000CF90BF90AF909F908F907F906F900895B4
:10363000EF920F931F93EE24E394890120E00E9400
:10364000FE181F910F91EF90089520917307282382
:1036500029F490917207982381E009F480E008959D
:10366000EBE2F2E0A0E0B8E000800EBC8111012C9A
:103670001197A0FDFDCF0192B9F70DB40895AF9257
:10368000BF92CF92DF92EF92FF920F931F93CF934F
:10369000DF937B01EC015C01A40EB11C6B01C20E37
:1036A000D11CCA15DB05E4F48701F7FE0FC000E06A
:1036B00010E00CC0081719078CF420E0A801BE0127
:1036C0008DE697E00E943C130F5F1F4FC60121E477
:1036D000C216D1047CF380E490E0ECCF2196E1CFD8
:1036E000DF91CF911F910F91FF90EF90DF90CF90DE
:1036F000BF90AF9008955F926F927F928F929F924A
:10370000AF92BF92CF92DF92EF92FF920F931F93EF
:10371000CF93DF93EC018B017A01A901461B570B74
:1037200057FF03C0519541955109C7018C1B9D0B53
:1037300097FF03C09195819591095524539484175F
:10374000950714F0512C0AC09E2D8F2D7901292F39
:10375000382F9C2F8D2FE801092F182FEC16FD060E
:1037600054F4902F812F8901292F382F9C2F8D2FD2
:10377000E701E92EF82E37016C1A7D0A5901A01ACB
:10378000B10AB7FE03C0B194A194B108630177FEFA
:1037900003C08FEFC81AD80AD594C794021713072D
:1037A00014F08FEF01C081E0882E880F9908EC1685
:1037B000FD06B4F021E0552019F0AE01B80102C0B9
:1037C000A801BE018DE697E00E943C13CA18DB08F1
:1037D000D7FE04C0080D191DC60CD71C2196E7CFD3
:1037E000DF91CF911F910F91FF90EF90DF90CF90DD
:1037F000BF90AF909F908F907F906F905F90089553
:103800000F931F93CF93DF93042FD22F90E020E0EC
:10381000AB01BC018BE790E00E942713D53030F458
:103820008091290290912A020F9780F0C0E010E069
:10383000CD1760F4B8016C0F711D9B0140E850E09A
:103840008BE790E00E947B1BCE5FF2CFDF91CF91A0
:103850001F910F91089565E070E080E090E00C9476
:1038600023128FB7F894409125025091260260915F
:103870002702709128028FBF80917507942F981BA3
:1038800080917607882331F090937707109276071E
:1038900080E0089520917407921740F49F5F92177B
:1038A000A0F491E093BF889513BE089581E08093C2
:1038B0007607409375078091700790917107019684
:1038C000909371078093700781E00895FC018091C7
:1038D0002402811103C08FEF9FEF08959FB7F894E2
:1038E00082E08093E9002091F20030E01216130686
:1038F00014F421E030E02115310559F0289884E6D0
:10390000809323028091F10080838091F2008823CC
:1039100019F09FBFC90108958BE68093E800F9CFA5
:1039200080917C0781110DC082E08093780784E04C
:103930008093790710927B0710927A0781E0809339
:103940007C0788E797E008952F923F924F925F920D
:103950006F927F928F929F92AF92BF92CF92DF929F
:10396000EF92FF920F931F93CF93DF93CDB7DEB704
:1039700062970FB6F894DEBF0FBECDBF8A8BA0EB67
:103980002A2EA6E03A2EB3EA8B2EB6E09B2E8BEAC7
:1039900096E09F878E87A9EBB6E0B98BA88BE2EB08
:1039A000F6E0F987E887FA89F11105C0D1018C9119
:1039B000833029F41CC0F10180818330C1F4C4013B
:1039C0000E945A13C4010E94751429833A834B83C1
:1039D0005C8329813A818B819C81AE85BF854C9126
:1039E000442329F0A889B9894C91442399F1FEE137
:1039F0002F0E311C2EE1820E911C8E859F854E96D6
:103A00009F878E87A889B9895E96B98BA88BE88530
:103A1000F9857E96F987E887F4E62F16F7E03F06EA
:103A200011F662960FB6F894DEBF0FBECDBFDF91E0
:103A3000CF911F910F91FF90EF90DF90CF90BF90AB
:103A4000AF909F908F907F906F905F904F903F903E
:103A50002F900895A901460F511D141615063CF626
:103A60002038310524F69C01270F311D37FDBFCFCB
:103A7000803491050CF0BBCFF101F081FF83F3306E
:103A800009F031C18091570790915807A0915907CB
:103A9000B0915A073D01E9E06E0E711C80915B0701
:103AA00090915C07A0915D07B0915E078D01075F63
:103AB0001F4FF40180819181A281B3817D01FDE1DD
:103AC000EF0EF11CF40184819581A681B7815D011F
:103AD000DD24B7FCD094CD2CC4010E945F146E1875
:103AE0007F08869590E08A0D9B1D2801481A590A87
:103AF0006114710409F43FC0C201550CAA0BBB0B41
:103B0000DC01992788276C017D01FF0CCC08DC2C97
:103B100076019C01AD016C2D7C2D8C2D9C2D00E13E
:103B20000E9421376301770CEE08FF088601FF240D
:103B3000EE2457016801DD0CAA08BA2C6501AA869B
:103B4000BB86CC86DD8657016801EA84FE2C0E2DEB
:103B50001E2D0E944C36F22FE32F8F2F9E2FA42F65
:103B6000B52FB7FF0CC0B095A095909581959F4F4C
:103B7000AF4FBF4F04C080E090E0A7EEB3E0141455
:103B80005CF1161474F4AC01BD0141505109610996
:103B9000710947305A466105710508F059C082E045
:103BA00073C0662071F0AC01BD014150510961093B
:103BB000710947305A466105710508F058C096E012
:103BC00071C08B5F9946A240B10985309649A44ED9
:103BD000B340C0F51F8267C0161474F4AC01BD0178
:103BE000415051096109710947305A466105710513
:103BF00098F4B2E0BF8357C06620C9F0AC01BD01A4
:103C0000415051096109710947305A4661057105F2
:103C1000E8F5E6E0EF8347C0AC01BD0149505A46E4
:103C200061097109413F5F4F61407105E0F18B5FB0
:103C30009946A240B10986309649A44EB34028F473
:103C400024E013C0A9E0AF832EC0F9E0FF832BC0AE
:103C5000AC01BD0149505A4661097109413F5F4FAE
:103C60006140710508F0ADCF21E02F831CC0AC018D
:103C7000BD0149505A4661097109413F5F4F61409A
:103C8000710508F09ECF87E08F830DC0AC01BD01A8
:103C900049505A4661097109413F5F4F61407105C2
:103CA00030F695E09F83A885B9858C91BF81B930A6
:103CB000B9F0B817A9F09F81692F70E0482F50E044
:103CC0009B01241B350BF90133963797A8F5121683
:103CD0001306D4F1932F991F9927991F09F04BC010
:103CE000E885F9858083D401CD90DD90ED90FC903E
:103CF000139714964D905D906D907C901797EE857C
:103D0000FF858081882309F472CEA889B9898C91B6
:103D100081116DCE6701FF24D7FCF094EF2C860152
:103D2000C4010E946A1490E08C0D9D1D97FD5FCE2A
:103D30000038110534F15BCE9B01285F3F4F241BF7
:103D4000350B121613067CF4873011F08F5F01C01B
:103D500080E0482F50E09B01241B350BF90133967E
:103D6000379708F4B7CF28EF3FEF241B350B620FCE
:103D7000731F972FB0CF882311F08150B1CF87E008
:103D8000AFCF2301772457FC7094672CD4011B9686
:103D90004D915C911C97E885F9853197E081F0E0C1
:103DA0003896CF01880F991FFA01E80FF91F259166
:103DB0003491FC017097E40FF51F45915491B201C5
:103DC000C6010E94181BF1018081833031F4A8855F
:103DD000B985EC91E63009F083C0F40181859285C4
:103DE000181619060CF44AC08054910992878187ED
:103DF0002285822F022E000C990B97FF03C091950C
:103E0000819591092F3FD4F42D3F1CF52C3F09F0EB
:103E100035C0D4011B968D919C911C97FC01BE96D8
:103E200025913491FC01B69645915491B201C60199
:103E30000E94181BEE85FF85108220C01216F4F038
:103E4000D4011B964D915C911C97FC017496CF0197
:103E500004C0F401438554854496880F991FFA01E4
:103E6000E80FF91F25913491FC013897E40FF51FF5
:103E700045915491B201C6010E94181BD40152967B
:103E80008D919C915397181619060CF0B0CD923075
:103E900071F0933011F09130D9F4F4018385948559
:103EA000FC01B89625913491FC01B0960BC0D40169
:103EB0001B968D919C911C97FC01BA96259134918B
:103EC000FC01B29645915491B201C6010E94181BA3
:103ED000F4018289938980549140938B828B87CDA2
:103EE000D4011B964D915C911C97F0E03896CF0160
:103EF000880F991FFA01E80FF91F25913491FC01F1
:103F00007097E40FF51F45915491B2016D5F7F4F9B
:103F1000C60148960E94181B60CF7F928F929F9295
:103F2000AF92BF92CF92DF92EF92FF920F931F93C7
:103F3000CF93DF93CDB7DEB76E970FB6F894DEBFA1
:103F40000FBECDBFB82E882349F081E08093D90100
:103F5000FB0184918093EF018093E4078091D90164
:103F600091E0980F9093D901FB01E80FF11D649146
:103F7000E62FEF70E093E307862F807C80930A02A0
:103F8000607360930B02F0E0EE0FFF1FED54FE4FE5
:103F90000190F081E02D1092AB061092C9061092AC
:103FA000E7061092050710922307109241078490AC
:103FB00003EAE02E06E0F02E8F010E5F1F4F89EB23
:103FC000C82E86E0D82E912C9EE1A92E25E0722ED7
:103FD000981409F480C0F8013197E491E130E1F0E0
:103FE000B8F0E23049F1E33059F548EF5FE163E0C2
:103FF000CE0101960E94AA14FE013196D7018A2DA6
:1040000001900D928A95E1F7F6013797708218C0FA
:1040100046E659E160E003C048E550E261E0CE01C8
:1040200001960E94AA14FE013196D7018A2D0190B3
:104030000D928A95E1F704C048E250E262E0EFCFCA
:10404000F8018491E82FF0E0EE0FFF1FED56FE4FD0
:1040500080819181D7015A969C938E935997589657
:104060001C921E925797F8013196E491D60116974B
:10407000EC93F8013296E4911196EC93F8013396A3
:10408000E491D601EC93F8013496E491F60131976E
:104090001082F8013596E491F8013696E491D70143
:1040A00019961C9219971A96EC931A9753961C928C
:1040B0001E925297F6013E9781E08083C7010E94CD
:1040C0005A139394BEE1EB0EF11C085F1F4FEEE113
:1040D000CE0ED11C7DCF8091EF0181508093EF01F6
:1040E000BB2009F474C08091040290E0FC01E0550B
:1040F000FE4F20816091000170910101620F711DDE
:1041000027FD7A957093010160930001FC01E3554E
:10411000FE4F2081022E000C330B40910201509182
:104120000301420F531F509303014093020140913A
:10413000040150910501240F351F30930501209390
:10414000040120910A0130910B012130F5E23F0773
:104150006CF0FC01EE0FFF1FE955FE4F40815181CD
:10416000241B350B30930B0120930A01209106018B
:1041700030910701213047E034076CF0FC01EE0F6D
:10418000FF1FEF55FE4F40815181241B350B3093AB
:104190000701209306012091080130910901213087
:1041A000A7E03A076CF0880F991FFC01E556FE4F17
:1041B00080819181281B390B3093090120930801DC
:1041C000772788EE93E00E943036609374076E96EE
:1041D0000FB6F894DEBF0FBECDBFDF91CF911F9118
:1041E0000F91FF90EF90DF90CF90BF90AF909F9096
:1041F0008F907F9008959091E20724E0929FF001C4
:104200001124EB5AF94F8E5E8083675F618342838E
:1042100081E08383809168078150809368079F5F66
:104220009F3019F09093E20708951092E2070895E5
:10423000FC018485958597FD0BC09FB7F89482E0BB
:104240008093E9008091F2009FBF90E0019608956D
:104250009FB7F89482E08093E9008091F2009FBFBD
:1042600090E008954091E9075091EA072091E7070F
:104270003091E80742175307B4F49091E800957025
:10428000E1F39091E80092FD19C08093F1008091D4
:10429000E9079091EA0701968F739927892B19F402
:1042A0008EEF8093E8008091E9079091EA070196EC
:1042B0009093EA078093E90781E0089580E00895EC
:1042C000DF92EF92FF920F931F93CF93DF93D82E3D
:1042D0008A017B01E40EF51EEB01CE15DF0571F0BE
:1042E000D7FE03C0FE01849101C088810E94322163
:1042F00021968111F2CF8FEF9FEF01C0C801DF91AE
:10430000CF911F910F91FF90EF90DF900895615032
:1043100030F02091F100FC0120830196F8CF28981D
:1043200084E6809323020895CF93DF931F92CDB745
:10433000DEB7FC018485958597FD05C02FEF3FEF23
:10434000358724870BC0CE0101960E94661C019719
:1043500019F4898190E002C08FEF9FEF0F90DF91F9
:10436000CF9108950F931F93CF93DF931F92CDB7F3
:10437000DEB78C01FC018485958597FF0EC0CE01C8
:1043800001960E94661C019719F4298130E002C051
:104390002FEF3FEFF80135872487F8018485958555
:1043A0000F90DF91CF911F910F9108950F931F935D
:1043B000CF93DF931F92CDB7DEB782E0898342E4CB
:1043C00050E068E870E280E80E9460210E94901C42
:1043D000DC0112960D911C9113970115110569F0DE
:1043E000D801ED91FC910280F381E02DBE016F5F59
:1043F0007F4FC801099597FF07C089810F90DF9112
:10440000CF911F910F910895F80100851185E5CF97
:104410001F920F920FB60F9211248F939F9380914A
:10442000E1009091E100937F9093E10083FF0FC042
:104430001092E90091E09093EB001092EC0092E36F
:104440009093ED001092240298E09093F00082FF88
:1044500020C093E09093E9009091F200992319F025
:104460009AE39093E80090912102992339F090917A
:104470002102915090932102992389F19091230276
:10448000992339F09091230291509093230299231C
:1044900041F184FF10C08091E2008E7E81608093A4
:1044A000E2008091E1008F7E8093E1008091220202
:1044B0008E7E806111C080FF16C08091E2008E7EEA
:1044C00080618093E2008091E1008E7E8093E10024
:1044D000809122028E7E81608093220204C05D9AC8
:1044E000CDCF289AD6CF9F918F910F900FBE0F906E
:1044F0001F9018951F920F920FB60F921124CF9212
:10450000DF92EF92FF920F931F932F933F934F935E
:104510005F936F937F938F939F93AF93BF93EF932B
:10452000FF93CF93DF93CDB7DEB76C97DEBFCDBFE0
:104530001092E9008091E80083FFEDC168E0CE01B0
:1045400045960E94872182EF8093E8008D8987FF3E
:1045500005C09091E80090FFFCCF03C09EEF9093C0
:10456000E800982F907609F0C6C09E892F89188D93
:1045700091110CC0803829F48091E6078093F100F6
:1045800002C01092F1001092F10048C1422F50E099
:10459000512B913051F4811141C14130510509F045
:1045A0003DC18091E6078D7F0BC0933061F481118E
:1045B00035C14130510509F031C18091E607826073
:1045C0008093E6072BC1953041F48091E80080FF8D
:1045D000FCCF20682093E30021C1963009F05FC032
:1045E000EB8CFC8C1092E9001092EA071092E9071C
:1045F000123091F51092E8071092E7070E94D62139
:1046000099E0BE016F5F7F4FDB01E92F1D92EA95B4
:10461000E9F799831A8391E09E8390EA98879AEF4D
:1046200099872091E9073091EA07275F3F4F3C8344
:104630002B838D831092E9001092EA071092E9070C
:10464000F092E807E092E70749E050E080E00E943E
:1046500060210E94D621E2C0F092E807E092E707CD
:104660000E94901CDC011296ED90FC901397E114CF
:10467000F10409F4C0C0D701ED91FC910480F581EB
:10468000E02DBE016B5E7F4FC7010995009719F0C1
:104690000CF0C4C0C7C0F701E084F184E8CF9730C4
:1046A00009F4C0C0983021F481E08093F100B6C0D5
:1046B000993009F0B3C0837009F0B4C0E2EDF1E0C5
:1046C00081E021E036E39081992361F08093E90055
:1046D0002093EB0091919093EC003093ED008F5F6D
:1046E000873089F78EE78093EA001092EA008F897D
:1046F0008093240293C08B8D9C8D1092E9001092C0
:10470000EA071092E9079093E8078093E707898DFD
:10471000811156C08E899D89913A59F4813209F0F0
:1047200081C047E050E06FE071E080E00E946021CE
:1047300075C0913209F076C0833289F4888D90E09B
:10474000982F88272F89822BA0E0B0E08093170153
:1047500090931801A0931901B0931A015FC08032A1
:1047600069F48091E80082FFFCCF67E08FE091E080
:104770000E9487218BEF8093E80006C0823209F007
:104780004DC08F89809316018091E507882319F029
:10479000EEEFFAE002C0E0E0F8E080910F019091C6
:1047A0001001A0911101B0911201803B9440A1052C
:1047B000B10509F07BC08091160180FF93C076C0DF
:1047C0000E94901CDC0112960D911C91139701150B
:1047D000110541F1D801ED91FC910190F081E02D9E
:1047E000BE016B5E7F4FC8010995811117C0F801AA
:1047F00000851185ECCF113009F44EC0133091F4CF
:104800008F89882309F445C0823081F440E860E153
:104810008CEE90E20E946033882321F08EEF80932B
:10482000E80079C081E28093EB0075C0813029F403
:1048300040E86BE080EE90E2EDCF833099F70E9484
:10484000901CDC011296ED90FC9013978E010F5F87
:104850001F4F6801E114F10479F0D701ED91FC914B
:104860000680F781E02DB801C7010995080F111DD9
:10487000F701E084F184EECFD8011C92F60101909B
:104880000020E9F73197BF016C197D0940E0C601AE
:10489000C1CF6AEC70E202C06EEC70E26115710586
:1048A00009F2FB01449150E080E840CF0FB6F89444
:1048B000A8958091600088618093600010926000EC
:1048C0000FBEA895EE3F2AE0F20739F08091FE0A6C
:1048D0009091FF0A91838083A1CF1092FF0A1092DA
:1048E000FE0A9CCFEE3F8AE0F80731F0808191818B
:1048F0009093FF0A8093FE0A87E797E7918380836E
:104900009BE088E10FB6F894A895809360000FBEF5
:104910009093600083CF6C960FB6F894DEBF0FBE05
:10492000CDBFDF91CF91FF91EF91BF91AF919F915B
:104930008F917F916F915F914F913F912F911F9137
:104940000F91FF90EF90DF90CF900F900FBE0F90E0
:104950001F901895CF93DF93CDB7DEB7A7970FB60B
:10496000F894DEBF0FBECDBF789484B5826084BD5D
:1049700084B5816084BD85B5826085BD85B5816063
:1049800085BD80916E00816080936E0010928100E1
:10499000809181008260809381008091810081609C
:1049A000809381008091800081608093800080915D
:1049B000910082608093910080919100816080934A
:1049C0009100809190008160809390008091C1005F
:1049D00084608093C1008091C10082608093C10097
:1049E0008091C10081608093C1008091C30081608B
:1049F0008093C3008091C00082608093C00080914A
:104A0000C20081608093C20080917A0084608093AC
:104A10007A0080917A00826080937A0080917A0097
:104A2000816080937A0080917A00806880937A0018
:104A3000109224021092E607109222028091D70071
:104A400081608093D70080EA8093D80089B5806127
:104A500089BD89B5826089BD09B400FEFDCF61E0E2
:104A600070E080E090E00E9423128091D8008F7C5B
:104A700080618093D8008091E000807F8093E00087
:104A80008091E1008E7E8093E1008DE08093E200D2
:104A9000559A209AEEEFFFE7859194918B3F9C4DBC
:104AA00019F481E08093E50780E00E94061781EC0D
:104AB00080937C0085B1806F85B984B1877E84B98D
:104AC00084B1876E84B95E9A5F988AB1806D8AB925
:104AD000769A6E9881B3806F81BB899880B38D7010
:104AE00080BB80E58CBD81E08DBD0E942B1C5F9A50
:104AF0000E942B1C5E985C98EAE3F1E08DE08E0F3B
:104B000094919EBD00000DB407FEFDCF31968E132B
:104B1000F7CF5C9A81E880936400809165008160A2
:104B2000809365000E94341387FF15C05C9885EA66
:104B30008EBD00000DB407FEFDCF5C9A2E982F9815
:104B40002D988091640080628093640081E083BF2F
:104B5000889513BEFCCF82E090E00E94F933882351
:104B600031F03E9A3F9A81E08093D80104C01092C0
:104B7000D8013E983F988DE790E090930301809391
:104B800002018CE291E0909305018093040180E0A2
:104B90009BE490930B0180930A0180E09EE0909348
:104BA000070180930601909309018093080182E335
:104BB00090E0909301018093000180ED90E00E94CD
:104BC000C1148093040284E180937407809164008F
:104BD0008E7F8093640080917A00806480937A0055
:104BE00080917A0086FDFCCF0091780010917900C9
:104BF0000E94FE1120E030E0980111270027600F8D
:104C0000711F821F931F611571058105910511F0B8
:104C10000E94F03380916400816080936400AE0153
:104C20004F5F5F4F5A8F498F0E94311C882311F4C8
:104C30000C94063080E0EBE2F2E081118FEF00246B
:104C400081938193819381930394D1F7809172072B
:104C5000809373070E94341380937207809105023A
:104C6000823009F411C138F4882371F0813009F4DD
:104C70006AC00C940630833009F48BC1863010F47E
:104C80000C940F2F0C940630109209021092D90147
:104C900080EE9FEF909308028093070211E010933B
:104CA000050287E491E00E940713109267071092B3
:104CB000660710926C0780E09EE090936A078093ED
:104CC000690790936107809360072BE4209368073E
:104CD000109265071092640710926B0710935F079C
:104CE000A12CB12C6501C394A0925707B09258072C
:104CF000C0925907D0925A0720E030E048E150E0D6
:104D000020935B0730935C0740935D0750935E07E9
:104D10002DE730E030930301209302012CE231E0D3
:104D2000309305012093040120E03BE430930B0114
:104D300020930A0190930701809306019093090143
:104D4000809308011BC1009107021091080220E026
:104D50004DE253E0B80186E590E00E94271320E081
:104D60004BEC52E063E070E08EE090E00E9427138D
:104D700066E470E0601B710B20E041E654E187E3DC
:104D800090E00E94271364E370E0601B710B20E049
:104D900041E654E189E290E00E9427136EE170E061
:104DA000601B710B20E041E654E182E390E00E9439
:104DB000271320E04DE952E063E070E080E090E0EE
:104DC0000E942713E0900402FF24F394FE0C2F2D81
:104DD00049EC59E065E270E082E090E00E94271320
:104DE000015011090E373FEF13072CF01093080202
:104DF0000093070206C080E590E09093080280933C
:104E0000070281E00E94301B80E40E94251B88235A
:104E100099F041E04E1510F0F09204026091040206
:104E200080ED90E06FA30E94F9336FA1681721F025
:104E300080ED90E00E94013480E20E94251B8823CF
:104E4000A9F080910402882319F081508093040214
:104E50006091040280ED90E06FA30E94F9336FA18E
:104E6000681721F080ED90E00E94013488E00E94F4
:104E7000251B882311F40C94063082E080930502F0
:104E8000109209020C9406301092AB061092C906DB
:104E90001092E7061092050710922307109241071F
:104EA00080E090E0FC01EB5AF94F138204968C33BA
:104EB0009105C1F780E090E0FC01E35DF94F1382BA
:104EC000049688329105C1F710926C0700E01EE04D
:104ED00010936A07009369071093610700936007B6
:104EE0008BE4809368071092650710926407109214
:104EF0006B0781E080935F0780E090E0A1E0B0E085
:104F00008093570790935807A0935907B0935A0777
:104F1000A12CB12CF8E1CF2ED12CA0925B07B0923E
:104F20005C07C0925D07D0925E07109299068FECE5
:104F300095E00E94071380E590E09093080280932B
:104F4000070283E0809305028DE790E090930301D0
:104F5000809302018CE291E090930501809304011B
:104F600080E09BE490930B0180930A01109307016A
:104F700000930601109309010093080182E390E079
:104F8000909301018093000184E1809374070C9455
:104F9000063080910902843630F48A3038F4E6E035
:104FA000BE2E09E206C0B12C0EE203C073E0B72E9C
:104FB0000CE28091700781700E941315E090070247
:104FC000F090080220E5E216F104F4F432E0E31672
:104FD000F1040CF050C0EA94EF2809F0B6C08091BB
:104FE000090265E00E941036E92FF0E0EE0FFF1F86
:104FF000ED5CFE4F6081718181E00E948D1F1092F7
:10500000080210920702A1C050E5E516F10409F06C
:105010009CC085E0EFE1F1E0AAEDB1E001900D92D6
:105020008A95E1F785E0E4E2F1E0AFEDB1E00190CF
:105030000D928A95E1F785E0E9E2F1E0A4EEB1E0B6
:1050400001900D928A95E1F785E0EEE2F1E0A9EE9C
:10505000B1E001900D928A95E1F780E090E0FC01CB
:10506000E650FE4F1082FC01E051FE4F1082029686
:105070008A309105A1F76B2D70E06E5F7F4F20E0C5
:1050800045E259E08CE390E00E94271380910902E9
:10509000C82ED12C10E0833678F0C601019664E664
:1050A00070E00E943036262F49EC59E0B8018CE3BD
:1050B00090E00E94271302C08930A8F0C601019633
:1050C0006AE070E00E943036CB016AE070E00E9436
:1050D0003036282F49EC59E0B8016A5F7F4F8CE3E6
:1050E00090E00E942713C60101966AE070E00E94DA
:1050F0003036B801645F7F4F282F49EC59E08CE3CC
:1051000090E00E94271310E41B190B2D402F50E054
:1051100021E069E370E08DE697E00E943C130F5FA9
:105120001017A0F74B2D50E021E065E470E08DE60C
:1051300097E00E943C13B3941B15A0F781E0E81A96
:10514000F108F0920802E0920702809169079091BD
:105150006A07181619060CF0EBC32091600730910E
:105160006107121613060CF0E3C320916B0721119F
:10517000DFC302978F3FAFEF9A0729F090936A073A
:105180008093690704C010926A07109269070E9411
:10519000341387FF1AC080915B0790915C07A09140
:1051A0005D07B0915E078D3CECEC9E07A105B10553
:1051B00064F08C5C9C4CA109B10980935B079093CF
:1051C0005C07A0935D07B0935E070E94341384FFD1
:1051D00019C080915B0790915C07A0915D07B09129
:1051E0005E070097FDE2AF07B10564F48453934373
:1051F000AF4FBF4F80935B0790935C07A0935D0711
:10520000B0935E070E94341385FF1AC08091570740
:1052100090915807A0915907B0915A07873626EE0A
:105220009207A105B10564F08656964EA109B10911
:105230008093570790935807A0935907B0935A0744
:105240000E94341386FF19C0809157079091580728
:10525000A0915907B0915A07009736E6A307B10508
:1052600064F484539343AF4FBF4F80935707909399
:105270005807A0935907B0935A0784E00E94251B52
:10528000882319F088E080936B0788E00E94251B33
:10529000882309F440C0809168078823E1F1809158
:1052A000EE01811104C087E199E00E940713C090CC
:1052B0005707D0905807E0905907F0905A076701B8
:1052C000FF24D7FCF094EF2C80905B0790905C0754
:1052D000A0905D07B0905E074501BB2497FCB09499
:1052E000AB2C42E0682D8C2D0E94FB2080916C0736
:1052F000882389F090916807923068F081508093FC
:105300006C0741E0682D8C2D0E94FB2043E0682D46
:105310008C2D0E94FB208091070290910802892B1E
:1053200009F006C380919906882309F45DC0409076
:105330009106509092066090930670909406230117
:10534000772457FC7094672C809095069090960671
:10535000A0909706B0909806E0919F06F091A00665
:105360000491319614910E94C7182B8B3C8B4D8B66
:105370005E8B6F8B788F2B893C898D899E89A901E3
:10538000460F511D441655067CF5402F50E0440E43
:10539000551E2415350544F54501BB2497FCB094F2
:1053A000AB2C9C01270F311D82169306ECF4E12FE4
:1053B000F0E0E80DF91D8E179F07B4F431C6813077
:1053C00008F03EC680919C0690919D0690936A07D6
:1053D00080936907109299068091EE01811104C0B3
:1053E00085E796E00E94071308E5E02E06E0F02E20
:1053F000812C83E0982ED7018C918823E9F1F70165
:105400003397C080D12C3196A080B12C03EA16E0EE
:10541000F8018085882351F13801F9E06F0E711C85
:10542000D80119968D919C911A9718161906F4F4C3
:10543000C8010E9475142D873E874F87588B698B52
:105440007A8B2D853E858F859889C216D30674F098
:10545000260F311DC216D3064CF4A816B90634F037
:10546000870F911DA816B9060CF41CC6025E1F4FCB
:10547000F7E007351F0761F624E0E20EF11C34E97E
:10548000E31636E0F30609F0B6CF80916B07811181
:105490007EC00E94C718872F29833A834B835C8381
:1054A0006D837E83C980DA804B815C81D601A60F33
:1054B000B11DBD018A01080F111DE0E3F6E080E097
:1054C00090E020812223D9F09F0123503109D90196
:1054D0002C9130E07F01B2E0EB1AF108D701FC908B
:1054E0002C153D0564F0261737074CF42F2D30E0BE
:1054F0002417350724F0201731070CF400C6019655
:1055000034968A309105E9F60E94C71829833A83B8
:105510004B835C836D837E8300E010E0C8018D5572
:10552000994FFC012085222369F12585233051F113
:105530000E9475142F83388749875A876B877C8729
:10554000E981FA814B815C81FE802F8138858985D4
:105550009A85AD815F01AA0EB11C2A153B0594F412
:10556000260F311DE217F3076CF49A012F0D311D40
:10557000821793073CF4870F911D4817590714F4BD
:105580000C94A032025E1F4F043B110539F6809146
:105590000E01815080930E01811122C1B3EA8B2E3E
:1055A000B6E09B2E19EB212E16E0312E20EB36E0D3
:1055B0003C8F2B8F412C512CC4010E9475142983E0
:1055C0003A834B835C836D837E8329813A818B810F
:1055D0009C81F1013E974081442309F4E0C0D10150
:1055E0004C914111DCC03C964081442309F4D7C062
:1055F000A901460F511D141615060CF0D0C0203815
:1056000031050CF0CCC09C01270F311D37FDC7C000
:10561000803491050CF0C3C08091570790915807D2
:10562000A0915907B0915A073D01E9E06E0E711C37
:1056300080915B0790915C07A0915D07B0915E0738
:105640005D01F9E0AF0EB11CD4010D911D912D91BA
:105650003C916901FF24D7FCF094EF2CEB8DFC8D7D
:105660008081833009F4EAC5C4010E946A148695DA
:10567000082F10E00C0D1D1DF401C480D580E680BC
:10568000F7806701FF24D7FCF094EF2CAB8DBC8D25
:105690008C91833009F44CC5C4010E945F14869537
:1056A00090E0601A710AC80ED91EF501EC19FD09C7
:1056B000FAA3E9A36114710409F43DC5CF01FF0FFA
:1056C000AA0BBB0BDC01992788276C017D01FF0C1D
:1056D000CC08DC2C76019C01AD016C2D7C2D8C2D31
:1056E0009C2D00E10E9421376301072C000CEE087D
:1056F000FF088601FF24EE2457016801DD0CAA088B
:10570000BA2C6501AD8EBE8ECF8ED8A2570168012E
:10571000ED8CFE2C0E2D1E2D0E944C36F22FE32F09
:105720008F2F9E2FA42FB52FB7FF07C0B095A09540
:10573000909581959F4FAF4FBF4FEB8DFC8D308182
:10574000F101333009F0FCC437972081A9A0BAA039
:105750001A141B040CF411C5161417040CF075C5AB
:10576000843B41E29407A105B1050CF4EBC4AC0104
:10577000BD014D56544C610971094F3259486105BC
:10578000710518F4213009F4E0C4805E9749A74000
:10579000B10981329846AF4DB34008F452C5AFEF1E
:1057A0004A1A5A0ABEE18B0E911CEEE12E0E311CF4
:1057B0002B8D3C8D225E3F4F3C8F2B8F36E0431666
:1057C000510409F0F9CE6AE070E080E090E00E94B8
:1057D000B811DC01CB010A96A11DB11D80930E0109
:1057E00080910C0190910D01019790930D01809390
:1057F0000C01892B09F09CC080919906811198C0F9
:1058000064E070E080E090E00E94B811B62E8091D4
:10581000690790916A07813094400CF48DC580919E
:10582000600790916107813094400CF4A3C551E06A
:10583000B5125CC500910A0110910B01C801012E3F
:10584000000CAA0BBB0B6627782F892F9A2F20E01C
:1058500032E040E050E00E940F3449016DEDE62E49
:1058600066E0F62E79E1C72E77E0D72EB0929E063D
:1058700081E08093990620E030E040E850E02093FA
:10588000910630939206409393065093940666E3F4
:1058900070E080E090E00E94B811DB019927882732
:1058A0008093950690939606A0939706B0939806DA
:1058B0000E94EB339B0177FF04C022273327261B6E
:1058C000370BC9019927939590939B0680939A066D
:1058D0000E94EB339B0177FF04C022273327261B4E
:1058E000370BB80168197909C9010E943036940153
:1058F000280F391F30939D0620939C06D092A00656
:10590000C0929F06F092A206E092A10620910401A7
:105910003091050140E050E0609102017091030177
:1059200080E090E00E94DC1170930D0160930C0107
:1059300005E516E028E5C22E26E0D22E36E5E32E58
:1059400036E0F32EF6013197E0818E2F90E088301B
:10595000910550F5FC01EA5AFF4F0C944436F801CA
:1059600080818F5F8083D7018C9181508C931CC084
:10597000F80105C0D8018C918F5F8C93F70180816D
:105980008F5F11C0F801808181508083D7018C9195
:105990008F5FECCFF80105C0D8018C9181508C93BA
:1059A000F701808181508083D8018C91893710F074
:1059B000F6011082D7016C91613410F0F60110826B
:1059C000D6019C919923A1F070E06150710990E09B
:1059D00023E043E001970E943F1BF701408150E024
:1059E000D8016C9170E021E08DE697E00E943C13B5
:1059F0000C5F1F4FB4E0CB0ED11CE4E0EE0EF11CA7
:105A0000F6E001391F0709F09DCF0DE216E080E3B3
:105A1000C82E86E0D82E9EE2E92E96E0F92EF601F9
:105A20003197E0818E2F90E08830910550F5FC0190
:105A3000E25AFF4F0C944436F80180818E5F8083D8
:105A4000D7018C9182508C931CC0F80105C0D801FD
:105A50008C918E5F8C93F70180818E5F11C0F8016D
:105A6000808182508083D7018C918E5FECCFF801CA
:105A700005C0D8018C9182508C93F70180818250AF
:105A80008083D8018C91893710F0F6011082D701FC
:105A90008C91813410F0F6011082D6018C9188230C
:105AA000C1F0F701608170E061507109D8018C91FB
:105AB00090E023E043E001970E943F1BF701408103
:105AC00050E0D8016C9170E021E08DE697E00E94F3
:105AD0003C130C5F1F4FB4E0CB0ED11CE4E0EE0E84
