:100000000C940B100C9433100C9433100C9433108C
:100010000C9433100C9433100C9433100C94331054
:100020000C9433100C9433100C9464210C94D6214E
:100030000C9433100C9433100C9433100C94331034
:100040000C9433100C9433100C9433100C94331024
:100050000C9433100C9433100C9433100C94F51151
:100060000C9433100C9433100C9433100C94331004
:100070000C9433100C9433100C9433100C943310F4
:100080000C943F120C9433100C9433100C943310D6
:100090000C9433100C9433100C9433100C943310D4
:1000A0000C9433100C9433100C943310E9254C2627
:1000B000EE269A27EA2DEA2D462F2B2C272C302CC2
:1000C000322C3E2C3A2C422C442C982C942C9D2CD7
:1000D0009F2CAB2CA72CAF2CB12C5C325E32603243
:1000E00065326A326A326A326A327332733273321A
:1000F0007332A02DA02DA02DA02D9E2DDF14C11494
:10010000D014E51401150115EB14F114F7140E12B7
:10011000111A07040C0008090D131B15060E021115
:10012000171A141C150008090D030B060E00020413
:1001300016181A150C010307090B0D0E0E070809F6
:100140000D000112131A0B1C1415060E00010213E8
:100150001415060718191A0B0C0DD5F08D14A1C82B
:1001600081CFD9F1AF20000A40004000A080D0C06C
:10017000E86064041C21391B4B7347070F002050B3
:1001800050508888880000005E494E48C600000034
:100190000010157595957200000000002E2424644F
:1001A000A600040000003890909219001000000092
:1001B00073846014E3000000000C38F8A8A8A804B9
:1001C00002DADADA0204F800000000010202020298
:1001D00002010000008282829EA2A29E0000000016
:1001E00000C828C809C6000000000000000B09096B
:1001F000996800000000000080BC929C908C000078
:1002000000000000000006090906000000000009C7
:1002100038D805FDFFFF76FC8804000505070703B5
:10022000010001C282828EC2029E00005D484848E1
:10023000C8080C0000E5151515E20000000010A923
:1002400089893C0808000007000F0807000000002B
:1002500007294E5141C141110EE010F014E3000096
:10026000586445655840400E848484E680847982D1
:100270007008F300000000000000000015400000BE
:100280004428387C10000000FE0000A86C6E6E0E42
:100290004E4C680000408080C000000000FF00005D
:1002A000BB393D191A1A1C8C000004020307010017
:1002B00000001F0000757575757F777773384C14D3
:1002C0002C94C8D0C4D1802A0000372727070F27D5
:1002D0002737001C366F6D7B321E0D07000000288B
:1002E0006CEEEEEEEE6C2800002040C0E0800000D6
:1002F00000FE0000081C1C0C2E2E266F00000201C0
:10030000010300000000FF0000B7A7A7878FA7A781
:10031000B7000022141C3E080000007F0000737B21
:100320003B3B0B3B3B1B07308E51414181110E5330
:10033000545454B3000005354D4D340000E712F21B
:1003400012E2020310A88989081C0807000F080799
:1003500000000720CF21E121C1010121508B8A89B2
:1003600000009C023E221C008003010101010101EA
:100370000740708880700888702CB2A2A22200000A
:10038000C7282028C70000710AF88A7100009E2043
:100390001C823C0000878887C08F8000B0C8888995
:1003A0008802011C08080808080C0728D1919595B7
:1003B000D51B913D403804780000CF908E81DE003F
:1003C0008039444444380000111111130D00000716
:1003D000308E5141518E000013141434D30000218B
:1003E0005111117C10102E242464A60004B2CA8A74
:1003F0008A8900001C023E221C000009180000D15E
:100400009191DF1191111C20B9A4A4A4988000003F
:100410000004040404030000071D8E51504E811196
:100420000EE3141014E300000405054D3400000E23
:10043000011F110E00001322000000FC00FE01014C
:10044000FDA955FD0101FE00000000C03008043286
:1004500061E0C0C1E0F1F9800003040830C00F3052
:10046000408030181F0F0F1F3F7F0703038340306A
:100470000F000000FC01FE0000FE54AAFE0000FF79
:10048000000000000000000000010202020202025F
:1004900002020100000000E4020200750506007D72
:1004A000060800750504000080DC00090093000ABE
:1004B0000083000600AF000A000080AF00030026A2
:1004C000010400B8010400A50001000080AF00167F
:1004D00000AF001600AF00160000800C0E00A8FC54
:1004E000020252520A4202FC00000A1708180919B7
:1004F0000A180807000C0E00A8FC0242E2F2FAB249
:1005000002FC00000A17081808190B190807000C4C
:100510000E00A8FC02BABAAAAA1202FC00000A172E
:10052000081B0B1A0A190807000308000702070036
:10053000075504690200000D005504690000000D14
:100540000055046900000001001704AB0100000120
:10055000001704D500000001001704D500000001B9
:1005600000DC03810200000100DC03D50000000173
:1005700000A4031C0100000100A403460000006C5D
:1005800000A403220000006C00A403220000006C01
:1005900000A40322000000480070031C01000001B9
:1005A00000E4021C010000010070031C01000001B6
:1005B000003F031C010000010093021C0100000128
:1005C000003F031C0100000100E402810200000161
:1005D000006E024600000001000B02460000000110
:1005E000006E024600000001002A027B030080E446
:1005F00002F20100009000E402220000004800E442
:1006000002220000004800E402B10000006C00E497
:1006100002690000002400E4024600000048003F98
:1006200003690000002400A403690000002400DC2A
:10063000030A040000FB00DC0369000000240055ED
:1006400004460000004800DD044600000048007534
:10065000055D0200002400750522000000480075B9
:1006600005220000004800750522000000B3005577
:1006700004B100000024007505460000004800C8D1
:10068000057500000018007D06690000002400C800
:10069000056906008057001600570016005700161F
:1006A000000080072991111515951B11F301E11127
:1006B000E100013C4138047900008E444444860046
:1006C0000413141434D300000101010100000000E0
:1006D000002C015D0152005D0152005D0152005D80
:1006E00001520000000300720152007201520072B8
:1006F000015200720152000000030088015200887C
:100700000152008801520088015200000003009F3E
:100710000152009F0152009F0152009F01520000B0
:10072000000300B8015200B8015200B8015200B8ED
:1007300001520000000300D2015200D2015200D247
:10074000015200D201520000000300EE015200EEFF
:10075000015200EE015200EE015200000003000BB6
:100760000252000B0252000B0252000B0252000018
:10077000000300008007050E11131519110E0E0459
:1007800004040406041F01010E10110E0E11100CBA
:1007900010110E08081F090A0C080E1110100F0185
:1007A0001F0E11110F01021C0102040810101F0E70
:1007B00011110E11110E0708101E11110E0B1E152E
:1007C00000040E1F001F0E0400150000F20A7A8AB2
:1007D00072020200000000089494A22200000000AF
:1007E00000002F20272827202000000938000000C3
:1007F000C7282621EE20000000BC9292928C0000B7
:100800000000601010157210708880F08888887061
:1008100000000000BC9292928C00000000CA2AEAFC
:100820002AC5000000000300010201000C080015A9
:100830000011111F11110A0400152A7A50A050A0AE
:1008400010A090A080808080800040804080408008
:10085000408040804080408050A8542A954A24100F
:1008600010204080000055AA55AA00FF000000009B
:100870000000070405040504050405040504050437
:10088000050405040504050604000000000001FE3F
:1008900001020102001F1010101010101E020202AF
:1008A0000202020202020202020202020202020228
:1008B0000202020202020202020354AA54AA04F231
:1008C000141214121412101010F000A050A8542A80
:1008D000944A241214121412141214121410102018
:1008E0004080000055AA55AA00FF0000000000004B
:1008F000E020203F00AA5500FE0100000000E0209B
:1009000020A020A02020E0000000000001FE152A09
:1009100055AA00FF0000000000001F10141214125E
:1009200015101F00000000001F10151215121510E1
:100930001F000000000000FF000000000001020492
:1009400008102020202020202020202020202020CF
:1009500020202020202020202020202020100804DB
:100960000201000000000000000000000000946888
:10097000946814C81408140810081000104060800F
:1009800080804000800000000000000040A040A0E7
:1009900040204020000000002A55AA5500FF00001A
:1009A000000000F0109020204040808101030202EE
:1009B0000504080810F055AA55AA00FF010101011D
:1009C00001011F101215101F00000000001F10125F
:1009D0001512151214101111121E0000000000FF54
:1009E000050A050A00FF808080808080F0101010CA
:1009F00010F08080808080F0101010101010101007
:100A00001010101010101010101F0000008040A0D7
:100A100040A0402040000000000000000000000056
:100A20000000000040A040A0402040204000000006
:100A30000000000054AA55AA05F2190C0603010192
:100A4000010101FF00A040A040A000000000152A05
:100A5000152A00FF010101010102040810E055AA56
:100A600055AA00FF000000000000FE02422B502AA1
:100A70005500FE0202020202FE00205028532A0204
:100A8000FE000000000000FF0102050A001F2040D8
:100A900080000000010101010101010101008080CD
:100AA000000001010101010101010100000080407D
:100AB000201F0000000000000000000102020202EE
:100AC000020202020202020100000102020202020C
:100AD0000202020202020201000000005504A80006
:100AE0000000B0005504A80000005C013F03A8000E
:100AF0005504A800DC030C067003A8000000B00039
:100B00007003A80000005C017003A800E402A800C4
:100B10007003A800A403E200E402E200A403E200E0
:100B20001704E2003F03E2001704E2005504A800A6
:100B30000000B0005504A80000005C013F03A800BD
:100B40005504A800DC030C067003A8000000B000E8
:100B50007003A80000005C017003A800E402A80074
:100B60007003A800A403E200E402E200A403E20090
:100B70001704E2003F03E200DD04E2007505CF0840
:100B8000BA020604E402A8001003A8003F035F05B0
:100B9000A4035603000007001704A8005504A8008A
:100BA000DD04A80075055F05C805560300000700B1
:100BB000490755017D06A800C8055F05DD045603F9
:100BC00000000700C80555017505A8005504560327
:100BD000000007001704A800A403A8003F03A80012
:100BE000BA020604E402A8001003A8003F035F0550
:100BF000A4035603000007001704A8005504A8002A
:100C0000DD04A80075055F05C80556030000070050
:100C1000490755017D06A800C8055F05DD04AE0241
:100C20003F035501C805A8007505A80055045F05D8
:100C300000800F0F0F0304000600070707070707D0
:100C4000070707070707070707070711060002003E
:100C5000020002000200020002000200020005037E
:100C600001010301070505040E1F1F0A0F0F0F0FD7
:100C70000F050406090909060E040406040F020400
:100C80000906060904090604040F050607080701FA
:100C90000F0609070106020204080F0609060906E5
:100CA00003040A09060703070202020202074C0BAB
:100CB00000C63ACAA4D5E968F4EAF2EAF2AAF4E96D
:100CC000E9F4E874EAF29A6498014640800084D21C
:100CD000C258C898A0928ADAC852C4902050B00076
:100CE000000060108040A020A0408040909040A074
:100CF00020A020A04080905040A0A06004060304E3
:100D00000107070707060507070703070607070781
:100D10000707070706070304060607070705060770
:100D20000707020707050607050002000004040282
:100D30000506070706070607060607020706070651
:100D400007060605020403044C0B00C63ACAA4D5E4
:100D5000E968F4EAF2EAF2AAF4E9E9F4E874EAF2FA
:100D60009A6498014640800084D2C258C898A092E4
:100D70008ADAC852C4902050B00000006010804051
:100D8000A020A0408040909040A020A020A04080C3
:100D9000905040A0A060040603040107070707065F
:100DA00005070707030706070707070707070607DB
:100DB00003040606070707050607070702070705D6
:100DC00006070500020000040402050607070607DF
:100DD00006070606070207060706070606050204B9
:100DE00003044C0B112E2912554B0B972B272B2745
:100DF0002B174B4B174B172BA7AF137F0055555590
:100E000055007F254F1F5F9FDF8B4F2FCF9FDD1B2F
:100E10005D0F030B1117074B7F13AFA72B174B1752
:100E20004B4B172BA7AB272B970B4B5512292E118A
:100E300000000000000000000101010100000000AE
:100E4000000000000000000200000000000002009E
:100E50000001020002020200000000020201000084
:100E6000000000010200000000000000000000007F
:100E70000000000000000000000000004C0B312EBC
:100E80002912554B0B172B272B272A174B4B170BC8
:100E9000172B272F130D42310100006A50254F1BDD
:100EA000559FDF8A4F2FCF9BD51F5F0F030B111666
:100EB00007CB37CF7FBF77BF7FBBBF7EAF7FBF7D05
:100EC000BB7FB7BF5F2C99E61B010000000000004C
:100ED0000000000000000000000000000000000012
:100EE00000000000000000000000000102000202FB
:100EF00002000000000202010000000304000102E1
:100F000002020100010404010202020202010004C3
:100F1000050102020300241608C43ACAA4D5E968F0
:100F2000D4D4D4E9E8F679F5E9D6A8E914E21C01AD
:100F300098000000000000000000000080384728F2
:100F400097154B97972F554F574F572F1697AB2500
:100F5000535C6300100080826098E8EAD224C000ED
:100F60000000000200000000000101000001010279
:100F70000000001C200C121215292432092B091321
:100F8000150807001E10C0243ACAA4D5E968F4EA7F
:100F9000F2EAF2AAF4E9E9F4E874EAF29A64980150
:100FA000464080000039472817156B97AF9E6F1792
:100FB000972B2B2B964B0B374F5D2F2F5645390612
:100FC000300022168040460198649AF2EA74A834F0
:100FD000A969F4AAF2AAF2EA6AB26AF2EAF4A8E902
:100FE000D5A4CA3AC40070863945DE3FFE57FBF3EC
:100FF000BBD79FD3BFFFFBFBBDFAFDDEECC8EBDD2B
:10100000F9DB7FFF2847388000081714092A2505D7
:101010000A15131713170D0B020B1D0F25250B05B2
:101020000B1513160906211800000B0DF80681A6F2
:10103000B0B81818306040070810170707030301FD
:101040000100090CF00E41CED0C08080800304085E
:101050000B030301010009102080000000000011B3
:1010600004020000008820000000091000000011A8
:1010700004000040008820000000000004010080FF
:10108000F8FC5EAFDEBC78F0C000001E7FFFAAD780
:10109000AB57AF5FFFFEF8E080EF7FBA55AB57AEBE
:1010A000DFFFF7E34007FFFDEA57EF77FFFF7F071A
:1010B0000300000003070D06070301000000000DF8
:1010C00024000080F85CAEDCB870C0000000001E98
:1010D0007FAAD7AB57AF5FFEF8E00000806FBA552C
:1010E000AB57AEDFF7E340000007FDEA57EF77FFAD
:1010F0007F07030000000000030502030100000059
:10110000000001020408102040804000040001504B
:10111000000081400005FF0150000081400006FFF3
:1011200000251A0105FF0118031804000119000029
:1011300081400006FF0040FF0028FF0050000081B2
:1011400080C0E0F0F8F8FCFCFCFEFEFEFFFFFFFFB5
:10115000FFFFFFFFFFFFFFFFFFFFFFFFFFFFFFFEA0
:10116000FEFEFCFCF8F0C0000103070F0F1F1F1F5D
:101170003F3F3F7F7F7F7F7F7F7F7F7F7F7F7F7F3F
:101180007F7F7F7F7F7F3F3F3F1F1F0F0701FFFF55
:10119000FFFFFFFFFFFFFF0101010101010101014D
:1011A0000910FEFDC3BBBBBBC7FFFF01010101016D
:1011B00001010101271080C060B058A85CAC54AE9A
:1011C000FA8EF7959FF5979DF7959FFDFFFD7F7D23
:1011D0003FDDDFDD3FFEFEFE0CFC18F0C00001032A
:1011E000060D0A1D1A153A2F3877547C57745C7710
:1011F000547C5F7F5F7F5F7E5D7D5D7E3F3F3F18FC
:101200001F0C07010910FF7F87BBBBBBC7FFFF0097
:1012100001010101010101010910FFFFC7BB3BBB37
:10122000C7FFFF0101010100010101010910FFFFDA
:10123000C7BBBBBB877FFF010101010101010100A9
:101240000910FFFFC7BBBBBBC7EFEF0101010101E5
:10125000010101010910FFFFC7BBBBBBC3FDFE01BC
:1012600001010101010101010910FFFFC7BBB8BB6A
:10127000C7FFFF01010101010101010100000000A0
:1012800000F0FEFFFFFEFCE0000000000000000098
:1012900000008000000010387CFEFEFFFFFFFFFF13
:1012A000FFFFFFFEFEFE7C7C7C7CFEFFFFFFFE104E
:1012B00000000000001FFFFFFFFF7F0F0100000084
:1012C0000000000000010301000000000000000019
:1012D000000101000000000000000000000000000C
:1012E000000000001A19000000000000F09E9EFCA3
:1012F000E00000000000000000000000000000000E
:101300000010387C547CFFBBBBBBBBFF7C7C7C7C6F
:101310003838383828D6D7FE10000000000000000A
:101320001FF3F37F0F010000000000000000000029
:1013300001000000000000000000000000000000AC
:10134000000000000000000000000000000011117B
:1013500000001C3CFCD8B070E8C422120E00000053
:1013600000001C12110805030307074F6C30380CEE
:10137000000000000000000000000000000000006D
:10138000000000111100008080FC828CF0808080C1
:101390000000C0E00000000103037E82621F03031F
:1013A000030101070F010000000000000000000021
:1013B000000000000000000011110070901020409B
:1013C0008080C0C0E46C1838600000000070797E36
:1013D000371B1D2F478990E000000000000000002F
:1013E00000000000000000000000000000111100DB
:1013F00000000000040CCCFECC0C04000000000037
:10140000000814141212127FE37F1212121414082F
:1014100000000000000000000000000000000000CC
:101420000000111100006038186CE4C0C0808040DA
:10143000201090700000000000E09089472F1D1BD5
:10144000377E7970000000000000000000000000FE
:101450000000000000000011110000E0C00000804A
:101460008080F08C82FC8080008000010F070101E9
:101470000303031F62827E030301000000000000DB
:10148000000000000000000000000000111100003A
:1014900000000E1222C4C870B0D8FC3C1C00000032
:1014A000000C38306C4F07070303050811121C00AD
:1014B000000000000000000000000000000000002C
:1014C00000111100205050909090FC8EFC90909054
:1014D000505020000000000000406067FF6760403F
:1014E00000000000000000000000000000000000FC
:1014F000000000000000060002F0D0000000010023
:1015000002F0D010000001010000F02400000201F0
:10151000000002240000020002F0204A0001010045
:1015200002F0205A000101050002F0D00000000185
:101530000002F0D028000001010000F94400000280
:101540000002002000010101000200202801010129
:10155000050002F0D0000000010002F0D0280000D9
:1015600001010000F9440000020002002000010116
:101570000100020020280101010503000000040011
:101580000005030000F43E0000050002F0D000005A
:1015900000010002F0D0230000010002F0D046005C
:1015A000000106000000F012000001000000F90038
:1015B0000000010000000212000001020000E440EF
:1015C000000002020000F52C0000020200000640AC
:1015D000000002060003D6D0000000010003E6E090
:1015E00000000001010000EB14000002010000F9FE
:1015F000240000020100000734000002010000F98D
:1016000040000002050002F0D0000000010002F0DE
:10161000D028000001010000F9440000020002F09F
:1016200020140001010002F0203C00010104000030
:1016300000F012000001000000F9000000010000AD
:10164000000212000001030000003000000A050043
:101650000100050000000100010005140000010068
:101660000100EC00000101000100EC140001010088
:101670000000F92800010104000000E7000000015B
:10168000000000F9000000010000000B0000000154
:10169000020000F51600000104000000F100000047
:1016A000010000000300000001010000F112000031
:1016B0000201000003120000020500010005000005
:1016C0000101000100EC14000001010000E73200FC
:1016D0000002010000F9320000020100000B32009C
:1016E000000205010000E724000002000000F012E3
:1016F000000001000000F9000000010000000212DB
:101700000000010100000B2400000202000000059F
:10171000000000010000000018000001000000FBB4
:1017200050000001000000F6680000016812541229
:1017300040122C1218120412B411A0118E118E1125
:101740008E118E118E118E1140118E11F01CBE1C47
:101750008C1C5A1C2A1CFA1BCA1B9A1BE412E4128A
:10176000E412E412E412E412E412E4127C127C1299
:101770007C127C127C127C127C127C12F01CBE1C2F
:101780008C1C5A1C2A1CFA1BCA1B9A1BC1148C14D1
:1017900057142214ED13B81383134E133919061975
:1017A000D318A0186D183A180718D417F01CBE1CCF
:1017B0008C1C5A1C2A1CFA1BCA1B9A1BF8FCFEFF25
:1017C000FFFFFFFFFFFFFEFC0F1F3F3F3F3F3F3F7D
:1017D0003F1F0F07001E3EFEFEFCF8F8FCFEFF3F19
:1017E0001F0F0000003C3E3F3F1F0F07070FCFFFBA
:1017F000FF7C7C7E0E000000000000000000000066
:10180000000000000000000080C0FCFEFFFEFCF0B5
:10181000C0C080C0E0F0E0000103077FFFFFFF7F52
:101820001F070703070F1F0F010000000000010042
:101830000000000000000000000078F8F8F8F0E078
:10184000C0C0E0E6FEFE7C7CFCE00000F0F9FFFF9B
:101850007F3F3F7FFFFFF9F0E00000000000000045
:101860000000000000000101010100000000000074
:1018700000040EDEFEFFFEDE0E0400000000081C69
:101880003E3E3F3F7FFFFFFF7F3F3F3E3E1C080045
:101890000000000000000001000000000000000047
:1018A00000E0FC7C7CFEFEE6E0C0C0E0F0F8F8F86A
:1018B00078000000E0F0F9FFFF7F3F3F7FFFFFF976
:1018C000F000000000010101010000000000000024
:1018D00000000000E0F0E0C080C0C0F0FCFEFFFEB1
:1018E000FCC08000010F1F0F070307071F7FFFFFCA
:1018F000FF7F07030100000000000000000000005F
:101900000100000000000000000F1F3FFFFEFCF878
:10191000F8FCFEFE3E1E00000E7E7C7CFFFFCF0F1B
:1019200007070F1F3F3F3E3C000000000000000083
:101930000000000000000000002070F8F8F8F8FC3B
:10194000FEFFFEFCF8F8F8F870200000000041E10E
:10195000F7FFFFFFF7E1410000000000000000007A
:101960000000000100000000000000001111000054
:101970001C3CFCD8B070F8EC3E1E0E0000000000CD
:101980001C1E1F0D07030307074F6C30380C0000A7
:101990000000000000000000000000000000000047
:1019A00000111100008080FCEEFCF08080800000BF
:1019B000C0E00000000103037EEE7E1F030303016D
:1019C00001070F01000000000000000000000000FF
:1019D00000000000000011110070F0F060C0808075
:1019E000C0C0E46C1838600000000070797F371BBD
:1019F0001D3F6FF9F0E00000000000000000000053
:101A000000000000000000000000001111000000B4
:101A10000000040CCCFECC0C040000000000000808
:101A20001C1C161E1E7FE37F1E1E161C1C080000B9
:101A300000000000000000000000000000000000A6
:101A4000111100006038186CE4C0C08080C060F0E4
:101A5000F0700000000000E0F0F96F3F1D1B377FC1
:101A6000797000000000000000000000000000008D
:101A7000000000000011110000E0C0000080808024
:101A8000F0FCEEFC8080008000010F0701010303E1
:101A9000031F7EEE7E030301000000000000000033
:101AA0000000000000000000000011110000000014
:101AB0000E1E3EECF870B0D8FC3C1C000000000C80
:101AC00038306C4F07070303070D1F1E1C00000072
:101AD00000000000000000000000000000000011F5
:101AE0001100207070D0F0F0FC8EFCF0F0D070701F
:101AF00020000000000000406067FF6760400000B9
:101B000000000000000000000000000000000000D5
:101B10000000000080E0F0E0000A3F7F3F0200008C
:101B200000000040F0F8F000127FFF7F020000008C
:101B3000000040FCFEFC4017FFFFFF120001030104
:101B40000060FEFFFE702037FFFFFF7722000307D3
:101B500003000005130080E00000000A3F020000BF
:101B60000000000005130040F0000000127F02009A
:101B7000000000000005130040FC40000017FF12A9
:101B800000000001000006130060FE202000003766
:101B9000FF2722000000030000000E0EEEE0E00030
:101BA00080DCDFFF677373700000E0E0FBBB3FE7A2
:101BB000E7E7070100C0DCDC1C00010303030000B1
:101BC000000000000001010100000F1F6FF4E8FC9D
:101BD000DEFFFFE7F07F1F47E040C0E8FECF0F6762
:101BE000F7FFFF9F3D10C0E2F76201010103010012
:101BF0000000010000030303000000001C1C7CFC2B
:101C0000FCF8F8FC3C1C00000000000038383E1FC7
:101C10000F0F070F1F1E1C00000000000000000037
:101C20000000000000000000000070F0F0FEFEFE6A
:101C3000F8F0F8F8FC7E3E0E000000F0FDFF7F7F1C
:101C40003F1F0F1F3F3F7C7070000001010100002B
:101C5000000000000000000000001012000400401E
:101C60000000008088420001200000008040001138
:101C70000002400200000000800800000000010097
:101C80000000000000000000000000001012060F1D
:101C90000460C0C88C9EC7C060100200400080C0B5
:101CA000C806070363678F0D100000C062000000C4
:101CB0000001000000000000000001000000101200
:101CC000000000001070E0E0F030080000000000AC
:101CD00000000010080E07070307060800000000B8
:101CE00000000000000000000000000000000000F4
:101CF00010122060E0E0FCF8F0E0F0F078380C0022
:101D000000000000E07D3F3F1F0F070F1F1C302029
:101D100000000000000000000000000000000000C3
:101D2000000060FEFFFE702037FFFFFF77220003F8
:101D300007030000000080F0FCFEFFFEFCF0F0F066
:101D400070F0F8F8F02002070F7FFFFFFFFFFF7F22
:101D50007F7A70FFFFFFFF200000000001030703F0
:101D6000010000000000000000000000A0FEFFFED7
:101D7000FC70F0F8F02002072FFFFFFFFF777FFFD6
:101D80007F200000000307030100000000007070C6
:101D9000FEFFFE707277FFFFFF770000030703006E
:101DA00070F8F8F870FCFEFFFEF0000070FFFFFF17
:101DB00077FFFFFFFF7F070200000000000103071D
:101DC0000300000070F8F8F8F870F0F0F0FCFEFF87
:101DD000FEFCF080000070FFFFFFFF707A7F7FFF46
:101DE000FFFFFFFF7F0F0702000000000000000060
:101DF0000001030703010000000006130060FE203D
:101E000020000037FF27220000000300000012130B
:101E10000000000060FCFEFC606060202020F0F00C
:101E200020000002070737FFFFFF3737322020204E
:101E30007F7F20000000000000010301000000007F
:101E40000000000000000C1300000020FEFC202019
:101E500020F0200000020727FFFF272220FF20009C
:101E60000000000003010000000000000613002035
:101E700020FE6000002227FF370000000003000062
:101E80000C130020F0202060FCFE20000000002049
:101E90007F202237FDFF2507020000000000000020
:101EA00001030000000012130020B0F02020206089
:101EB0006060BC66BC600030000000206F7F2020A6
:101EC00020323735ED37ED3507670200000000009E
:101ED00000000000000001030100000000000020DD
:101EE000B0F0202020606060BC66BC600060000034
:101EF00000206F7F202020323735ED37ED35073752
:101F000002000000000000000000000001030100CA
:101F1000000000000C0E00A8FC0222226222E20255
:101F2000FC00000A17081808180818080700DF1A2C
:101F3000AA1A751A401A0B1AD619A1196C1939194F
:101F40000619D318A0186D183A180718D417F01CE2
:101F5000BE1C8C1C5A1C2A1CFA1BCA1B9A1BA61ED0
:101F6000801E6C1E461E0E1E461EFA1D801EC41DBF
:101F7000A01D8E1D6A1D341D6A1D221DA01DF01C92
:101F8000BE1C8C1C5A1C2A1CFA1BCA1B9A1B861BC3
:101F9000751B641B531B411B321B231B141B080B9B
:101FA0000002020201000904000001020200000513
:101FB0002400100105240101010424020605240661
:101FC00000010705810310004009040100020A0016
:101FD00000000705020240000007058302400000E0
:101FE0000403090412010002EF020140412336807C
:101FF00000010102030141726475696E6F204C4C4F
:10200000430041726475696E6F204C656F6E61723A
:10201000646F0000F73211241FBECFEFDAE0DEBF9D
:10202000CDBF11E0A0E0B1E0E0E6FFE602C0059020
:102030000D92A03AB107D9F727E0A0EAB1E001C0BC
:102040001D92A638B207E1F710E1CBE0D0E104C061
:102050002197FE010E94B336CA30D107C9F70E940A
:1020600006240C94AE370C940000CF92DF92EF92CE
:10207000FF920F931F93CF93DF936C017A018B0133
:10208000C0E0D0E0CE15DF0589F0D8016D918D015B
:10209000D601ED91FC910190F081E02DC6010995EA
:1020A000892B11F47E0102C02196ECCFC701DF918C
:1020B000CF911F910F91FF90EF90DF90CF900895F7
:1020C0008091C301E091C101F091C201882349F0E0
:1020D000CF0102969093C2018093C10185919491A2
:1020E0000895CF0102969093C2018093C10180812F
:1020F00091810895CF92DF92EF92FF920F931F93F9
:10210000CF93DF930E946010811520E8920761F45D
:10211000809171008D7F809371001092910046989C
:1021200047981092A1018BC021E02093A10181303A
:1021300020E8920751F48091BF019091C0019093E3
:10214000C2018093C1010E94601097FD05C02091DB
:10215000BE01222309F43FC02091BD0121113BC0E3
:1021600021E02093C401EC01DF77209769F481E03E
:102170008093C50146983FE9C32E3FE0D32EE12C62
:10218000F12CCAEFD0E014C08E0120E030E060E412
:1021900072E48FE090E0A90198010E947E34690109
:1021A0007A0181E0C81AD108E108F1081092C5014E
:1021B000E091DC05F091DD050995811103C081E016
:1021C0008093C5018091C4018823B9F18091C50134
:1021D000811133C003C01092C401C5CF46992DC0F0
:1021E000479A0E946010009771F09C01DE010E94E6
:1021F000D234DC01CB0129E0B595A7959795879559
:102200002A95D1F703C08FEF9FEFDC011092900069
:102210002AE020939100D0929900C0929800809378
:10222000C6019093C701A093C801B093C9018091E2
:10223000710082608093710002C04798D2CFDF9115
:10224000CF911F910F91FF90EF90DF90CF90089565
:102250008091A00108950895089580E090E0089588
:102260000E94A937CF93DF9300D000D0CDB7DEB75F
:10227000611571058105910579F09B01AC016983B8
:102280003A834B835C830E942C3429813A814B81B1
:102290005C810E947E3403C060E070E0CB010F904F
:1022A0000F900F900F90DF91CF910895CF92DF9212
:1022B000EF92FF920F931F9362177307840795079E
:1022C00084F489019A016B017C01C901B8016C1980
:1022D0007D098E099F090E9432116C0D7D1D8E1D96
:1022E0009F1D1F910F91FF90EF90DF90CF90089569
:1022F000CF93DF93E90121E02C8399838883242FF6
:10230000440F330B440B550B062E000C770B880B38
:10231000990B0E9456116A8362E070E080E090E0C1
:102320000E9432116B83DF91CF9108953FB7F894EB
:102330008091CB019091CC01A091CD01B091CE01C3
:1023400026B5A89B05C02F3F19F00196A11DB11D10
:102350003FBFBA2FA92F982F8827820F911DA11D4B
:10236000B11DBC01CD0142E0660F771F881F991F88
:102370004A95D1F708958F929F92AF92BF92CF92D4
:10238000DF92EF92FF926B017C010E9496114B014C
:102390005C01C114D104E104F104F1F00E94961132
:1023A000DC01CB0188199909AA09BB09883E934031
:1023B000A105B10570F321E0C21AD108E108F108C6
:1023C00088EE880E83E0981EA11CB11CC114D104B4
:1023D000E104F10419F7DDCFFF90EF90DF90CF908B
:1023E000BF90AF909F908F9008951F920F920FB65D
:1023F0000F9211242F933F938F939F93AF93BF938B
:102400008091D6019091D701A091D801B091D901C6
:102410003091CA0123E0230F2D3720F40196A11D2E
:10242000B11D05C026E8230F0296A11DB11D209302
:10243000CA018093D6019093D701A093D801B0939D
:10244000D9018091CB019091CC01A091CD01B091A7
:10245000CE010196A11DB11D8093CB019093CC01BB
:10246000A093CD01B093CE01BF91AF919F918F9179
:102470003F912F910F900FBE0F901F9018951F92B4
:102480000F920FB60F9211242F933F934F935F93A8
:102490006F937F938F939F93AF93BF93EF93FF932C
:1024A0008091C6019091C701A091C801B091C90166
:1024B000892B8A2B8B2B81F18091C50181110BC057
:1024C00098B180E4892788B98091C401882319F0E4
:1024D00088B1805888B98091C6019091C701A091B8
:1024E000C801B091C901181619061A061B06B4F4E2
:1024F0008091C6019091C701A091C801B091C90116
:102500000197A109B1098093C6019093C701A093D7
:10251000C801B093C90102C00E947A10FF91EF91E7
:10252000BF91AF919F918F917F916F915F914F91EB
:102530003F912F910F900FBE0F901F9018959C0107
:10254000E1E7F0E090819D7F908381E08093C3017B
:102550003093C2012093C1013093C0012093BF0189
:102560000C947A10EF920F931F933AEFE32E00E052
:1025700010E00E94F01C1F910F91EF900895EF92D0
:102580000F931F9332E0E32E00E010E00E94F01C56
:102590001F910F91EF900895BC0180E090E00C94A2
:1025A000BB118FB18095807F669B88601C9B846087
:1025B000089560387105D0F440345105B8F4E2E074
:1025C000F1E180E1849FD001A0781124A60F47702B
:1025D000E40FF11D8491A452BE4F222319F06C9197
:1025E000862B03C080956C9186238C930895CF929F
:1025F000DF92EF92FF920F931F93CF93DF93EC0143
:102600008885882309F4EFC08E89882311F08150D2
:102610008E8B8E898111E7C02B8D2111AAC0498D27
:102620005A8DEF88F88CF7013296E40FF51F04916C
:10263000FA01EE0DFF1D849197012F5F3F4FFA01C4
:10264000E20FF31F14919D89292F207FC22EE82FBE
:1026500009F0E1959F70D92E09F01195013809F420
:1026600086C0083008F051C06889062E000C770B30
:102670006E0F711DE7FD7A95072E000C880B990BE4
:102680000E94863520E030E040E852E40E94E234C7
:1026900020E030E040E857E40E9412360E944E35B8
:1026A000688379838A839B836989062E000C770B64
:1026B000610F711D17FD7A95072E000C880B990B81
:1026C0000E94863520E030E040E052E40E94E2348F
:1026D00020E030E040E857E40E9412360E944E3578
:1026E0006C837D838E839F838D85833019F486E090
:1026F0008E8701C00E87CC2009F468C0EE85D1100A
:102700006CC0F0E0E65CFE4F6BC0EC8F1D8F8E2F2F
:10271000EE0F990BAA0BBB0BDC0199278827488188
:1027200059816A817B81840F951FA61FB71F8883FB
:102730009983AA83BB83812F110F990BAA0BBB0B23
:10274000DC01992788274C815D816E817F81840F10
:10275000951FA61FB71F8C839D83AE83BF83015037
:102760000B8F83E0E80EF11CF88EEF8A3CC01886D0
:102770003AC08C8D082E000C990BAA0BBB0BDC0108
:1027800099278827488159816A817B81840F951F09
:10279000A61FB71F88839983AA83BB838D8D082EBC
:1027A000000C990BAA0BBB0BDC01992788274C81E5
:1027B0005D816E817F81840F951FA61FB71F8C835B
:1027C0009D83AE83BF8321502B8F0DC0DD2049F246
:1027D000EE85F0E0EE5CFE4F03C0F0E0E65DFE4FFC
:1027E00080818E87BECFDF91CF911F910F91FF9097
:1027F000EF90DF90CF900895DC011B96ED91FC9156
:102800001C973E9685919491FC0184910895DC017A
:102810001B96ED91FC911C973C9685919491FC013F
:10282000849108950F931F93CF93DF9300D000D02E
:1028300000D0CDB7DEB78C01FC0180819181A281EF
:10284000B381CD0101969A83898384819581A68184
:10285000B781CD0101969C838B83C8010E94071428
:1028600082508D83C8010E94FC137EEF780F29816E
:102870003A814B815C816D8180E090E026960FB6B5
:10288000F894DEBF0FBECDBFDF91CF911F910F91A6
:102890000895FC0110821182128213821482158223
:1028A000168217821286118654874387138A128AEA
:1028B0006587108683E0848B138E86E08787089572
:1028C0000F93CF93DF93C0E0D0E0FE01ED55FE4FB4
:1028D0008381843059F4628170E000E02EE730E1BA
:1028E0004FEB50E1808191810E94541E2496C031AB
:1028F000D10559F7DF91CF910F9108950F93CF93A1
:10290000DF93C0E0D0E0FE01ED55FE4F83818530BE
:1029100059F4628170E000E02EE730E14FEB50E1C6
:10292000808191810E94541E2496C031D10559F7AF
:10293000DF91CF910F9108959F92AF92BF92CF9266
:10294000DF92EF92FF920F931F93CF93DF93982E16
:1029500093EAE92E91E0F92E25EAC22E21E0D22E4B
:10296000E601870135E0A32EB12CE9814E2F50E01E
:102970004930510508F045C0FA01E258FF4F0C9468
:10298000B33680910E0790910F07B5010E948B36E8
:10299000892BB9F1688170E020E04AE650E12CC053
:1029A00080910E0790910F07B5010E948B36892BFD
:1029B00041F1688170E020E046E550E11DC068818A
:1029C00070E020E042E450E117C0688170E020E050
:1029D0004AE250E111C0688170E020E042EC5FE023
:1029E0000BC0688170E020E044E85FE005C06881CA
:1029F00070E020E046E15FE0F801808191810E9473
:102A0000B2120C5F1F4FFFEFAF1ABF0A249629E0E6
:102A1000A216B10409F0A9CF8091E7058823A9F097
:102A20008091E605882319F042EE5DE002C04CE794
:102A30005EE06091E505062E000C770B20E08091AA
:102A4000E3059091E4050E94BF128091E20588237E
:102A5000A9F08091E105882319F04EEA5CE002C0FC
:102A600048E45DE06091E005062E000C770B20E065
:102A70008091DE059091DF050E94BF1291103EC14A
:102A8000C6EAD1E0B12C02EA10E086E0A82EF701F8
:102A900080819181019791838083863A9F4F0CF0CA
:102AA000CDC08091B501843009F4C8C0F70111830D
:102AB0000083BB2019F03197808102C08091B20160
:102AC000863098F48091BC01882329F02DE030E015
:102AD00040E050E004C020E130E040E050E060E041
:102AE00070E0CB010E94561106C06DE070E080E0FE
:102AF00090E00E943211962F9695963028F0862FFE
:102B00006A2D0E947F369A5F943088F09630E8F5FF
:102B1000988360E470E080E090E00E943211DC0174
:102B2000CB014097A109B109F601808387C0988342
:102B30008091E205882361F02091E005022E000CCF
:102B4000330B28513109032E000C440B550B04C0E4
:102B500028E230E040E050E08091E705882361F012
:102B60006091E505062E000C770B685E7F4F072EFF
:102B7000000C880B990B04C064E070E080E090E0EA
:102B80000E945611F601608359C098838091E20536
:102B9000882361F02091E005022E000C330B2652B1
:102BA0003109032E000C440B550B04C020E330E028
:102BB00040E050E08091E705882361F06091E505F1
:102BC000062E000C770B685E7F4F072E000C880BDB
:102BD000990B04C06AEF7FEF8FEF9FEF0E945611B1
:102BE000F60160838091E705811112C062E370E015
:102BF00080E090E00E943211DC01CB0188539F4FAE
:102C0000AF4FBF4F23EE35E040E06CEF0E947811EC
:102C10008091E205811112C062E370E080E090E0F3
:102C20000E943211DC01CB0188539F4FAF4FBF4F41
:102C30002EED35E049E365E30E947811B394F4E0AA
:102C4000EF0EF11C24E0C20ED11C249684E0B812D1
:102C50001ECF8091E705882379F08091E30590915C
:102C6000E40501979093E4058093E305863A9F4F2E
:102C7000ACF41092E70512C068E270E080E090E0EA
:102C80000E943211672B682B692B41F423EE35E04B
:102C900040E06CEF82EA90E00E9478118091E205BA
:102CA000882379F08091DE059091DF05019790935C
:102CB000DF058093DE05863A9F4F04F51092E2050A
:102CC0001DC068E270E080E090E00E943211672B46
:102CD000682B692B99F42EED35E049E365E382EA30
:102CE00090E0DF91CF911F910F91FF90EF90DF90D7
:102CF000CF90BF90AF909F900C947811DF91CF91BF
:102D00001F910F91FF90EF90DF90CF90BF90AF9009
:102D10009F9008958F929F92AF92BF92CF92DF9231
:102D2000EF92FF920F931F93CF93DF9300D000D0C9
:102D3000CDB7DEB78091DA019091DB0101968F313A
:102D4000910528F49093DB018093DA0104C010927E
:102D5000DB011092DA018091BB01882319F08150C8
:102D60008093BB01D09004071091050747E7A42E7C
:102D7000B12CE12CF12C20E0A701B5018BE097E00C
:102D80000E94D9128FEFE81AF80A90E4E916F104CC
:102D900091F7EFEFAE1ABE0AF0E8AF16B10449F7AB
:102DA00020E430E048E750E060E070E088E790E041
:102DB0000E947B1E20E045EA5CE064E170E089E768
:102DC00090E00E94BF1220E045EA5CE06BE270E018
:102DD00089E790E00E94BF1219821A821B821C822E
:102DE000CE0101967C01FC013AE0A32EB12C24E037
:102DF000280F8D2D912FB5010E948B368193D62EF1
:102E0000172F2E13F6CF1FE0F70101917F01612FDD
:102E100070E02CE63CE041E75CE08AE790E00E944D
:102E2000541E15501B3F81F78091000790910107B8
:102E300097FD02C0292F01C020E04EE165E67CE04D
:102E400087E10E94001F809107079091080797FD76
:102E500002C0292F01C020E043E36EE57CE08EE252
:102E60000E94001F8091BB01882309F466C0109165
:102E70000607C090F706D090F806E090F906F090AB
:102E8000FA06C701BB2797FDB095AB2F4091FB0613
:102E90005091FC066091FD067091FE06AB0177270C
:102EA00057FD7095672F20910F01473028F422239A
:102EB00051F010920F0107C04B3228F0211103C0CE
:102EC00021E020930F0120910F01211102C023E185
:102ED00001C02AEF55277A01E20EF11C27FDFA9472
:102EE0006C01DD2400E02AE33CE04BE45CE0B70148
:102EF000C6010E94541E113130F48091DA01909184
:102F0000DB010F97D0F0812C912CA12EB12CF2E097
:102F1000EF0EF11C8A149B0484F400E022E33CE0F1
:102F200045E35CE0B701C6010E94541E8AE0880EAA
:102F3000911C92E0C90ED11CEDCF0F900F900F9015
:102F40000F90DF91CF911F910F91FF90EF90DF9045
:102F5000CF90BF90AF909F908F9008952F923F9207
:102F60004F925F926F927F928F929F92AF92BF9299
:102F7000CF92DF92EF92FF920F931F93CF93DF9345
:102F8000CDB7DEB762970FB6F894DEBF0FBECDBFE8
:102F90008A8BA0E52A2EA6E03A2EB3E48B2EB6E06B
:102FA0009B2E8BE496E09F878E87A9E5B6E0B98BD0
:102FB000A88BE2E5F6E0F987E887FA89F11105C008
:102FC000D1018C91833029F41CC0F10180818330C0
:102FD000C1F4C4010E94F712C4010E941214298393
:102FE0003A834B835C8329813A818B819C81AE85B6
:102FF000BF854C91442329F0A889B9894C91442379
:1030000099F1FEE12F0E311C2EE1820E911C8E856E
:103010009F854E969F878E87A889B9895E96B98BC2
:10302000A88BE885F9857E96F987E887F4E02F1666
:10303000F7E03F0611F662960FB6F894DEBF0FBEBA
:10304000CDBFDF91CF911F910F91FF90EF90DF9057
:10305000CF90BF90AF909F908F907F906F905F9038
:103060004F903F902F900895A901460F511D1416BF
:1030700015063CF62038310524F69C01270F311D3A
:1030800037FDBFCF803491050CF0BBCFF101F0814B
:10309000FF83F33009F031C18091F7069091F80673
:1030A000A091F906B091FA063D01E9E06E0E711C9F
:1030B0008091FB069091FC06A091FD06B091FE0662
:1030C0008D01075F1F4FF40180819181A281B3813F
:1030D0007D01FDE1EF0EF11CF40184819581A68153
:1030E000B7815D01DD24B7FCD094CD2CC4010E94D2
:1030F000FC136E187F08869590E08A0D9B1D2801B1
:10310000481A590A6114710409F43FC0C201550CF0
:10311000AA0BBB0BDC01992788276C017D01FF0CF2
:10312000CC08DC2C76019C01AD016C2D7C2D8C2D06
:103130009C2D00E10E9490376301770CEE08FF0898
:103140008601FF24EE2457016801DD0CAA08BA2C81
:103150006501AA86BB86CC86DD8657016801EA84B4
:10316000FE2C0E2D1E2D0E94BB36F22FE32F8F2F2B
:103170009E2FA42FB52FB7FF0CC0B095A0959095AA
:1031800081959F4FAF4FBF4F04C080E090E0A7EE06
:10319000B3E014145CF1161474F4AC01BD01415099
:1031A00051096109710947305A466105710508F0F6
:1031B00059C082E073C0662071F0AC01BD0141507E
:1031C00051096109710947305A466105710508F0D6
:1031D00058C096E071C08B5F9946A240B109853016
:1031E0009649A44EB340C0F51F8267C0161474F40C
:1031F000AC01BD01415051096109710947305A467E
:103200006105710598F4B2E0BF8357C06620C9F02C
:10321000AC01BD01415051096109710947305A465D
:1032200061057105E8F5E6E0EF8347C0AC01BD013B
:1032300049505A4661097109413F5F4F614071052C
:10324000E0F18B5F9946A240B10986309649A44EC1
:10325000B34028F424E013C0A9E0AF832EC0F9E006
:10326000FF832BC0AC01BD0149505A466109710969
:10327000413F5F4F6140710508F0ADCF21E02F83E2
:103280001CC0AC01BD0149505A4661097109413F5A
:103290005F4F6140710508F09ECF87E08F830DC0BE
:1032A000AC01BD0149505A4661097109413F5F4F68
:1032B0006140710530F695E09F83A885B9858C91B2
:1032C000BF81B930B9F0B817A9F09F81692F70E0BC
:1032D000482F50E09B01241B350BF901339637979B
:1032E000A8F512161306D4F1932F991F9927991F49
:1032F00009F04BC0E885F9858083D401CD90DD903D
:10330000ED90FC90139714964D905D906D907C908D
:103310001797EE85FF858081882309F472CEA889EE
:10332000B9898C9181116DCE6701FF24D7FCF0948F
:10333000EF2C8601C4010E94071490E08C0D9D1DA6
:1033400097FD5FCE0038110534F15BCE9B01285FFD
:103350003F4F241B350B121613067CF4873011F0F7
:103360008F5F01C080E0482F50E09B01241B350B8C
:10337000F9013396379708F4B7CF28EF3FEF241BB6
:10338000350B620F731F972FB0CF882311F0815038
:10339000B1CF87E0AFCF2301772457FC7094672C1F
:1033A000D4011B964D915C911C97E885F985319766
:1033B000E081F0E03896CF01880F991FFA01E80FFD
:1033C000F91F25913491FC017097E40FF51F459189
:1033D000549100E0B201C6010E94541EF1018081A7
:1033E000833031F4A885B985EC91E63009F086C0C8
:1033F000F40181859285181619060CF44CC080548E
:103400009109928781872285822F022E000C990BC9
:1034100097FF03C09195819591092F3FDCF42D3FD3
:1034200024F52C3F09F037C0D4011B968D919C9157
:103430001C97FC01BE9625913491FC01B6964591EE
:10344000549100E0B201C6010E94541EEE85FF8532
:10345000108221C01216FCF0D4011B964D915C9194
:103460001C97FC017496CF0104C0F4014385548578
:103470004496880F991FFA01E80FF91F259134919E
:10348000FC013897E40FF51F4591549100E0B2011B
:10349000C6010E94541ED40152968D919C9153975F
:1034A000181619060CF0ADCD923071F0933011F072
:1034B0009130E1F4F40183859485FC01B89625915F
:1034C0003491FC01B0960BC0D4011B968D919C9158
:1034D0001C97FC01BA9625913491FC01B296459156
:1034E000549100E0B201C6010E94541EF401828989
:1034F000938980549140938B828B83CDD4011B960A
:103500004D915C911C97F0E03896CF01880F991F80
:10351000FA01E80FF91F25913491FC017097E40F2F
:10352000F51F4591549100E0B2016D5F7F4FC601D8
:1035300048960E94541E5CCFCF92DF92EF92FF928A
:103540000F9380913B06882309F449C040913C06C3
:1035500050913D06052E000C660B770B762F652FDC
:10356000542F44278091330690913406A09135065C
:10357000B0913606841B950BA60BB70B80933306D0
:1035800090933406A0933506B0933606CD01BB2741
:1035900097FDB095AB2F9C01AC01485F5F4F483859
:1035A0005105C0F44091410650914206C090370643
:1035B000D0903806E0903906F0903A066701FF2473
:1035C000D7FCF094EF2C00E02CEB37E1B6010E9421
:1035D000541E05C0283F3F4F14F410923B060F9134
:1035E000FF90EF90DF90CF900895CF93DF93C82F97
:1035F00088EC90E00E943A34D82F89EC90E00E9449
:103600003A34D43321F4833311F4CC2319F164E335
:1036100088EC90E00E94483463E389EC90E00E94DB
:10362000483460E070E08CEC90E00E945A3460E036
:1036300070E08CEC90E00E945A3460E070E08EEC18
:1036400090E00E945A3460E080ED90E0DF91CF91ED
:103650000C944834DF91CF9108957F928F929F927E
:10366000AF92BF92CF92DF92EF92FF920F931F9390
:10367000CF93DF93CDB7DEB76E970FB6F894DEBF6A
:103680000FBECDBFB82E882349F081E08093B301EF
:10369000FB0184918093A2018093D1018091B301B9
:1036A00091E0980F9093B301FB01E80FF11D649135
:1036B000E62FEF70E093D001607F6093BC01F0E0F3
:1036C000EE0FFF1FEE59FE4F0190F081E02D10929A
:1036D0004B0610926906109287061092A50610926A
:1036E000C3061092E106849003E4E02E06E0F02E7B
:1036F0008F010E5F1F4F89E5C82E86E0D82E912CD2
:103700009EE1A92E25E0722E981409F480C0F801DC
:103710003197E491E130E1F0B8F0E23049F1E33083
:1037200059F54CE257E163E0CE0101960E9449143D
:10373000FE013196D7018A2D01900D928A95E1F70D
:10374000F6013797708218C04EE25FE160E003C077
:103750004CE857E161E0CE0101960E944914FE0158
:103760003196D7018A2D01900D928A95E1F704C018
:103770004CE557E162E0EFCFF8018491E82FF0E0EB
:10378000EE0FFF1FEE5BFE4F80819181D7015A96AD
:103790009C938E93599758961C921E925797F801B6
:1037A0003196E491D6011697EC93F8013296E491A4
:1037B0001196EC93F8013396E491D601EC93F8015D
:1037C0003496E491F60131971082F8013596E49130
:1037D000F8013696E491D70119961C9219971A961A
:1037E000EC931A9753961C921E925297F6013E97AD
:1037F00081E08083C7010E94F7129394BEE1EB0E33
:10380000F11C085F1F4FEEE1CE0ED11C7DCF8091E1
:10381000A20181508093A201BB2009F474C0809161
:10382000B40190E0FC01E15AFE4F20816091030158
:1038300070910401620F711D27FD7A957093040148
:1038400060930301FC01E45AFE4F2081022E000C1C
:10385000330B40910D0150910E01420F531F5093B5
:103860000E0140930D0140910B0150910C01240F6A
:10387000351F30930C0120930B01209109013091E9
:103880000A012130F5E23F076CF0FC01EE0FFF1F4B
:10389000EA5AFE4F40815181241B350B30930A01B7
:1038A000209309012091070130910801213047E060
:1038B00034076CF0FC01EE0FFF1FE05BFE4F408110
:1038C0005181241B350B309308012093070120916F
:1038D0000501309106012130A7E03A076CF0880F0E
:1038E000991FFC01E65BFE4F80819181281B390BFB
:1038F0003093060120930501772788EE93E00E941C
:103900009F36609312076E960FB6F894DEBF0FBE17
:10391000CDBFDF91CF911F910F91FF90EF90DF907E
:10392000CF90BF90AF909F908F907F90089590918F
:10393000CF01E92FF0E09F01220F331FE20FF31FA9
:10394000EA5FF94F8E5E8083675F6183406F4283D9
:10395000809106078150809306079F5F9F3019F082
:103960009093CF0102C01092CF0184E18093BB01FC
:103970000895CF93DF9300D000D000D0CDB7DEB74D
:10398000E7EFF6E080819181A281B381CD010196BC
:10399000282F9A83898384819581A681B781CD015F
:1039A0000196482F9C838B8383859485FC016591C8
:1039B0007491FB0164916250FC0185919491FC012A
:1039C0003196749172503A815C8180E090E0269645
:1039D0000FB6F894DEBF0FBECDBFDF91CF91089533
:1039E0002F923F924F925F926F927F928F929F920F
:1039F000AF92BF92CF92DF92EF92FF920F931F93FD
:103A0000CF93DF9300D000D000D0CDB7DEB7ED82EA
:103A10004115510509F42FC1FA0134913196E49111
:103A20004E5F5F4FC32ED12C222311F1AE2FA695EE
:103A3000A695A695AA2EB12CA1E0B0E0FE2FF770B6
:103A400011F4A0E0B0E0AA0DBB1DCA9E5001CB9EB0
:103A5000B00CDA9EB00C1124FD81F33011F4AA0CE5
:103A6000BB1C2A9DD0012B9DB00D11244A0F5B1F5A
:103A70002D812F3F39F40115110511F021E001C00E
:103A800022E02D835C01AC0CBD1C1A141B040CF04D
:103A9000F2C0803891050CF0EEC0DB01AE0FB11D15
:103AA0001A161B060CF0E7C0603471050CF0E3C079
:103AB0004115510509F4DFC0F62FF7706F2EDB01B9
:103AC00077FD179623E0B595A7952A95E1F7FA2F8C
:103AD00077FF04C0662011F0FFEFFA0F97FF05C0D3
:103AE000AA27BB27A81BB90B02C0A0E0B0E020E8C2
:103AF000A216B10424F020E8722E781A01C0732EA9
:103B00007A1A6F2F0F2E000C770BFF3F1CF4E62E56
:103B1000E09401C0E12C992493942E2F277009F48E
:103B2000912CE695E695E6959E0E690D711D69301E
:103B300071051CF0E8E09E2E9F1AFE2CFF0E6F2DE3
:103B400020E86203800D911D11248A0F9B1F61E004
:103B500070E0062C02C0660F771F0A94E2F72D81F1
:103B6000233011F0E1E001C0E2E0C718D108EC9D7C
:103B7000802C1124CE2ED12CE39EA00DB11D11243A
:103B8000CA9E9001CB9E300DDA9E300D11245A0151
:103B9000A20EB31E0115110509F0A801D601119757
:103BA0002A0F3B1F420F531FAFEFA69F9001A79F05
:103BB000300D1124290140945094F90DFE83282DD5
:103BC00030E0E79D200D311D1124EE81FE1609F431
:103BD00052C0DC01A452BE4F4A018501E12CE7141A
:103BE00009F441C0F8013490369EF001379EF00D83
:103BF0001124FA83E983E095F095FC83EB83FD8142
:103C0000F23019F45C824B8211C0ED81EB3F19F464
:103C10001A8219820BC0F4013490369EF001379E4F
:103C2000F00D1124E095F095FC83EB83F7FC06C0C2
:103C3000FC91EB81EF23F981EF2BEC93662061F08F
:103C4000F6E0FF154CF0FD01E058FF4F20803C806E
:103C500023203A80322830828C0C9D1C0C0D1D1DB7
:103C6000E3941196BCCFF394A20EB31E420F531FE0
:103C700080589F4FAACF26960FB6F894DEBF0FBE8E
:103C8000CDBFDF91CF911F910F91FF90EF90DF900B
:103C9000CF90BF90AF909F908F907F906F905F90EC
:103CA0004F903F902F900895EF920F931F93F9013B
:103CB000202FEE24E3948F010E94F01C1F910F919E
:103CC000EF9008950F931F93CF93DF93C82FD62FB4
:103CD000042F10E0DC1750F04C2F50E021E0B80129
:103CE0008BE097E00E94D912CE5FF4CFDF91CF91A5
:103CF0001F910F9108955F926F927F928F929F9282
:103D0000AF92BF92CF92DF92EF92FF920F931F93E9
:103D1000CF93DF93EC018B017A01A901461B570B6E
:103D200057FF03C0519541955109C7018C1B9D0B4D
:103D300097FF03C091958195910955245394841759
:103D4000950714F0512C0AC09E2D8F2D7901292F33
:103D5000382F9C2F8D2FE801092F182FEC16FD0608
:103D600054F4902F812F8901292F382F9C2F8D2FCC
:103D7000E701E92EF82E37016C1A7D0A5901A01AC5
:103D8000B10AB7FE03C0B194A194B108630177FEF4
:103D900003C08FEFC81AD80AD594C7940217130727
:103DA00014F08FEF01C081E0882E880F9908EC167F
:103DB000FD06B4F021E0552019F0AE01B80102C0B3
:103DC000A801BE018BE097E00E94D912CA18DB0857
:103DD000D7FE04C0080D191DC60CD71C2196E7CFCD
:103DE000DF91CF911F910F91FF90EF90DF90CF90D7
:103DF000BF90AF909F908F907F906F905F9008954D
:103E00000F931F93CF93DF93042FD22F90E001964F
:103E100020E0AB01BC018AE790E00E94B212D530ED
:103E200030F48091DA019091DB010F9780F0C0E0CF
:103E300010E0CD1760F4B8016C0F711D9B014DE7C8
:103E400050E08BE790E00E947B1ECE5FF2CFDF91C7
:103E5000CF911F910F910895ECEDF1E0A0E0B8E053
:103E600000800EBC8111012C1197A0FDFDCF0192A5
:103E7000B9F70DB408958FB7F8944091D6015091D9
:103E8000D7016091D8017091D9018FBF809113073C
:103E9000942F981B80911407882331F09093150775
:103EA0001092140780E0089520911207921740F4B1
:103EB0009F5F9217A0F491E093BF889513BE089579
:103EC00081E0809314074093130780910E0790912F
:103ED0000F07019690930F0780930E0781E00895D6
:103EE00020911107282329F490911007982381E04D
:103EF00009F480E00895FC018091D501811103C08F
:103F00008FEF9FEF08959FB7F89482E08093E900C8
:103F10002091F20030E01216130614F421E030E094
:103F20002115310559F0289884E68093D4018091B9
:103F3000F10080838091F200882319F09FBFC901AE
:103F400008958BE68093E800F9CF2FB7F89483E0CB
:103F50008093E9009091E800892F807295FF04C05A
:103F60009091F20080E4891B2FBF08958F929F9259
:103F7000AF92BF92CF92DF92EF92FF920F931F9377
:103F8000CF93DF935C016B017A0180911701882345
:103F900009F45BC08091D501882309F456C0809153
:103FA000D30180FF05C08091E00082608093E00033
:103FB000E70110E00AEF83E0882E9AE3992E20971C
:103FC000D9F10E94A51F81110AC0015009F43DC01A
:103FD00061E070E080E090E00E94BB11F0CF282FFC
:103FE00030E0C217D3070CF48C2F4FB7F8948092AF
:103FF000E9009091E80095FF1DC0282F30E0C21B1A
:10400000D30BF601982F915020F081918093F1000D
:10401000FACFC20ED31E112319F09092E80009C006
:104020008091E80085FD06C09092E80011E020979D
:1040300009F010E04FBFC3CF1111C3CF5D9884E6E4
:104040008093D2011E141F0444F081E090E0F5013A
:104050009383828380E090E001C0C701DF91CF911C
:104060001F910F91FF90EF90DF90CF90BF90AF9096
:104070009F908F90089580911A0781110DC082E062
:104080008093160784E08093170710921907109207
:10409000180781E080931A0786E197E00895CF938F
:1040A000DF931F92CDB7DEB76983DC01ED91FC9100
:1040B0000280F381E02D41E050E0BE016F5F7F4F51
:1040C00009950F90DF91CF91089583E08093E900E7
:1040D0008091F200882319F08AE38093E800089524
:1040E000FC018485958597FD0BC09FB7F89482E00D
:1040F0008093E9008091F2009FBF90E001960895BF
:104100009FB7F89482E08093E9008091F2009FBF0E
:1041100090E008954091840750918507209182078F
:104120003091830742175307B4F49091E8009570DB
:10413000E1F39091E80092FD19C08093F100809125
:1041400084079091850701968F739927892B19F41D
:104150008EEF8093E8008091840790918507019607
:10416000909385078093840781E0089580E0089507
:10417000DF92EF92FF920F931F93CF93DF93D82E8E
:104180008A017B01E40EF51EEB01CE15DF0571F00F
:10419000D7FE03C0FE01849101C088810E948A205D
:1041A00021968111F2CF8FEF9FEF01C0C801DF91FF
:1041B000CF911F910F91FF90EF90DF900895615084
:1041C00030F02091F100FC0120830196F8CF28986F
:1041D00084E68093D40108950E94A51F90E008957D
:1041E000CF93DF931F92CDB7DEB7FC018485958511
:1041F00097FD05C02FEF3FEF358724870BC0CE0119
:1042000001960E947B1F019719F4898190E002C0FA
:104210008FEF9FEF0F90DF91CF9108950F931F9332
:10422000CF93DF931F92CDB7DEB78C01FC0184855D
:10423000958597FF0EC0CE0101960E947B1F0197C6
:1042400019F4298130E002C02FEF3FEFF8013587E4
:104250002487F801848595850F90DF91CF911F9178
:104260000F9108950F931F93CF93DF931F92CDB7B4
:10427000DEB782E0898342E450E06EE97FE180E8C6
:104280000E94B8200E943B20DC0112960D911C91E7
:1042900013970115110569F0D801ED91FC91028089
:1042A000F381E02DBE016F5F7F4FC801099597FF35
:1042B00007C089810F90DF91CF911F910F910895D1
:1042C000F80100851185E5CF1F920F920FB60F926E
:1042D00011248F939F938091E1009091E100937F4F
:1042E0009093E10083FF0FC01092E90091E090935A
:1042F000EB001092EC0092E39093ED001092D50148
:1043000098E09093F00082FF20C093E09093E90042
:104310009091F200992319F09AE39093E80090911C
:10432000D201992339F09091D20191509093D2010A
:10433000992389F19091D401992339F09091D40176
:1043400091509093D401992341F184FF10C0809142
:10435000E2008E7E81608093E2008091E1008F7E9A
:104360008093E1008091D3018E7E806111C080FF37
:1043700016C08091E2008E7E80618093E200809181
:10438000E1008E7E8093E1008091D3018E7E81607A
:104390008093D30104C05D9ACDCF289AD6CF9F9148
:1043A0008F910F900FBE0F901F9018951F920F9234
:1043B0000FB60F921124CF92DF92EF92FF920F93DC
:1043C0001F932F933F934F935F936F937F938F939D
:1043D0009F93AF93BF93EF93FF93CF93DF93CDB7AB
:1043E000DEB76C97DEBFCDBF1092E9008091E80088
:1043F00083FFEDC168E0CE0145960E94DF2082EF89
:104400008093E8008D8987FF05C09091E80090FFB8
:10441000FCCF03C09EEF9093E800982F907609F0B0
:10442000C6C09E892F89188D91110CC0803829F43F
:10443000809181078093F10002C01092F1001092E8
:10444000F10048C1422F50E0512B913051F48111BD
:1044500041C14130510509F03DC1809181078D7FF7
:104460000BC0933061F4811135C14130510509F021
:1044700031C1809181078260809381072BC1953083
:1044800041F48091E80080FFFCCF20682093E30096
:1044900021C1963009F05FC0EB8CFC8C1092E900D2
:1044A0001092850710928407123091F510928307BD
:1044B000109282070E94322199E0BE016F5F7F4F08
:1044C000DB01E92F1D92EA95E9F799831A8391E0C0
:1044D0009E8390EA98879AEF99872091840730917C
:1044E0008507275F3F4F3C832B838D831092E90024
:1044F0001092850710928407F0928307E09282075A
:1045000049E050E080E00E94B8200E943221E2C0E1
:10451000F0928307E09282070E943B20DC01129612
:10452000ED90FC901397E114F10409F4C0C0D70199
:10453000ED91FC910480F581E02DBE016B5E7F4F13
:10454000C7010995009719F00CF0C4C0C7C0F70166
:10455000E084F184E8CF973009F4C0C0983021F4AA
:1045600081E08093F100B6C0993009F0B3C0837048
:1045700009F0B4C0E9E9F1E081E021E036E390819F
:10458000992361F08093E9002093EB00919190933F
:10459000EC003093ED008F5F873089F78EE78093D2
:1045A000EA001092EA008F898093D50193C08B8D29
:1045B0009C8D1092E90010928507109284079093C9
:1045C000830780938207898D811156C08E899D89CA
:1045D000913A59F4813209F081C047E050E060E13E
:1045E00071E080E00E94B82075C0913209F076C079
:1045F000833289F4888D90E0982F88272F89822B29
:10460000A0E0B0E08093180190931901A0931A01E3
:10461000B0931B015FC0803269F48091E80082FF93
:10462000FCCF67E080E191E00E94DF208BEF809378
:10463000E80006C0823209F04DC08F8980931701CF
:1046400080918007882319F0EEEFFAE002C0E0E0E5
:10465000F8E08091100190911101A0911201B091A8
:104660001301803B9440A105B10509F07BC0809106
:10467000170180FF93C076C00E943B20DC01129698
:104680000D911C9113970115110541F1D801ED9180
:10469000FC910190F081E02DBE016B5E7F4FC8015F
:1046A0000995811117C0F80100851185ECCF1130F3
:1046B00009F44EC0133091F48F89882309F445C062
:1046C000823081F440E860E182E090E20E94A13310
:1046D000882321F08EEF8093E80079C081E28093F7
:1046E000EB0075C0813029F440E86BE086EF9FE174
:1046F000EDCF833099F70E943B20DC011296ED90BC
:10470000FC9013978E010F5F1F4F6801E114F104B5
:1047100079F0D701ED91FC910680F781E02DB80189
:10472000C7010995080F111DF701E084F184EECF50
:10473000D8011C92F60101900020E9F73197BF01E2
:104740006C197D0940E0C601C1CF60EE7FE102C077
:1047500064EE7FE16115710509F2FB01449150E0BF
:1047600080E840CF0FB6F894A895809160008861EA
:1047700080936000109260000FBEA895EE3F2AE083
:10478000F20739F08091FE0A9091FF0A91838083AD
:10479000A1CF1092FF0A1092FE0A9CCFEE3F8AE052
:1047A000F80731F0808191819093FF0A8093FE0A8F
:1047B00087E797E7918380839BE088E10FB6F894C1
:1047C000A895809360000FBE9093600083CF6C9695
:1047D0000FB6F894DEBF0FBECDBFDF91CF91FF9132
:1047E000EF91BF91AF919F918F917F916F915F9169
:1047F0004F913F912F911F910F91FF90EF90DF907C
:10480000CF900F900FBE0F901F901895CF93DF930E
:10481000CDB7DEB7A6970FB6F894DEBF0FBECDBFFB
:10482000789484B5826084BD84B5816084BD85B58B
:10483000826085BD85B5816085BD80916E00816097
:1048400080936E001092810080918100826080933D
:10485000810080918100816080938100809180003F
:1048600081608093800080919100826080939100AC
:10487000809191008160809391008091900081608F
:10488000809390008091C10084608093C1008091EA
:10489000C10082608093C1008091C10081608093DB
:1048A000C1008091C30081608093C3008091C000EB
:1048B00082608093C0008091C20081608093C200BA
:1048C00080917A00846080937A0080917A0082607F
:1048D00080937A0080917A00816080937A00809141
:1048E0007A00806880937A001092D5011092810737
:1048F0001092D3018091D70081608093D70080EA25
:104900008093D80089B5806189BD89B5826089BDF1
:1049100009B400FEFDCF61E070E080E090E00E940D
:10492000BB118091D8008F7C80618093D8008091EA
:10493000E000807F8093E0008091E1008E7E809394
:10494000E1008DE08093E200559A209AEEEFFFE7B8
:10495000859194918B3F9C4D19F481E08093800761
:1049600080E00E94F51A81EC80937C0085B1806F15
:1049700085B984B1877E84B984B1876E84B95E9A23
:104980005F988AB1806D8AB9769A6E9881B3806F8C
:1049900081BB899880B38D7080BB80E58CBD81E040
:1049A0008DBD85E090E00E94CC125F9A85E090E09A
:1049B0000E94CC125E985C98EAE5F1E08DE08E0FE3
:1049C00094919EBD00000DB407FEFDCF31968E136D
:1049D000F7CF5C9A81E880936400809165008160E4
:1049E000809365000E94D11287FF24C05C9885EAFD
:1049F0008EBD00000DB407FEFDCF5C9A2E982F9857
:104A00002D988091640080628093640081E083BF70
:104A1000889513BEFCCF2D980E94D11284788438DB
:104A200071F00E94D1128471843129F188EC90E0F8
:104A30000E94CC120E94D11282FDEDCF38C02D9A77
:104A400088EC90E00E94CC122F9882E090E00E94C7
:104A50003A348F3F29F06FEF82E090E00E9460349B
:104A600084EF91E00E94CC122F9A0E94D112847898
:104A70008438D9F3D6CF2D9A88EC90E00E94CC12DE
:104A80002E9882E090E00E943A34882329F060E07A
:104A900082E090E00E94603484EF91E00E94CC12AA
:104AA0002E9A0E94D11284718431D9F3BFCF2D9AEE
:104AB00082E090E00E943A34882331F03E9A3F9A97
:104AC00081E08093A00104C01092A0013E983F981D
:104AD0008DE790E090930E0180930D018CE291E0C0
:104AE00090930C0180930B0180E09BE490930A016A
:104AF0008093090180E09EE0909308018093070174
:104B0000909306018093050182E390E09093040165
:104B10008093030180ED90E00E943A348093B401C9
:104B200084E180931207809164008E7F80936400FB
:104B300080917A00806480937A0080917A0086FD6B
:104B4000FCCF00917800109179000E94961120E02E
:104B500030E0980111270027600F711F821F931FFB
:104B6000611571058105910511F00E943134809124
:104B70006400816080936400AE014F5F5F4F5A8F85
:104B8000498F0E943B1F882311F40C94ED2F80E085
:104B9000ECEDF1E081118FEF0024819381938193FB
:104BA00081930394D1F780911007809311070E949D
:104BB000D11280931007E091B5018E2F90E08730DD
:104BC000910510F00C94D92FFC01EA5AFF4F0C9478
:104BD000B3361092B9011092B30180EE9FEF90931B
:104BE000B8018093B70111E01093B5018CED9AE004
:104BF0000E949F12109205071092040710920A0754
:104C000080E09EE090930807809307079093010748
:104C1000809300072BE42093060710920907109356
:104C2000FF0640E050E061E070E04093F7065093EB
:104C3000F8066093F9067093FA0640E050E068E1E8
:104C400070E04093FB065093FC066093FD06709362
:104C5000FE062DE730E030930E0120930D012CE28B
:104C600031E030930C0120930B0120E03BE43093C2
:104C70000A01209309019093080180930701909302
:104C800006018093050182E390E0909304018093F4
:104C9000030184E1809312070091B7011091B801DC
:104CA00020E04AE358E0B80186E590E00E94BF1298
:104CB00020E04CE258E063E070E08EE090E00E947B
:104CC000BF1220E04BEE57E06CE070E08EE090E029
:104CD0000E94BF1266E470E0601B710B20E04BE0A5
:104CE0005AE187E390E00E94BF1264E370E0601B2A
:104CF000710B20E04BE05AE189E290E00E94BF1284
:104D00006EE170E0601B710B20E04BE05AE182E342
:104D100090E00E94BF1220E04DEB57E063E070E0AE
:104D200080E090E00E94BF12E090B401FF24F39471
:104D3000FE0C2F2D45E757E065E270E082E090E041
:104D40000E94BF12015011090E375FEF15072CF0BA
:104D50001093B8010093B70106C080E590E09093EE
:104D6000B8018093B70181E00E942C1F80E40E946B
:104D7000701F882359F081E08E1510F0F092B40175
:104D80006091B40180ED90E00E94483480E20E947E
:104D9000701F882369F08091B401882319F0815035
:104DA0008093B4016091B40180ED90E00E9448349A
:104DB00084E00E94701F882319F086E08093B5017B
:104DC00088E00E94701F882311F40C94D92F82E090
:104DD0008093B5011092B9010C94D92F10924B0613
:104DE00010926906109287061092A5061092C306CB
:104DF0001092E106E8E0F6E080818F7080833396C0
:104E000096E0E533F907C1F7EAEEF5E080818F70AF
:104E100080833396A6E0E830FA07C1F780E890E097
:104E20009093A4018093A30184E1F82EF092A50150
:104E300093E0E92EE092A60186EB90E09093A80122
:104E40008093A70189E18093A90181E08093AA0161
:104E50002CEE30E03093AC012093AB019EE19093B7
:104E6000AD0192E09093AE0122E231E03093B001C7
:104E70002093AF0193E29093B1018093B20110921D
:104E80000A0700E01EE0109308070093070710933D
:104E90000107009300079BE490930607109209070F
:104EA0008093FF0680E090E0A1E0B0E08093F706F9
:104EB0009093F806A093F906B093FA0680E090E08C
:104EC000A8E1B0E08093FB069093FC06A093FD065A
:104ED000B093FE0610923B068FEC96E00E949F1264
:104EE00080E590E09093B8018093B701E092B5011E
:104EF0008DE790E090930E0180930D018CE291E09C
:104F000090930C0180930B0180E09BE490930A0145
:104F10008093090110930801009307011093060183
:104F20000093050182E390E09093040180930301D4
:104F3000F09212078091B901833630F4893038F04D
:104F400003E0B02E0CE206C0B12C0EE203C016E066
:104F5000B12E09E280910E0781700E949C14E090AE
:104F6000B701F090B801B0E5EB16F104ECF4E2E023
:104F7000EE16F10414F5EA94EF2809F079C0809157
:104F8000B90165E00E947F36E92FF0E0EE0FFF1FC8
:104F9000E05EFE4F6081718181E00E942D1B1092C6
:104FA000B8011092B70164C020E5E216F10409F0DF
:104FB0005FC01092E7051092E2056B2D70E06E5F06
:104FC0007F4F20E043EA56E08CE390E00E94BF125E
:104FD0008091B901C82ED12C10E0833678F0C6013B
:104FE000019664E670E00E949F36262F45E757E061
:104FF000B8018CE390E00E94BF1202C08930A8F093
:10500000C60101966AE070E00E949F36CB016AE01B
:1050100070E00E949F36282F45E757E0B8016A5F8D
:105020007F4F8CE390E00E94BF12C60101966AE0B8
:1050300070E00E949F36B801645F7F4F282F45E7DC
:1050400057E08CE390E00E94BF1210E41B1949E383
:10505000612F8B2D0E94621E45E4612F8B2D0E94D3
:10506000621E31E0E31AF108F092B801E092B70154
:105070008091070790910807181619060CF0CEC307
:105080002091000730910107121613060CF0C6C3D9
:10509000209109072111C2C30297909308078093BA
:1050A0000707019621F410920807109207070E9443
:1050B000D11287FF1AC08091FB069091FC06A09147
:1050C000FD06B091FE068D3C5CEC9507A105B1058F
:1050D00064F08C5C9C4CA109B1098093FB06909311
:1050E000FC06A093FD06B093FE060E94D11284FF39
:1050F00019C08091FB069091FC06A091FD06B0912D
:10510000FE060097EDE2AE07B10564F484539343C5
:10511000AF4FBF4F8093FB069093FC06A093FD0614
:10512000B093FE060E94D11285FF1AC08091F70647
:105130009091F806A091F906B091FA068736F6EE3E
:105140009F07A105B10564F08656964EA109B109E5
:105150008093F7069093F806A093F906B093FA06A9
:105160000E94D11286FF19C08091F7069091F8062F
:10517000A091F906B091FA06009725E6A207B105BD
:1051800064F484539343AF4FBF4F8093F7069093DB
:10519000F806A093F906B093FA0684E00E94701F07
:1051A000882319F088E08093090788E00E94701F27
:1051B000882309F440C0809106078823E1F180919B
:1051C000A101811104C085E996E00E949F12C09060
:1051D000F706D090F806E090F906F090FA0667011D
:1051E000FF24D7FCF094EF2C8090FB069090FC06F7
:1051F000A090FD06B090FE064501BB2497FCB0943C
:10520000AB2C42E0682D8C2D0E94971C80910A07E0
:10521000882389F090910607923068F0815080933E
:105220000A0741E0682D8C2D0E94971C43E0682DF1
:105230008C2D0E94971C8091B7019091B801892B09
:1052400009F0ECC280913B06882309F45EC080908F
:10525000330690903406A0903506B090360645018E
:10526000BB2497FCB094AB2CC0903706D090380686
:10527000E0903906F0903A066701FF24D7FCF094DD
:10528000EF2C86010F5F1F4F0E94B91C2B8B3C8BAC
:105290004D8B5E8B6F8B788F2B893C898D899E8996
:1052A000F4013196A901460F511DE417F5076CF57D
:1052B0004BE0840E911C281539053CF59C01270F05
:1052C000311D021713070CF55DE0C50ED11C8C15BE
:1052D0009D05DCF48CC6813008F099C680913E06AD
:1052E00090913F06909308078093070787EF87BD4B
:1052F00084E08093BA0110923B068091A101811154
:1053000004C087E994E00E949F1258E0E52E56E021
:10531000F52E812C63E0962EF7018081807FD9F1F4
:105320003297C080D12C3196A080B12C03E416E0D6
:10533000D80118968C91882341F13801B9E06B0EA1
:10534000711CF8018185928518161906F4F4C801BC
:105350000E9412142D873E874F87588B698B7A8B5A
:105360002D853E858F859889C216D30674F0260F49
:10537000311DC216D3064CF4A816B90634F0870FB7
:10538000911DA816B9060CF474C6025E1F4FB6E054
:10539000073F1B0769F6E3E0EE0EF11CF5E3EF169D
:1053A000F6E0FF0609F0B8CF8091090781116EC0C1
:1053B0000E94B91C872F29833A834B835C836D83BA
:1053C0007E8309811A81AB80BC806801C60ED11C26
:1053D000B6017501E80EF11CEAEEF5E080E090E020
:1053E000D0802D2D207FC1F09F0122503109D9019D
:1053F0004C9150E02F5F3F4FD9012C9130E0401786
:10540000510754F0461757073CF42A153B0524F082
:105410002E153F050CF458C6019633968A30910537
:10542000F9F60E94B91C29833A834B835C836D8310
:105430007E8300E010E0F801ED5BF94F8085882362
:1054400001F1868981111DC085858330D1F0CF019E
:105450000E9412142F83388749875A876B877C876D
:10546000E981FA814B815C81FE802F8138858985B5
:105470009A85AD815F01AA0EB11C2A153B050CF47B
:1054800045C6025E1F4F043B1105A9F6809102013B
:10549000815080930201811121C133E4832E36E0D3
:1054A000932E49E5442E46E0542E20E536E03C8F0D
:1054B0002B8F212C312CC4010E94121429833A8392
:1054C0004B835C836D837E8329813A818B819C81B0
:1054D000F2013E974081442309F4E0C0D2014C918F
:1054E0004111DCC03C964081442309F4D7C0A90196
:1054F000460F511D141615060CF0D0C0203831058A
:105500000CF0CCC09C01270F311D37FDC7C0803483
:1055100091050CF0C3C08091F7069091F806A09118
:10552000F906B091FA063D01F9E06F0E711C809109
:10553000FB069091FC06A091FD06B091FE067D0150
:1055400029E0E20EF11CD4010D911D912D913C91A9
:105550005901DD24B7FCD094CD2CEB8DFC8D8081DE
:10556000833009F491C6C4010E9407148695082F60
:1055700010E00A0D1B1DF40184819581A681B7817D
:105580005D01DD24B7FCD094CD2CAB8DBC8D8C910E
:10559000833009F4ECC5C4010E94FC13869590E0A9
:1055A000601A710AA80EB91EF701EA19FB09FAA3DD
:1055B000E9A36114710409F4DDC5CF01FF0FAA0B43
:1055C000BB0BDC01992788276C017D01FF0CCC08FF
:1055D000DC2C76019C01AD016C2D7C2D8C2D9C2D3D
:1055E00000E10E9490376301072C000CEE08FF08D1
:1055F0008601FF24EE2457016801DD0CAA08BA2CAD
:105600006501AD8EBE8ECF8ED8A257016801ED8C9C
:10561000FE2C0E2D1E2D0E94BB36F22FE32F8F2F56
:105620009E2FA42FB52FB7FF07C0B095A0959095DA
:1056300081959F4FAF4FBF4FEB8DFC8D3081F201B5
:10564000333009F09CC537972081A9A0BAA01A145D
:105650001B040CF4B1C5161417040CF01CC6843BD3
:1056600041E29407A105B1050CF48BC5AC01BD0165
:105670004D56544C610971094F3259486105710505
:1056800018F4213009F480C5805E9749A740B1091C
:1056900081329846AF4DB34008F4F9C58FEF281A10
:1056A000380A9EE1890E911CAEE14A0E511CEB8D29
:1056B000FC8D7E96FC8FEB8FF6E02F16310409F0FF
:1056C000FACE6AE070E080E090E00E943211DC01E6
:1056D000CB010A96A11DB11D8093020180910001AA
:1056E0009091010101979093010180930001892B12
:1056F00009F094C080913B06811190C064E070E095
:1057000080E090E00E943211D62E809107079091A0
:105710000807813094400CF430C6809100079091C6
:105720000107813094400CF442C631E0D31204C624
:105730000091090110910A01C801012E000CAA0B69
:10574000BB0B6627782F892F9A2F20E032E040E0AC
:1057500050E00E947E3459013FE0E32E35E0F32E05
:10576000D092400681E080933B0680E090E0A0E884
:10577000B0E08093330690933406A0933506B0933F
:10578000360666E370E080E090E00E943211DB01B3
:10579000992788278093370690933806A093390677
:1057A000B0933A060E942C349B0177FF04C0222755
:1057B0003327261B370BC9019927939590933D06F4
:1057C00080933C060E942C349B0177FF04C0222763
:1057D0003327261B370BB8016A197B09C9010E94C0
:1057E0009F369501280F391F30933F0620933E06C0
:1057F000F0924206E092410620910B0130910C019B
:1058000040E050E060910D0170910E0180E090E069
:105810000E945611709301016093000108E0802EF0
:1058200006E0902E86E0C82E86E0D82E97E0A92EBE
:1058300096E0B92ED4012C912F70822F90E0883001
:10584000910550F5FC01E35AFF4F0C94B336D60195
:105850008C918F5F8C93F5018081815080831CC077
:10586000D60105C0F60180818F5F8083D5018C91C0
:105870008F5F11C0D6018C9181508C93F50180818E
:105880008F5FECCFD60105C0F60180818150808307
:10589000D5018C9181508C93F6018081883710F06E
:1058A000D4012C93F5016081613420F0D4019C91E6
:1058B0009F709C93F4019081907F71F070E0615033
:1058C000710990E013E0E12E00E010E020E049E2F1
:1058D00055E001970E94F01CF3E08F0E911C23E02D
:1058E000C20ED11C33E0A30EB11C43E3C41646E044
:1058F000D40609F09FCFFAEE8F2EF5E09F2EA8EE8A
:10590000CA2EA5E0DA2EB9EEAB2EB5E0BB2ED4013F
:105910002C912F70822F90E08830910550F5FC017A
:10592000EB59FF4F0C94B336D6018C918E5F8C935C
:10593000F5018081825080831CC0D60105C0F6012C
:1059400080818E5F8083D5018C918E5F11C0D601DE
:105950008C9182508C93F50180818E5FECCFD601C3
:1059600005C0F601808182508083D5018C918250E0
:105970008C93F6018081883710F0D4012C93F501C7
:105980006081613420F0D4019C919F709C93F4015C
:105990009081907F71F070E06150710990E0E3E0D8
:1059A000EE2E00E010E020E049E255E001970E9471
:1059B000F01CF3E08F0E911C23E0C20ED11C33E0EB
:1059C000A30EB11C46E0C41646E0D40609F09FCFF2
:1059D00081E00E94AE170E949C1A0E947E1480E013
:1059E0000E94AE1740910E0750910F078090F70666
:1059F0009090F806A090F906B090FA064501BB24F5
:105A000097FCB094AB2C4090FB065090FC06609045
:105A1000FD067090FE06C40142968239910508F099
:105A20008FC02301772457FC7094672C809107075F
:105A300090910807181619063CF52091000730913F
:105A4000010721158BEF38070CF0D3C41DC064305B
:105A500008F009C5613009F0FDC4740197E0E90E52
:105A6000F11CE62FF0E0CF010197079718F47F5F54
:105A70007093090780910907803411F41092090787
:105A800021303D4F0CF0C3C4809100079091010775
:105A9000181619060CF442C00C97909301078093D6
:105AA0000007892FE92F092E000CFF0B191614F49B
:105AB000319702C0E095F0958C3F3CF48A3F14F595
:105AC000863F61F51092FF0629C08F3F09F034F53B
:105AD0008091020790910307FF277496AF01440F4E
