:100000000C9460100C9488100C9488100C94881038
:100010000C9488100C9488100C9488100C94881000
:100020000C9488100C9488100C94981D0C940A1E43
:100030000C9488100C9488100C9488100C948810E0
:100040000C9488100C9488100C9488100C948810D0
:100050000C9488100C9488100C9488100C943D1209
:100060000C9488100C9488100C9488100C948810B0
:100070000C9488100C9488100C9488100C948810A0
:100080000C9487120C9488100C9488100C9488108F
:100090000C9488100C9488100C9488100C94881080
:1000A0000C9488100C9488100C948810CD212C226C
:1000B000DB225E236E286E28B629BA292D25292534
:1000C0003225342540253C25442546258D25892586
:1000D00092259425A0259C25A425A6252A2C2C2CE8
:1000E0002E2C332C382C382C382C382C412C412CED
:1000F000412C412CF927F927F927F927F727060082
:1001000002F0D0000000010002F0D0100000010158
:100110000000F024000002010000022400000200A0
:1001200002F0204A0001010002F0205A00010105FE
:100130000002F0D0000000010002F0D02800000111
:10014000010000F94400000200020020000101014A
:100150000002002028010101050002F0D00000008B
:10016000010002F0D028000001010000F944000065
:10017000020002002000010101000200202801010C
:1001800001050300000E04000005030000E03E002E
:1001900000050002F0D0000000010002F0D02300B2
:1001A00000010002F0D04600000106000000F0123D
:1001B000000001000000F900000001000000021230
:1001C000000001020000E440000002020000F52CE3
:1001D0000000020200000640000002060003D6D024
:1001E000000000010003E6E000000001010000EB58
:1001F00014000002010000F92400000201000007C1
:1002000034000002010000F940000002050002F085
:10021000D0000000010002F0D02800000101000021
:10022000F9440000020002F020140001010002F075
:10023000203C00010104000000F012000001000059
:1002400000F900000001000000021200000103009C
:10025000000E3000000A050001000500000001004A
:1002600001000514000001000100EC000001010084
:100270000100EC14000101000000F9280001010454
:10028000000000E700000001000000F9000000018C
:100290000000000B00000001020000F51600000144
:1002A00004000000F1000000010000000300000055
:1002B00001010000F1120000020100000312000021
:1002C00002050001000500000101000100EC14001E
:1002D0000001010000E932000002010000F93200D3
:1002E0000002010000093200000205010000E724BD
:1002F000000002000000F012000001000000F90000
:1003000000000100000002120000010100000B24A7
:1003100000000202000000050000000100000000D3
:1003200018000001000000FB50000001000000F672
:10033000680000010E02014A47C4CCC0A8A93D33A1
:100340001B15060E0201070A040C05404849CDC3DF
:10035000EBE60E4042C4C6888A252C313337191B80
:100360000D0E4E4748E9EDA03132131A0B0C04056F
:10037000260E202172534445C6C7C8898AEB3C3DEE
:10038000D5F08D14A1C881CFD9F1AF20000C3AF877
:10039000A8A8A80402DADADA0204F80000000001D2
:1003A0000202020202010000008282829EA2A29E3C
:1003B0000000000000C828C809C6000000000000B6
:1003C000000B0909996800000000000080BC929CA5
:1003D000908C0000000000000000060909060000E3
:1003E0000000000000000000000000000000000904
:1003F00042D805FDFFFF76FC8804000505070703CA
:100400000100010202021E02023E0000C782828237
:100410008380C20000A9A8A8A858000000001C22E0
:1004200022229C00000000C42AE222CF0202000027
:1004300001000302010000000007294E5141C141A3
:10044000110EE010F014E300005864456558404078
:100450000E040404C60004F205E111E701010001E5
:1004600000000100000B3B150011111F11110A04BF
:1004700000150000E01010101010E000000000381F
:100480004544443801000000000011111113CD0053
:100490000000000000E2454141670141000000000A
:1004A0004444444C340000000000009659D151915E
:1004B0000000000000000300070403000000000724
:1004C0001C8444444484151F83444444F3404078CE
:1004D0002538201900000E040404040406071D8EAC
:1004E00051504E81110EE3141014E3000004050571
:1004F0004D3400000E011F110E0000163080C0C0E8
:10050000C0F0F8FCFCFE1E0C0C8CDEFEFE72AECCC5
:10051000E8E0C00A1A1F1F7FF8F8F8FDC787878F29
:10052000DFFFFEFFFFFFFF3F1F0000000000000194
:1005300001030301010103030303030100000000A1
:10054000000E91515151110E000000009E51990171
:1005500081011E00000000E112F414E4000000001C
:10056000000057525352B10000000000000404057F
:100570004D3400000000000039057D4538000000C2
:1005800000123C1CA2A09C82221C00000000000063
:100590000000000000CB2C2828C80000000000004C
:1005A00044445454546C44718A088A710000000019
:1005B0000000CE0484448600049C023EA21C00007D
:1005C00000000000F304E310E70000E708C720CFB5
:1005D0000000000000003811101019001021222125
:1005E0007023A040000000004E5151D14E00002C5D
:1005F0003222222200000000000004040404030050
:1006000000070202020202030000000000000000D6
:10061000000000E4020200750506007D0608007572
:100620000504000080DC00090093000A0083000636
:1006300000AF000A000080AF00030026010400B8EC
:10064000010400A50001000080AF001600AF0016F5
:1006500000AF0016000080387CFEFEFE7CFEFFBA74
:1006600000000000000000010010387CFEFFFFFFCA
:10067000FE6C0000000001010100001FFFFFFFFFF2
:10068000FFFFFEE44000010101010101010000093A
:10069000090038444444285492000000000000003F
:1006A00000000009090010387CFEFEFE6C0000000E
:1006B000000000000000000A09000EEEEEEEEAAABB
:1006C000A440000000000000000000000055046984
:1006D0000200000D005504690000000D005504697A
:1006E00000000001001704AB01000001001704D551
:1006F00000000001001704D50000000100DC0381A8
:100700000200000100DC03D50000000100A4031C6E
:100710000100000100A403460000006C00A40322B5
:100720000000006C00A403220000006C00A403225F
:10073000000000480070031C0100000100E4021CDE
:10074000010000010070031C01000001003F031CB8
:10075000010000010093021C01000001003F031C86
:100760000100000100E4028102000001006E024667
:1007700000000001000B024600000001006E02466E
:1007800000000001002A027B030080E402F2010065
:10079000009000E402220000004800E40222000071
:1007A000004800E402B10000006C00E402690000AF
:1007B000002400E4024600000048003F03690000F6
:1007C000002400A403690000002400DC030A0400E4
:1007D00000FB00DC03690000002400550446000013
:1007E000004800DD0446000000480075055D020079
:1007F0000024007505220000004800750522000055
:10080000004800750522000000B3005504B1000047
:100810000024007505460000004800C8057500006A
:100820000018007D06690000002400C80569060064
:10083000805700160057001600570016000080076A
:100840002991111515951B11F301E111E100013CEE
:100850004138047900008E44444486000413141483
:1008600034D300000101010100000000002C015DF3
:100870000152005D0152005D0152005D0152000015
:1008800000030072015200720152007201520072A4
:1008900001520000000300880152008801520088C4
:1008A00001520088015200000003009F0152009F86
:1008B0000152009F0152009F01520000000300B846
:1008C000015200B8015200B8015200B801520000B4
:1008D000000300D2015200D2015200D2015200D2D4
:1008E00001520000000300EE015200EE015200EE42
:1008F000015200EE015200000003000B0252000BF7
:100900000252000B0252000B0252000000030000D2
:100910008007050E11131519110E0E0404040406A8
:10092000041F01010E10110E0E11100C10110E08F3
:10093000081F090A0C080E1110100F011F0E1111CB
:100940000F01021C0102040810101F0E11110E11DC
:10095000110E0708101E11110E0B1E1500040E1F9C
:10096000001F0E0400150000F20A7A8A72020200CB
:10097000000000089494A2220000000000002F2034
:10098000272827202000000C3B00150011111F1103
:10099000110A0400150000008E504C42DC4000009B
:1009A0000000000079242424190000000000000049
:1009B000C121212BE520000000E01000E010101004
:1009C000E000000000000101792525251800000045
:1009D000000000009555D5558B0000000000000078
:1009E0000700030403000000002A7A50A050A01062
:1009F000A090A08080808080004080408040804027
:100A00008040804080408050A8542A954A2410108D
:100A1000204080000055AA55AA00FF0000000000F9
:100A20000007040504050405040504050405040580
:100A30000405040504050604000000000001FE0191
:100A4000020102001F1010101010101E02020202FC
:100A50000202020202020202020202020202020276
:100A600002020202020202020354AA54AA04F2146D
:100A70001214121412101010F000A050A8542A944E
:100A80004A241214121412141214121410102040BA
:100A900080000055AA55AA00FF000000000000E0F9
:100AA00020203F00AA5500FE0100000000E02020A9
:100AB000A020A02020E0000000000001FE152A5523
:100AC000AA00FF0000000000001F101412141215ED
:100AD000101F00000000001F101512151215101F26
:100AE000000000000000FF000000000001020408F8
:100AF0001020202020202020202020202020202006
:100B00002020202020202020202020201008040247
:100B10000100000000000000000000000094689444
:100B20006814C81408140810081000104060808071
:100B3000804000800000000000000040A040A04075
:100B4000204020000000002A55AA5500FF000000A8
:100B50000000F01090202040408081010302020537
:100B600004080810F055AA55AA00FF01010101016F
:100B7000011F101215101F00000000001F10121599
:100B800012151214101111121E0000000000FF05B2
:100B90000A050A00FF808080808080F0101010100D
:100BA000F08080808080F010101010101010101055
:100BB00010101010101010101F0000008040A040F6
:100BC000A0402040000000000000000000000000E5
:100BD00000000040A040A040204020400000000055
:100BE00000000054AA55AA05F2190C0603010101E0
:100BF0000101FF00A040A040A000000000152A1540
:100C00002A00FF010101010102040810E055AA5564
:100C1000AA00FF000000000000FE02422B502A55EF
:100C200000FE0202020202FE00205028532A02FEA9
:100C3000000000000000FF0102050A001F204080A4
:100C4000000000010101010101010101008080009B
:100C500000010101010101010101000000804020AB
:100C60001F0000000000000000000102020202025A
:100C7000020202020202010000010202020202025A
:100C800002020202020201000000005504A8000056
:100C900000B0005504A80000005C013F03A8005507
:100CA00004A800DC030C067003A8000000B000706C
:100CB00003A80000005C017003A800E402A8007013
:100CC00003A800A403E200E402E200A403E2001788
:100CD00004E2003F03E2001704E2005504A800000C
:100CE00000B0005504A80000005C013F03A80055B7
:100CF00004A800DC030C067003A8000000B000701C
:100D000003A80000005C017003A800E402A80070C2
:100D100003A800A403E200E402E200A403E2001737
:100D200004E2003F03E200DD04E2007505CF08BAEB
:100D3000020604E402A8001003A8003F035F05A414
:100D4000035603000007001704A8005504A800DD9F
:100D500004A80075055F05C8055603000007004993
:100D60000755017D06A800C8055F05DD0456030090
:100D7000000700C80555017505A800550456030075
:100D80000007001704A800A403A8003F03A800BAA6
:100D9000020604E402A8001003A8003F035F05A4B4
:100DA000035603000007001704A8005504A800DD3F
:100DB00004A80075055F05C8055603000007004933
:100DC0000755017D06A800C8055F05DD04AE023F9A
:100DD000035501C805A8007505A80055045F050066
:100DE00080400004000150000081400005FF0150D8
:100DF000000081400006FF00251A0105FF011803CD
:100E00001804000119000081400006FF0040FF00A7
:100E100028FF005000008180C0E0F0F8F8FCFCFCE6
:100E2000FEFEFEFFFFFFFFFFFFFFFFFFFFFFFFFFD5
:100E3000FFFFFFFFFFFFFEFEFEFCFCF8F0C000011D
:100E400003070F0F1F1F1F3F3F3F7F7F7F7F7F7F66
:100E50007F7F7F7F7F7F7F7F7F7F7F7F7F3F3F3F62
:100E60001F1F0F0701FFFFFFFFFFFFFFFFFF010134
:100E7000010101010101010910FEFDC3BBBBBBC79C
:100E8000FFFF010101010101010101271080C06084
:100E9000B058A85CAC54AEFA8EF7959FF5979DF7C5
:100EA000959FFDFFFD7F7D3FDDDFDD3FFEFEFE0CFC
:100EB000FC18F0C0000103060D0A1D1A153A2F3860
:100EC00077547C57745C77547C5F7F5F7F5F7E5D77
:100ED0007D5D7E3F3F3F181F0C07010910FF7F8794
:100EE000BBBBBBC7FFFF00010101010101010109FB
:100EF00010FFFFC7BB3BBBC7FFFF010101010001A2
:100F00000101010910FFFFC7BBBBBB877FFF0101C8
:100F1000010101010101000910FFFFC7BBBBBBC7F5
:100F2000EFEF0101010101010101010910FFFFC7FC
:100F3000BBBBBBC3FDFE01010101010101010109B0
:100F400010FFFFC7BBB8BBC7FFFF010101010101D3
:100F50000101010000000000F0FEFFFFFEFCE000C8
:100F60000000000000000000008000000010387C3D
:100F7000FEFEFFFFFFFFFFFFFFFFFEFEFE7C7C7C0F
:100F80007CFEFFFFFFFE1000000000001FFFFFFFC0
:100F9000FF7F0F01000000000000000001030100BE
:100FA000000000000000000001010000000000003F
:100FB00000000000000000000000001A19000000FE
:100FC000000000F09E9EFCE0000000000000000019
:100FD000000000000000000010387C547CFFBBBB08
:100FE000BBBBFF7C7C7C7C3838383828D6D7FE10D9
:100FF000000000000000001FF3F37F0F010000005D
:1010000000000000000000010000000000000000DF
:1010100000000000000000000000000000000000D0
:101020000000000000111100001C3CFCD8B070E86A
:10103000C422120E00000000001C12110805030358
:1010400007074F6C30380C00000000000000000063
:10105000000000000000000000001111000080806E
:10106000FC828CF08080800000C0E0000000010362
:10107000037E82621F0303030101070F01000000CA
:10108000000000000000000000000000000000114F
:10109000110070901020408080C0C0E46C1838604F
:1010A0000000000070797E371B1D2F478990E000FB
:1010B0000000000000000000000000000000000030
:1010C0000000000011110000000000040CCCFECC58
:1010D0000C040000000000000814141212127FE338
:1010E0007F1212121414080000000000000000001B
:1010F000000000000000000000111100006038181E
:101100006CE4C0C08080402010907000000000009F
:10111000E09089472F1D1B377E797000000000008A
:10112000000000000000000000000000000011119D
:101130000000E0C00000808080F08C82FC80800095
:101140008000010F0701010303031F62827E030376
:10115000010000000000000000000000000000008E
:101160000000001111000000000E1222C4C870B06F
:10117000D8FC3C1C000000000C38306C4F07070303
:1011800003050811121C0000000000000000000010
:10119000000000000000000011110020505090904D
:1011A00090FC8EFC909090505020000000000000B9
:1011B000406067FF67604000000000000000000022
:1011C0000000000000000000000000000005040313
:1011D000040A0906050406090609060504020204B4
:1011E000080F050406090701060504070807010F93
:1011F000050404040F050605040609040906050490
:101200000F0204090605040E040406040504060979
:10121000090906201800000000000000000000007E
:1012200000000000000000000000000000000000BE
:101230000000000000AB55AB55AB55AB56AA56AA03
:1012400056AE54AC54AC54AC58A858A858A858B092
:1012500050B050B050AA55AA55AA55AA55AA55AA99
:1012600055AA55AA55AA55AA55AA55AA55AA55AA86
:1012700055AA55AA552018000000000000000000E3
:10128000000000000000000000000000000000005E
:1012900000000000000000AB55AB55AB55AB55ABA3
:1012A00057AA56AA56AA56AA56AA56AA56AA56AA3D
:1012B00057AB55AB55AB55AA55AA55AA55AA55AA31
:1012C00055AA55AA55AA55AA55AA55AA55AA55AA26
:1012D00055AA55AA55AA5520180000000000000084
:1012E000008080808080808080808080808000007E
:1012F000008080808080808000AB55AB5DBB75FB3B
:1013000075FB7DBA7DBE7DBE7DFA7DFA7DBB5DAB92
:1013100055AB55AB55AA55AB55AA55AA55AA55AAD2
:1013200055AA55AA55AA55AA55AA55AA55AA55AAC5
:1013300055AA55AA55AA55AA55201800808080C0E4
:1013400040E060E0E0E0E0E0E0E0C0C0C0C08080FD
:101350008080800000000000000000AB55AB55AA63
:1013600055AA55AA55AA55AB57AB57AF5FAF5FBF4C
:101370007FFFFFFB75AB55AB55AB55AA55AA55AAD8
:1013800055AA55AA55AA55AA55AA55AA55AA55AA65
:1013900055AA55AB55AA55AA55AA552018000000C4
:1013A00000808080C0C040E0F0F0F8F8DCBC5CACAD
:1013B0005CAC5CA858B070E060C0C08000AB55ABBE
:1013C00055AA55AA55AA55AA55AB55AB5FBF75AAE4
:1013D00055AA55AA55AA55AA55AA55AB55AA55AA14
:1013E00055AA55AA55AA55AA55AA55AA55AA55AA05
:1013F00055AA55AA55AA55AA55AA55AA5520180066
:1014000000000000808080C060B85CAC56BA7FFFEE
:10141000FDFFFEFEFCFCF8F0F0E0E0C0C08000AB99
:1014200055AB55AB55AA55AA55AA55AA55AA55AAC2
:1014300055AA55AF5FBF5FAF57AA55AA55AB55AA7E
:1014400055AA55AA55AA55AA55AA55AA55AA55AAA4
:1014500055AA55AA55AA55AA55AA55AA55AA55201E
:101460001800000000000000000000000000000064
:10147000000000000000000000000000000000006C
:1014800000B050B050B050B858A858A858A85CAC9C
:1014900054AC54AC56AA56AA56AA57AB55AB55AB4A
:1014A00055AA55AA55AA55AA55AA55AA55AA55AA44
:1014B00055AA55AA55AA55AA55AA55AA55AA55AA34
:1014C00055201855AA55AA55AA55AA55AA55AA5540
:1014D000AA55AA55AA55AA55AA55AA55AA55AA5514
:1014E000AA55AA0D0A0D0A0D0A1D1A151A151A1564
:1014F0003A352A352A356A556A556A55EAD5AAD544
:10150000AAD5AA00000000000000000000000000B2
:1015100000000000000000000000000000000000CB
:10152000000000201855AA55AA55AA55AA55AA5533
:10153000AA55AA55AA55AA55AA55AA55AA55AA55B3
:10154000AA55AA55AAD5AAD5AAD5AAD5AAD5EA55E3
:101550006A556A556A556A556A556A556A55EAD593
:10156000AAD5AAD5AA0000000000000000000000D3
:10157000000000000000000000000000000000006B
:101580000000000000201855AA55AA55AA55AA7DAA
:10159000EA55AA55AA55AA55AE5DFAD5AA55AA5537
:1015A000AA55AA55AA55AAD5AAD5AAD5AAD5AAD5C3
:1015B000BB5FBA55AA55AA55AA55AED7AFD7EE55B7
:1015C0006A556A55EAD5AA00000000000000000133
:1015D00001010101010101010101010100000000FF
:1015E00000000000000000201855AA55AA55AA5571
:1015F000AA55EAF5AA55AA55AA55AA55AA55AA5513
:10160000AAD5AA55AA55AA55AAD5AAD5AA55AA5562
:10161000AAD5FF7FBF7DEAF5AA75BA75BADDFEFFD0
:10162000FFDFAED5AAD5AAD5AA00000101010303A8
:101630000203030303030303030303030101010183
:10164000010000000000000000201855AA55AA550E
:10165000AA55AA55AA55AA55AA55AA55AA55AA5592
:10166000AA55AA55AA55AA55AA55AAD5AAD5AA5582
:10167000AA55AA55AA55AAD5AAD5FAFDAE55AA5576
:10168000AA55AA55AA55AA55AAD5AA000000000134
:101690000101030302070F0F1F1F3B3D3A353A3587
:1016A0003A151A0D0E070603030100201855AA5516
:1016B000AA55AA55AA55AA55AA55AA55AA55AA5532
:1016C000AA55AA55AA55AA55AA55AA55AAD5AAD522
:1016D000AAD5AA55AA55AA55AA55AA55AA55AA5592
:1016E000AAF5FAFDFAF5EA55AA55AAD5AA0000000E
:1016F000000101010203060D0A1D1A3D3E3F3F3F56
:101700001F1F1F1F1F0F0F0707030301002018557E
:10171000AA55AA55AA55AA55AA55AA55AA55AA55D1
:10172000AA55AA55AA55AA55AA55AA55AA55AAD541
:10173000AAD5AAD5AAD56A556A556A752A352A3511
:101740002A351A151A151A151A0D0A0D0A0D0A004E
:101750000000000000000000000000000000000089
:101760000000000000000000000000000000003F3A
:101770000F2B0F170F030FEF0EDB0E8B0E770E657F
:101780000E650E650E650E650E650E170E650EB8BC
:101790001D861D541D221DF21CC21C921C621CBB06
:1017A0000FBB0FBB0FBB0FBB0FBB0FBB0FBB0F5351
:1017B0000F530F530F530F530F530F530F530FB8B4
:1017C0001D861D541D221DF21CC21C921C621C98F9
:1017D0001163112E11F910C4108F105A1025100129
:1017E0001ACE199B19681935190219CF189C18B807
:1017F0001D861D541D221DF21CC21C921C621C055C
:1018000003050507050205056E1171116E0503013B
:10181000010301070505040E1F1F0A05050E041F1D
:10182000040400005F14FD139B133913D7127512C3
:10183000131200000D17AB164916E7158515231571
:10184000C1140C0940A0A0A01000783F3E38806071
:101850000000000001010101010100000D10000065
:101860000000000000000041001004800820000279
:1018700000000000000000000D10400401100000F6
:101880000000000000000000000000000000000058
:10189000200108800102040810204080001E3EFE46
:1018A000FEFCF8F8FCFEFF3F1F0F0000003C3E3F2F
:1018B0003F1F0F07070FCFFFFF7C7C7E0E0000004D
:1018C0000000000000000000000000000000000018
:1018D00080C0FCFEFFFEFCF0C0C080C0E0F0E00075
:1018E0000103077FFFFFFF7F1F070703070F1F0F7E
:1018F00001000000000001000000000000000000E6
:10190000000078F8F8F8F0E0C0C0E0E6FEFE7C7C6D
:10191000FCE00000F0F9FFFF7F3F3F7FFFFFF9F0A1
:10192000E0000000000000000000000000000101D5
:10193000010100000000000000040EDEFEFFFEDEDC
:101940000E0400000000081C3E3E3F3F7FFFFFFFEB
:101950007F3F3F3E3E1C08000000000000000001E9
:10196000000000000000000000E0FC7C7CFEFEE6C1
:10197000E0C0C0E0F0F8F8F878000000E0F0F9FF0F
:10198000FF7F3F3F7FFFFFF9F000000000010101F2
:10199000010000000000000000000000E0F0E0C0D6
:1019A00080C0C0F0FCFEFFFEFCC08000010F1F0FD6
:1019B000070307071F7FFFFFFF7F070301000000EA
:1019C0000000000000000000010000000000000016
:1019D000000F1F3FFFFEFCF8F8FCFEFE3E1E00005D
:1019E0000E7E7C7CFFFFCF0F07070F1F3F3F3E3C63
:1019F00000000000000000000000000000000000E7
:101A0000002070F8F8F8F8FCFEFFFEFCF8F8F8F893
:101A100070200000000041E1F7FFFFFFF7E1410007
:101A200000000000000000000000000100000000B5
:101A300000000000111100001C3CFCD8B070F8EC54
:101A40003E1E0E00000000001C1E1F0D07030307B2
:101A5000074F6C30380C0000000000000000000050
:101A6000000000000000000000111100008080FC58
:101A7000EEFCF08080800000C0E000000001030365
:101A80007EEE7E1F0303030101070F01000000002B
:101A90000000000000000000000000000000111124
:101AA0000070F0F060C08080C0C0E46C1838600046
:101AB00000000070797F371B1D3F6FF9F0E00000D8
:101AC0000000000000000000000000000000000016
:101AD00000000011110000000000040CCCFECC0C32
:101AE00004000000000000081C1C161E1E7FE37F7F
:101AF0001E1E161C1C080000000000000000000054
:101B00000000000000000000111100006038186C97
:101B1000E4C0C08080C060F0F0700000000000E011
:101B2000F0F96F3F1D1B377F797000000000000047
:101B30000000000000000000000000000011110083
:101B400000E0C00000808080F0FCEEFC808000801F
:101B500000010F0701010303031F7EEE7E03030153
:101B60000000000000000000000000000000000075
:101B700000001111000000000E1E3EECF870B0D8FD
:101B8000FC3C1C000000000C38306C4F07070303BE
:101B9000070D1F1E1C0000000000000000000000D8
:101BA00000000000000000111100207070D0F0F063
:101BB000FC8EFCF0F0D070702000000000000040AF
:101BC0006067FF6760400000000000000000000048
:101BD00000000000000000000000000080E0F0E0D5
:101BE000000A3F7F3F02000000000040F0F8F000D4
:101BF000127FFF7F02000000000040FCFEFC401747
:101C0000FFFFFF12000103010060FEFFFE7020379E
:101C1000FFFFFF772200030703000005130080E0A9
:101C20000000000A3F020000000000000513004011
:101C3000F0000000127F0200000000000005130009
:101C400040FC40000017FF120000000100000613D6
:101C50000060FE2020000037FF2722000000030064
:101C600000000E0EEEE0E00080DCDFFF67737370B3
:101C70000000E0E0FBBB3FE7E7E7070100C0DCDC7A
:101C80001C0001030303000000000000000101012B
:101C900000000F1F6FF4E8FCDEFFFFE7F07F1F4737
:101CA000E040C0E8FECF0F67F7FFFF9F3D10C0E2A6
:101CB000F7620101010301000000010000030303BA
:101CC000000000001C1C7CFCFCF8F8FC3C1C000024
:101CD0000000000038383E1F0F0F070F1F1E1C00AA
:101CE00000000000000000000000000000000000F4
:101CF000000070F0F0FEFEFEF8F0F8F8FC7E3E0EFC
:101D0000000000F0FDFF7F7F3F1F0F1F3F3F7C70F3
:101D10007000000101010000000000000000000050
:101D20000000101200040040000000808842000102
:101D3000200000008040001100024002000000006E
:101D4000800800000000010000000000000000000A
:101D5000000000001012060F0460C0C88C9EC7C0AF
:101D600060100200400080C0C806070363678F0D43
:101D7000100000C062000000000100000000000030
:101D80000000010000001012000000001070E0E0F0
:101D9000F03008000000000000000010080E0707E7
:101DA000030706080000000000000000000000001B
:101DB000000000000000000010122060E0E0FCF8CD
:101DC000F0E0F0F078380C0000000000E07D3F3FCC
:101DD0001F0F070F1F1C3020000000000000000034
:101DE0000000000000000000000060FEFFFE702008
:101DF00037FFFFFF7722000307030000000080F099
:101E0000FCFEFFFEFCF0F0F070F0F8F8F0200207A6
:101E10000F7FFFFFFFFFFF7F7F7A70FFFFFFFF2035
:101E200000000000010307030100000000000000A3
:101E300000000000A0FEFFFEFC70F0F8F02002079A
:101E40002FFFFFFFFF777FFF7F20000000030703C6
:101E50000100000000007070FEFFFE707277FFFF4F
:101E6000FF7700000307030070F8F8F870FCFEFF2E
:101E7000FEF0000070FFFFFF77FFFFFFFF7F07020C
:101E800000000000000103070300000070F8F8F8EC
:101E9000F870F0F0F0FCFEFFFEFCF080000070FF38
:101EA000FFFFFF707A7F7FFFFFFFFFFF7F0F0702BB
:101EB0000000000000000000000103070301000013
:101EC000000006130060FE2020000037FF272200DC
:101ED00000000300000012130000000060FCFEFC84
:101EE000606060202020F0F020000002070737FF2C
:101EF000FFFF3737322020207F7F200000000000C6
:101F000000010301000000000000000000000C13AD
:101F100000000020FEFC202020F020000002072707
:101F2000FFFF272220FF2000000000000301000027
:101F3000000000000613002020FE6000002227FFA2
:101F400037000000000300000C130020F020206088
:101F5000FCFE2000000000207F202237FDFF250727
:101F60000200000000000000010300000000121346
:101F70000020F0F0202020606060FCFEFC6000008B
:101F8000000000207F7F202020323735FDFFFD3507
:101F9000070702000000000000000000000001032D
:101FA0000100000000007CFEFFFFFFFFFFFFFEFFBF
:101FB000FE7C0000010101010101010100000C098A
:101FC000007C8282AA92AA82848E740000000000A3
:101FD0000000000000000000A71B721B3D1B081B37
:101FE000D31A9E1A691A341A011ACE199B19681944
:101FF00035190219CF189C18B81D861D541D221DB5
:10200000F21CC21C921C621C6E1F481F341F0E1F44
:10201000D61E0E1FC21E481F8C1E681E561E321E64
:10202000FC1D321EEA1D681EB81D861D541D221D92
:10203000F21CC21C921C621C4E1C3D1C2C1C1B1C46
:10204000091CFA1BEB1BDC1B080B0002020201003F
:10205000090400000102020000052400100105240B
:10206000010101042402060524060001070581037D
:1020700010004009040100020A00000007050202E6
:102080004000000705830240000004030904120118
:102090000002EF02014041233680000101020301EA
:1020A00041726475696E6F204C4C430041726475D7
:1020B000696E6F204C656F6E6172646F0000B232A2
:1020C00011241FBECFEFDAE0DEBFCDBF11E0A0E0EC
:1020D000B1E0E2E7FEE602C005900D92A43CB10734
:1020E000D9F727E0A4ECB1E001C01D92A93DB207E9
:1020F000E1F710E1C0E6D0E104C02197FE010E94A3
:102100003C36CF35D107C9F70E943A200C943737B7
:102110000C940000CF92DF92EF92FF920F931F93E7
:10212000CF93DF936C017A018B01C0E0D0E0CE1534
:10213000DF0589F0D8016D918D01D601ED91FC91FB
:102140000190F081E02DC6010995892B11F47E01E3
:1021500002C02196ECCFC701DF91CF911F910F9163
:10216000FF90EF90DF90CF90089580910002E09172
:10217000FE01F091FF01882349F0CF010296909370
:10218000FF018093FE01859194910895CF010296FD
:102190009093FF018093FE01808191810895CF92F9
:1021A000DF92EF92FF920F931F93CF93DF930E94E2
:1021B000B510811520E8920761F4809171008D7F40
:1021C0008093710010929100469847981092D70121
:1021D0008BC021E02093D701813020E8920751F491
:1021E0008091FC019091FD019093FF018093FE018D
:1021F0000E94B51097FD05C02091FB01222309F430
:102200003FC02091FA0121113BC021E0209301023F
:10221000EC01DF77209769F481E080930202469811
:102220003FE9C32E3FE0D32EE12CF12CCAEFD0E0E2
:1022300014C08E0120E030E060E472E48FE090E0B2
:10224000A90198010E94073469017A0181E0C81A46
:10225000D108E108F10810920202E0911606F0910F
:1022600017060995811103C081E0809302028091D5
:1022700001028823B9F180910202811133C003C0A9
:1022800010920102C5CF46992DC0479A0E94B51001
:10229000009771F09C01DE010E945B34DC01CB01F0
:1022A00029E0B595A795979587952A95D1F703C00D
:1022B0008FEF9FEFDC01109290002AE020939100B5
:1022C000D0929900C09298008093030290930402E8
:1022D000A0930502B0930602809171008260809302
:1022E000710002C04798D2CFDF91CF911F910F911B
:1022F000FF90EF90DF90CF9008958091C4010895F2
:102300000895089580E090E00895813021F08730AD
:1023100021F083E003C080E001C086E0613029F055
:10232000673011F48E5F08958F5F08950E943237F1
:10233000CF93DF9300D000D0CDB7DEB76115710524
:102340008105910579F09B01AC0169833A834B8348
:102350005C830E94E33329813A814B815C810E9436
:10236000073403C060E070E0CB010F900F900F9036
:102370000F90DF91CF910895CF92DF92EF92FF926D
:102380000F931F93621773078407950784F48901DD
:102390009A016B017C01C901B8016C197D098E0994
:1023A0009F090E9498116C0D7D1D8E1D9F1D1F9110
:1023B0000F91FF90EF90DF90CF9008953FB7F89482
:1023C0008091080290910902A0910A02B0910B023B
:1023D00026B5A89B05C02F3F19F00196A11DB11D80
:1023E0003FBFBA2FA92F982F8827820F911DA11DBB
:1023F000B11DBC01CD0142E0660F771F881F991FF8
:102400004A95D1F708958F929F92AF92BF92CF9243
:10241000DF92EF92FF926B017C010E94DE114B0173
:102420005C01C114D104E104F104F1F00E94DE1159
:10243000DC01CB0188199909AA09BB09883E9340A0
:10244000A105B10570F321E0C21AD108E108F10835
:1024500088EE880E83E0981EA11CB11CC114D10423
:10246000E104F10419F7DDCFFF90EF90DF90CF90FA
:10247000BF90AF909F908F9008951F920F920FB6CC
:102480000F9211242F933F938F939F93AF93BF93FA
:102490008091120290911302A0911402B091150242
:1024A0003091070223E0230F2D3720F40196A11D60
:1024B000B11D05C026E8230F0296A11DB11D209372
:1024C00007028093120290931302A0931402B09318
:1024D00015028091080290910902A0910A02B09120
:1024E0000B020196A11DB11D809308029093090271
:1024F000A0930A02B0930B02BF91AF919F918F916D
:102500003F912F910F900FBE0F901F9018951F9223
:102510000F920FB60F9211242F933F934F935F9317
:102520006F937F938F939F93AF93BF93EF93FF939B
:102530008091030290910402A0910502B0910602DD
:10254000892B8A2B8B2B81F18091020281110BC088
:1025500098B180E4892788B980910102882319F015
:1025600088B1805888B98091030290910402A091AB
:102570000502B0910602181619061A061B06B4F4D5
:102580008091030290910402A0910502B09106028D
:102590000197A109B1098093030290930402A093CB
:1025A0000502B093060202C00E94CF10FF91EF9186
:1025B000BF91AF919F918F917F916F915F914F915B
:1025C0003F912F910F900FBE0F901F9018959C0177
:1025D000E1E7F0E090819D7F908381E080930002AD
:1025E0003093FF012093FE013093FD012093FC0105
:1025F0000C94CF10EF920F931F933AEFE32E00E06D
:1026000010E00E9407191F910F91EF900895EF922B
:102610000F931F9332E0E32E00E010E00E940719B1
:102620001F910F91EF9008958FB18095807F669BE9
:1026300088601C9B8460089560387105D0F4403434
:102640005105B8F4E4E9F8E180E1849FD001A07875
:102650001124A60F4770E40FF11D8491AA5EBD4FAF
:10266000222319F06C91862B03C080956C918623F0
:102670008C9308950C94F1330F931F93CF93DF93B2
:102680001F92CDB7DEB78C0179830E94F93379812F
:10269000672FC80101960F90DF91CF911F910F9185
:1026A0000C94F933CF92DF92EF92FF920F931F9326
:1026B000CF93DF93D82EC5ECD1E007EC11E07E017B
:1026C000F8018181813051F080F08230C9F4F80145
:1026D000608170E020E04CE558E10DC0F8016081B8
:1026E00070E020E048E758E106C0F801608170E042
:1026F00020E042E458E1F701808191810E94FA12C2
:10270000F4E0EF0EF11C0C5F1F4F21E0073D1207B4
:10271000B9F6E12CF12C00E010E0D801AE51BE4F2B
:102720001196EC911197EE23B1F0F0E0EE0FFF1F40
:10273000EE5CF74E459154916C91062E000C770B90
:102740006C5171098091F90120E0F701E81BF10952
:10275000CF010E94FA12D801A852BE4F1196EC91F7
:102760001197EE23B1F0F0E0EE0FFF1FEE5DF74E94
:10277000459154916C91062E000C770B605C7F4F55
:102780008091F90120E0F701E81BF109CF010E94D7
:10279000FA120E5F1F4FF0E2EF0EF11C0A30110526
:1027A00009F0BBCFD110E5C000E010E080E9E82ED1
:1027B000F12C88819981019799838883803D9F4F6F
:1027C0009CF58091EC01843079F1F982E8822091C6
:1027D000DE01205C203224F021331CF020E301C014
:1027E00020E2022E000C330B440B550B6091E801E4
:1027F0006C5F613214F060E202C067FD60E0062E9B
:10280000000C770B880B990B0E94BC11C8018B53ED
:102810009E4F6C01FC01628363E070E080E090E019
:102820000E949811F601638324960C5F1F4F0031BC
:10283000110509F0BECF8091F9018F5F803219F048
:102840008093F90196C01092F901E2EEF1E0A8ED53
:10285000B1E0828193818193919312968D919C91A5
:1028600013978D939D9321E0EA3EF20791F7C09173
:10287000E0018091D501803149F018F4882331F0CE
:1028800016C0803231F0803349F011C0C53194F068
:1028900002C0C03F94F427E062E013C0C03F24F0C0
:1028A000C5316CF461E001C062E028E00AC020E0BC
:1028B00060E007C028E067E004C022E001C027E034
:1028C00061E030E040E050E070E080E090E00E94A5
:1028D000BC11862F6093E1016091DF010E94851198
:1028E000E82FF0E0E456FE4F8081C80FC093E0016E
:1028F000C091EA018091D601803449F018F4882310
:1029000049F016C0803831F0803C49F011C0C53123
:1029100094F002C0C03F94F427E062E013C0C03FCF
:1029200024F0C5316CF461E001C062E028E00AC027
:1029300020E060E007C028E067E004C022E001C0BA
:1029400027E061E030E040E050E070E080E090E0BF
:102950000E94BC11862F6093EB016091E9010E94F7
:102960008511E82FF0E0ED56FE4F8081C80FC0932F
:10297000EA01DF91CF911F910F91FF90EF90DF90CF
:10298000CF900895CF93DF93C82F88EC90E00E94FA
:102990003A13D82F89EC90E00E943A13D43321F4F3
:1029A000833311F4CC2331F164E370E088EC90E0E0
:1029B0000E943C1363E370E089EC90E00E943C13BA
:1029C00060E070E08AEC90E00E943C1360E070E010
:1029D0008CEC90E00E943C1360E070E08EEC90E0A4
:1029E0000E943C1360E070E080ED90E0DF91CF91B9
:1029F0000C943C13DF91CF910895EF92FF920F93C7
:102A00001F93CF93DF938091100290911102019652
:102A10008F31910528F4909311028093100204C025
:102A200010921102109210028091F7019091F8011A
:102A30000196813921E0920728F49093F801809360
:102A4000F70104C01092F8011092F701E0905507C9
:102A5000F090560708E710E0C0E0D0E020E0AE01BB
:102A6000B8018EE597E00E941C132196C034D10571
:102A7000A9F70F5F1F4F0038110571F720E430E010
:102A800049E750E060E070E089E790E00E94B41B05
:102A900020E04BE158E160E070E08BE790E00E94BD
:102AA0000713C70164E670E00E941436EC01660F5C
:102AB000771FFB01E158FE4F4081518120E066E025
:102AC00070E08BE790E00E940713CE016AE070E0AF
:102AD0000E941436EC01660F771FFB01E158FE4F90
:102AE0004081518120E06BE070E08BE790E00E9434
:102AF0000713CC0FDD1FC158DE4F4881598120E0FC
:102B000060E170E08BE790E00E9407138091F7018D
:102B10009091F80168EC70E00E941436611571051F
:102B200021F061307105F1F044C08091510790911E
:102B3000520797FD02C0292F01C020E04EE164E159
:102B400078E187E10E94391C80915A0790915B07D8
:102B500097FD02C0292F01C020E043E36DE078E13A
:102B60008EE215C080915D07882331F080911002BC
:102B7000909111020F9798F4809159072BEA829F48
:102B8000212D1124269547E26FEF77E182E2DF9154
:102B9000CF911F910F91FF90EF900C94391C20E082
:102BA00046E058E168E170E08BE790E00E9407138F
:102BB000E3CFDF91CF911F910F91FF90EF90089598
:102BC0009091F60124E0929FF0011124E05CF94F0E
:102BD0008E5E8083675F6183428381E0838380911F
:102BE00059078150809359079F5F9F3019F0909348
:102BF000F60108951092F6010895CF92DF92EF92B8
:102C0000FF920F931F93CF93DF93EC018885882366
:102C100009F4EAC08F89882311F081508F8B8F8946
:102C20008111E2C02C8D2111A6C04A8D5B8DE88CEC
:102C3000F98CF7013296E40FF51F0491FA01EE0DBD
:102C4000FF1D849197012F5F3F4FFA01E20FF31FA1
:102C50001491CD88E82FC110E195DE88D11011952F
:102C6000013809F486C0083008F051C06889062E82
:102C7000000C770B6E0F711DE7FD7A95072E000C87
:102C8000880B990B0E940F3520E030E040E852E4B9
:102C90000E946B3420E030E040E857E40E949B350E
:102CA0000E94D734688379838A839B836989062E3F
:102CB000000C770B610F711D17FD7A95072E000C24
:102CC000880B990B0E940F3520E030E040E052E481
:102CD0000E946B3420E030E040E857E40E949B35CE
:102CE0000E94D7346C837D838E839F838D85833050
:102CF00019F486E08E8701C00E87CC2009F468C0E5
:102D0000EE85F0E0D1106BC0E159FE4F6AC0ED8F47
:102D10001E8F8E2FEE0F990BAA0BBB0BDC01992790
:102D20008827488159816A817B81840F951FA61F5E
:102D3000B71F88839983AA83BB83812F110F990BB7
:102D4000AA0BBB0BDC01992788274C815D816E8122
:102D50007F81840F951FA61FB71F8C839D83AE8331
:102D6000BF8301500C8F83E0E80EF11CF98EE88ED2
:102D70003BC0188639C08D8D082E000C990BAA0B0C
:102D8000BB0BDC0199278827488159816A817B81A7
:102D9000840F951FA61FB71F88839983AA83BB83BF
:102DA0008E8D082E000C990BAA0BBB0BDC0199270A
:102DB00088274C815D816E817F81840F951FA61FBE
:102DC000B71F8C839D83AE83BF8321502C8F0CC093
:102DD000DD2049F2EE85F0E0E959FE4F02C0E15AEC
:102DE000FE4F80818E87BFCFDF91CF911F910F91D2
:102DF000FF90EF90DF90CF900895DC011B96ED914E
:102E0000FC911C973E9685919491FC0184910895C4
:102E1000DC011B96ED91FC911C973C968591949159
:102E2000FC0184910895CF93DF9300D000D000D0AF
:102E3000CDB7DEB7FC0180819181A281B381CD0144
:102E40000196282F9A83898384819581A681B781F1
:102E5000CD010196482F9C838B8383859485FC014B
:102E60003C9665917491FB0164916250FC013E9621
:102E700085919491FC0174917E5F3A815C8180E040
:102E800090E026960FB6F894DEBF0FBECDBFDF915F
:102E9000CF910895FC011082118212821382148254
:102EA0001582168217821286118654874387138AE9
:102EB000128A6587108683E0848B148E86E087876C
:102EC00008958F929F92AF92BF92CF92DF92EF922E
:102ED000FF920F931F93CF93DF93CDB7DEB76F971A
:102EE0000FB6F894DEBF0FBECDBF109296061092BB
:102EF000B5061092D4061092F306109212071092A3
:102F00003107FC0194902EE8E22E26E0F22E8C018F
:102F10000E5F1F4F35EAC32E36E0D32EA12C4FE1B2
:102F2000B42E55E0852EA91409F48AC0F801319712
:102F3000E491E130E1F0B8F0E23049F1E33059F5E5
:102F40004FE657E163E0CE0101960E944A17FE0169
:102F50003196D7018B2D01900D928A95E1F7F601FC
:102F60003897808218C048ED5FE160E003C04FEC05
:102F700057E161E0CE0101960E944A17FE013196A9
:102F8000D7018B2D01900D928A95E1F704C04FE98E
:102F900057E162E0EFCFF8018491E82FF0E0EE0F07
:102FA000FF1FE958FE4F80819181D7015B969C936A
:102FB0008E935A9759961C921E925897F801319603
:102FC000E491D6011797EC93F8013296E4911196AB
:102FD000EC93F8013396E491D601EC93F801349622
:102FE000E491129781E0E13009F080E08C93F801E0
:102FF0003596E491D601119781E0E13009F080E047
:103000008C93F8013696E491D70119961C92199782
:103010001A96EC931A9753961C921E925297F601A9
:103020003F9781E08083C7010E94FD15A394BFE113
:10303000EB0EF11C085F1F4FEFE1CE0ED11C73CFDA
:103040006F960FB6F894DEBF0FBECDBFDF91CF9164
:103050001F910F91FF90EF90DF90CF90BF90AF90B6
:103060009F908F9008952FB7F89483E08093E900A4
:103070009091E800892F807295FF04C09091F20032
:1030800080E4891B2FBF0895CF93DF931F92CDB7A4
:10309000DEB76983DC01ED91FC910280F381E02DC4
:1030A00041E050E0BE016F5F7F4F09950F90DF91C7
:1030B000CF91089583E08093E9008091F200882306
:1030C00019F08AE38093E80008950E94331890E095
:1030D00008958F929F92AF92BF92CF92DF92EF921C
:1030E000FF920F931F93CF93DF935C016B017A01E3
:1030F00080911601882309F45BC080910F02882318
:1031000009F456C080910D0280FF05C08091E00057
:1031100082608093E000E70110E00AEF83E0882EF0
:103120009AE3992E2097D9F10E94331881110AC091
:10313000015009F43DC061E070E080E090E00E9441
:103140000312F0CF282F30E0C217D3070CF48C2FD6
:103150004FB7F8948092E9009091E80095FF1DC068
:10316000282F30E0C21BD30BF601982F915020F08E
:1031700081918093F100FACFC20ED31E112319F072
:103180009092E80009C08091E80085FD06C0909209
:10319000E80011E0209709F010E04FBFC3CF1111F4
:1031A000C3CF5D9884E680930C021E141F0444F084
:1031B00081E090E0F5019383828380E090E001C09C
:1031C000C701DF91CF911F910F91FF90EF90DF909A
:1031D000CF90BF90AF909F908F9008950F931F93C3
:1031E000CF93DF93C82FD62F042F10E0DC1750F0B9
:1031F0004C2F50E021E0B8018EE597E00E941C13AF
:10320000CF5FF4CFDF91CF911F910F9108956F920F
:103210007F928F929F92AF92BF92CF92DF92EF9266
:10322000FF920F931F93CF93DF9300D000D0CDB7C1
:10323000DEB7DC014B017E2D4115510509F4EEC1CD
:10324000FA016491319694915A01F2E0AF0EB11CEB
:10325000C62ED12C222309F1492F46954695469535
:10326000E42FF0E041E050E0892F877011F440E056
:1032700050E04E0F5F1FC49EF001C59EF00DD49E1E
:10328000F00D1124733011F4EE0FFF1F2E9FA001DB
:103290002F9F500D1124A40EB51E7F3F31F4011550
:1032A000110511F071E001C072E0AD014C0D5D1D22
:1032B000141615060CF0B2C1A038B1050CF0AEC161
:1032C0009401290F311D121613060CF0A7C180E4DA
:1032D000881691040CF0A2C1A114B10409F49EC196
:1032E000382D3770F40197FC379623E0F595E79574
:1032F0002A95E1F72E2F97FE04C0332311F02FEF0C
:103300002E0FB7FF05C0EE27FF27EA1BFB0B02C0FD
:10331000E0E0F0E04038510524F050E85A1B952ECB
:1033200001C0962E9E1AE22E022E000CFF082F3F9F
:103330001CF45E2D509501C050E041E0892F87704C
:1033400009F440E0969596959695490FE40EF11C88
:1033500099E0E916F10414F048E0421BF42EF51A46
:10336000250F40E82403A00DB11D1124AE0FBF1F8F
:10337000569FE00DF11D1124A5014E0F5F1F81E046
:1033800090E05C01032E02C0AA0CBB1C0A94E2F779
:10339000733009F400C1A0F4713009F4B3C0723085
:1033A00009F03CC18FEF8A9DB0018B9D700D1124F7
:1033B000609570957C836B837C806F2C620E29C036
:1033C0007A3F29F07B3F09F029C1F20E87C0F20E47
:1033D00051C0FA01E00FF11FE491EA9D7001EB9DED
:1033E000F00C1124FA82E98227FD07C0FC01F0806D
:1033F000EF2DE623EE2AFC01E082311113C00F5FAE
:103400001F4F0196091528F32F5F4C0D5D1DA05825
:10341000BF4F261509F402C1CD018A5E9D4F00E021
:1034200010E0F0CF27305CF7FC01E058FF4FE08060
:10343000E7208A80E828E082E2CFFA01E60FF71F52
:10344000E491EA9D8001EB9D100D11241A830983FC
:1034500027FD04C0FC011081012B0083311113C032
:103460006F5F7F4F0196691540F32F5F4C0D5D1D17
:10347000A058BF4F2F1509F4D1C0CD018A5E9D4FD2
:1034800060E070E0F0CF27305CF78C0100581F4FF0
:10349000F801E080FA81EF2AF801E082E1CFFA0139
:1034A000E00FF11FE491EA9DC001EB9D900D112406
:1034B0009A83898327FD05C08095FB01908189232C
:1034C0008083311114C00F5F1F4F6F5F7F4F09154D
:1034D00030F32F5F4C0D5D1DA058BF4F2F1509F421
:1034E0009DC0BD016A5E7D4F00E010E0F0CF273047
:1034F00054F7FB01E058FF4F8A8180959081892322
:103500008083E1CF0E0F1F1F8F2C820E281509F428
:1035100085C0CD018A5E9D4F7C0160E070E0691539
:1035200090F5F801E60FF71FE491EA9DC001EB9DCD
:10353000900D1124809590959C838B83FA01E60F62
:10354000F71FE491EA9D3001EB9D700C11247A8203
:10355000698227FD05C0F70190818923682A60826E
:10356000332359F027304CF4F701E058FF4F908196
:103570008C8189239A81892B80836F5F7F4FFFEF36
:10358000EF1AFF0ACCCF2F5F4C0D5D1D0C0D1D1DDA
:10359000A058BF4FBBCF892D90E0E40FF51FAA5E66
:1035A000BD4F60E870E0681B790BC81AD90A860124
:1035B000000F111F592D4F2D792CE32ECF93DF9340
:1035C000ED01EF96EF9622968590C590EE2059F08A
:1035D0008A9C4001CA9C600127302CF4F880D0946A
:1035E000FD20F928F99222233AF0FC90C094FC20A7
:1035F000F828FD920C94FD1A11965A9529F74A95D0
:1036000051F0572D23951124E00FF11DA60FB11D88
:10361000C60FD11DD9CFDF91CF9111240F900F90FC
:103620000F900F90DF91CF911F910F91FF90EF902E
:10363000DF90CF90BF90AF909F908F907F906F90D2
:103640000895EF920F931F93EE24E394890120E0F5
:103650000E9407191F910F91EF900895CF93DF9368
:1036600000D000D000D0CDB7DEB7E8E4F7E080812D
:103670009181A281B381CD010196282F9A838983FC
:1036800084819581A681B781CD010196482F9C83C5
:103690008B8383859485FC0165917491FB01649112
:1036A0006250FC0185919491FC01319674917250A5
:1036B0003A815C8180E090E026960FB6F894DEBFF8
:1036C0000FBECDBFDF91CF910895E6E1F2E0A0E01B
:1036D000B8E000800EBC8111012C1197A0FDFDCF38
:1036E0000192B9F70DB408958FB7F8944091120282
:1036F0005091130260911402709115028FBF809156
:103700006607942F981B80916707882331F0909368
:1037100068071092670780E0089520916507921767
:1037200040F49F5F9217A0F491E093BF889513BE79
:10373000089581E080936707409366078091610751
:10374000909162070196909362078093610781E0F0
:10375000089520916407282329F490916307982302
:1037600081E009F480E008955F926F927F928F92DA
:103770009F92AF92BF92CF92DF92EF92FF920F9300
:103780001F93CF93DF93EC018B017A01A901461BB4
:10379000570B57FF03C0519541955109C7018C1B29
:1037A0009D0B97FF03C091958195910955245394E2
:1037B0008417950714F0512C0AC09E2D8F2D790186
:1037C000292F382F9C2F8D2FE801092F182FEC1649
:1037D000FD0654F4902F812F8901292F382F9C2F1B
:1037E0008D2FE701E92EF82E37016C1A7D0A590159
:1037F000A01AB10AB7FE03C0B194A194B108630145
:1038000077FE03C08FEFC81AD80AD594C794021761
:10381000130714F08FEF01C081E0882E880F9908FC
:10382000EC16FD06B4F021E0552019F0AE01B80108
:1038300002C0A801BE018EE597E00E941C13CA18C1
:10384000DB08D7FE04C0080D191DC60CD71C219635
:10385000E7CFDF91CF911F910F91FF90EF90DF9015
:10386000CF90BF90AF909F908F907F906F905F9020
:1038700008950F931F93CF93DF93042FD22F90E0DF
:1038800020E0AB01BC018BE790E00E940713D5302C
:1038900030F480911002909111020F9780F0C0E0F7
:1038A00010E0CD1760F4B8016C0F711D9B0140E86A
:1038B00050E08BE790E00E94B41BCE5FF2CFDF9127
:1038C000CF911F910F91089565E070E080E090E046
:1038D0000C940312FC0180910F02811103C08FEF41
:1038E0009FEF08959FB7F89482E08093E9002091BC
:1038F000F20030E01216130614F421E030E0211536
:10390000310559F0289884E680930E028091F100E9
:1039100080838091F200882319F09FBFC901089528
:103920008BE68093E800F9CF80916D0781110DC07F
:1039300082E08093690784E080936A0710926C07A5
:1039400010926B0781E080936D0789E697E00895F8
:10395000FC018485958597FD0BC09FB7F89482E0A4
:103960008093E9008091F2009FBF90E00196089556
:103970009FB7F89482E08093E9008091F2009FBFA6
:1039800090E008954091D7075091D8072091D5072E
:103990003091D60742175307B4F49091E800957020
:1039A000E1F39091E80092FD19C08093F1008091BD
:1039B000D7079091D80701968F739927892B19F40F
:1039C0008EEF8093E8008091D7079091D8070196F9
:1039D0009093D8078093D70781E0089580E00895F9
:1039E000DF92EF92FF920F931F93CF93DF93D82E26
:1039F0008A017B01E40EF51EEB01CE15DF0571F0A7
:103A0000D7FE03C0FE01849101C088810E94C21CC0
:103A100021968111F2CF8FEF9FEF01C0C801DF9196
:103A2000CF911F910F91FF90EF90DF90089561501B
:103A300030F02091F100FC0120830196F8CF289806
:103A400084E680930E020895CF93DF931F92CDB743
:103A5000DEB7FC018485958597FD05C02FEF3FEF0C
:103A6000358724870BC0CE0101960E946A1C0197FE
:103A700019F4898190E002C08FEF9FEF0F90DF91E2
:103A8000CF9108950F931F93CF93DF931F92CDB7DC
:103A9000DEB78C01FC018485958597FF0EC0CE01B1
:103AA00001960E946A1C019719F4298130E002C036
:103AB0002FEF3FEFF80135872487F801848595853E
:103AC0000F90DF91CF911F910F9108950F931F9346
:103AD000CF93DF931F92CDB7DEB782E0898342E4B4
:103AE00050E068E470E280E80E94F01C0E94941CA0
:103AF000DC0112960D911C9113970115110569F0C7
:103B0000D801ED91FC910280F381E02DBE016F5F41
:103B10007F4FC801099597FF07C089810F90DF91FA
:103B2000CF911F910F910895F80100851185E5CF80
:103B30001F920F920FB60F9211248F939F93809133
:103B4000E1009091E100937F9093E10083FF0FC02B
:103B50001092E90091E09093EB001092EC0092E358
:103B60009093ED0010920F0298E09093F00082FF86
:103B700020C093E09093E9009091F200992319F00E
:103B80009AE39093E80090910C02992339F0909178
:103B90000C02915090930C02992389F190910E029E
:103BA000992339F090910E02915090930E0299232F
:103BB00041F184FF10C08091E2008E7E816080938D
:103BC000E2008091E1008F7E8093E10080910D0200
:103BD0008E7E806111C080FF16C08091E2008E7ED3
:103BE00080618093E2008091E1008E7E8093E1000D
:103BF00080910D028E7E816080930D0204C05D9ADB
:103C0000CDCF289AD6CF9F918F910F900FBE0F9056
:103C10001F9018951F920F920FB60F921124CF92FA
:103C2000DF92EF92FF920F931F932F933F934F9347
:103C30005F936F937F938F939F93AF93BF93EF9314
:103C4000FF93CF93DF93CDB7DEB76C97DEBFCDBFC9
:103C50001092E9008091E80083FFEDC168E0CE0199
:103C600045960E94171D82EF8093E8008D8987FF9B
:103C700005C09091E80090FFFCCF03C09EEF9093A9
:103C8000E800982F907609F0C6C09E892F89188D7C
:103C900091110CC0803829F48091D4078093F100F1
:103CA00002C01092F1001092F10048C1422F50E082
:103CB000512B913051F4811141C14130510509F02E
:103CC0003DC18091D4078D7F0BC0933061F4811189
:103CD00035C14130510509F031C18091D40782606E
:103CE0008093D4072BC1953041F48091E80080FF88
:103CF000FCCF20682093E30021C1963009F05FC01B
:103D0000EB8CFC8C1092E9001092D8071092D70728
:103D1000123091F51092D6071092D5070E94661DB9
:103D200099E0BE016F5F7F4FDB01E92F1D92EA959D
:103D3000E9F799831A8391E09E8390EA98879AEF36
:103D400099872091D7073091D807275F3F4F3C8351
:103D50002B838D831092E9001092D8071092D70719
:103D6000F092D607E092D50749E050E080E00E944B
:103D7000F01C0E94661DE2C0F092D607E092D507C3
:103D80000E94941CDC011296ED90FC901397E114B4
:103D9000F10409F4C0C0D701ED91FC910480F581D4
:103DA000E02DBE016B5E7F4FC7010995009719F0AA
:103DB0000CF0C4C0C7C0F701E084F184E8CF9730AD
:103DC00009F4C0C0983021F481E08093F100B6C0BE
:103DD000993009F0B3C0837009F0B4C0EEEBF1E0A4
:103DE00081E021E036E39081992361F08093E9003E
:103DF0002093EB0091919093EC003093ED008F5F56
:103E0000873089F78EE78093EA001092EA008F8965
:103E100080930F0293C08B8D9C8D1092E9001092BD
:103E2000D8071092D7079093D6078093D507898D2E
:103E3000811156C08E899D89913A59F4813209F0D9
:103E400081C047E050E06FE071E080E00E94F01C2C
:103E500075C0913209F076C0833289F4888D90E084
:103E6000982F88272F89822BA0E0B0E0809317013C
:103E700090931801A0931901B0931A015FC080328A
:103E800069F48091E80082FFFCCF67E08FE091E069
:103E90000E94171D8BEF8093E80006C0823209F064
:103EA0004DC08F89809316018091D307882319F024
:103EB000EEEFFAE002C0E0E0F8E080910F019091AF
:103EC0001001A0911101B0911201803B9440A10515
:103ED000B10509F07BC08091160180FF93C076C0C8
:103EE0000E94941CDC0112960D911C9113970115F0
:103EF000110541F1D801ED91FC910190F081E02D87
:103F0000BE016B5E7F4FC8010995811117C0F80192
:103F100000851185ECCF113009F44EC0133091F4B7
:103F20008F89882309F445C0823081F440E860E13C
:103F30008CEA90E20E945833882321F08EEF809320
:103F4000E80079C081E28093EB0075C0813029F4EC
:103F500040E86BE080EA90E2EDCF833099F70E9471
:103F6000941CDC011296ED90FC9013978E010F5F6C
:103F70001F4F6801E114F10479F0D701ED91FC9134
:103F80000680F781E02DB801C7010995080F111DC2
:103F9000F701E084F184EECFD8011C92F601019084
:103FA0000020E9F73197BF016C197D0940E0C60197
:103FB000C1CF6AE870E202C06EE870E26115710577
:103FC00009F2FB01449150E080E840CF0FB6F8942D
:103FD000A8958091600088618093600010926000D5
:103FE0000FBEA895EE3F2AE0F20739F08091FE0A55
:103FF0009091FF0A91838083A1CF1092FF0A1092C3
:10400000FE0A9CCFEE3F8AE0F80731F08081918173
:104010009093FF0A8093FE0A87E797E79183808356
:104020009BE088E10FB6F894A895809360000FBEDE
:104030009093600083CF6C960FB6F894DEBF0FBEEE
:10404000CDBFDF91CF91FF91EF91BF91AF919F9144
:104050008F917F916F915F914F913F912F911F9120
:104060000F91FF90EF90DF90CF900F900FBE0F90C9
:104070001F901895CF93DF93CDB7DEB7CB54D109FE
:104080000FB6F894DEBF0FBECDBF789484B58260C2
:1040900084BD84B5816084BD85B5826085BD85B5EC
:1040A000816085BD80916E00816080936E0010926A
:1040B00081008091810082608093810080918100E5
:1040C0008160809381008091800081608093800076
:1040D0008091910082608093910080919100816035
:1040E00080939100809190008160809390008091F6
:1040F000C10084608093C1008091C1008260809380
:10410000C1008091C10081608093C1008091C30093
:1041100081608093C3008091C00082608093C00062
:104120008091C20081608093C20080917A00846097
:1041300080937A0080917A00826080937A008091E7
:104140007A00816080937A0080917A008068809301
:104150007A0010920F021092D40710920D028091F3
:10416000D70081608093D70080EA8093D80089B51A
:10417000806189BD89B5826089BD09B400FEFDCF2B
:1041800061E070E080E090E00E9403128091D8002E
:104190008F7C80618093D8008091E000807F809345
:1041A000E0008091E1008E7E8093E1008DE08093BD
:1041B000E200559A209AEEEFFFE7859194918B3FAC
:1041C0009C4D19F481E08093D30780E00E94C214D3
:1041D00081EC80937C0085B1806F85B984B1877E46
:1041E00084B984B1876E84B95E9A5F988AB1806D14
:1041F0008AB9769A6E9881B3806F81BB899880B3B3
:104200008D7080BB80E58CBD81E08DBD0E94641CFB
:104210005F9A0E94641C5E985C98E0E8F3E08DE091
:104220008E0F94919EBD00000DB407FEFDCF319618
:104230008E13F7CF5C9A81E88093640080916500CB
:104240008160809365000E94141387FF15C05C98FD
:1042500085EA8EBD00000DB407FEFDCF5C9A2E9856
:104260002F982D988091640080628093640081E093
:1042700083BF889513BEFCCF82E090E00E94F133AB
:10428000882331F03E9A3F9A81E08093C40104C0B4
:104290001092C4013E983F988DE790E090930E01F4
:1042A00080930D018CE291E090930C0180930B01BF
:1042B00080E09BE490930A018093090180E09EE0F6
:1042C0009093080180930701909306018093050164
:1042D00082E390E0909304018093030180ED90E0ED
:1042E0000E943A138093F10184E1809365078091E5
:1042F00064008E7F8093640080917A008064809354
:104300007A0080917A0086FDFCCF009178001091B0
:1043100079000E94DE1120E030E09801112700278B
:10432000600F711F821F931F611571058105910533
:1043300011F00E94E83380916400816080936400F2
:10434000AE014F5F5F4F58AF4FAB0E94741B882385
:1043500011F40C943D2A80E0E6E1F2E081118FEF48
:10436000002481938193819381930394D1F7809169
:104370006307809364070E94141380936307E0919E
:10438000EC018E2F90E08830910510F00C943D2ABE
:10439000FC01EA5AFF4F0C943C361092F501109242
:1043A000F40180EE9FEF9093F3018093F20111E00E
:1043B0001093EC018BE89CE00E94E71210925807E2
:1043C0001092570710925D0780E09EE090935B0784
:1043D00080935A0790935207809351072BE42093C0
:1043E0005907109256071092550710925C071093C8
:1043F000500740E050E061E070E040934807509380
:10440000490760934A0770934B0740E050E068E12A
:1044100070E040934C0750934D0760934E077093A4
:104420004F072DE730E030930E0120930D012CE271
:1044300031E030930C0120930B0120E03BE43093FA
:104440000A0120930901909308018093070190933A
:1044500006018093050128C10091F2011091F3013A
:1044600020E049EE59E0B80186E590E00E9407138C
:1044700020E047E859E063E070E08EE090E00E94C1
:10448000071366E470E0601B710B20E043ED5AE116
:1044900087E390E00E94071364E370E0601B710BF8
:1044A00020E043ED5AE189E290E00E9407136EE1BB
:1044B00070E0601B710B20E043ED5AE182E390E075
:1044C0000E94071320E049E559E063E070E080E0D6
:1044D00090E00E940713E090F101FF24F394FE0C9A
:1044E0002F2D41E159E065E270E082E090E00E940A
:1044F0000713015011091093F3010093F2010E37D5
:104500001F4F34F480E590E09093F3018093F20123
:1045100081E00E94651B80E40E94A91B8823B9F0FA
:1045200081E08E1510F0F092F1016091F10180EDC3
:1045300090E02C966FAF2C970E94F1332C966FADC4
:104540002C97681721F080ED90E00E94F93380E20B
:104550000E94A91B8823C9F08091F101882319F0DA
:1045600081508093F1016091F10180ED90E02C96F3
:104570006FAF2C970E94F1332C966FAD2C97681774
:1045800021F080ED90E00E94F93380E80E94A91BA1
:1045900081117DC780E10E94A91B811178C788E045
:1045A0000E94A91B882309F468C782E08093EC016C
:1045B0001092F50162C7109296061092B5061092FD
:1045C000D4061092F306109212071092310780E081
:1045D00090E0FC01E05CF94F138204968C33910566
:1045E000C1F780E090E0FC01E85EF94F1382049689
:1045F00088329105C1F710925D0700E01EE010932C
:104600005B0700935A0710935207009351078BE4FE
:1046100080935907109256071092550710925C0725
:1046200081E08093500780E090E0A1E0B0E08093CB
:10463000480790934907A0934A07B0934B0780E03F
:1046400090E0A8E1B0E080934C0790934D07A093D1
:104650004E07B0934F07109284068BE698E00E94B5
:10466000E71280E590E09093F3018093F20183E0FC
:104670008093EC018DE790E090930E0180930D0103
:104680008CE291E090930C0180930B0180E09BE41D
:1046900090930A0180930901109308010093070188
:1046A000109306010093050182E390E090930401CA
:1046B0008093030184E180936507DFC68091F50153
:1046C000843630F48A3038F0E3E0BE2E0CE206C0C7
:1046D000B12C0EE203C076E0B72E09E280916107AB
:1046E00081700E945213E090F201F090F30190E586
:1046F000E916F10454F4A2E0EA16F1040CF046C005
:10470000EA94EF2809F49DC041C1E0E5EE16F104FA
:1047100009F03CC180E890E09093C6018093C50108
:1047200084E18093C7011092C80180EB90E09093E0
:10473000CA018093C90189E18093CB0181E0809314
:10474000CC0120EE30E03093CE012093CD019EE1EC
:104750009093CF0192E09093D00120E131E030932B
:10476000D2012093D10193E29093D3018093D4019D
:1047700080E090E0FC01EE51FE4F1082FC01E85217
:10478000FE4F108202968A309105A1F76B2D70E0E2
:104790006E5F7F4F20E04FE358E08CE390E00E9493
:1047A00007138091F501C82ED12C10E0833678F0E4
:1047B000C601019664E670E00E942836262F41E18A
:1047C00059E0B8018CE390E00E94071302C08930E1
:1047D000A8F0C60101966AE070E00E942836CB017D
:1047E0006AE070E00E942836282F41E159E0B801C4
:1047F0006A5F7F4F8CE390E00E940713C601019629
:104800006AE070E00E942836B801645F7F4F282F6D
:1048100041E159E08CE390E00E94071310E41B197A
:1048200049E3612F8B2D0E94EE1845E4612F8B2DFB
:104830000E94EE18C70101979093F3018093F20153
:10484000A5C08091F50165E00E940836E92FF0E0EF
:10485000EE0FFF1FEB5AFE4F0190F081E02D1491F7
:104860001093ED0182E08093F4013196E4918E2F54
:104870008F708093EF019E2F907C9093D601E07310
:10488000E093D501E82FF0E0EE0FFF1FE95CFE4F4B
:10489000808191810E94611711501093F001E09185
:1048A000F101F0E0DF01AC5CBE4F8C91609103013F
:1048B00070910401680F711D87FD7A957093040152
:1048C00060930301DF01AF5CBE4F8C91082E000C9A
:1048D000990B20910D0130910E01280F391F309353
:1048E0000E0120930D0120910B0130910C01820FDC
:1048F000931F90930C0180930B018091090190917B
:104900000A01813025E292076CF0DF01AA0FBB1F7C
:10491000A55DBE4F2D913C91821B930B90930A0194
:10492000809309018091070190910801813037E05F
:1049300093076CF0DF01AA0FBB1FAB5DBE4F2D913B
:104940003C91821B930B9093080180930701809107
:10495000050190910601813047E0940764F0EE0F65
:10496000FF1FE15EFE4F20813181821B930B9093EC
:10497000060180930501772788EE93E00E94283690
:10498000609365071092F3011092F20180915A072B
:1049900090915B07181619060CF044C0209151073E
:1049A0003091520712161306ECF520915C07211185
:1049B00039C0029790935B0780935A07019621F4C0
:1049C00010925B0710925A070E94141387FF02C0CF
:1049D0000C94BC2C0E94141384FF02C00C94DA2C9B
:1049E0000E94141385FF02C00C94F72C0E9414132C
:1049F00086FF02C00C94152D84E00E94A91B882319
:104A000019F088E080935C0788E00E94A91B81115F
:104A10000C94322D8091F2019091F301892B11F4C5
:104A20000C947A2D00E416E023E4C22E26E0D22E68
:104A300031E4E32E36E0F32EF6013197E0818E2F3C
:104A400090E08830910550F5FC01E25AFF4F0C943C
:104A50003C36F80180818F5F8083D7018C91815033
:104A60008C931CC0F80105C0D8018C918F5F8C938A
:104A7000F70180818F5F11C0F801808181508083B0
:104A8000D7018C918F5FECCFF80105C0D8018C91D4
:104A900081508C93F701808181508083D8016C9183
:104AA000693710F0F6011082D7014C91413410F0B3
:104AB000F6011082D6018C91882339F050E070E025
:104AC00021E08EE597E00E941C130C5F1F4FB4E0BD
:104AD000CB0ED11CE4E0EE0EF11CF6E00C371F0704
:104AE00009F0AACF08E116E08BE1C82E86E0D82EA7
:104AF00099E1E92E96E0F92EF6013197E0818E2FAB
:104B000090E08830910550F5FC01EA59FF4F0C9474
:104B10003C36F80180818E5F8083D7018C91825072
:104B20008C931CC0F80105C0D8018C918E5F8C93CA
:104B3000F70180818E5F11C0F801808182508083EF
:104B4000D7018C918E5FECCFF80105C0D8018C9114
:104B500082508C93F701808182508083D8018C91A0
:104B6000893710F0F6011082D7018C91813410F052
:104B7000F6011082D6018C91882359F0F70140810B
:104B800050E0D8016C9170E021E08EE597E00E9442
:104B90001C130C5F1F4FB4E0CB0ED11CE4E0EE0EF3
:104BA000F11CF6E000341F0709F0A6CFBEE88B2EFB
:104BB000B6E09B2E26E936E03CAF2BAF45EA56E047
:104BC00021965FAF4EAF21971DE9212E16E0312EC1
:104BD000C4010E94FD15C4010E94131729833A8362
:104BE0004B835C836D837E8329813A818B819C8199
:104BF000ABADBCAD4C91442309F4CEC02196EEADD3
:104C0000FFAD219740814111C7C0A901460F511D39
:104C1000141615060CF0C0C0203831050CF0BCC0CD
:104C20009C01270F311D37FDB7C0803491050CF072
:104C3000B3C091012250310927963FAF2EAF27977D
:104C4000D901BC91B9AFB33009F095C08091480744
:104C500090914907A0914A07B0914B073D01F9E0B7
:104C60006F0E711C80914C0790914D07A0914E07DB
:104C7000B0914F072D0129E0420E511CF4018081B3
:104C80009181A281B3818D01035E1F4FC480D580C5
:104C9000E680F7806701FF24D7FCF094EF2CC40175
:104CA0000E94FD16601A710A869590E0C80ED91E02
:104CB0004C185D086114710409F4EDC3C201550C70
:104CC000AA0BBB0BDC01992788276C017D01FF0C27
:104CD000CC08DC2C76019C01AD016C2D7C2D8C2D3B
:104CE0009C2D00E10E9419376301770CEE08FF0844
:104CF0008601FF24EE2457016801DD0CAA08BA2CB6
:104D000065012596ACAEBDAECEAEDFAE25975701A0
:104D100068012296EFAC2297FE2C0E2D1E2D0E94CC
:104D20004436F22FE32F8F2F9E2FA42FB52FB7FFDE
:104D300007C0B095A095909581959F4FAF4FBF4FFD
:104D400014140CF4CBC316140CF4AAC36110B7C32B
:104D50008B5F9946A240B10985309649A44EB34075
:104D600008F0F5C319AED1018C91B9ADB93009F095
:104D7000F4C3F1018083D401CD90DD90ED90FC90DF
:104D8000139714964D905D906D907C901797EBADB6
:104D9000FCAD80818111E4C3FFE18F0E911C2BAD2E
:104DA0003CAD215E3F4F3CAF2BAF21964EAD5FAD8A
:104DB0002197415E5F4F21965FAF4EAF21975FE134
:104DC000250E311C88E4881687E0980609F000CF8C
:104DD00080918406882309F445C04091850650914E
:104DE0008606052E000C660B770B762F652F542F49
:104DF000442780917C0690917D06A0917E06B0911B
:104E00007F06841B950BA60BB70B80937C069093B3
:104E10007D06A0937E06B0937F06CD01BB2797FD4C
:104E2000B095AB2F9C01AC01485F5F4F48385105EE
:104E300008F0E4C420918C0630918D0640918A06DA
:104E400050918B06C0908006D0908106E09082063B
:104E5000F09083066701FF24D7FCF094EF2CB60195
:104E60000E94211BC0904807D0904907E0904A0754
:104E7000F0904B076701FF24D7FCF094EF2C809053
:104E80004C0790904D07A0904E07B0904F074501FA
:104E9000BB2497FCB094AB2CC60142968239910595
:104EA00008F0A7C080915A0790915B071816190661
:104EB0000CF044C0609151077091520761159BEF4F
:104EC00079070CF43BC040915C07242F269526956A
:104ED0002695233009F499C408F0A0C4213009F4C0
:104EE00094C4223009F098C4C6010E9630E0F9014E
:104EF0003197379718F44F5F40935C0740915C07F8
:104F0000403411F410925C0761307D4FBCF0409149
:104F1000530750915407285F3F4FB901660F771F21
:104F2000FA01E60FF71F25913491FB017097E40F0A
:104F3000F51F45915491B4010E94211B80915107A6
:104F400090915207181619060CF441C00C979093D3
:104F5000520780935107292F892F990F990B121609
:104F600014F4019702C0809590952C3F3CF42A3FA1
:104F700014F5263F61F51092500729C02F3F09F024
:104F800034F54091530750915407FC01FF27749664
:104F9000CF01880F991FFA01E80FF91F259134916D
:104FA000FC013897E40FF51F45915491B401C601F7
:104FB0000E94211B0CC0E0915307F0915407B69654
:104FC0004591549120E0B401C6010E94FA1220914B
:104FD0005A0730915B07121613065CF08091510757
:104FE00090915207181619060CF420C402C01092B2
:104FF00050070E94FD1481E00E94651B8091F20120
:105000009091F301892B09F040C080E090E0FC0111
:10501000E257F94F2085211138C04F968A3B910500
:10502000B1F71091F0018091F501112309F448C402
:1050300065E00E940836E92FF0E0EE0FFF1FEB5A03
:10504000FE4F0190F081E02D8091F40191E0980FE6
:105050009093F401E80FF11DE4918E2F8F708093EF
:10506000EF019E2F907C9093D601E073E093D501E1
:10507000E82FF0E0EE0FFF1FE95CFE4F8081918189
:105080000E94611711501093F00180915107909187
:105090005207181619063CF480915A0790915B0745
:1050A0001816190644F08091D701811104C08DECC7
:1050B00096E00E94E712809150078111DEC1209195
:1050C0005507309156078091570790915807820FE6
:1050D000931F909358078093570746C170905507C8
:1050E00060905607C0905707D09058070091F10183
:1050F00010E00B591F4F000F111FC8010E943A13F7
:10510000F82EC80101960E943A13282F30E0322F62
:105110002227C9018F0D911D8C159D0520F4B60124
:10512000C8010E943C130CEE1FEF0E94741B8823E1
:10513000E1F38091EC0120E0843039F441E855E05E
:1051400062E070E08AE690E006C04BEF54E068E071
:1051500070E088E690E00E94071346E660E480E095
:105160000E94EE184FE760E480E00E94EE184801CC
:10517000B2E18B1A910826E6A22EB12C740197FE9B
:1051800002C0E12CF12CF0E4EF16F1045CF420E015
:10519000A701B5018EE597E00E941C13EFEFEE1A10
:1051A000FE0AF1CF2FEFA21AB20A35EEA316B10410
:1051B00029F720E043ED5AE1B40186E690E00E9431
:1051C000071320E043ED5AE1B8018FE690E00E941A
:1051D000071380E00E94651B0F5F1F4F0436110507
:1051E00009F0A3CFFFA844E0F40E9F2C0E94741B8B
:1051F0008823E1F380916307809364070E9414136E
:1052000080936307E090EC0154E020E0E51207C0D2
:1052100041E855E062E070E08AE690E006C04BEFBE
:1052200054E068E070E088E690E00E94071346E6EC
:1052300060E480E00E94EE184FE760E480E00E94A6
:10524000EE1820E04DED54E064E070E08DE390E076
:105250000E94071319821A821B821C82CE010196BA
:105260005C01FC01872D962D6AE070E00E941436E7
:105270008193CB01FE12F8CF08E310E0D5012D9108
:105280005D0141E159E0B8018DE390E00E94FA121E
:10529000065011090032110589F720E04FEB54E068
:1052A00064E070E080E390E00E94071319821A82A4
:1052B0001B821C82FE0131965F01C6016AE070E02C
:1052C0000E9414368193CB019E12F8CF08E310E0C0
:1052D000D5012D915D0141E159E0B80180E390E0F5
:1052E0000E94FA12065011090032110589F720E0D8
:1052F00045E654E063E070E082E090E00E9407132E
:1053000081E00E94651BB4E0EB120AC088E00E94B5
:10531000A91B882309F46ACF82E08093EC0112C0B4
:1053200080E80E94A91B882329F080E10E94A91B24
:1053300081111AC388E00E94A91B882309F456CF63
:105340001092EC018091F101811106C08091F5016C
:105350008E3109F092C008C0813009F08EC0809172
:10536000F5018C3309F089C085E001C087E08093A6
:10537000EC0183C00CEE1FEF92E0992E0E94741B8B
:105380008823E1F320E049E354E06CE070E084E737
:1053900090E00E9407134EE660E480E00E94EE1861
:1053A0004FE760E480E00E94EE185801E2E1AE1A97
:1053B000B1088EE6C82ED12C7501B7FE02C0E12CD3
:1053C000F12C20E4E216F1045CF420E0A701B60120
:1053D0008EE597E00E941C13FFEFEF1AFF0AF1CF52
:1053E0003FEFC31AD30A4DEEC416D10429F720E0CB
:1053F00043ED5AE1B50188E690E00E94071320E0F2
:1054000043ED5AE1B80181E790E00E94071380E084
:105410000E94651B9092EC010F5F1F4F043611052F
:1054200009F0ACCF20E04FEE53E063E070E087E49A
:1054300090E00E94071320E04DE853E063E070E045
:1054400085E390E00E94071320E045E654E063E026
:1054500070E080E090E00E94071381E00E94651BED
:105460000E94141383FD07C064E670E080E090E0C2
:105470000E940312F5CF1092EC0180E090E0892B9E
:1054800011F40C94A5210E9400000C94A52186E043
:105490008093EC0184C880E090E0A7EEB3E050CCAC
:1054A000AC01BD01415051096109710947305A46AB
:1054B0006105710508F06EC042E049AF54CCAC0103
:1054C000BD01415051096109710947305A466105D2
:1054D000710508F06EC056E059AF45CC161474F44F
:1054E000AC01BD01415051096109710947305A466B
:1054F00061057105A0F492E099AF35CC6620D9F032
:10550000AC01BD01415051096109710947305A464A
:105510006105710508F05CC0A6E0A9AF24CCAC0120
:10552000BD0149505A4661097109413F5F4F6140D1
:10553000710508F418CC8B5F9946A240B1098630FA
:105540009649A44EB34030F434E039AF0CCC89E036
:1055500089AF09CCB9E0B9AF06CCB81348C009CCC3
:105560002196AEADBFAD21978C91811115CC67010D
:10557000FF24D7FCF094EF2C8601C4010E94081789
:1055800090E08C0D9D1D97FD07CC003811050CF4A3
:1055900068C002CCAC01BD0149505A46610971098D
:1055A000413F5F4F6140710508F0D2CBE1E0E9AFC8
:1055B000DACBAC01BD0149505A4661097109413F3E
:1055C0005F4F6140710508F0C3CBF7E0F9AFCBCB7B
:1055D000AC01BD0149505A4661097109413F5F4F15
:1055E0006140710508F0A7CF25E029AFBCCB49ADDC
:1055F000642F70E0482F50E09B01241B350BF9010C
:105600003396379720F412161306BCF408C09B019A
:10561000285F3F4F241B350B1216130684F4873086
:1056200011F08F5F01C080E0482F50E09B01241BE8
:10563000350BF9013396379710F4932F07C028EFF5
:105640003FEF241B350B620F731F972F991F99276C
:10565000991F09F48ECB882311F081508ACB87E003
:1056600088CB2301772457FC7094672CD4011B96B8
:105670004D915C911C97F1013197E081F0E03896F3
:10568000CF01880F991FFA01E80FF91F2591349176
:10569000FC017097E40FF51F45915491B201C601CA
:1056A0000E94211B2796EEADFFAD279780818330A6
:1056B00029F4D101EC91E63009F083C0F401818531
:1056C0009285181619060CF44AC0805491099287E5
:1056D00081872285822F022E000C990B97FF03C031
:1056E0009195819591092F3FD4F42D3F1CF52C3FC6
:1056F00009F035C0D4011B968D919C911C97FC013B
:10570000BE9625913491FC01B69645915491B20113
:10571000C6010E94211BEBADFCAD108220C0121609
:10572000F4F0D4011B964D915C911C97FC0174968A
:10573000CF0104C0F401438554854496880F991F16
:10574000FA01E80FF91F25913491FC013897E40F15
:10575000F51F45915491B201C6010E94211BD4014D
:1057600052968D919C915397181619060CF014CBF4
:10577000923071F0933011F09130D9F4F4018385B7
:105780009485FC01B89625913491FC01B0960BC02C
:10579000D4011B968D919C911C97FC01BA96259182
:1057A0003491FC01B29645915491B201C6010E9418
:1057B000211BF4018289938980549140938B828BC1
:1057C000EBCAD4011B964D915C911C97F0E0389682
:1057D000CF01880F991FFA01E80FF91F2591349125
:1057E000FC017097E40FF51F45915491B2016D5F74
:1057F0007F4FC60148960E94211B60CF283F3F4F34
:105800000CF030CB109284062DCBC60107966ECBE0
:10581000273049F0253039F0C60168CB2630C1F772
:10582000C601029763CBC601019760CB2C503109AA
:1058300030935B0720935A07932F97FD9195492F3B
:1058400050E04131510508F0D4CBFA01E259FF4F45
:105850000C943C36A6E003C0ABE001C0AEE0AC0D5A
:1058600099E081E013C0A4E1AC0D9EE086E00EC09B
:10587000DD248C2D831BA2E1A80F84E1890F985EA3
:1058800005C0A4E1AC0D88E0890F945F50915307E7
:1058900040915407E52FF42FE90FF11DE90FF11D99
:1058A00025913491E52FF42FE80FF11DE80FF11D3C
:1058B00045915491B4018A2F90E00E94211B99CB0D
:1058C000409155075091560720915707309158073E
:1058D000240F351F30935807209357078F5F80930D
:1058E000F50188E290E09093F3018093F2018BE858
:1058F00097E00E94E71284E08093EC0100E010E062
:105900000038110509F4C1CB802F81700E94521319
:1059100080914C0790914D07A0914E07B0914F0791
:10592000BD01992777FD9095892FC0904807D090A9
:105930004907E0904A07F0904B072CE83EE14EE61D
:105940005FE1C8018E0D9F1D0E94211B0E94FD1466
:1059500081E00E94651B64E170E080E090E00E94BD
:1059600003120F5F1F4FCCCF81E00E94C214109230
:10597000580710925707DECC80914C0790914D0745
:10598000A0914E07B0914F078D3C5CEC9507A105A7
:10599000B10514F40C94EA248C5C9C4CA109B10967
:1059A00080934C0790934D07A0934E07B0934F07F9
:1059B0000C94EA2480914C0790914D07A0914E07DA
:1059C000B0914F070097EDE2AE07B10514F00C94CB
:1059D000F02484539343AF4FBF4F80934C07909371
:1059E0004D07A0934E07B0934F070C94F02480917D
:1059F000480790914907A0914A07B0914B07873615
:105A0000F6EE9F07A105B10514F40C94F624865612
:105A1000964EA109B1098093480790934907A09336
:105A20004A07B0934B070C94F62480914807909155
:105A30004907A0914A07B0914B07009726E6A207B5
:105A4000B10514F00C94FC2484539343AF4FBF4F23
:105A50008093480790934907A0934A07B0934B0758
:105A60000C94FC2480915907882311F40C940A2586
:105A70008091D701811104C081E398E00E94E71270
:105A8000C0904807D0904907E0904A07F0904B0734
:105A90006701FF24D7FCF094EF2C80904C07909086
:105AA0004D07A0904E07B0904F074501BB2497FCCF
:105AB000B094AB2C42E0682D8C2D0E94E0158091B3
:105AC0005D07882311F40C940A25909159079230B0
:105AD00010F40C940A25815080935D0741E0682DF5
