:100000000C941B100C9443100C9443100C9443104C
:100010000C9443100C9443100C9443100C94431014
:100020000C9443100C9443100C94181B0C948A1BD2
:100030000C9443100C9443100C9443100C944310F4
:100040000C9443100C9443100C9443100C944310E4
:100050000C9443100C9443100C9443100C945C1FAC
:100060000C9443100C9443100C9443100C944310C4
:100070000C9443100C9443100C9443100C944310B4
:100080000C94A61F0C9443100C9443100C94431032
:100090000C9443100C9443100C9443100C94431094
:1000A0000C9443100C9443100C944310D225312629
:1000B0002027CA27252A252A6A2B8C2C8E2C902CA7
:1000C000952C9A2C9A2C9A2C9A2CA32CA32CA32CEA
:1000D000A32CD629D629D629D629D4290E02111A1D
:1000E00007040C0008090D031B15060E0201171A60
:1000F000041C150008090D030B060E000204061867
:100100001A150C010307090B0D0E0E0708090D0047
:100110000102131A0B0C1415060E0001020314152C
:10012000060708191A0B0C0DD5F08D14A1C881CF44
:10013000D9F1AF2000072200A3939565091180AA89
:10014000AAAA140000005254D453001000B20A8A24
:10015000320002000303000300000A108090002810
:10016000607470FAD8DD0001020301050604000185
:10017000071B00212127E9292700A9A5A598000030
:1001800080A8A4A5180000000204040300000C10BD
:100190007C54545482016D6D6D01827C000000001E
:1001A000000101010101000006195151535141574D
:1001B0009555558A0000C9AA2AC91C0801000100EA
:1001C00000000910D805FDFFFF76FC880400050536
:1001D0000707030100010538110A0E1F042040C063
:1001E000E08002010103004428387C108000008078
:1001F000000805070F02885070F82009332C664765
:1002000007074747666CCFEEEEEE2EEEEEEE6F6E12
:100210006E4E0E1E0E4E4E6E973777777777773786
:10022000978F8787878787A7A7AFE3632383C3E376
:100230006B6BCB020606070701040606154000009B
:100240004428387C10000000FE0000A86C6E6E0E82
:100250004E4C680000408080C000000000FF00009D
:10026000BB393D191A1A1C8C000004020307010057
:1002700000001F0000757575757F777773384C1413
:100280002C94C8D0C4D1802A0000372727070F2715
:100290002737001C366F6D7B321E0D0700000028CB
:1002A0006CEEEEEEEE6C2800002040C0E080000016
:1002B00000FE0000081C1C0C2E2E266F0000020100
:1002C000010300000000FF0000B7A7A7878FA7A7C2
:1002D000B7000022141C3E080000007F0000737B62
:1002E0003B3B0B3B3B1B094044285428386C100017
:1002F000FC22142A141C3608003F58CCCECECECE99
:10030000CECC58101859595D5D5DDCDE6E6E4E0E18
:100310001E0E4E4E6E67F7773717377777374428BC
:100320005428386C1000FC22142A141C3608003F94
:100330000940C080848884008080C0F2767676761A
:100340007F7773F3BE9C1C1C1C9C9C9C3ECD581854
:100350001E9FC7D1D99BE6CCCCCFCFC3C8CCEDB3C1
:10036000999D9D9D9D9D99B31C89CBCBEBEBF3791A
:100370003C03032313210202020309408080A214DC
:100380001CBE8880008BD9D8DEDFC7D1D9DB85C9F8
:10039000E9E9E9E9E9C99D85CCE8E0E0E8E8CC8D48
:1003A000E5ECE8E0E0E8E8ECED763614C0E1F034A6
:1003B0003466B99B8BE3F3781A9BB3000145293966
:1003C0007C1101010940C080808580008080C0F2DE
:1003D000767676767F7773F3BE9C1C1C1C9C9C9C67
:1003E0003ECD58181E9FC7D1D99BE6CCCCCFCFC3EA
:1003F000C8CCEDB3999D9D9D9D9D99B31C89CBCB98
:10040000EBEBF3793C030303A30102020203082888
:10041000000029A9A92F092903049794B4531010A7
:1004200000001CA0A0180438000033484833000026
:100430000000E151936500000616C72828C6010E8A
:100440004C52D24C00003814241900001322000032
:1004500000FC00FE0101FDA955FD0101FE000000A8
:1004600000C03008043261E0C0C1E0F1F98000034F
:10047000040830C00F30408030181F0F0F1F3F7F1F
:100480000703038340300F000000FC01FE0000FE64
:1004900054AAFE0000FF0000000000000000000160
:1004A00002020202020202020100000000E4020253
:1004B00000750506007D060800750504000080DC57
:1004C00000090093000A0083000600AF000A000044
:1004D00080AF00030026010400B8010400A500015C
:1004E000000080AF001600AF001600AF001600003D
:1004F000800C0E00A8FC020252520A4202FC0000CC
:100500000A17081809190A180807000C0E00A8FC99
:100510000242E2F2FAB202FC00000A1708180819B7
:100520000B190807000C0E00A8FC02BABAAAAA12FE
:1005300002FC00000A17081B0B1A0A19080700FF23
:10054000FF0001010100FF0001010100FFFFFFFFAB
:10055000FF0001010100FF0001010100FFFFFF0397
:10056000080007020700070080E8FCFEFC5CFCFCBA
:10057000F8FCFCFCFCFEFCE0400C1F3F1F0F1F1EA4
:100580001F1F7FFFFFFFFF7F1F0C00000000000008
:100590000000000000000103010000000080C0E036
:1005A000C080C0C0C0C0F0F8FCFEFCF0C0800001FC
:1005B0000FBFFFFFFFD3FFFFFFFFFFFFFFFFFF396D
:1005C000100000000103010101010001010101030C
:1005D0000100001213000080E8FC180848E8E0C899
:1005E000CCC8E0ECC04000000C1D0F050C0C0E0E3A
:1005F000067DE6FD76000C00000000000000000013
:1006000000000000000100000000000080C0800029
:100610008080808000F038FC700080000000010DB8
:10062000BFFDC18193BB3B9D9B9D3BB81910000052
:1006300000000001000000000000010000010000B7
:100640000000070E0700FFFEFF5504690200000DC1
:10065000005504690000000D005504690000000108
:10066000001704AB01000001001704D500000001D1
:10067000001704D50000000100DC03810200000126
:1006800000DC03D50000000100A4031C01000001F0
:1006900000A403460000006C00A403220000006CCC
:1006A00000A403220000006C00A403220000004804
:1006B0000070031C0100000100E4021C01000001A5
:1006C0000070031C01000001003F031C0100000139
:1006D0000093021C01000001003F031C0100000107
:1006E00000E4028102000001006E024600000001E9
:1006F000000B024600000001006E024600000001EF
:10070000002A027B030080E402F20100009000E472
:1007100002220000004800E402220000004800E439
:1007200002B10000006C00E402690000002400E453
:10073000024600000048003F03690000002400A4B6
:1007400003690000002400DC030A040000FB00DC55
:10075000036900000024005504460000004800DD45
:100760000446000000480075055D02000024007585
:1007700005220000004800750522000000480075B1
:100780000522000000B3005504B1000000240075EC
:1007900005460000004800C8057500000018007DEF
:1007A00006690000002400C805690600805700168D
:1007B000005700160057001600008007050E1113A1
:1007C0001519110E0E0404040406041F01010E1075
:1007D000110E0E11100C10110E08081F090A0C083A
:1007E0000E1110100F011F0E11110F01021C01023A
:1007F000040810101F0E11110E11110E0708101E03
:1008000011110E072991111515951B11F301E11115
:10081000E100013C4138047900008E4444448600E4
:100820000413141434D3000001010101000000007E
:10083000002C015D0152005D0152005D0152005D1E
:100840000152000000030072015200720152007256
:10085000015200720152000000030088015200881A
:100860000152008801520088015200000003009FDD
:100870000152009F0152009F0152009F015200004F
:10088000000300B8015200B8015200B8015200B88C
:1008900001520000000300D2015200D2015200D2E6
:1008A000015200D201520000000300EE015200EE9E
:1008B000015200EE015200EE015200000003000B55
:1008C0000252000B0252000B0252000B02520000B7
:1008D000000300008003077D3A140307143A7D06E5
:1008E00003070202020302070101020403030404D6
:1008F000070403081300722A4A3202020000E2557C
:10090000956500000000020202020202000A2100B6
:1009100002024A52D24E000000000000B814A4198E
:100920000000000000003B330833000000007C8220
:10093000AABAAABA827C00000000000000000000F1
:10094000001040FFFBFDDFF7FE55AA413E8000008E
:10095000000000FFFFFE77BFBF6A558A70010000EC
:10096000000000FFF7C6D18C008101448402000022
:10097000000000FFFDBBFD8710AACE00E1000000D3
:10098000000000BF2DBB2DA730AA010422000000EB
:1009900000000077F0D75037D017C00010000000DB
:1009A000000000FFFD4AB54A813000000000000051
:1009B000000000FB7E956A900FC000000000000060
:1009C0000000001040000000000000000000803E19
:1009D00041AA55EEFF000000000000000060017019
:1009E0008A556AFDFF000000000000810000BD8103
:1009F000BD81BD81BD000000000000E80470AA01B7
:100A00003CF6BBF6FF00000000000030400E2A015B
:100A10003C777BF7FF000000000008C42450D0A002
:100A2000A6D1ECFDFF000000000030814AB56ADF6E
:100A30007FFDEFFFFF0000000000C00F916A957F6F
:100A4000FFDFF7FBFF063828C4C48C8850870206F6
:100A500014043E756D756566C6F722664444CC3154
:100A60003276B62673ED4B735569590E0C0C1C2467
:100A70006E0638E746C684A4BFFE246DCE48DDF17D
:100A80002260C140C3ED49715162438E0C0C08488D
:100A9000FEF323634252FF7D8A187010F01B3D0065
:100AA000AA540AF418102850A890A890A890A890CA
:100AB000A890AA9482F4101020C0000205803FA0E4
:100AC00020A09088880848A848A888A888A888A84E
:100AD000888808080F00AA5502FD02010000F80FDF
:100AE0000055FE030100F808080808F8000102FCA0
:100AF000000001000304081050915111D1515050D1
:100B000050919111519151100804030055AA05F21A
:100B1000141010254A55407F000000785050616144
:100B20004242040808F0000102805F90109088A4FF
:100B300094043CA020A03C84542494A48484040401
:100B40000700AA5502FD02010000F80F2001FC0574
:100B50000405FC01000F08F8000102FC0000010080
:100B600003040810101111111111100810111111A6
:100B7000111111100804035504A8000000B000551D
:100B800004A80000005C013F03A8005504A800DC95
:100B9000030C067003A8000000B0007003A800005A
:100BA000005C017003A800E402A8007003A800A480
:100BB00003E200E402E200A403E2001704E2003FC3
:100BC00003E2001704E2005504A8000000B000553D
:100BD00004A80000005C013F03A8005504A800DC45
:100BE000030C067003A8000000B0007003A800000A
:100BF000005C017003A800E402A8007003A800A430
:100C000003E200E402E200A403E2001704E2003F72
:100C100003E200DD04E2007505CF08BA020604E431
:100C200002A8001003A8003F035F05A403560300B9
:100C30000007001704A8005504A800DD04A80075EB
:100C4000055F05C805560300000700490755017DEB
:100C500006A800C8055F05DD04560300000700C8AC
:100C60000555017505A80055045603000007001737
:100C700004A800A403A8003F03A800BA020604E4E5
:100C800002A8001003A8003F035F05A40356030059
:100C90000007001704A8005504A800DD04A800758B
:100CA000055F05C805560300000700490755017D8B
:100CB00006A800C8055F05DD04AE023F035501C864
:100CC00005A8007505A80055045F050080400004D4
:100CD000000150000081400005FF015000008140EC
:100CE0000006FF00251A0105FF0118031804000182
:100CF00019000081400006FF0040FF0028FF00505F
:100D000000008180C0E0F0F8F8FCFCFCFEFEFEFF75
:100D1000FFFFFFFFFFFFFFFFFFFFFFFFFFFFFFFFE3
:100D2000FFFFFEFEFEFCFCF8F0C0000103070F0F02
:100D30001F1F1F3F3F3F7F7F7F7F7F7F7F7F7F7FA3
:100D40007F7F7F7F7F7F7F7F7F3F3F3F1F1F0F071B
:100D500001FFFFFFFFFFFFFFFFFF01010101010195
:100D60000101010910FEFDC3BBBBBBC7FFFF0101B1
:100D700001010101010101271080C060B058A85C89
:100D8000AC54AEFA8EF7959FF5979DF7959FFDFFB2
:100D9000FD7F7D3FDDDFDD3FFEFEFE0CFC18F0C079
:100DA000000103060D0A1D1A153A2F3877547C5797
:100DB000745C77547C5F7F5F7F5F7E5D7D5D7E3F8F
:100DC0003F3F181F0C07010910FF7F87BBBBBBC744
:100DD000FFFF0001010101010101010910FFFFC72F
:100DE000BB3BBBC7FFFF010101010001010101097C
:100DF00010FFFFC7BBBBBB877FFF010101010101E2
:100E00000101000910FFFFC7BBBBBBC7EFEF01012A
:100E1000010101010101010910FFFFC7BBBBBBC3F9
:100E2000FDFE0101010101010101010910FFFFC7E0
:100E3000BBB8BBC7FFFF01010101010101010100B6
:100E400000000000F0FEFFFFFEFCE00000000000DC
:100E500000000000008000000010387CFEFEFFFF54
:100E6000FFFFFFFFFFFFFEFEFE7C7C7C7CFEFFFFA2
:100E7000FFFE1000000000001FFFFFFFFF7F0F01BB
:100E8000000000000000000001030100000000005D
:100E90000000000001010000000000000000000050
:100EA000000000000000001A19000000000000F01F
:100EB0009E9EFCE00000000000000000000000001A
:100EC0000000000010387C547CFFBBBBBBBBFF7C28
:100ED0007C7C7C3838383828D6D7FE1000000000DB
:100EE0000000001FF3F37F0F01000000000000006E
:100EF00000000001000000000000000000000000F1
:100F000000000000000000000000000000000000E1
:100F100000111100001C3CFCD8B070E8C422120E75
:100F200000000000001C12110805030307074F6CA6
:100F300030380C000000000000000000000000003D
:100F4000000000000000111100008080FC828CF085
:100F50008080800000C0E00000000103037E826208
:100F60001F0303030101070F010000000000000040
:100F7000000000000000000000000011110070904F
:100F80001020408080C0C0E46C1838600000000071
:100F900070797E371B1D2F478990E000000000000C
:100FA0000000000000000000000000000000000041
:100FB00011110000000000040CCCFECC0C04000059
:100FC000000000000814141212127FE37F121212A4
:100FD00014140800000000000000000000000000E1
:100FE0000000000000111100006038186CE4C0C05F
:100FF000808040201090700000000000E090894741
:101000002F1D1B377E7970000000000000000000DB
:101010000000000000000000000011110000E0C00E
:101020000000808080F08C82FC8080008000010FB6
:101030000701010303031F62827E03030100000016
:10104000000000000000000000000000000000118F
:1010500011000000000E1222C4C870B0D8FC3C1C65
:10106000000000000C38306C4F070703030508111F
:10107000121C000000000000000000000000000042
:1010800000000000111100205050909090FC8EFC48
:10109000909090505020000000000000406067FFDA
:1010A0006760400000000000000000000000000039
:1010B000000000000000000000060002F0D0000068
:1010C00000010002F0D010000001010000F0240037
:1010D000000201000002240000020002F0204A0089
:1010E00001010002F0205A000101050002F0D000C9
:1010F0000000010002F0D028000001010000F944C6
:10110000000002000200200001010100020020286E
:10111000010101050002F0D0000000010002F0D042
:1011200028000001010000F9440000020002002034
:101130000001010100020020280101010503000057
:101140000004000005030000F43E0000050002F06A
:10115000D0000000010002F0D0230000010002F0E6
:10116000D04600000106000000F01200000100005F
:1011700000F900000001000000021200000102005E
:1011800000E440000002020000F52C000002020012
:10119000000640000002060003D6D0000000010057
:1011A00003E6E000000001010000EB140000020172
:1011B0000000F924000002010000073400000201D1
:1011C0000000F940000002050002F0D0000000011C
:1011D0000002F0D028000001010000F944000002E4
:1011E0000002F020140001010002F0203C00010187
:1011F00004000000F012000001000000F9000000EF
:101200000100000002120000010300000030000095
:101210000A0500010005000000010001000514009E
:101220000001000100EC00000101000100EC1400CD
:101230000101000000F92800010104000000E7009E
:10124000000001000000F9000000010000000B0098
:10125000000001020000F51600000104000000F18A
:10126000000000010000000300000001010000F187
:10127000120000020100000312000002050001003C
:101280000500000101000100EC1400000101000054
:10129000E732000002010000F93200000201000004
:1012A0000B3200000205010000E7240000020000EC
:1012B00000F012000001000000F900000001000031
:1012C0000002120000010100000B240000020200D5
:1012D00000000500000001000000001800000100EF
:1012E0000000FB50000001000000F6680000012B28
:1012F0000E170E030EEF0DDB0DC70D770D630D51AD
:101300000D510D510D510D510D510D030D510D8408
:101310001C521C201CEE1BBE1B8E1B5E1B2E1BA713
:101320000EA70EA70EA70EA70EA70EA70EA70E3F7D
:101330000E3F0E3F0E3F0E3F0E3F0E3F0E3F0E8400
:101340001C521C201CEE1BBE1B8E1B5E1B2E1B8406
:10135000104F101A10E50FB00F7B0F460F110FCD75
:10136000189A18671834180118CE179B1768178435
:101370001C521C201CEE1BBE1B8E1B5E1B2E1BF862
:10138000FCFEFFFFFFFFFFFFFFFEFC0F1F3F3F3F85
:101390003F3F3F3F1F0F070F0F0F030400060007DB
:1013A00007070707070707070707070707070707CD
:1013B0001106000200020002000200020002000208
:1013C000000200050301010301070505040E1F1FAC
:1013D0000A0F0F0F0F0F050406090909060E040472
:1013E00006040F02040906060904090604040F0591
:1013F00006070807010F0609070106020204080F85
:10140000060906090603040A09064C0B00C430CA83
:10141000A4D5E968F4EAF2EAF2AAF4E9E9F4E87496
:10142000EAF29A6498014640800084D2C258C89873
:10143000A0928ADAC852C4902050B0000000601018
:101440008040A020A0408040909040A020A020A0FC
:1014500040809050408020000406030401070707E5
:101460000706050707070307060707070707070714
:10147000060703040606070707050607070702070E
:101480000705060705000200000404020506070719
:1014900006070607060607020706070607060605EB
:1014A000020403040020804050908048A020A82817
:1014B000A0409090409040A028A840F29400404066
:1014C000800084D2C2D8C898A0928ADAC8D2C490C8
:1014D00020F2005050505000F240A828A040904008
:1014E000909040A024A424A44880905040A00000E4
:1014F0000403040205060607060706070607060694
:101500000706070607070607060707040606070576
:10151000060507070707060707070707050700056A
:10152000050505000706070706070607060607065E
:101530000706070607060605020403044C0B010E06
:101540002912554B0B172B272B272A174B4B170B01
:10155000172B272F130D42310100006A50254F1B16
:10156000559FDF8A4F2FCF9BD51F5F0F030B11169F
:1015700007CB37CF7FBF77BF7FBBBF7EAF7FBF7D3E
:10158000BB7FB7BF5F2C99661B0100000000000005
:10159000000000000000000000000000000000004B
:1015A0000000000000000000000000010200020234
:1015B000020000000002020100000003040001021A
:1015C00002020100010404010202020202010004FD
:1015D00005010000000001062912554B0B972B272F
:1015E0002B272B174B4B174B172BA7AF137F0055F0
:1015F000555555007F254F1F5F9FDF8B4F2FCF9F86
:10160000DD1B5D0F030B1117074B7F13AFA72B17C4
:101610004B174B4B172BA7AB272B970B4B5512296F
:1016200006010000000000000000010101010000AF
:1016300000000000000000000002000000000000A8
:10164000020000010200020202000000000202018A
:101650000000000000010200000000000000000087
:1016600000000000000000000000000000001E104C
:10167000C0243ACAA4D5E968F4EAF2EAF2AAF4E985
:10168000E9F4E874EAF29A6498014640800000396F
:10169000472817156B97AF9E6F17972B2B2B964BE1
:1016A0000B374F5D2F2F56453906300022168040EC
:1016B000460198649AF2EA74A834A969F4AAF2AAD5
:1016C000F2EA6AB26AF2EAF4A8E9D5A4CA3AC40016
:1016D00070863945DE3FFE57FBF3BBD79FD3BFFF74
:1016E000FBFBBDFAFDDEECC8EBDDF9DB7FFF284735
:1016F000388000081714092A25050A15131713172F
:101700000D0B020B1D0F25250B050B1513160906D6
:10171000211800000B0DF80681A6B0B8181830602B
:10172000400708101707070303010100090CF00E1A
:1017300041CED0C08080800304080B030301010068
:101740000910208000000000001104020000008841
:101750002000000009100000001104000040008873
:101760002000000000000401001E3EFEFEFCF8F810
:10177000FCFEFF3F1F0F0000003C3E3F3F1F0F07D6
:10178000070FCFFFFF7C7C7E0E00000000000000F2
:1017900000000000000000000000000080C0FCFE0F
:1017A000FFFEFCF0C0C080C0E0F0E0000103077F56
:1017B000FFFFFF7F1F070703070F1F0F0100000038
:1017C000000001000000000000000000000078F8A8
:1017D000F8F8F0E0C0C0E0E6FEFE7C7CFCE0000033
:1017E000F0F9FFFF7F3F3F7FFFFFF9F0E0000000CF
:1017F00000000000000000000000010101010000E5
:101800000000000000040EDEFEFFFEDE0E040000FD
:101810000000081C3E3E3F3F7FFFFFFF7F3F3F3EF3
:101820003E1C080000000000000000010000000055
:101830000000000000E0FC7C7CFEFEE6E0C0C0E0B2
:10184000F0F8F8F878000000E0F0F9FFFF7F3F3F84
:101850007FFFFFF9F000000000010101010000001E
:101860000000000000000000E0F0E0C080C0C0F018
:10187000FCFEFFFEFCC08000010F1F0F07030707DF
:101880001F7FFFFFFF7F0703010000000000000033
:10189000000000000100000000000000000F1F3FDA
:1018A000FFFEFCF8F8FCFEFE3E1E00000E7E7C7C77
:1018B000FFFFCF0F07070F1F3F3F3E3C0000000018
:1018C000000000000000000000000000002070F890
:1018D000F8F8F8FCFEFFFEFCF8F8F8F870200000BD
:1018E000000041E1F7FFFFFFF7E1410000000000C9
:1018F00000000000000000010000000000000000E7
:10190000111100001C3CFCD8B070F8EC3E1E0E001B
:10191000000000001C1E1F0D07030307074F6C305B
:10192000380C000000000000000000000000000073
:101930000000000000111100008080FCEEFCF0802F
:1019400080800000C0E00000000103037EEE7E1FE7
:101950000303030101070F01000000000000000065
:101960000000000000000000000011110070F0F005
:1019700060C08080C0C0E46C183860000000007057
:10198000797F371B1D3F6FF9F0E000000000000079
:101990000000000000000000000000000000001136
:1019A000110000000000040CCCFECC0C0400000070
:1019B000000000081C1C161E1E7FE37F1E1E161C46
:1019C0001C080000000000000000000000000000F3
:1019D00000000000111100006038186CE4C0C080E5
:1019E00080C060F0F0700000000000E0F0F96F3F90
:1019F0001D1B377F79700000000000000000000010
:101A000000000000000000000011110000E0C00014
:101A100000808080F0FCEEFC8080008000010F07D9
:101A200001010303031F7EEE7E030301000000009B
:101A30000000000000000000000000000000111184
:101A4000000000000E1E3EECF870B0D8FC3C1C00FC
:101A50000000000C38306C4F07070303070D1F1EF2
:101A60001C0000000000000000000000000000005A
:101A7000000000111100207070D0F0F0FC8EFCF01E
:101A8000F0D0707020000000000000406067FF6729
:101A900060400000000000000000000000000000A6
:101AA000000000000000000080E0F0E0000A3F7F3E
:101AB0003F02000000000040F0F8F000127FFF7FBE
:101AC00002000000000040FCFEFC4017FFFFFF1278
:101AD000000103010060FEFFFE702037FFFFFF776B
:101AE0002200030703000005130080E00000000A45
:101AF0003F0200000000000005130040F00000005D
:101B0000127F0200000000000005130040FC4000AE
:101B10000017FF1200000001000006130060FE2005
:101B200020000037FF2722000000030000000E0EF7
:101B3000EEE0E00080DCDFFF677373700000E0E040
:101B4000FBBB3FE7E7E7070100C0DCDC1C0001034B
:101B500003030000000000000001010100000F1F4E
:101B60006FF4E8FCDEFFFFE7F07F1F47E040C0E8CE
:101B7000FECF0F67F7FFFF9F3D10C0E2F762010144
:101B80000103010000000100000303030000000046
:101B90001C1C7CFCFCF8F8FC3C1C00000000000055
:101BA00038383E1F0F0F070F1F1E1C0000000000DB
:101BB000000000000000000000000000000070F0C5
:101BC000F0FEFEFEF8F0F8F8FC7E3E0E000000F09D
:101BD000FDFF7F7F3F1F0F1F3F3F7C7070000001A4
:101BE00001010000000000000000000000001012D1
:101BF0000004004000000080884200012000000036
:101C00008040001100024002000000008008000037
:101C100000000100000000000000000000000000C3
:101C20001012060F0460C0C88C9EC7C0601002006E
:101C3000400080C0C806070363678F0D100000C016
:101C40006200000000010000000000000000010030
:101C500000001012000000001070E0E0F0300800FA
:101C60000000000000000010080E07070307060828
:101C70000000000000000000000000000000000064
:101C80000000000010122060E0E0FCF8F0E0F0F04E
:101C900078380C0000000000E07D3F3F1F0F070F69
:101CA0001F1C3020000000000000000000000000A9
:101CB00000000000000060FEFFFE702037FFFFFF05
:101CC0007722000307030000000080F0FCFEFFFE07
:101CD000FCF0F0F070F0F8F8F02002070F7FFFFF43
:101CE000FFFFFF7F7F7A70FFFFFFFF2000000000F3
:101CF00001030703010000000000000000000000D5
:101D0000A0FEFFFEFC70F0F8F02002072FFFFFFF9F
:101D1000FF777FFF7F200000000307030100000022
:101D200000007070FEFFFE707277FFFFFF7700000B
:101D30000307030070F8F8F870FCFEFFFEF00000E7
:101D400070FFFFFF77FFFFFFFF7F0702000000002B
:101D5000000103070300000070F8F8F8F870F0F0D5
:101D6000F0FCFEFFFEFCF080000070FFFFFFFF7044
:101D70007A7F7FFFFFFFFFFF7F0F07020000000059
:101D8000000000000001030703010000000006132B
:101D90000060FE2020000037FF2722000000030023
:101DA000000012130000000060FCFEFC6060602078
:101DB0002020F0F020000002070737FFFFFF373731
:101DC000322020207F7F200000000000000103015E
:101DD000000000000000000000000C1300000020C4
:101DE000FEFC202020F0200000020727FFFF272212
:101DF00020FF2000000000000301000000000000A0
:101E00000613002020FE6000002227FF370000009C
:101E1000000300000C130020F0202060FCFE2000D6
:101E2000000000207F202237FDFF25070200000070
:101E30000000000001030000000012130020B0F0B9
:101E4000202020606060BC66BC6000300000002084
:101E50006F7F202020323735ED37ED3507670200E0
:101E6000000000000000000000000103010000006D
:101E700000000020B0F0202020606060BC66BC60E4
:101E80000060000000206F7F202020323735ED37C2
:101E9000ED350737020000000000000000000000E0
:101EA0000103010000000000080B00020202010013
:101EB00009040000010202000005240010010524AD
:101EC000010101042402060524060001070581031F
:101ED00010004009040100020A0000000705020288
:101EE00040000007058302400000040309041201BA
:101EF0000002EF020140412336800001010203018C
:101F000041726475696E6F204C4C43004172647578
:101F1000696E6F204C656F6E6172646F000C0E000D
:101F2000A8FC0222226222E202FC00000A17081822
:101F300008180818080700731A3E1A091AD4199FBE
:101F4000196A1935190019CD189A1867183418012B
:101F500018CE179B176817841C521C201CEE1BBE42
:101F60001B8E1B5E1B2E1B3A1E141E001EDA1DA2AA
:101F70001DDA1D8E1D141E581D341D221DFE1CC889
:101F80001CFE1CB61C341D841C521C201CEE1BBEE7
:101F90001B8E1B5E1B2E1B1A1B091BF81AE71AD57A
:101FA0001AC61AB71AA81A0080F8FC5EAFDEBC7811
:101FB000F0C000001E7FFFAAD7AB57AF5FFFFEF84F
:101FC000E080EF7FBA55AB57AEDFFFF7E34007FF86
:101FD000FDEA57EF77FFFF7F070300000003070DBF
:101FE00006070301000000000D24000080F85CAE2D
:101FF000DCB870C0000000001E7FAAD7AB57AF5FEF
:10200000FEF8E00000806FBA55AB57AEDFF7E34053
:10201000000007FDEA57EF77FF7F0703000000008D
:102020000003050203010000000000010204081083
:1020300020408000DF3211241FBECFEFDAE0DEBF88
:10204000CDBF11E0A0E0B1E0E0E3FFE602C0059003
:102050000D92A03AB107D9F727E0A0EAB1E001C09C
:102060001D92A738B207E1F710E1CBE1D0E104C03F
:102070002197FE010E949B36CA31D107C9F70E9401
:10208000F1230C9496370C9400009F92AF92BF926C
:10209000CF92DF92EF92FF920F931F93CF93DF9334
:1020A000982E03EA11E025EAE22E21E0F22EE70164
:1020B000680135E0A32EB12C9981943079F128F490
:1020C000992371F09230D9F03FC0963099F160F1C8
:1020D0009730D1F5688170E020E04EE656E12FC0E0
:1020E0008091020790910307B5010E947336892BF6
:1020F00059F1688170E020E044E557E120C080910B
:10210000020790910307B5010E947336892BE1F015
:10211000688170E020E040E457E111C0688170E020
:1021200020E04CE257E10BC0688170E020E044E120
:1021300057E105C0688170E020E04CEA56E1F60105
:10214000808191810E948921F4E0CF0ED11C2FEF74
:10215000A21AB20A249689E0A816B10409F0ACCFFD
:102160008091DA05882379F06091D805062E000C5D
:10217000770B2091D9054CE355E18091D6059091DC
:10218000D7050E9499218091D505882379F0609127
:10219000D305062E000C770B2091D4054AE054E1BC
:1021A0008091D1059091D2050E94992191105BC137
:1021B000C6EAD1E0B12C82EAC82ED12CAA24A3947D
:1021C00095E3992EF801808191810197863AFFEF7E
:1021D0009F0724F0F80191838083DAC0F801D1824F
:1021E000C082BB2019F03197808102C08091B2017A
:1021F0008630B8F48091BF01882341F024E030E0BC
:1022000040E050E060E070E0CB0108C028E030E042
:1022100040E050E062E070E080E090E00E94DB1E71
:1022200006C064E070E080E090E00E94B71E61307C
:1022300008F441C0643080F16630E8F5688380912D
:10224000D505882361F02091D305022E000C330BB5
:1022500028513109032E000C440B550B04C028E211
:1022600030E040E050E08091DA05882361F0609131
:10227000D805062E000C770B685E7F4F072E000CEA
:10228000880B990B04C064E070E080E090E00E944D
:10229000DB1EF70160837CC0688360E470E080E04F
:1022A00090E00E94B71EDC01CB014097A109B10963
:1022B000F70180836DC068838091D505882361F024
:1022C0002091D305022E000C330B26523109032E28
:1022D000000C440B550B04C020E330E040E050E01C
:1022E0008091DA05882361F06091D805062E000CF4
:1022F000770B685E7F4F072E000C880B990B04C08C
:102300006AEF7FEF8FEF9FEF0E94DB1EF701608384
:102310008091DA0581111CC062E370E080E090E0FA
:102320000E94B71EA092DA05DC01CB0188539F4FB3
:10233000AF4FBF4F9093D7058093D6051092D80525
:1023400062E070E080E090E00E94B71E6093D905E3
:102350008091D50581111CC062E370E080E090E0BF
:102360000E94B71EA092D505DC01CB0188539F4F78
:10237000AF4FBF4F9093D2058093D1059092D30574
:1023800062E070E080E090E00E94B71E6093D405A8
:10239000B3940C5F1F4FF4E0EF0EF11C249624E081
:1023A000B21210CF8091DA05882379F08091D6059A
:1023B0009091D70501979093D7058093D605863ADB
:1023C0009F4F04F51092DA051DC068E270E080E0CE
:1023D00090E00E94B71E672B682B692B99F481E06F
:1023E0008093DA0582EA90E09093D7058093D60532
:1023F0001092D80562E070E080E090E00E94B71E85
:102400006093D9058091D505882379F08091D10515
:102410009091D20501979093D2058093D105863A89
:102420009F4F0CF51092D5051EC068E270E080E069
:1024300090E00E94B71E672B682B692BA1F481E006
:102440008093D50582EA90E09093D2058093D105E0
:1024500085E38093D30562E070E080E090E00E9425
:10246000B71E6093D405DF91CF911F910F91FF901C
:10247000EF90DF90CF90BF90AF909F9008956F92B4
:102480007F928F929F92AF92BF92CF92DF92EF9204
:102490000F931F93CF93DF9300D000D0CDB7DEB75B
:1024A0008091CD059091CE0501968F31910528F44C
:1024B0009093CE058093CD0504C01092CE05109266
:1024C000CD058091BE01882319F081508093BE0113
:1024D000B090F7061091F80658E7852E912CC12C84
:1024E000D12C20E0A601B4018FEF96E00E94C62116
:1024F0008FEFC81AD80A90E4C916D10491F7EFEF0C
:102500008E1A9E0AF0E88F16910449F720E430E015
:1025100049E750E060E070E089E790E00E94241A0B
:1025200019821A821B821C82CE0101966C01FC0169
:102530004AE0842E912C24E0280F8B2D912FB4019A
:102540000E9473368193B62E172F2E13F6CF1FE0FD
:10255000F60101916F01612F70E0E12C21ED33E173
:1025600046ED53E18BE790E00E94A92115501B3FF7
:1025700079F78091F3069091F40697FD02C0292F18
:1025800001C020E04EE16AEC73E187E10E94A91AE4
:102590008091FA069091FB0697FD02C0292F01C099
:1025A00020E043E363EC73E18EE20E94A91A80917C
:1025B000BE01882309F468C01091F9068091EA06EB
:1025C0009091EB06A091EC06B091ED06CD01BB27F2
:1025D00097FDB095AB2F4091EE065091EF066091BC
:1025E000F0067091F106AB01772757FD7095672FC4
:1025F00020910F01473028F4222351F010920F014F
:1026000007C04B3228F0211103C021E020930F01B5
:1026100020910F01211102C023E101C02AEF5527AB
:102620006A01C20ED11C27FDDA945C01BB24E12CA7
:1026300000E02FE933E140EB53E1B601C5010E9410
:10264000A921113130F48091CD059091CE050F97DD
:10265000D8F0612C712C812E912CF2E0CF0ED11C80
:10266000681479048CF4E12C00E027E933E14AE9AD
:1026700053E1B601C5010E94A9218AE0680E711CD0
:1026800092E0A90EB11CECCF0F900F900F900F901D
:10269000DF91CF911F910F91EF90DF90CF90BF907E
:1026A000AF909F908F907F906F9008952F923F9260
:1026B0004F925F926F927F928F929F92AF92BF9252
:1026C000CF92DF92EF92FF920F931F93CF93DF93FE
:1026D000CDB7DEB762970FB6F894DEBF0FBECDBFA1
:1026E0008A8B13E4212E16E0312E06E3802E06E0BD
:1026F000902E8EE396E09F878E87ACE4B6E0B98B90
:10270000A88BE5E4F6E0F987E887FA89F11105C0BE
:10271000D1018C91833029F41CC0F1018081833078
:10272000C1F4C4010E94E421C4010E94FF22298354
:102730003A834B835C8329813A818B819C81AE856E
:10274000BF854C91442329F0A889B9894C91442331
:1027500099F1FEE12F0E311C2EE1820E911C8E8527
:102760009F854E969F878E87A889B9895E96B98B7B
:10277000A88BE885F9857E96F987E887F7EF2F160D
:10278000F6E03F0611F662960FB6F894DEBF0FBE74
:10279000CDBFDF91CF911F910F91FF90EF90DF9010
:1027A000CF90BF90AF909F908F907F906F905F90F1
:1027B0004F903F902F900895A901460F511D141678
:1027C00015063CF62038310524F69C01270F311DF3
:1027D00037FDBFCF803491050CF0BBCFF101F08104
:1027E000FF83F33009F02BC14091EC06F9E0AF2EE6
:1027F000A40E2091F006A9E0BA2EB20EF401808159
:102800009181A281B3818D01035E1F4FC480D58069
:10281000E680F7806701FF24D7FCF094EF2CC40119
:102820000E94E9224A2DAA0C550B3A01601A710A3E
:102830002B2DBB0C330B869590E0C80ED91E2901B9
:102840004C185D086114710409F43FC0C201550CB5
:10285000AA0BBB0BDC01992788276C017D01FF0CBB
:10286000CC08DC2C76019C01AD016C2D7C2D8C2DCF
:102870009C2D00E10E9478376301770CEE08FF0879
:102880008601FF24EE2457016801DD0CAA08BA2C4A
:102890006501AA86BB86CC86DD8657016801EA847D
:1028A000FE2C0E2D1E2D0E94A336F22FE32F8F2F0C
:1028B0009E2FA42FB52FB7FF0CC0B095A095909573
:1028C00081959F4FAF4FBF4F04C080E090E0A7EECF
:1028D000B3E014145CF1161474F4AC01BD01415062
:1028E00051096109710947305A466105710508F0BF
:1028F00059C082E073C0662071F0AC01BD01415047
:1029000051096109710947305A466105710508F09E
:1029100058C096E071C08B5F9946A240B1098530DE
:102920009649A44EB340C0F51F8267C0161474F4D4
:10293000AC01BD01415051096109710947305A4646
:102940006105710598F4B2E0BF8357C06620C9F0F5
:10295000AC01BD01415051096109710947305A4626
:1029600061057105E8F5E6E0EF8347C0AC01BD0104
:1029700049505A4661097109413F5F4F61407105F5
:10298000E0F18B5F9946A240B10986309649A44E8A
:10299000B34028F424E013C0A9E0AF832EC0F9E0CF
:1029A000FF832BC0AC01BD0149505A466109710932
:1029B000413F5F4F6140710508F0ADCF21E02F83AB
:1029C0001CC0AC01BD0149505A4661097109413F23
:1029D0005F4F6140710508F09ECF87E08F830DC087
:1029E000AC01BD0149505A4661097109413F5F4F31
:1029F0006140710530F695E09F83A885B9858C917B
:102A0000BF81B930C9F0B817B9F09F81E92FF0E064
:102A1000482F50E09F01241B350BB9016D5F7F4F9C
:102A200067307105A8F512161306D4F1932F991F7C
:102A30009927991F09F04CC0E885F9858083D40156
:102A40004D915D916D917C91139714964D905D9091
:102A50006D907C901797EE85FF858081882309F41F
:102A600078CEA889B9898C91811173CE5B01DD2460
:102A7000B7FCD094CD2C8501C4010E94F42290E0D3
:102A80008A0D9B1D97FD65CE003811053CF161CE86
:102A9000BF01685F7F4F641B750B161617068CF419
:102AA000873011F08F5F01C080E0482F50E09F0118
:102AB000241B350BB9016D5F7F4F6730710508F43A
:102AC000B5CF28EF3FEF241B350B2E0F3F1FAECFA6
:102AD000882311F08150B0CF87E0AECF2301772457
:102AE00057FC7094672CD4011B964D915C911C97F8
:102AF000E885F9853197E081F0E03896CF01880FBD
:102B0000991FFA01E80FF91F25913491FC01709784
:102B1000E40FF51F45915491E12C00E0B201C5018D
:102B20000E94A921F1018081833031F4A885B98503
:102B3000EC91E63009F086C0F40181859285181683
:102B400019060CF44BC08054910992878187228525
:102B5000822F022E000C990B97FF03C0919581954F
:102B600091092F3FB4F42D3FFCF42C3F09F036C0FF
:102B7000D4011B968D919C911C97FC01B6964591B2
:102B80005491FC01BE9625913491EE85FF8510820B
:102B90001CC012161CF1D4011B962D913C911C9760
:102BA000FC017096CF0104C0F40123853485409662
:102BB000880F991FF901E80FF91F45915491FC0105
:102BC0003896E20FF31F259134914115510531F0EC
:102BD000E12C00E0B201C5010E94A921D401529666
:102BE0008D919C915397181619060CF0B2CD923026
:102BF00071F0933011F09130E9F4F40183859485FC
:102C0000FC01B89625913491FC01B0960BC0D4011B
:102C10001B968D919C911C97FC01BA96259134913D
:102C2000FC01B29645915491E12C00E0B201C5013E
:102C30000E94A921F4018289938980549140938B49
:102C4000828B87CDD4011B964D915C911C97F0E04F
:102C50003896CF01880F991FFA01E80FF91F2591C7
:102C60003491FC017097E40FF51F45915491E12CCC
:102C700000E0B2016D5F7F4FC50148960E94A92117
:102C80005BCF8F929F92AF92BF92EF920F93809102
:102C90002E06882309F44AC040912F065091300631
:102CA000052E000C660B770B762F652F542F4427CB
:102CB0008091260690912706A0912806B0912906BA
:102CC000841B950BA60BB70B8093260690932706C3
:102CD000A0932806B0932906CD01BB2797FDB09598
:102CE000AB2F9C01AC01485F5F4F48385105C8F4D9
:102CF000409134065091350680902A0690902B061C
:102D0000A0902C06B0902D064501BB2497FCB094F2
:102D1000AB2CE12C00E02FE733E1B4010E94A921A4
:102D200005C0283F3F4F14F410922E060F91EF90EC
:102D3000BF90AF909F908F9008958F929F92AF9287
:102D4000BF92CF92DF92EF92FF920F931F93CF9398
:102D5000DF93CDB7DEB76E970FB6F894DEBF0FBE28
:102D6000CDBFD82E882349F081E08093B301FB01C9
:102D700084918093A2018093BD018091B30191E081
:102D8000980F9093B301FB01E80FF11D6491E62FBA
:102D9000EF70E093BC01607F6093BF01F0E0EE0F45
:102DA000FF1FE65BFE4F0190F081E02D10923E0682
:102DB00010925C0610927A06109298061092B6064F
:102DC0001092D406849006E3E02E06E0F02E8F01E8
:102DD0000E5F1F4F8CE4A82E86E0B82E912C9EE14A
:102DE000C92E981409F470C0F8013197E491E130CC
:102DF00069F040F0E23071F0E330D9F44FEE52E187
:102E000063E00BC047E35FE160E007C04FE453E1DC
:102E100061E003C04FE153E162E0CE0101960E9400
:102E20003623FE013196D7018C2D01900D928A95A3
:102E3000E1F7F8018491E82FF0E0EE0FFF1FE65D67
:102E4000FE4F80819181D7015A969C938E9359971A
:102E500058961C921E925797F8013196E491D5012D
:102E60001697EC93F8013296E4911196EC93F801E1
:102E70003396E491D501EC93F8013496E491F50191
:102E800031971082F8013596E491F8013696E49175
:102E9000D70119961C9219971A96EC931A97539684
:102EA0001C921E925297F5013E9781E08083C701E4
:102EB0000E94E4219394BEE1EB0EF11C085F1F4FCA
:102EC000EEE1AE0EB11C8DCF8091A20181508093B6
:102ED000A201DD2009F474C08091B40190E0FC01EE
:102EE000E95BFE4F20816091030170910401620F44
:102EF000711D27FD7A957093040160930301FC0115
:102F0000EC5BFE4F2081022E000C330B40910D0133
:102F100050910E01420F531F50930E0140930D012B
:102F200040910B0150910C01240F351F30930C017F
:102F300020930B012091090130910A012130F5E223
:102F40003F076CF0FC01EE0FFF1FE25CFE4F40817B
:102F50005181241B350B30930A01209309012091E4
:102F6000070130910801213047E034076CF0FC0183
:102F7000EE0FFF1FE85CFE4F40815181241B350B93
:102F8000309308012093070120910501309106013B
:102F90002130A7E03A076CF0880F991FFC01EE5C26
:102FA000FE4F80819181281B390B309306012093BD
:102FB0000501772788EE93E00E9487366093060725
:102FC0006E960FB6F894DEBF0FBECDBFDF91CF91E6
:102FD0001F910F91FF90EF90DF90CF90BF90AF9037
:102FE0009F908F9008959091BB01E92FF0E09F0191
:102FF000220F331FE20FF31FE750FA4F8E5E8083DC
:10300000675F6183406F42838091F90681508093AE
:10301000F9069F5F9F3019F09093BB0102C0109298
:10302000BB0184E18093BE010895CF93DF93D82F35
:1030300088EC90E00E942234C82F89EC90E00E9436
:103040002234D11104C0C43311F4833319F164E381
:1030500088EC90E00E94303463E389EC90E00E94B9
:10306000303460E080ED90E00E94303460E070E049
:103070008AEC90E00E94423460E070E08CEC90E0DA
:103080000E94423460E070E08EEC90E0DF91CF91DE
:103090000C944234DF91CF910895FC018091C801D6
:1030A000811103C08FEF9FEF08959FB7F89482E0DE
:1030B0008093E9002091F20030E01216130614F418
:1030C00021E030E02115310559F0289884E68093FD
:1030D000C7018091F10080838091F200882319F06C
:1030E0009FBFC90108958BE68093E800F9CF2FB701
:1030F000F89483E08093E9009091E800892F807232
:1031000095FF04C09091F20080E4891B2FBF0895C1
:1031100080910F0781110DC082E080930B0784E03E
:1031200080930C0710920E0710920D0781E0809398
:103130000F078BE097E00895CF93DF931F92CDB7F1
:10314000DEB76983DC01ED91FC910280F381E02D13
:1031500041E050E0BE016F5F7F4F09950F90DF9116
:10316000CF91089583E08093E9008091F200882355
:1031700019F08AE38093E80008950E94771890E0A0
:103180000895CF93DF931F92CDB7DEB7FC018485FE
:10319000958597FD05C02FEF3FEF358724870BC03E
:1031A000CE0101960E944D18019719F4898190E093
:1031B00002C08FEF9FEF0F90DF91CF9108950F9393
:1031C0001F93CF93DF931F92CDB7DEB78C01FC0125
:1031D0008485958597FF0EC0CE0101960E944D18FB
:1031E000019719F4298130E002C02FEF3FEFF80179
:1031F00035872487F801848595850F90DF91CF91DD
:103200001F910F910895FC018485958597FD0BC052
:103210009FB7F89482E08093E9008091F2009FBF0D
:1032200090E0019608959FB7F89482E08093E900BA
:103230008091F2009FBF90E008958F929F92AF928D
:10324000BF92CF92DF92EF92FF920F931F93CF9393
:10325000DF935C016B017A0180911B01882309F4E3
:103260005BC08091C801882309F456C08091C601D3
:1032700080FF05C08091E00082608093E000E7015C
:1032800010E00AEF83E0882E9AE3992E2097D9F177
:103290000E94771881110AC0015009F43DC061E015
:1032A00070E080E090E00E94221FF0CF282F30E0F5
:1032B000C217D3070CF48C2F4FB7F8948092E90013
:1032C0009091E80095FF1DC0282F30E0C21BD30B62
:1032D000F601982F915020F081918093F100FACF60
:1032E000C20ED31E112319F09092E80009C08091FC
:1032F000E80085FD06C09092E80011E0209709F0F3
:1033000010E04FBFC3CF1111C3CF5D9884E6809307
:103310000A071E141F0444F081E090E0F501938336
:10332000828380E090E001C0C701DF91CF911F91BF
:103330000F91FF90EF90DF90CF90BF90AF909F9054
:103340008F9008950F931F93CF93DF931F92CDB764
:10335000DEB782E0898342E450E068EA7EE180E8FB
:103360000E94BD230E948818DC0112960D911C91C9
:1033700013970115110569F0D801ED91FC910280B8
:10338000F381E02DBE016F5F7F4FC801099597FF64
:1033900007C089810F90DF91CF911F910F91089500
:1033A000F80100851185E5CFCF93DF9300D000D0E1
:1033B00000D0CDB7DEB7EAEEF6E080819181A28140
:1033C000B381CD010196282F9A83898384819581C9
:1033D000A681B781CD010196482F9C838B8383857D
:1033E0009485FC0165917491FB0164916250FC012C
:1033F00085919491FC013196749172503A815C816F
:1034000080E090E026960FB6F894DEBF0FBECDBFE9
:10341000DF91CF9108950F931F93CF93DF93C82F20
:10342000D62F042F10E0DC1750F04C2F50E021E095
:10343000B8018FEF96E00E94C621CE5FF4CFDF91F6
:10344000CF911F910F9108955F926F927F928F920B
:103450009F92AF92BF92CF92DF92EF92FF920F9323
:103460001F93CF93DF93EC018B017A01A901461BD7
:10347000570B57FF03C0519541955109C7018C1B4C
:103480009D0B97FF03C09195819591095524539405
:103490008417950714F0512C0AC09E2D8F2D7901A9
:1034A000292F382F9C2F8D2FE801092F182FEC166C
:1034B000FD0654F4902F812F8901292F382F9C2F3E
:1034C0008D2FE701E92EF82E37016C1A7D0A59017C
:1034D000A01AB10AB7FE03C0B194A194B108630168
:1034E00077FE03C08FEFC81AD80AD594C794021785
:1034F000130714F08FEF01C081E0882E880F990820
:10350000EC16FD06B4F021E0552019F0AE01B8012B
:1035100002C0A801BE018FEF96E00E94C621CA1822
:10352000DB08D7FE04C0080D191DC60CD71C219658
:10353000E7CFDF91CF911F910F91FF90EF90DF9038
:10354000CF90BF90AF909F908F907F906F905F9043
:1035500008950F931F93CF93DF93042FD22F90E002
:1035600020E0AB01BC018BE790E00E949921D530AF
:1035700030F48091CD059091CE050F9780F0C0E09A
:1035800010E0CD1760F4B8016C0F711D9B0140E88D
:1035900050E08BE790E00E94241ACE5FF2CFDF91DB
:1035A000CF911F910F910895EDECF1E0A0E0B8E00C
:1035B00000800EBC8111012C1197A0FDFDCF01925E
:1035C000B9F70DB408958FB7F8944091C90150919F
:1035D000CA016091CB017091CC018FBF8091070728
:1035E000942F981B80910807882331F09093090746
:1035F0001092080780E0089520910607921740F482
:103600009F5F9217A0F491E093BF889513BE089531
:1036100081E080930807409307078091020790910B
:1036200003070196909303078093020781E00895B2
:103630001F920F920FB60F9211248F939F93809138
:10364000E1009091E100937F9093E10083FF0FC030
:103650001092E90091E09093EB001092EC0092E35D
:103660009093ED001092C80198E09093F00082FFD3
:1036700020C093E09093E9009091F200992319F013
:103680009AE39093E80090910A07992339F090917A
:103690000A07915090930A07992389F19091C701E5
:1036A000992339F09091C70191509093C7019923C4
:1036B00041F184FF10C08091E2008E7E8160809392
:1036C000E2008091E1008F7E8093E1008091C6014D
:1036D0008E7E806111C080FF16C08091E2008E7ED8
:1036E00080618093E2008091E1008E7E8093E10012
:1036F0008091C6018E7E81608093C60104C05D9A70
:10370000CDCF289AD6CF9F918F910F900FBE0F905B
:103710001F9018951F920F920FB60F921124CF92FF
:10372000DF92EF92FF920F931F932F933F934F934C
:103730005F936F937F938F939F93AF93BF93EF9319
:10374000FF93CF93DF93CDB7DEB76C97DEBFCDBFCE
:103750001092E9008091E80083FFEDC168E0CE019E
:1037600045960E94E42382EF8093E8008D8987FFCD
:1037700005C09091E80090FFFCCF03C09EEF9093AE
:10378000E800982F907609F0C6C09E892F89188D81
:1037900091110CC0803829F48091C5018093F1000B
:1037A00002C01092F1001092F10048C1422F50E087
:1037B000512B913051F4811141C14130510509F033
:1037C0003DC18091C5018D7F0BC0933061F48111A3
:1037D00035C14130510509F031C18091C501826088
:1037E0008093C5012BC1953041F48091E80080FFA2
:1037F000FCCF20682093E30021C1963009F05FC020
:10380000EB8CFC8C1092E9001092C3011092C20163
:10381000123091F51092C1011092C0010E94A219BC
:1038200099E0BE016F5F7F4FDB01E92F1D92EA95A2
:10383000E9F799831A8391E09E8390EA98879AEF3B
:1038400099872091C2013091C301275F3F4F3C838C
:103850002B838D831092E9001092C3011092C20154
:10386000F092C101E092C00149E050E080E00E9486
:10387000BD230E94A219E2C0F092C101E092C001F2
:103880000E948818DC011296ED90FC901397E114C9
:10389000F10409F4C0C0D701ED91FC910480F581D9
:1038A000E02DBE016B5E7F4FC7010995009719F0AF
:1038B0000CF0C4C0C7C0F701E084F184E8CF9730B2
:1038C00009F4C0C0983021F481E08093F100B6C0C3
:1038D000993009F0B3C0837009F0B4C0E9E6F1E0B3
:1038E00081E021E036E39081992361F08093E90043
:1038F0002093EB0091919093EC003093ED008F5F5B
:10390000873089F78EE78093EA001092EA008F896A
:103910008093C80193C08B8D9C8D1092E90010920A
:10392000C3011092C2019093C1018093C001898D9F
:10393000811156C08E899D89913A59F4813209F0DE
:1039400081C047E050E064E171E080E00E94BD2367
:1039500075C0913209F076C0833289F4888D90E089
:10396000982F88272F89822BA0E0B0E08093100148
:1039700090931101A0931201B09313015FC08032A4
:1039800069F48091E80082FFFCCF67E084E191E078
:103990000E94E4238BEF8093E80006C0823209F096
:1039A0004DC08F8980931B018091C401882319F039
:1039B000EEEFFAE002C0E0E0F8E0809114019091AF
:1039C0001501A0911601B0911701803B9440A1050B
:1039D000B10509F07BC080911B0180FF93C076C0C8
:1039E0000E948818DC0112960D911C911397011505
:1039F000110541F1D801ED91FC910190F081E02D8C
:103A0000BE016B5E7F4FC8010995811117C0F80197
:103A100000851185ECCF113009F44EC0133091F4BC
:103A20008F89882309F445C0823081F440E860E141
:103A30008CE09FE10E948933882321F08EEF8093F0
:103A4000E80079C081E28093EB0075C0813029F4F1
:103A500040E86BE080E09FE1EDCF833099F70E9472
:103A60008818DC011296ED90FC9013978E010F5F81
:103A70001F4F6801E114F10479F0D701ED91FC9139
:103A80000680F781E02DB801C7010995080F111DC7
:103A9000F701E084F184EECFD8011C92F601019089
:103AA0000020E9F73197BF016C197D0940E0C6019C
:103AB000C1CF6AEE7EE102C06EEE7EE16115710556
:103AC00009F2FB01449150E080E840CF0FB6F89432
:103AD000A8958091600088618093600010926000DA
:103AE0000FBEA895EE3F2AE0F20739F08091FE0A5A
:103AF0009091FF0A91838083A1CF1092FF0A1092C8
:103B0000FE0A9CCFEE3F8AE0F80731F08081918178
:103B10009093FF0A8093FE0A87E797E7918380835B
:103B20009BE088E10FB6F894A895809360000FBEE3
:103B30009093600083CF6C960FB6F894DEBF0FBEF3
:103B4000CDBFDF91CF91FF91EF91BF91AF919F9149
:103B50008F917F916F915F914F913F912F911F9125
:103B60000F91FF90EF90DF90CF900F900FBE0F90CE
:103B70001F901895CF92DF92EF92FF920F931F93B1
:103B8000CF93DF936C017A018B01C0E0D0E0CE15BA
:103B9000DF0589F0D8016D918D01D601ED91FC9181
:103BA0000190F081E02DC6010995892B11F47E0169
:103BB00002C02196ECCFC701DF91CF911F910F91E9
:103BC000FF90EF90DF90CF90089580917B07E09178
:103BD0007907F0917A07882349F0CF0102969093F4
:103BE0007A0780937907859194910895CF01029681
:103BF00090937A0780937907808191810895CF927D
:103C0000DF92EF92FF920F931F93CF93DF930E9467
:103C1000E51D811520E8920761F4809171008D7F88
:103C20008093710010929100469847981092A101DC
:103C30008BC021E02093A101813020E8920751F44C
:103C4000809177079091780790937A07809379070E
:103C50000E94E51D97FD05C020917607222309F4F7
:103C60003FC02091750721113BC021E020937C07C4
:103C7000EC01DF77209769F481E080937D07469817
:103C80003FE9C32E3FE0D32EE12CF12CCAEFD0E068
:103C900014C08E0120E030E060E472E48FE090E038
:103CA000A90198010E94663469017A0181E0C81A6D
:103CB000D108E108F10810927D07E091CF05F0915D
:103CC000D0050995811103C081E080937D07809123
:103CD0007C078823B9F180917D07811133C003C02F
:103CE00010927C07C5CF46992DC0479A0E94E51DCA
:103CF000009771F09C01DE010E94BA34DC01CB0117
:103D000029E0B595A795979587952A95D1F703C092
:103D10008FEF9FEFDC01109290002AE0209391003A
:103D2000D0929900C092980080937E0790937F076D
:103D3000A0938007B0938107809171008260809387
:103D4000710002C04798D2CFDF91CF911F910F91A0
:103D5000FF90EF90DF90CF9008958091A00108959B
:103D60000895089580E090E008950E949137CF93E0
:103D7000DF9300D000D0CDB7DEB7611571058105A6
:103D8000910579F09B01AC0169833A834B835C8395
:103D90000E94143429813A814B815C810E946634EF
:103DA00003C060E070E0CB010F900F900F900F9078
:103DB000DF91CF910895CF92DF92EF92FF920F9310
:103DC0001F93621773078407950784F489019A018A
:103DD0006B017C01C901B8016C197D098E099F092D
:103DE0000E94B71E6C0D7D1D8E1D9F1D1F910F9192
:103DF000FF90EF90DF90CF9008953FB7F8948091B7
:103E0000830790918407A0918507B091860726B516
:103E1000A89B05C02F3F19F00196A11DB11D3FBF02
:103E2000BA2FA92F982F8827820F911DA11DB11D90
:103E3000BC01CD0142E0660F771F881F991F4A958C
:103E4000D1F708958F929F92AF92BF92CF92DF9257
:103E5000EF92FF926B017C010E94FD1E4B015C0101
:103E6000C114D104E104F104F1F00E94FD1EDC0153
:103E7000CB0188199909AA09BB09883E9340A1057D
:103E8000B10570F321E0C21AD108E108F10888EE0B
:103E9000880E83E0981EA11CB11CC114D104E1045A
:103EA000F10419F7DDCFFF90EF90DF90CF90BF9036
:103EB000AF909F908F9008951F920F920FB60F9220
:103EC00011242F933F938F939F93AF93BF93809130
:103ED000C9019091CA01A091CB01B091CC01309160
:103EE000820723E0230F2D3720F40196A11DB11D79
:103EF00005C026E8230F0296A11DB11D209382075D
:103F00008093C9019093CA01A093CB01B093CC01D7
:103F10008091830790918407A0918507B0918607CF
:103F20000196A11DB11D8093830790938407A093F0
:103F30008507B0938607BF91AF919F918F913F9175
:103F40002F910F900FBE0F901F9018951F920F92F8
:103F50000FB60F9211242F933F934F935F936F935C
:103F60007F938F939F93AF93BF93EF93FF93809132
:103F70007E0790917F07A0918007B0918107892BE0
:103F80008A2B8B2B81F180917D0781110BC098B119
:103F900080E4892788B980917C07882319F088B14B
:103FA000805888B980917E0790917F07A091800703
:103FB000B0918107181619061A061B06B4F48091F1
:103FC0007E0790917F07A0918007B09181070197AC
:103FD000A109B10980937E0790937F07A093800782
:103FE000B093810702C00E94FF1DFF91EF91BF9126
:103FF000AF919F918F917F916F915F914F913F9181
:104000002F910F900FBE0F901F9018959C01E1E724
:10401000F0E090819D7F908381E080937B073093D7
:104020007A072093790730937807209377070C94C9
:10403000FF1D2F923F924F925F926F927F928F92CD
:104040009F92AF92BF92CF92DF92EF92FF920F9327
:104050001F93CF93DF9300D000D000D0CDB7DEB751
:10406000CD824115510509F43BC1FA0134913196D5
:10407000E4914E5F5F4FA32EB12C211102C0EE20C0
:1040800061F18E2E869486948694912CA1E0B0E006
:10409000FE2FF77011F4A0E0B0E08A0E9B1EA89CE2
:1040A000D001A99CB00DB89CB00D1124FD81F33056
:1040B00019F4AA0FBB1F0AC00115110539F0EA9EB9
:1040C0004001EB9E900C1124080D191D2A9F7001D0
:1040D0002B9FF00C11244E0D5F1D2D812F3F39F4C5
:1040E0000115110511F021E001C022E02D837C01B2
:1040F000EA0CFB1C1E141F040CF0F2C08038910562
:104100000CF0EEC0DB01AE0FB11D1A161B060CF051
:10411000E7C0603471050CF0E3C04115510509F4A6
:10412000DFC0F62FF7706F2EDB0177FD179623E0C7
:10413000B595A7952A95E1F7FA2F77FF04C0662079
:1041400011F0FFEFFA0F97FF05C0AA27BB27A81BA6
:10415000B90B02C0A0E0B0E020E8E216F10424F0C0
:1041600020E8722E781A01C0732E7A1A6F2F0F2E44
:10417000000C770BFF3F1CF4C62EC09401C0C12C6D
:10418000992493942E2F277009F4912CE695E695A7
:10419000E6959E0E690D711D693071051CF0E8E011
:1041A0009E2E9F1ADC2CDF0E6D2D20E86203800D01
:1041B000911D11248A0F9B1F61E070E0062C02C044
:1041C000660F771F0A94E2F72D81233011F0E1E0AA
:1041D00001C0E2E0A718B108EA9D802C1124EE2E60
:1041E000F12CC39EA00DB11D1124EA9E9001EB9EFF
:1041F000300DFA9E300D11245A01A20EB31E011586
:10420000110509F0A801D70111972A0F3B1F420F92
:10421000531FAFEFA69F9001A79F300D11242901D6
:1042200040945094F90DFE83282D30E0E79D200D39
:10423000311D1124EE81DE1609F452C0DC01A353B6
:10424000BE4F4A018501C12CC71409F441C0F801D1
:104250003490369EF001379EF00D1124FA83E983E5
:10426000E095F095FC83EB83FD81F23019F45C82DC
:104270004B8211C0ED81EB3F19F41A8219820BC0F9
:10428000F4013490369EF001379EF00D1124E09534
:10429000F095FC83EB83D7FC06C0FC91EB81EF2308
:1042A000F981EF2BEC93662061F0F6E0FD154CF000
:1042B000FD01E058FF4F20803C8023203A803228C7
:1042C00030828E0C9F1C0E0D1F1DC3941196BCCF07
:1042D000D394A20EB31E420F531F80589F4FAACFF4
:1042E00026960FB6F894DEBF0FBECDBFDF91CF91FB
:1042F0001F910F91FF90EF90DF90CF90BF90AF9004
:104300009F908F907F906F905F904F903F902F90F5
:104310000895CF92EF920F931F933AEFC32EE12CA3
:1043200000E010E00E9419201F910F91EF90CF90B4
:104330000895CF92EF920F931F9332E0C32EE12C9A
:1043400000E010E00E9419201F910F91EF90CF9094
:104350000895CF92EF920F931F93F901202FCC2451
:10436000C3948F010E9419201F910F91EF90CF905D
:104370000895BC0180E090E00C94221F8FB18095DD
:10438000807F669B88601C9B8460089560387105FF
:10439000D0F440345105B8F4EBE2F0E280E1849FC0
:1043A000D001A0781124A60F4770E40FF11D84916D
:1043B000A353BE4F222319F06C91862B03C0809526
:1043C0006C9186238C930895CF92DF92EF92FF92A7
:1043D0000F931F93CF93DF93EC018885882309F413
:1043E000EFC08E89882311F081508E8B8E898111C8
:1043F000E7C02B8D2111AAC0498D5A8DEF88F88C0A
:10440000F7013296E40FF51F0491FA01EE0DFF1D3E
:10441000849197012F5F3F4FFA01E20FF31F149130
:104420009D89292F207FC22EE82F09F0E1959F70EA
:10443000D92E09F01195013809F486C0083008F02A
:1044400051C06889062E000C770B6E0F711DE7FDB9
:104450007A95072E000C880B990B0E946E3520E090
:1044600030E040E852E40E94CA3420E030E040E806
:1044700057E40E94FA350E943635688379838A832F
:104480009B836989062E000C770B610F711D17FD48
:104490007A95072E000C880B990B0E946E3520E050
:1044A00030E040E052E40E94CA3420E030E040E8CE
:1044B00057E40E94FA350E9436356C837D838E83E3
:1044C0009F838D85833019F486E08E8701C00E8727
:1044D000CC2009F468C0EE85D1106CC0F0E0E9563C
:1044E000FE4F6BC0EC8F1D8F8E2FEE0F990BAA0B1A
:1044F000BB0BDC0199278827488159816A817B8120
:10450000840F951FA61FB71F88839983AA83BB8337
:10451000812F110F990BAA0BBB0BDC019927882760
:104520004C815D816E817F81840F951FA61FB71F0F
:104530008C839D83AE83BF8301500B8F83E0E80E95
:10454000F11CF88EEF8A3CC018863AC08C8D082E7C
:10455000000C990BAA0BBB0BDC019927882748811B
:1045600059816A817B81840F951FA61FB71F88839D
:104570009983AA83BB838D8D082E000C990BAA0BFF
:10458000BB0BDC01992788274C815D816E817F817F
:10459000840F951FA61FB71F8C839D83AE83BF8397
:1045A00021502B8F0DC0DD2049F2EE85F0E0E15760
:1045B000FE4F03C0F0E0E957FE4F80818E87BECFEB
:1045C000DF91CF911F910F91FF90EF90DF90CF90EF
:1045D0000895DC011B96ED91FC911C973E96859108
:1045E0009491FC0184910895DC011B96ED91FC915E
:1045F0001C973C9685919491FC01849108950F93AA
:104600001F93CF93DF9300D000D000D0CDB7DEB79B
:104610008C01FC0180819181A281B381CD01019641
:104620009A83898384819581A681B781CD01019682
:104630009C838B83C8010E94F42282508D83C80121
:104640000E94E9227EEF780F29813A814B815C81BB
:104650006D8180E090E026960FB6F894DEBF0FBE25
:10466000CDBFDF91CF911F910F910895FC01108272
:104670001182128213821482158216821782128688
:10468000118654874387138A128A6587108683E0D0
:10469000848B138E86E087870895EF920F93CF93D4
:1046A000DF93C0E0D0E0FE01ED55FE4F8381813005
:1046B00061F4628170E0E12C00E027EA3FE148EE1E
:1046C0005FE1808191810E94A9212496C031D105AA
:1046D00051F7DF91CF910F91EF900895EF920F93E3
:1046E000CF93DF93C0E0D0E0FE01ED55FE4F838114
:1046F000833061F4628170E0E12C00E027EA3FE161
:1047000048EE5FE1808191810E94A9212496C03109
:10471000D10551F7DF91CF910F91EF90089540911E
:10472000C2015091C3012091C0013091C1014217D3
:104730005307B4F49091E8009570E1F39091E8008C
:1047400092FD19C08093F1008091C2019091C30144
:1047500001968F739927892B19F48EEF8093E800C7
:104760008091C2019091C30101969093C3018093FF
:10477000C20181E0089580E00895DF92EF92FF92F8
:104780000F931F93CF93DF93D82E8A017B01E40E02
:10479000F51EEB01CE15DF0571F0D7FE03C0FE015B
:1047A000849101C088810E948F2321968111F2CFCC
:1047B0008FEF9FEF01C0C801DF91CF911F910F9143
:1047C000FF90EF90DF900895615030F02091F1005C
:1047D000FC0120830196F8CF289884E68093C701D6
:1047E0000895CF93DF93CDB7DEB7A7970FB6F894B0
:1047F000DEBF0FBECDBF789484B5826084BD84B522
:10480000816084BD85B5826085BD85B5816085BDCB
:1048100080916E00816080936E0010928100809183
:10482000810082608093810080918100816080930B
:104830008100809180008160809380008091910050
:1048400082608093910080919100816080939100BB
:10485000809190008160809390008091C10084607D
:104860008093C1008091C10082608093C1008091DB
:10487000C10081608093C1008091C30081608093FA
:10488000C3008091C00082608093C0008091C2000C
:1048900081608093C20080917A00846080937A0066
:1048A00080917A00826080937A0080917A008160A2
:1048B00080937A0080917A00806880937A001092C9
:1048C000C8011092C5011092C6018091D700816085
:1048D0008093D70080EA8093D80089B5806189BD34
:1048E00089B5826089BD09B400FEFDCF61E070E04A
:1048F00080E090E00E94221F8091D8008F7C806130
:104900008093D8008091E000807F8093E0008091C8
:10491000E1008E7E8093E1008DE08093E200559A65
:10492000209AEEEFFFE7859194918B3F9C4D19F40F
:1049300081E08093C40180E00E94151881EC80938F
:104940007C0085B1806F85B984B1877E84B984B1DC
:10495000876E84B95E9A5F988AB1806D8AB9769ABB
:104960006E9881B3806F81BB899880B38D7080BB56
:1049700080E58CBD81E08DBD85E090E00E94B9218D
:104980005F9A85E090E00E94B9215E985C98E8E229
:10499000F1E08DE08E0F94919EBD00000DB407FEF6
:1049A000FDCF31968E13F7CF5C9A81E88093640037
:1049B000809165008160809365000E94BE2187FF21
:1049C00024C05C9885EA8EBD00000DB407FEFDCFC3
:1049D0005C9A2E982F982D98809164008062809325
:1049E000640081E083BF889513BEFCCF2D980E94A0
:1049F000BE218478843871F00E94BE218471843194
:104A000029F188EC90E00E94B9210E94BE2182FD2C
:104A1000EDCF38C02D9A88EC90E00E94B9212F98F4
:104A200082E090E00E9422348F3F29F06FEF82E015
:104A300090E00E94483484EF91E00E94B9212F9ABF
:104A40000E94BE2184788438D9F3D6CF2D9A88EC81
:104A500090E00E94B9212E9882E090E00E942234DA
:104A6000882329F060E082E090E00E94483484EFDF
:104A700091E00E94B9212E9A0E94BE218471843156
:104A8000D9F3BFCF2D9A82E090E00E942234882390
:104A900031F03E9A3F9A81E08093A00104C01092C9
:104AA000A0013E983F988DE790E090930E0180938F
:104AB0000D018CE291E090930C0180930B0180E05A
:104AC0009BE490930A018093090180E09EE090931B
:104AD000080180930701909306018093050182E30A
:104AE00090E0909304018093030180ED90E00E9498
:104AF00022348093B40184E180930607809164009E
:104B00008E7F8093640080917A00806480937A0025
:104B100080917A0086FDFCCF009178001091790099
:104B20000E94FD1E20E030E0980111270027600F51
:104B3000711F821F931F611571058105910511F089
:104B40000E94193480916400816080936400AE01FA
:104B50004F5F5F4F5A8F498F0E94E31A882309F4F1
:104B600085C680E0EDECF1E081118FEF00248193A8
:104B70008193819381930394D1F78091040780936B
:104B800005070E94BE2180930407E091BA018E2F91
:104B900090E08730910508F055C6FC01EA5AFF4FB6
:104BA0000C949B361092B8011092B3011092B70189
:104BB00011E01093BA0187E79BE00E940620109253
:104BC000F8061092F7061092FD0680E09EE09093A2
:104BD000FB068093FA069093F4068093F3062BE489
:104BE0002093F9061092FC061093F20640E050E084
:104BF00061E070E04093EA065093EB066093EC06A8
:104C00007093ED0640E050E068E170E04093EE06FE
:104C10005093EF066093F0067093F1062DE730E0B5
:104C200030930E0120930D012CE231E030930C0102
:104C300020930B0120E03BE430930A01209309010B
:104C400090930801809307019093060180930501DA
:104C500082E390E0909304018093030184E18093C8
:104C6000060720E04DE95AE061E070E089E490E059
:104C70000E94992120E041E75AE064E070E08BE374
:104C800090E00E94992120E045E45AE064E070E061
:104C900081E390E00E94992120E043EC59E060E03C
:104CA00070E080E790E00E94992120E041E459E023
:104CB00060E070E080E090E00E9499211091B701DF
:104CC000812F82958695877021F0843008F053C03B
:104CD0000AC020E04DE059E06FE070E087E190E02D
:104CE0000E94992148C020E043EF58E064E170E061
:104CF00089E190E00E9499212091B4014FED58E0A4
:104D000069E270E08AE190E00E949921812F887128
:104D100090E043E0959587954A95E1F7813029F039
:104D2000823029F483E135E204C081E101C083E1EE
:104D300033E2012F077020E04AED58E06CE170E0AB
:104D400090E03FA30E94992120E045ED58E06CE1FE
:104D500070E03FA1832F90E00E949921002359F039
:104D60000150812F887F802B8093B701011103C0F0
:104D7000807E8093B70181E00E94D41A00910507DC
:104D800000958091040708231091B701129516959C
:104D9000177006FF20C0113091F020F01230D9F4C6
:104DA00087E70EC08091B40190E0019635E0880F4E
:104DB000991F3A95E1F787608093B7010CC087E5AA
:104DC0008093B7016091B4016F5F6093B40180ED8F
:104DD00090E00E94303405FF21C0123089F013307A
:104DE00089F011111BC08091B40190E0019625E07B
:104DF000880F991F2A95E1F787608093B7010EC04D
:104E00008FE201C08FE48093B7016091B4016150DB
:104E10006093B40180ED90E00E94303402FF08C03E
:104E2000112319F01092B70103C086E08093BA01F4
:104E300003FF08C582E08093BA011092B80102C551
:104E400010923E0610925C0610927A061092980616
:104E50001092B6061092D406EBEFF5E080818F70C9
:104E60008083339656E0E832F507C1F7EDEDF5E0C3
:104E700080818F708083339685E0EB3FF807C1F720
:104E800080E890E09093A4018093A30184E1F82E40
:104E9000F092A50185E08093A60186EB90E09093C7
:104EA000A8018093A70189E18093A9011092AA012A
:104EB0008CEE90E09093AC018093AB018EE18093F7
:104EC000AD0182E08093AE0182E291E09093B00167
:104ED0008093AF0183E28093B10184E08093B201BB
:104EE0001092FD0600E01EE01093FB060093FA0608
:104EF0001093F4060093F3068BE48093F906109266
:104F0000FC0681E08093F20680E090E0A1E0B0E052
:104F10008093EA069093EB06A093EC06B093ED061F
:104F200080E090E0A8E1B0E08093EE069093EF0679
:104F3000A093F006B093F10610922E068FE298E04F
:104F40000E94062080E58093B60183E08093BA0139
:104F50008DE790E090930E0180930D018CE291E03B
:104F600090930C0180930B0180E09BE490930A01E5
:104F70008093090110930801009307011093060123
:104F80000093050182E390E0909304018093030174
:104F9000F09206078091B801833630F4893038F4F6
:104FA00006E0E02E09E206C0E12C0EE203C013E0A9
:104FB000E12E0CE28091020781700E944510F09072
:104FC000B6019FE49F15C8F0A2E0FA16E8F4B1E03C
:104FD000FB1272C08091B80165E00E946736E92F2C
:104FE000F0E0EE0FFF1FE05EFE4F6081718181E017
:104FF0000E949D161092B6015FC0E0E5FE125CC0F3
:105000001092DA051092D5056E2D70E06E5F7F4F1D
:1050100020E043E058E08CE390E00E9499218091E9
:10502000B801C82ED12C10E0833678F0C601019665
:1050300064E670E00E948736262F4BEB57E0B801FC
:105040008CE390E00E94992102C08930A8F0C6014B
:1050500001966AE070E00E948736CB016AE070E05A
:105060000E948736282F4BEB57E0B8016A5F7F4FCD
:105070008CE390E00E949921C60101966AE070E0FD
:105080000E948736B801645F7F4F282F4BEB57E0B3
:105090008CE390E00E94992110E41E1949E3612FEE
:1050A0008E2D0E940B1A45E4612F8E2D0E940B1A43
:1050B0008FEF8F0D8093B6012091FA063091FB0699
:1050C0001216130694F58091F3069091F4061816C3
:1050D00019065CF58091FC06811127C090910407A8
:1050E0008091050780958923225031093093FB0672
:1050F0002093FA062F3F3F4F21F41092FB061092A7
:10510000FA0697FD9BC494FDC8C495FDF5C496FDB1
:105110000FC582FF03C098E09093FC0683FD24C571
:105120008091B601882309F463C5FBEFAF2EF5E04B
:10513000BF2EA9EF8A2EA5E09A2ED5012C912F70B3
:10514000622F70E0FB01E95BFA4FE491D4018C918E
:105150008E0F8C93D501FB01E15CFA4F64919E9117
:10516000690F6C93893710F4613410F0F5012083D6
:10517000D5019C91907F79F070E06150710990E0C9
:10518000E3E0CE2EE12C00E010E020E04FE555E01A
:1051900001970E941920B3E0AB0EB11CE3E08E0E24
:1051A000911CF6E28F16F6E09F0609F0C6CF6BED74
:1051B000862E65E0962E7DEDA72E75E0B72ED501E3
:1051C0002C912F70622F70E0FB01E95AFA4FE491A5
:1051D000EE0FD4018C918E0F8C93D501FB01E15B16
:1051E000FA4F6491660F9E91690F6C93893710F0A6
:1051F000F5012083613420F0D5019C919F709C9330
:10520000F5019081907F79F070E06150710990E034
:1052100053E0C52EE12C00E010E020E04FE555E022
:1052200001970E941920F3E08F0E911C23E0A20E3B
:10523000B11C39EF831635E0930609F0C0CF81E049
:105240000E9456130E9441160E946E2380E00E9425
:10525000561360910207709103078090EA069090C0
:10526000EB06A090EC06B090ED064501BB2497FC40
:10527000B094AB2C4090EE065090EF066090F00694
:105280007090F106C40142968239910508F08EC0F3
:105290002301772457FC7094672C8091FA06909133
:1052A000FB06181619062CF54091F3065091F406EA
:1052B00041158BEF5807ECF08091FC06982F9695DE
:1052C00096959695292F30E0F901EF5BF94FC49040
:1052D000EFEFE90FE73018F48F5F8093FC068091C1
:1052E000FC06803411F41092FC0641305D4F0CF046
:1052F000C5C28091F3069091F406181619060CF4B5
:1053000043C00C979093F4068093F306292F892FBE
:10531000990F990B121614F4019702C0809590957D
:105320002C3F3CF42A3F24F5263F71F51092F206FB
:105330002BC02F3F09F044F54091F5065091F60639
:10534000FC01FF277496CF01880F991FFA01E80F1F
:10535000F91F25913491FC013897E40FF51F459111
:105360005491E12C00E0B201C4010E94A9210CC0BB
:10537000E091F506F091F606B6964591549120E03D
:10538000B201C4010E9489212091FA063091FB06E6
:10539000121613065CF08091F3069091F40618162D
:1053A00019060CF4A5C202C01092F2060E944D2309
:1053B0000E943F1281E00E94D41A8091B6018111AF
:1053C00028C08091F3069091F406181619060CF582
:1053D00080E090E0FC01EA5CF94F2085211119C0C2
:1053E0004E96843B9105B1F79091A2018091B8014E
:1053F000992309F4C9C265E00E946736E92FF0E0FD
:10540000EE0FFF1FE05EFE4F6081718180E00E9421
:105410009D168091F3069091F406181619063CF437
:105420008091FA069091FB061816190644F08091B7
:10543000A101811104C089E496E00E9406208091B8
:10544000F2068111FFC185E031C18091B401811163
:1054500005C09091B8019E3161F406C0813049F4D5
:105460009091B8019C3329F495E09093BA0111E032
:1054700001C010E0C82ED12CF5E6CF0ED11CCC0C0B
:10548000DD1CC6010E942A347C016091F7067091F0
:10549000F8068617970738F4C6010E944234E09058
:1054A000F706F090F8060CEE598CE4E0AE2E5A0C9C
:1054B000452C0E94E31A8823E1F38091040780932E
:1054C00005070E94BE21809304078091BA0120E065
:1054D000843061F444EC53E060E070E082E790E0F7
:1054E0000E94992120E04AE753E010C0112361F0A7
:1054F00040E353E060E070E082E790E00E94992191
:1055000020E046EE52E002C04CE352E060E070E082
:1055100085E690E00E94992141E660E480E00E94E7
:105520000B1A4FE760E480E00E940B1A0436C4F5C2
:10553000602E002E000C7708430122E1821A9108A8
:1055400071E6A72EB12C640197FE02C0C12CD12CAC
:1055500040E4C416D1045CF420E0A601B5018FEF4D
:1055600096E00E94C6213FEFC31AD30AF1CF5FEF46
:10557000A51AB50A80EEA816B10429F720E04FE974
:1055800059E1B40181E690E00E94992120E04FE9C1
:1055900059E1B3018FE690E00E9499210F5F72C03C
:1055A00020E04CE454E06FE070E084E490E00E947E
:1055B000992120E048E354E065E170E087E390E062
:1055C0000E94992119821A821B821C828091F706FF
:1055D0009091F806DE0111965D01FD016AE070E030
:1055E0000E9473368193CB015E12F8CF66E2C62E1D
:1055F000D12CF50121915F014BEB57E0B6018DE213
:1056000090E00E948921F6E0CF1AD1082EE0C21660
:10561000D10479F719821A821B821C8220E04EE0A5
:1056200054E06DE070E08DE190E00E949921AE01C0
:105630004F5F5F4F5A01FA01C7016AE070E00E94B4
:1056400073368193CB014E12F8CF56E2C52ED12C82
:10565000D5012D915D014BEB57E0B60184E190E05F
:105660000E948921B6E0CB1AD108EEE0CE16D10413
:1056700079F720E04DE059E06FE070E080E090E0E5
:105680000E94992181E00E94D41A80910407D09051
:105690000507D0942D2D28239091BA012870D22E81
:1056A000943039F4222309F404CF82E08093BA01C4
:1056B000C9C087FF0BC084FF09C081E00E94151894
:1056C0001092F8061092F706E12CF12CDD2009F477
:1056D000F0CEB6C00CEE1FEF42E0942E0E94E31A0B
:1056E0008823E1F320E04BEF51E066E070E081E7D2
:1056F00090E00E94992120E046ED51E064E070E0E6
:1057000088E690E00E94992141E660E480E00E94F2
:105710000B1A4FE760E480E00E940B1A5801F2E197
:10572000AF1AB10831E6C32ED12C7501B7FE02C005
:10573000E12CF12C30E4E316F1045CF420E0A70145
:10574000B6018FEF96E00E94C6212FEFE21AF20A0F
:10575000F1CF4FEFC41AD40A50EEC516D10429F781
:1057600020E04FE959E1B50181E690E00E949921DE
:1057700020E04FE959E1B8018FE690E00E949921BD
:1057800080E00E94D41A9092BA010F5F1F4F043636
:10579000110509F0A3CF20E042EC51E069E070E090
:1057A00086E490E00E94992120E048EA51E06AE115
:1057B00070E086E490E00E94992120E04EE851E0FC
:1057C00069E070E084E390E00E94992120E040E7E6
:1057D00051E06AE170E085E390E00E94992120E0C9
:1057E0004AE551E068E070E084E290E00E9499218F
:1057F00020E045E351E06AE170E085E290E00E943C
:10580000992120E04DE059E06FE070E080E090E009
:105810000E94992181E00E94D41A0E94BE2183FD3A
:1058200007C064E670E080E090E00E94221FF5CFA0
:1058300080910407809305070E94BE21809304078E
:105840001092BA018091B901882381F08150809330
:10585000B90181110BC083E884BD8FEF87BD81EF53
:10586000809380001092880010928A0080E090E07F
:10587000892B09F471C90E9400006EC9C80C0C2C58
:10588000000CDD0891110CC00091FE06011123C02F
:10589000CB0166E070E00E94733601E0049708F4E3
:1058A00000E08091F5069091F606F9013896AF0177
:1058B000440F551FFC01E40FF51F25913491FA01A7
:1058C0007097E80FF91F45915491E12CB201C60180
:1058D0000E94A9210ECD0150E02E27E635E043EDD0
:1058E00055E0B201C6010E94A9211092FE0601CD29
:1058F0002C5031093093FB062093FA06932F97FD25
:105900009195492F50E04131510508F04FCDFA01F2
:10591000E35AFF4F0C949B36A6E003C0ABE001C0F6
:10592000AEE0A80D99E081E013C0A4E1A80D9EE0CF
:1059300086E00EC09924882D831BA2E1A80F84E184
:10594000890F985E05C0A4E1A80D88E0890F945FD7
:105950005091F5064091F606E52FF42FE90FF11D61
:10596000E90FF11D25913491E52FF42FE80FF11D7A
:10597000E80FF11D45915491E12C00E0B2018A2F0E
:1059800090E00E94A92112CD8F5F8093B80188E238
:105990008093B60187E097E00E94062084E0809320
:1059A000BA01C12CD12C16E00C2DE0E8CE16D104A2
:1059B00009F42FCD0E9441160E946E2380E00E94C0
:1059C00056138C2D81700E9445108090EE069090A9
:1059D000EF06A090F006B090F1064501BB2497FCBD
:1059E000B094AB2C4090EA065090EB066090EC0629
:1059F0007090ED06802F612F0E94673601E0933092
:105A000008F000E0E12C28E53DE14AE35EE1B40165
:105A1000C601860D971D0E94A9210E944D230E9458
:105A20003F1281E00E94D41A64E170E080E090E0CF
:105A30000E94221FBFEFCB1ADB0AB6CF4091EE06C1
:105A40005091EF066091F0067091F1064D3CFCEC30
:105A50005F07610571050CF456CB8A019B010C5C54
:105A60001C4C210931091092FE0604171507260760
:105A7000370714F441E006C0401751076207730767
:105A80001CF442E04093FE060093EE061093EF06EE
:105A90002093F0063093F10636CB4091EE065091FC
:105AA000EF066091F0067091F106411551052DE267
:105AB000620771050CF029CB8A019B010453134343
:105AC0002F4F3F4F1092FE06041715072607370782
:105AD00014F441E006C040175107620773071CF435
