:100000000C9424100C944C100C944C100C944C1028
:100010000C944C100C944C100C944C100C944C10F0
:100020000C944C100C944C100C94BE1C0C94301D71
:100030000C944C100C944C100C944C100C944C10D0
:100040000C944C100C944C100C944C100C944C10C0
:100050000C944C100C944C100C944C100C940221E9
:100060000C944C100C944C100C944C100C944C10A0
:100070000C944C100C944C100C944C100C944C1090
:100080000C944C210C944C100C944C100C944C106F
:100090000C944C100C944C100C944C100C944C1070
:1000A0000C944C100C944C100C944C10C7251B2530
:1000B0004026C326812D812DF82EB42BB02BB92BD1
:1000C000BB2BC72BC32BCB2BCD2B212C1D2C262C94
:1000D000282C342C302C382C3A2CC831CA31CC3155
:1000E000D131D631D631D631D631DF31DF31DF31C2
:1000F000DF31292D292D292D292D272D9110731020
:1001000082109710B310B3109D10A310A9100E0207
:10011000111A07040C0008090D031B15060E020135
:10012000171A041C150008090D030B060E00020423
:1001300006181A150C010307090B0D0E0E07080906
:100140000D000102131A0B0C1415060E0001020318
:100150001415060708191A0B0C0DD5F08D14A1C83B
:1001600081CFD9F1AF20005504A8000000B00055A0
:1001700004A80000005C013F03A8005504A800DCAF
:10018000030C067003A8000000B0007003A8000074
:10019000005C017003A800E402A8007003A800A49A
:1001A00003E200E402E200A403E2001704E2003FDD
:1001B00003E2001704E2005504A8000000B0005557
:1001C00004A80000005C013F03A8005504A800DC5F
:1001D000030C067003A8000000B0007003A8000024
:1001E000005C017003A800E402A8007003A800A44A
:1001F00003E200E402E200A403E2001704E2003F8D
:1002000003E200DD04E2007505CF08BA020604E44B
:1002100002A8001003A8003F035F05A403560300D3
:100220000007001704A8005504A800DD04A8007505
:10023000055F05C805560300000700490755017D05
:1002400006A800C8055F05DD04560300000700C8C6
:100250000555017505A80055045603000007001751
:1002600004A800A403A8003F03A800BA020604E4FF
:1002700002A8001003A8003F035F05A40356030073
:100280000007001704A8005504A800DD04A80075A5
:10029000055F05C805560300000700490755017DA5
:1002A00006A800C8055F05DD04AE023F035501C87E
:1002B00005A8007505A80055045F0500800B1E15F4
:1002C00000040E1F001F0E0400150000F20A7A8AB7
:1002D00072020200000000089494A22200000000B4
:1002E00000002F20272827202000000938000000C8
:1002F000C7282621EE20000000BC9292928C0000BC
:100300000000601010157210708880F08888887066
:1003100000000000BC9292928C00000000CA2AEA01
:100320002AC5000000000300010201002A7A50A043
:1003300050A010A090A080808080800040804080ED
:100340004080408040804080408050A8542A954A98
:10035000241010204080000055AA55AA00FF00007C
:100360000000000007040504050405040504050455
:10037000050405040504050405060400000000004A
:1003800001FE01020102001F1010101010101E02C9
:10039000020202020202020202020202020202023D
:1003A00002020202020202020202020354AA54AA38
:1003B00004F2141214121412101010F000A050A81D
:1003C000542A944A241214121412141214121410DF
:1003D00010204080000055AA55AA00FF0000000030
:1003E0000000E020203F00AA5500FE0100000000B0
:1003F000E02020A020A02020E0000000000001FE5E
:10040000152A55AA00FF0000000000001F1014125A
:10041000141215101F00000000001F1015121512F5
:1004200015101F000000000000FF00000000000188
:10043000020408102020202020202020202020201E
:1004400020202020202020202020202020202010BC
:10045000080402010000000000000000000000008D
:100460009468946814C81408140810081000104008
:10047000608080804000800000000000000040A0FC
:1004800040A040204020000000002A55AA5500FF4F
:100490000000000000F01090202040408081010307
:1004A00002020504080810F055AA55AA00FF010130
:1004B000010101011F101215101F00000000001F94
:1004C00010121512151214101111121E0000000046
:1004D00000FF050A050A00FF808080808080F01000
:1004E000101010F08080808080F01010101010101C
:1004F00010101010101010101010101F00000080AD
:1005000040A040A04020400000000000000000008B
:1005100000000000000040A040A04020402040001B
:1005200000000000000054AA55AA05F2190C0603A9
:100530000101010101FF00A040A040A00000000057
:10054000152A152A00FF010101010102040810E02B
:1005500055AA55AA00FF000000000000FE02422B31
:10056000502A5500FE0202020202FE0020502853CB
:100570002A02FE000000000000FF0102050A001F21
:100580002040800000000101010101010101010082
:100590008080000001010101010101010100000052
:1005A0008040201F00000000000000000001020247
:1005B0000202020202020202020100000102020221
:1005C0000202020202020202020100000000000018
:1005D0002C015D0152005D0152005D0152005D0180
:1005E00052000000030072015200720152007201B9
:1005F000520072015200000003008801520088017D
:1006000052008801520088015200000003009F013F
:1006100052009F0152009F0152009F0152000000B2
:100620000300B8015200B8015200B8015200B801ED
:10063000520000000300D2015200D2015200D20148
:100640005200D201520000000300EE015200EE0100
:100650005200EE015200EE015200000003000B02B6
:1006600052000B0252000B0252000B02520000001B
:1006700003000080E4020200750506007D06080004
:10068000750504000080DC00090093000A00830067
:100690000600AF000A000080AF000300260104003E
:1006A000B8010400A50001000080AF001600AF00F3
:1006B0001600AF0016000080387CFEFEFE7CFEFFB8
:1006C000BA00000000000000010010387CFEFFFFAF
:1006D000FFFE6C0000000001010100001FFFFFFF92
:1006E000FFFFFFFEE44000010101010101010000E4
:1006F00009090038444444285492000000000000D6
:100700000000000009090010387CFEFEFE6C0000AD
:1007100000000000000000000A09000EEEEEEEEA04
:10072000AAA4400000000000000000000000030830
:100730000007020700075504690200000D00550478
:10074000690000000D005504690000000100170455
:10075000AB01000001001704D500000001001704E0
:10076000D50000000100DC03810200000100DC0371
:10077000D50000000100A4031C0100000100A40337
:10078000460000006C00A403220000006C00A403DB
:10079000220000006C00A403220000004800700347
:1007A0001C0100000100E4021C01000001007003B4
:1007B0001C01000001003F031C0100000100930226
:1007C0001C01000001003F031C0100000100E402C5
:1007D0008102000001006E024600000001000B02D1
:1007E0004600000001006E024600000001002A02DF
:1007F0007B030080E402F20100009000E40222008A
:1008000000004800E402220000004800E402B100B9
:1008100000006C00E402690000002400E4024600CD
:10082000000048003F03690000002400A4036900A1
:1008300000002400DC030A040000FB00DC03690064
:10084000000024005504460000004800DD04460076
:100850000000480075055D020000240075052200B7
:1008600000004800750522000000480075052200C0
:100870000000B3005504B1000000240075054600D7
:1008800000004800C8057500000018007D066900DA
:1008900000002400C80569060080570016005700B4
:1008A0001600570016000080072991111515951B99
:1008B00011F301E111E100013C4138047900008E9F
:1008C00044444486000413141434D300000101018D
:1008D00001000000154000004428387C1000000092
:1008E000FE0000A86C6E6E0E4E4C680000408080CA
:1008F000C000000000FF0000BB393D191A1A1C8C13
:10090000000004020307010000001F000075757558
:10091000757F777773384C142C94C8D0C4D1802A53
:100920000000372727070F272737001C366F6D7BFE
:10093000321E0D07000000286CEEEEEEEE6C280073
:10094000002040C0E080000000FE0000081C1C0CDD
:100950002E2E266F00000201010300000000FF00A0
:1009600000B7A7A7878FA7A7B7000022141C3E08CF
:100970000000007F0000737B3B3B0B3B3B1B0730C1
:100980008E51414181110E53545454B3000005352A
:100990004D4D340000E712F212E2020310A88989DB
:1009A000081C0807000F080700000720CF21E121DD
:1009B000C1010121508B8A8900009C023E221C004B
:1009C00080030101010101010740708880700888DF
:1009D000702CB2A2A2220000C7282028C7000071F4
:1009E0000AF88A7100009E201C823C0000878887DC
:1009F000C08F8000B0C888898802011C08080808D8
:100A0000080C0728D1919595D51B913D4038047865
:100A10000000CF908E81DE008039444444380000CD
:100A2000111111130D000009180000D19191DF116F
:100A300091111C20B9A4A4A498800000000404040F
:100A400004030000071C8444444484151F83444469
:100A500044F34040782538201900000E04040404B3
:100A6000040607050E11131519110E0E04040404D3
:100A700006041F01010E10110E0E11100C10110EA4
:100A800008081F090A0C080E1110100F011F0E1183
:100A9000110F01021C0102040810101F0E11110E8B
:100AA00011110E0708101E11110E071D8E51504E08
:100AB00081110EE3141014E300000405054D340009
:100AC000000E011F110E00001322000000FC00FEAA
:100AD0000101FDA955FD0101FE00000000C0300824
:100AE000043261E0C0C1E0F1F9800003040830C0C5
:100AF0000F30408030181F0F0F1F3F7F0703038305
:100B000040300F000000FC01FE0000FE54AAFE0071
:100B100000FF0000000000000000000102020202CD
:100B200002020202010000000007308E5141518E86
:100B3000000013141434D30000215111117C101043
:100B40002E242464A60004B2CA8A8A8900001C02EA
:100B50003E221C00000C0800150011111F11110A83
:100B60000400150A40004000A080D0C0E860640482
:100B70001C21391B4B7347070F00205050508888A9
:100B8000880000005E494E48C60000000010157540
:100B900095957200000000002E242464A600040035
:100BA00000003890909219001000000073846014C7
:100BB000E3000000000C38F8A8A8A80402DADADA8A
:100BC0000204F8000000000102020202020100001B
:100BD000008282829EA2A29E0000000000C828C857
:100BE00009C6000000000000000B09099968000018
:100BF0000000000080BC929C908C0000000000006F
:100C000000000609090600000000000938D805FDAB
:100C1000FFFF76FC8804000505070703010001C2F9
:100C200082828EC2029E00005D484848C8080C00BF
:100C300000E5151515E20000000010A989893C089F
:100C400008000007000F08070000000007294E51A8
:100C500041C141110EE010F014E3000058644565F5
:100C60005840400E848484E6808479827008F300C2
:100C700000000000000000004000040001500000DF
:100C800081400005FF0150000081400006FF002563
:100C90001A0105FF01180318040001190000814022
:100CA0000006FF0040FF0028FF005000008180C0C8
:100CB000E0F0F8F8FCFCFCFEFEFEFFFFFFFFFFFF8C
:100CC000FFFFFFFFFFFFFFFFFFFFFFFFFFFEFEFE37
:100CD000FCFCF8F0C0000103070F0F1F1F1F3F3F70
:100CE0003F7F7F7F7F7F7F7F7F7F7F7F7F7F7F7F54
:100CF0007F7F7F7F3F3F3F1F1F0F0701FFFFFFFFEA
:100D0000FFFFFFFFFF0101010101010101010910C6
:100D1000FEFDC3BBBBBBC7FFFF0101010101010118
:100D20000101271080C060B058A85CAC54AEFA8EA8
:100D3000F7959FF5979DF7959FFDFFFD7F7D3FDD23
:100D4000DFDD3FFEFEFE0CFC18F0C0000103060DC7
:100D50000A1D1A153A2F3877547C57745C77547CE7
:100D60005F7F5F7F5F7E5D7D5D7E3F3F3F181F0C35
:100D700007010910FF7F87BBBBBBC7FFFF00010155
:100D80000101010101010910FFFFC7BB3BBBC7FF08
:100D9000FF0101010100010101010910FFFFC7BBB3
:100DA000BBBB877FFF0101010101010101000910A7
:100DB000FFFFC7BBBBBBC7EFEF0101010101010191
:100DC00001010910FFFFC7BBBBBBC3FDFE01010151
:100DD0000101010101010910FFFFC7BBB8BBC7FF3B
:100DE000FF0101010101010101010000000000F00B
:100DF000FEFFFFFEFCE0000000000000000000001D
:100E00008000000010387CFEFEFFFFFFFFFFFFFFA9
:100E1000FFFEFEFE7C7C7C7CFEFFFFFFFE100000E0
:100E20000000001FFFFFFFFF7F0F01000000000018
:100E300000000001030100000000000000000001AC
:100E400001000000000000000000000000000000A1
:100E500000001A19000000000000F09E9EFCE00057
:100E60000000000000000000000000000000001072
:100E7000387C547CFFBBBBBBBBFF7C7C7C7C3838A4
:100E8000383828D6D7FE10000000000000001FF3FD
:100E9000F37F0F01000000000000000000000100CF
:100EA0000000000000000000000000000000000042
:100EB0000000000000000000000000001111000010
:100EC0001C3CFCD8B070E8C422120E0000000000E8
:100ED0001C12110805030307074F6C30380C000083
:100EE0000000000000000000000000000000000002
:100EF00000111100008080FC828CF0808080000056
:100F0000C0E00000000103037E82621F03030301AF
:100F100001070F01000000000000000000000000B9
:100F2000000000000000111100709010204080802F
:100F3000C0C0E46C1838600000000070797E371B78
:100F40001D2F478990E00000000000000000000015
:100F5000000000000000000000000011110000006F
:100F60000000040CCCFECC0C0400000000000008C3
:100F700014141212127FE37F1212121414080000CC
:100F80000000000000000000000000000000000061
:100F9000111100006038186CE4C0C080804020103F
:100FA00090700000000000E09089472F1D1B377EE5
:100FB0007970000000000000000000000000000048
:100FC000000000000011110000E0C00000808080DF
:100FD000F08C82FC8080008000010F070101030378
:100FE000031F62827E030301000000000000000076
:100FF00000000000000000000000111100000000CF
:101000000E1222C4C870B0D8FC3C1C000000000CBA
:1010100038306C4F07070303050811121C0000004D
:1010200000000000000000000000000000000011AF
:101030001100205050909090FC8EFC909090505059
:1010400020000000000000406067FF676040000073
:101050000000000000000000000000000000000090
:1010600000000000060002F0D0000000010002F0C5
:10107000D010000001010000F02400000201000077
:1010800002240000020002F0204A0001010002F0E8
:10109000205A000101050002F0D00000000100020A
:1010A000F0D028000001010000F944000002000215
:1010B00000200001010100020020280101010500BB
:1010C00002F0D0000000010002F0D0280000010171
:1010D0000000F944000002000200200001010100AC
:1010E00002002028010101050300000004000005A2
:1010F000030000F43E0000050002F0D000000001F3
:101100000002F0D0230000010002F0D046000001F0
:1011100006000000F012000001000000F9000000CD
:10112000010000000212000001020000E440000083
:1011300002020000F52C0000020200000640000040
:1011400002060003D6D0000000010003E6E0000024
:101150000001010000EB14000002010000F924006E
:1011600000020100000734000002010000F9400005
:101170000002050002F0D0000000010002F0D028BB
:10118000000001010000F9440000020002F02014F8
:101190000001010002F0203C00010104000000F009
:1011A00012000001000000F9000000010000000230
:1011B00012000001030000003000000A05000100D9
:1011C00005000000010001000514000001000100FD
:1011D000EC00000101000100EC140001010000001E
:1011E000F92800010104000000E7000000010000F0
:1011F00000F9000000010000000B000000010200E7
:1012000000F51600000104000000F10000000100DC
:1012100000000300000001010000F11200000201C3
:10122000000003120000020500010005000001019A
:10123000000100EC14000001010000E73200000290
:10124000010000F9320000020100000B3200000230
:1012500005010000E724000002000000F012000079
:1012600001000000F900000001000000021200006F
:10127000010100000B240000020200000005000034
:1012800000010000000018000001000000FB5000F9
:101290000001000000F668000001050403040A09CB
:1012A00006050406090609060504020204080F05DE
:1012B0000406090701060504070807010F050404D1
:1012C000040F05060504060904090605040F0204B7
:1012D000090605040E0404060405040609090906A6
:1012E000D60DC20DAE0D9A0D860D720D220D0E0D8E
:1012F000FC0CFC0CFC0CFC0CFC0CFC0CAE0CFC0CFC
:101300007F1C4D1C1B1CE91BB91B891B591B291B6E
:10131000520E520E520E520E520E520E520E520ECD
:10132000EA0DEA0DEA0DEA0DEA0DEA0DEA0DEA0D05
:101330007F1C4D1C1B1CE91BB91B891B591B291B3E
:101340002F10FA0FC50F900F5B0F260FF10EBC0E7A
:10135000C818951862182F18FC17C9179617631725
:101360007F1C4D1C1B1CE91BB91B891B591B291B0E
:101370000503050507050205056E1171116E0503CC
:1013800001010301070505040E1F1F0A05050E04D0
:101390001F04044C0B00C63ACAA4D5E968F4EAF26B
:1013A000EAF2AAF4E9E9F4E874EAF29A64980146E8
:1013B00040800084D2C258C898A0928ADAC852C429
:1013C000902050B000000060108040A020A040801D
:1013D00040909040A020A020A04080905040A0A02D
:1013E000600406030401070707070605070707034C
:1013F0000706070707070707070607030406060788
:101400000707050607070702070705060705000285
:10141000000004040205060707060706070606077C
:10142000020706070607060605020403044C0B0024
:10143000C63ACAA4D5E968F4EAF2EAF2AAF4E9E9FC
:10144000F4E874EAF29A6498014640800084D2C2BB
:1014500058C898A0928ADAC852C4902050B00000B0
:101460000060108040A020A0408040909040A020CC
:10147000A020A04080905040A0A06004060304017A
:1014800007070707060507070703070607070707F4
:1014900007070706070304060607070705060707E9
:1014A00007020707050607050002000004040205FD
:1014B00006070706070607060607020706070607C8
:1014C000060605020403044C0B112E2912554B0B82
:1014D000972B272B272B174B4B174B172BA7AF13EC
:1014E0007F0055555555007F254F1F5F9FDF8B4F60
:1014F0002FCF9FDD1B5D0F030B1117074B7F13AF22
:10150000A72B174B174B4B172BA7AB272B970B4B27
:101510005512292E110000000000000000010101F9
:1015200001000000000000000000000002000000B8
:1015300000000002000001020002020200000000A0
:101540000202010000000000010200000000000093
:10155000000000000000000000000000000000008B
:10156000004C0B312E2912554B0B172B272B272AFA
:10157000174B4B170B172B272F130D423101000070
:101580006A50254F1B559FDF8A4F2FCF9BD51F5F7A
:101590000F030B111607CB37CF7FBF77BF7FBBBFC2
:1015A0007EAF7FBF7DBB7FB7BF5F2C99E61B01007D
:1015B000000000000000000000000000000000002B
:1015C000000000000000000000000000000000001B
:1015D00001020002020200000000020201000000FD
:1015E00003040001020202010001040401020202DC
:1015F0000202010004050102020300241608C43A95
:10160000CAA4D5E968D4D4D4E9E8F679F5E9D6A82E
:10161000E914E21C01980000000000000000000036
:10162000008038472897154B97972F554F574F579E
:101630002F1697AB25535C6300100080826098E8FA
:10164000EAD224C0000000000200000000000101F6
:1016500000000101020000001C200C1212152924B8
:1016600032092B0913150807001E10C0243ACAA41A
:10167000D5E968F4EAF2EAF2AAF4E9E9F4E874EAEE
:10168000F29A649801464080000039472817156B8C
:1016900097AF9E6F17972B2B2B964B0B374F5D2FCA
:1016A0002F56453906300022168040460198649A2C
:1016B000F2EA74A834A969F4AAF2AAF2EA6AB26A50
:1016C000F2EAF4A8E9D5A4CA3AC40070863945DE26
:1016D0003FFE57FBF3BBD79FD3BFFFFBFBBDFAFD1C
:1016E000DEECC8EBDDF9DB7FFF2847388000081708
:1016F00014092A25050A15131713170D0B020B1DC4
:101700000F25250B050B1513160906211800000BD4
:101710000DF80681A6B0B8181830604007081017F9
:1017200007070303010100090CF00E41CED0C08071
:1017300080800304080B03030101000910208000CE
:1017400000000000110402000000882000000009D1
:10175000100000001104000040008820000000007C
:10176000000401001E3EFEFEFCF8F8FCFEFF3F1FD9
:101770000F0000003C3E3F3F1F0F07070FCFFFFF4A
:101780007C7C7E0E000000000000000000000000D5
:101790000000000000000080C0FCFEFFFEFCF0C066
:1017A000C080C0E0F0E0000103077FFFFFFF7F1F64
:1017B000070703070F1F0F010000000000010000D2
:1017C00000000000000000000078F8F8F8F0E0C029
:1017D000C0E0E6FEFE7C7CFCE00000F0F9FFFF7F4D
:1017E0003F3F7FFFFFF9F0E0000000000000000035
:1017F00000000000000101010100000000000000E5
:10180000040EDEFEFFFEDE0E0400000000081C3E9B
:101810003E3F3F7FFFFFFF7F3F3F3E3E1C080000F3
:1018200000000000000001000000000000000000B7
:10183000E0FC7C7CFEFEE6E0C0C0E0F0F8F8F87862
:10184000000000E0F0F9FFFF7F3F3F7FFFFFF9F06E
:101850000000000001010101000000000000000084
:10186000000000E0F0E0C080C0C0F0FCFEFFFEFC25
:10187000C08000010F1F0F070307071F7FFFFFFF37
:101880007F070301000000000000000000000001CD
:1018900000000000000000000F1F3FFFFEFCF8F8F2
:1018A000FCFEFE3E1E00000E7E7C7CFFFFCF0F077D
:1018B000070F1F3F3F3E3C000000000000000000FB
:1018C00000000000000000002070F8F8F8F8FCFEAE
:1018D000FFFEFCF8F8F8F870200000000041E1F786
:1018E000FFFFFFF7E14100000000000000000000E2
:1018F0000000010000000000000000111100001CA9
:101900003CFCD8B070F8EC3E1E0E00000000001C3D
:101910001E1F0D07030307074F6C30380C00000033
:1019200000000000000000000000000000000000B7
:10193000111100008080FCEEFCF08080800000C06F
:10194000E00000000103037EEE7E1F03030301019C
:10195000070F010000000000000000000000000070
:10196000000000000011110070F0F060C08080C025
:10197000C0E46C1838600000000070797F371B1DD0
:101980003F6FF9F0E00000000000000000000000E0
:101990000000000000000000000011110000000025
:1019A00000040CCCFECC0C04000000000000081C5D
:1019B0001C161E1E7FE37F1E1E161C1C0800000046
:1019C0000000000000000000000000000000001106
:1019D0001100006038186CE4C0C08080C060F0F076
:1019E000700000000000E0F0F96F3F1D1B377F79A9
:1019F0007000000000000000000000000000000077
:101A00000000000011110000E0C00000808080F0A4
:101A1000FCEEFC8080008000010F0701010303033E
:101A20001F7EEE7E030301000000000000000000A6
:101A30000000000000000000001111000000000E76
:101A40001E3EECF870B0D8FC3C1C000000000C38C6
:101A5000306C4F07070303070D1F1E1C000000001A
:101A60000000000000000000000000000000111154
:101A700000207070D0F0F0FC8EFCF0F0D070702080
:101A8000000000000000406067FF67604000000049
:101A90000000000000000000000000000000000046
:101AA00000000080E0F0E0000A3F7F3F02000000FD
:101AB000000040F0F8F000127FFF7F0200000000FD
:101AC0000040FCFEFC4017FFFFFF12000103010075
:101AD00060FEFFFE702037FFFFFF77220003070341
:101AE000000005130080E00000000A3F0200000033
:101AF00000000005130040F0000000127F0200000B
:101B00000000000005130040FC40000017FF120019
:101B1000000001000006130060FE2020000037FFD7
:101B20002722000000030000000E0EEEE0E000801F
:101B3000DCDFFF677373700000E0E0FBBB3FE7E7AB
:101B4000E7070100C0DCDC1C000103030300000008
:101B50000000000001010100000F1F6FF4E8FCDE2F
:101B6000FFFFE7F07F1F47E040C0E8FECF0F67F7B9
:101B7000FFFF9F3D10C0E2F7620101010301000079
:101B800000010000030303000000001C1C7CFCFC9F
:101B9000F8F8FC3C1C00000000000038383E1F0F25
:101BA0000F070F1F1E1C00000000000000000000B7
:101BB00000000000000000000070F0F0FEFEFEF8E3
:101BC000F0F8F8FC7E3E0E000000F0FDFF7F7F3F46
:101BD0001F0F1F3F3F7C70700000010101000000DB
:101BE000000000000000000000101200040040008F
:101BF00000008088420001200000008040001100A9
:101C00000240020000000080080000000001000007
:101C100000000000000000000000001012060F0489
:101C200060C0C88C9EC7C060100200400080C0C861
:101C300006070363678F0D100000C06200000000FC
:101C40000100000000000000000100000010120070
:101C50000000001070E0E0F030080000000000001C
:101C6000000010080E070703070608000000000028
:101C70000000000000000000000000000000001054
:101C8000122060E0E0FCF8F0E0F0F078380C0000A2
:101C9000000000E07D3F3F1F0F070F1F1C3020009A
:101CA0000000000000000000000000000000000034
:101CB0000060FEFFFE702037FFFFFF772200030762
:101CC000030000000080F0FCFEFFFEFCF0F0F0706E
:101CD000F0F8F8F02002070F7FFFFFFFFFFF7F7F84
:101CE0007A70FFFFFFFF20000000000103070301DF
:101CF0000000000000000000000000A0FEFFFEFC4D
:101D000070F0F8F02002072FFFFFFFFF777FFF7FC3
:101D1000200000000307030100000000007070FEB7
:101D2000FFFE707277FFFFFF77000003070300706C
:101D3000F8F8F870FCFEFFFEF0000070FFFFFF7780
:101D4000FFFFFFFF7F070200000000000103070301
:101D500000000070F8F8F8F870F0F0F0FCFEFFFEFC
:101D6000FCF080000070FFFFFFFF707A7F7FFFFFB5
:101D7000FFFFFF7F0F0702000000000000000000CF
:101D800001030703010000000006130060FE20208D
:101D9000000037FF2722000000030000001213009C
:101DA00000000060FCFEFC606060202020F0F0205D
:101DB000000002070737FFFFFF3737322020207F60
:101DC0007F2000000000000001030100000000006F
:101DD00000000000000C1300000020FEFC2020206A
:101DE000F0200000020727FFFF272220FF2000002D
:101DF0000000000301000000000000061300202086
:101E0000FE6000002227FF37000000000300000CE6
:101E1000130020F0202060FCFE2000000000207F46
:101E2000202237FDFF25070200000000000000010E
:101E3000030000000012130020B0F020202060609A
:101E400060BC66BC600030000000206F7F20202056
:101E5000323735ED37ED350767020000000000002E
:101E6000000000000001030100000000000020B09D
:101E7000F0202020606060BC66BC60006000000054
:101E8000206F7F202020323735ED37ED35073702C0
:101E9000000000000000000000000001030100003D
:101EA0000000007CFEFFFFFFFFFFFFFEFFFE7C0047
:101EB00000010101010101010100000C09007C8207
:101EC00082AA92AA82848E740000000000000000A2
:101ED00000000000006E1A391A041ACF199A196509
:101EE000193019FB18C818951862182F18FC17C953
:101EF00017961763177F1C4D1C1B1CE91BB91B8908
:101F00001B591B291B351E0F1EFB1DD51D9D1DD5E5
:101F10001D891D0F1E531D2F1D1D1DF91CC31CF9EE
:101F20001CB11C2F1D7F1C4D1C1B1CE91BB91B89E0
:101F30001B591B291B151B041BF31AE21AD01AC1CB
:101F40001AB21AA31A080B000202020100090400C7
:101F50000001020200000524001001052401010116
:101F60000424020605240600010705810310004031
:101F700009040100020A00000007050202400000F7
:101F8000070583024000000403090412010002EF68
:101F900002014041233680000101020301417264C5
:101FA00075696E6F204C4C430041726475696E6FA9
:101FB000204C656F6E6172646F000080F8FC5EAF4C
:101FC000DEBC78F0C000001E7FFFAAD7AB57AF5F22
:101FD000FFFEF8E080EF7FBA55AB57AEDFFFF7E3C7
:101FE0004007FFFDEA57EF77FFFF7F070300000080
:101FF00003070D06070301000000000D2400008008
:10200000F85CAEDCB870C0000000001E7FAAD7AB41
:1020100057AF5FFEF8E00000806FBA55AB57AEDFF8
:10202000F7E340000007FDEA57EF77FF7F07030063
:10203000000000000305020301000000000001028F
:10204000040810204080713211241FBECFEFDAE067
:10205000DEBFCDBF11E0A0E0B1E0E8E1FEE602C0E6
:1020600005900D92A23BB107D9F727E0A2EBB1E0B2
:1020700001C01D92AC39B207E1F710E1C4E2D0E132
:1020800004C02197FE010E940F36C332D107C9F761
:102090000E94A2230C940A370C9400009F92AF92E6
:1020A000BF92CF92DF92EF92FF920F931F93CF9345
:1020B000DF93982E94EBE92E91E0F92E26EBC22EB9
:1020C00021E0D22EE601870135E0A32EB12CE98173
:1020D0004E2F50E04930510508F045C0FA01E25852
:1020E000FF4F0C940F368091120790911307B501A2
:1020F0000E94E735892BB9F1688170E020E04FE458
:1021000057E12CC08091120790911307B5010E94EE
:10211000E735892B41F1688170E020E04BE357E11E
:102120001DC0688170E020E047E257E117C0688178
:1021300070E020E04FE057E111C0688170E020E0DE
:1021400047EA56E10BC0688170E020E049E656E1BD
:1021500005C0688170E020E04BEF55E1F801808117
:1021600091810E94BF210C5F1F4FFFEFAF1ABF0A82
:10217000249629E0A216B10409F0A9CF8091E705C1
:102180008823A9F08091E605882319F047EC54E1F3
:1021900002C041E655E16091E505062E000C770B83
:1021A00020E08091E3059091E4050E94CC2180918C
:1021B000E2058823A9F08091E105882319F043E91D
:1021C00053E102C04DE254E16091E005062E000C9F
:1021D000770B20E08091DE059091DF050E94CC21F5
:1021E000911023C1C7EBD1E0B12C02EA10E086E0E8
:1021F000A82EF70180819181019791838083863A8F
:102200009F4F0CF091C08091C701843009F48CC0BD
:10221000F70111830083BB2019F03197808102C040
:102220008091C301863098F48091D101882329F0F0
:102230002DE030E040E050E004C020E130E040E03C
:1022400050E060E070E0CB010E94812006C06DE0AC
:1022500070E080E090E00E945D20962F9695963089
:1022600028F0862F6A2D0E94DB359A5F943088F023
:10227000963068F5988360E470E080E090E00E941A
:102280005D20DC01CB014097A109B109F6018083F3
:102290004BC098838091E205882361F02091E0058E
:1022A000022E000C330B28513109032E000C440B75
:1022B000550B04C028E230E040E050E08091E70593
:1022C00081111EC064E070E080E090E029C0988336
:1022D0008091E205882361F02091E005022E000C38
:1022E000330B26523109032E000C440B550B04C04E
:1022F00020E330E040E050E08091E705882361F082
:102300006091E505062E000C770B685E7F4F072E67
:10231000000C880B990B04C06AEF7FEF8FEF9FEFE3
:102320000E948120F6016083B394F4E0EF0EF11C6B
:1023300024E0C20ED11C249684E0B8125ACF8091BA
:10234000E705882379F08091E3059091E4050197F2
:102350009093E4058093E305863A9F4F5CF51092D5
:10236000E70528C068E270E080E090E00E945D2010
:10237000672B682B692BF1F481E08093E70582EAF3
:1023800090E09093E4058093E30564E070E080E0E2
:1023900090E00E945D20DC01CB010497A109B10906
:1023A0008093E50562E070E080E090E00E945D20AF
:1023B0006093E6058091E205882379F08091DE053F
:1023C0009091DF0501979093DF058093DE05863AB3
:1023D0009F4F5CF51092E20528C068E270E080E053
:1023E00090E00E945D20672B682B692BF1F481E05F
:1023F0008093E20582EA90E09093DF058093DE050A
:1024000064E070E080E090E00E945D20DC01CB01A0
:10241000C596A11DB11D8093E00562E070E080E0EB
:1024200090E00E945D206093E105DF91CF911F91C4
:102430000F91FF90EF90DF90CF90BF90AF909F9063
:102440000895EF92FF920F931F93CF93DF938091A4
:10245000DA019091DB0101968F31910528F4909378
:10246000DB018093DA0104C01092DB011092DA01E3
:102470008091CF019091D0010196813921E092079E
:1024800028F49093D0018093CF0104C01092D00122
:102490001092CF01E0900607F090070708E710E0E0
:1024A000C0E0D0E020E0AE01B8018FE097E00E94EC
:1024B000E1212196C034D105A9F70F5F1F4F0038E5
:1024C000110571F720E430E049E750E060E070E08A
:1024D00089E790E00E94911A20E04CE853E160E027
:1024E00070E08BE790E00E94CC21C70164E670E0C9
:1024F0000E94E735EC01660F771FFB01E959FE4F9B
:102500004081518120E066E070E08BE790E00E941E
:10251000CC21CE016AE070E00E94E735EC01660F45
:10252000771FFB01E959FE4F4081518120E06BE0AC
:1025300070E08BE790E00E94CC21CC0FDD1FC959E1
:10254000DE4F4881598120E060E170E08BE790E048
:102550000E94CC218091CF019091D00168EC70E075
:102560000E94E7356115710521F061307105F1F0C8
:1025700044C0809102079091030797FD02C0292F64
:1025800001C020E04EE165E873E187E10E94161B7F
:1025900080910B0790910C0797FD02C0292F01C075
:1025A00020E043E36EE773E18EE215C080910E07F1
:1025B000882331F08091DA019091DB010F9798F434
:1025C00080910A072BEA829F212D1124269547E24C
:1025D00060E773E182E2DF91CF911F910F91FF904D
:1025E000EF900C94161B20E047E753E168E170E0A0
:1025F0008BE790E00E94CC21E3CFDF91CF911F9138
:102600000F91FF90EF9008952F923F924F925F921B
:102610006F927F928F929F92AF92BF92CF92DF92F2
:10262000EF92FF920F931F93CF93DF93CDB7DEB757
:1026300062970FB6F894DEBF0FBECDBF8A8BA2E5BE
:102640002A2EA6E03A2EB5E48B2EB6E09B2E8DE422
:1026500096E09F878E87ABE5B6E0B98BA88BE4E563
:10266000F6E0F987E887FA89F11105C0D1018C916C
:10267000833029F41CC0F10180818330C1F4C4018E
:102680000E94FF21C4010E941A2329833A834B83AD
:102690005C8329813A818B819C81AE85BF854C9179
:1026A000442329F0A889B9894C91442399F1FEE18A
:1026B0002F0E311C2EE1820E911C8E859F854E9629
:1026C0009F878E87A889B9895E96B98BA88BE88584
:1026D000F9857E96F987E887F6E02F16F7E03F0642
:1026E00011F662960FB6F894DEBF0FBECDBFDF9134
:1026F000CF911F910F91FF90EF90DF90CF90BF90FF
:10270000AF909F908F907F906F905F904F903F9091
:102710002F900895A901460F511D141615063CF679
:102720002038310524F69C01270F311D37FDBFCF1E
:10273000803491050CF0BBCFF101F081FF83F330C1
:1027400009F031C18091F9069091FA06A091FB063B
:10275000B091FC063D01E9E06E0E711C8091FD0612
:102760009091FE06A091FF06B09100078D01075FD2
:102770001F4FF40180819181A281B3817D01FDE130
:10278000EF0EF11CF40184819581A681B7815D0172
:10279000DD24B7FCD094CD2CC4010E9404236E1814
:1027A0007F08869590E08A0D9B1D2801481A590ADA
:1027B0006114710409F43FC0C201550CAA0BBB0B94
:1027C000DC01992788276C017D01FF0CCC08DC2CEB
:1027D00076019C01AD016C2D7C2D8C2D9C2D00E192
:1027E0000E94EC366301770CEE08FF088601FF2497
:1027F000EE2457016801DD0CAA08BA2C6501AA86EF
:10280000BB86CC86DD8657016801EA84FE2C0E2D3E
:102810001E2D0E941736F22FE32F8F2F9E2FA42FED
:10282000B52FB7FF0CC0B095A095909581959F4F9F
:10283000AF4FBF4F04C080E090E0A7EEB3E01414A8
:102840005CF1161474F4AC01BD01415051096109E9
:10285000710947305A466105710508F059C082E098
:1028600073C0662071F0AC01BD014150510961098E
:10287000710947305A466105710508F058C096E065
:1028800071C08B5F9946A240B10985309649A44E2C
:10289000B340C0F51F8267C0161474F4AC01BD01CB
:1028A000415051096109710947305A466105710566
:1028B00098F4B2E0BF8357C06620C9F0AC01BD01F7
:1028C000415051096109710947305A466105710546
:1028D000E8F5E6E0EF8347C0AC01BD0149505A4638
:1028E00061097109413F5F4F61407105E0F18B5F04
:1028F0009946A240B10986309649A44EB34028F4C7
:1029000024E013C0A9E0AF832EC0F9E0FF832BC001
:10291000AC01BD0149505A4661097109413F5F4F01
:102920006140710508F0ADCF21E02F831CC0AC01E0
:10293000BD0149505A4661097109413F5F4F6140ED
:10294000710508F09ECF87E08F830DC0AC01BD01FB
:1029500049505A4661097109413F5F4F6140710515
:1029600030F695E09F83A885B9858C91BF81B930F9
:10297000B9F0B817A9F09F81692F70E0482F50E097
:102980009B01241B350BF90133963797A8F51216D6
:102990001306D4F1932F991F9927991F09F04BC063
:1029A000E885F9858083D401CD90DD90ED90FC9091
:1029B000139714964D905D906D907C901797EE85CF
:1029C000FF858081882309F472CEA889B9898C910A
:1029D00081116DCE6701FF24D7FCF094EF2C8601A6
:1029E000C4010E940F2390E08C0D9D1D97FD5FCECA
:1029F0000038110534F15BCE9B01285F3F4F241B4B
:102A0000350B121613067CF4873011F08F5F01C06E
:102A100080E0482F50E09B01241B350BF9013396D1
:102A2000379708F4B7CF28EF3FEF241B350B620F21
:102A3000731F972FB0CF882311F08150B1CF87E05B
:102A4000AFCF2301772457FC7094672CD4011B96D9
:102A50004D915C911C97E885F9853197E081F0E014
:102A60003896CF01880F991FFA01E80FF91F2591B9
:102A70003491FC017097E40FF51F4591549100E0EB
:102A8000B201C6010E94641AF1018081833031F4E1
:102A9000A885B985EC91E63009F086C0F4018185FE
:102AA0009285181619060CF44CC08054910992872F
:102AB00081872285822F022E000C990B97FF03C07D
:102AC0009195819591092F3FDCF42D3F24F52C3F02
:102AD00009F037C0D4011B968D919C911C97FC0185
:102AE000BE9625913491FC01B6964591549100E033
:102AF000B201C6010E94641AEE85FF85108221C0D2
:102B00001216FCF0D4011B964D915C911C97FC01B0
:102B10007496CF0104C0F401438554854496880F10
:102B2000991FFA01E80FF91F25913491FC0138979C
:102B3000E40FF51F4591549100E0B201C6010E94D7
:102B4000641AD40152968D919C91539718161906C8
:102B50000CF0ADCD923071F0933011F09130E1F482
:102B6000F40183859485FC01B89625913491FC018C
:102B7000B0960BC0D4011B968D919C911C97FC01C3
:102B8000BA9625913491FC01B2964591549100E09A
:102B9000B201C6010E94641AF401828993898054AB
:102BA0009140938B828B83CDD4011B964D915C9188
:102BB0001C97F0E03896CF01880F991FFA01E80FB3
:102BC000F91F25913491FC017097E40FF51F459191
:102BD000549100E0B2016D5F7F4FC60148960E949C
:102BE000641A5CCFCF92DF92EF92FF920F938091A5
:102BF0003B06882309F44BC040913C0650913D06AA
:102C0000052E000C660B770B762F652F542F44276B
:102C10008091330690913406A0913506B091360626
:102C2000841B950BA60BB70B809333069093340649
:102C3000A0933506B0933606CD01BB2797FDB0951E
:102C4000AB2F9C01AC01485F5F4F48385105D0F471
:102C5000209143063091440640914106509142062E
:102C6000C0903706D0903806E0903906F0903A06CA
:102C70006701FF24D7FCF094EF2C00E0B6010E941E
:102C8000641A05C0283F3F4F14F410923B060F9181
:102C9000FF90EF90DF90CF900895CF93DF93C82FF0
:102CA00088EC90E00E94BA33D82F89EC90E00E9423
:102CB000BA33D43321F4833311F4CC2319F164E310
:102CC00088EC90E00E94C23363E389EC90E00E94BC
:102CD000C23360E08AEC90E00E94C23360E070E0B2
:102CE0008CEC90E00E94D43360E070E08EEC90E0D9
:102CF0000E94D43360E070E080ED90E0DF91CF91EE
:102D00000C94D433DF91CF9108957F928F929F924C
:102D1000AF92BF92CF92DF92EF92FF920F931F93E9
:102D2000CF93DF93CDB7DEB76E970FB6F894DEBFC3
:102D30000FBECDBFB82E882349F081E08093B30148
:102D4000FB0184918093C5018093CE018091B301F2
:102D500091E0980F9093B301FB01E80FF11D64918E
:102D6000E62FEF70E093CD01607F6093D101F0E03A
:102D7000EE0FFF1FE75BFE4F0190F081E02D1092F8
:102D80004D0610926B06109289061092A7061092BB
:102D9000C5061092E306849005E4E02E06E0F02ECE
:102DA0008F010E5F1F4F8BE5C82E86E0D82E912C29
:102DB0009EE1A92E25E0722E981409F480C0F80136
:102DC0003197E491E130E1F0B8F0E23049F1E330DD
:102DD00059F540EE52E163E0CE0101960E944F2387
:102DE000FE013196D7018A2D01900D928A95E1F767
:102DF000F6013797708218C045ED5EE160E003C0D0
:102E000040E453E161E0CE0101960E944F23FE01B0
:102E10003196D7018A2D01900D928A95E1F704C071
:102E200040E153E162E0EFCFF8018491E82FF0E058
:102E3000EE0FFF1FE75DFE4F80819181D7015A960B
:102E40009C938E93599758961C921E925797F8010F
:102E50003196E491D6011697EC93F8013296E491FD
:102E60001196EC93F8013396E491D601EC93F801B6
:102E70003496E491F60131971082F8013596E49189
:102E8000F8013696E491D70119961C9219971A9673
:102E9000EC931A9753961C921E925297F6013E9706
:102EA00081E08083C7010E94FF219394BEE1EB0E75
:102EB000F11C085F1F4FEEE1CE0ED11C7DCF80913B
:102EC000C50181508093C501BB2009F474C0809175
:102ED000C60190E0FC01EA5BFE4F20816091000199
:102EE00070910101620F711D27FD7A9570930101A8
:102EF00060930001FC01ED5BFE4F2081022E000C6F
:102F0000330B4091020150910301420F531F509324
:102F10000301409302014091040150910501240FE7
:102F2000351F309305012093040120910A0130914F
:102F30000B012130F5E23F076CF0FC01EE0FFF1FA3
:102F4000E35CFE4F40815181241B350B30930B0114
:102F500020930A012091060130910701213047E0BA
:102F600034076CF0FC01EE0FFF1FE95CFE4F40815F
:102F70005181241B350B30930701209306012091CA
:102F80000801309109012130A7E03A076CF0880F61
:102F9000991FFC01EF5CFE4F80819181281B390B4A
:102FA0003093090120930801772788EE93E00E946F
:102FB000FB35609316076E960FB6F894DEBF0FBE12
:102FC000CDBFDF91CF911F910F91FF90EF90DF90D8
:102FD000CF90BF90AF909F908F907F9008959091E9
:102FE000CC01E92FF0E09F01220F331FE20FF31F06
:102FF000EA5FF94F8E5E8083675F6183406F428333
:1030000080910A07815080930A079F5F9F3019F0D3
:103010009093CC0108951092CC0108952FB7F894A5
:1030200083E08093E9009091E800892F807295FFFA
:1030300004C09091F20080E4891B2FBF0895CF93C4
:10304000DF931F92CDB7DEB76983DC01ED91FC9170
:103050000280F381E02D41E050E0BE016F5F7F4FC1
:1030600009950F90DF91CF91089583E08093E90057
:103070008091F200882319F08AE38093E800089594
:103080000E940E1890E008958F929F92AF92BF9287
:10309000CF92DF92EF92FF920F931F93CF93DF9324
:1030A0005C016B017A0180911601882309F45BC0F1
:1030B0008091D501882309F456C08091D30180FF07
:1030C00005C08091E00082608093E000E70110E09D
:1030D0000AEF83E0882E9AE3992E2097D9F10E9477
:1030E0000E1881110AC0015009F43DC061E070E082
:1030F00080E090E00E94C820F0CF282F30E0C21777
:10310000D3070CF48C2F4FB7F8948092E90090917C
:10311000E80095FF1DC0282F30E0C21BD30BF6013D
:10312000982F915020F081918093F100FACFC20E38
:10313000D31E112319F09092E80009C08091E80095
:1031400085FD06C09092E80011E0209709F010E09C
:103150004FBFC3CF1111C3CF5D9884E68093D201D6
:103160001E141F0444F081E090E0F50193838283F4
:1031700080E090E001C0C701DF91CF911F910F91D6
:10318000FF90EF90DF90CF90BF90AF909F908F9087
:103190000895CF93DF9300D000D000D0CDB7DEB735
:1031A000E9EFF6E080819181A281B381CD010196A2
:1031B000282F9A83898384819581A681B781CD0147
:1031C0000196482F9C838B8383859485FC016591B0
:1031D0007491FB0164916250FC0185919491FC0112
:1031E0003196749172503A815C8180E090E026962D
:1031F0000FB6F894DEBF0FBECDBFDF91CF9108951B
:103200002F923F924F925F926F927F928F929F92F6
:10321000AF92BF92CF92DF92EF92FF920F931F93E4
:10322000CF93DF9300D000D000D0CDB7DEB7ED82D2
:103230004115510509F42FC1FA0134913196E491F9
:103240004E5F5F4FC32ED12C222311F1AE2FA695D6
:10325000A695A695AA2EB12CA1E0B0E0FE2FF7709E
:1032600011F4A0E0B0E0AA0DBB1DCA9E5001CB9E98
:10327000B00CDA9EB00C1124FD81F33011F4AA0CCD
:10328000BB1C2A9DD0012B9DB00D11244A0F5B1F42
:103290002D812F3F39F40115110511F021E001C0F6
:1032A00022E02D835C01AC0CBD1C1A141B040CF035
:1032B000F2C0803891050CF0EEC0DB01AE0FB11DFD
:1032C0001A161B060CF0E7C0603471050CF0E3C061
:1032D0004115510509F4DFC0F62FF7706F2EDB01A1
:1032E00077FD179623E0B595A7952A95E1F7FA2F74
:1032F00077FF04C0662011F0FFEFFA0F97FF05C0BB
:10330000AA27BB27A81BB90B02C0A0E0B0E020E8A9
:10331000A216B10424F020E8722E781A01C0732E90
:103320007A1A6F2F0F2E000C770BFF3F1CF4E62E3E
:10333000E09401C0E12C992493942E2F277009F476
:10334000912CE695E695E6959E0E690D711D693006
:1033500071051CF0E8E09E2E9F1AFE2CFF0E6F2DCB
:1033600020E86203800D911D11248A0F9B1F61E0EC
:1033700070E0062C02C0660F771F0A94E2F72D81D9
:10338000233011F0E1E001C0E2E0C718D108EC9D64
:10339000802C1124CE2ED12CE39EA00DB11D112422
:1033A000CA9E9001CB9E300DDA9E300D11245A0139
:1033B000A20EB31E0115110509F0A801D60111973F
:1033C0002A0F3B1F420F531FAFEFA69F9001A79FED
:1033D000300D1124290140945094F90DFE83282DBD
:1033E00030E0E79D200D311D1124EE81FE1609F419
:1033F00052C0DC01A452BE4F4A018501E12CE71402
:1034000009F441C0F8013490369EF001379EF00D6A
:103410001124FA83E983E095F095FC83EB83FD8129
:10342000F23019F45C824B8211C0ED81EB3F19F44C
:103430001A8219820BC0F4013490369EF001379E37
:10344000F00D1124E095F095FC83EB83F7FC06C0AA
:10345000FC91EB81EF23F981EF2BEC93662061F077
:10346000F6E0FF154CF0FD01E058FF4F20803C8056
:1034700023203A80322830828C0C9D1C0C0D1D1D9F
:10348000E3941196BCCFF394A20EB31E420F531FC8
:1034900080589F4FAACF26960FB6F894DEBF0FBE76
:1034A000CDBFDF91CF911F910F91FF90EF90DF90F3
:1034B000CF90BF90AF909F908F907F906F905F90D4
:1034C0004F903F902F900895EF920F931F93F90123
:1034D000202FEE24E3948F010E9400191F910F9179
:1034E000EF90089565E070E080E090E00C94C820D3
:1034F0000F931F93CF93DF93C82FD62F042F10E085
:10350000DC1750F04C2F50E021E0B8018FE097E03D
:103510000E94E121CE5FF4CFDF91CF911F910F91F7
:1035200008955F926F927F928F929F92AF92BF9217
:10353000CF92DF92EF92FF920F931F93CF93DF937F
:10354000EC018B017A01A901461B570B57FF03C001
:10355000519541955109C7018C1B9D0B97FF03C0E5
:10356000919581959109552453948417950714F0EA
:10357000512C0AC09E2D8F2D7901292F382F9C2F79
:103580008D2FE801092F182FEC16FD0654F4902F0B
:10359000812F8901292F382F9C2F8D2FE701E92EAC
:1035A000F82E37016C1A7D0A5901A01AB10AB7FE2C
:1035B00003C0B194A194B108630177FE03C08FEFFB
:1035C000C81AD80AD594C7940217130714F08FEFBE
:1035D00001C081E0882E880F9908EC16FD06B4F032
:1035E00021E0552019F0AE01B80102C0A801BE01CA
:1035F0008FE097E00E94E121CA18DB08D7FE04C0E3
:10360000080D191DC60CD71C2196E7CFDF91CF916D
:103610001F910F91FF90EF90DF90CF90BF90AF90F0
:103620009F908F907F906F905F9008950F931F935E
:10363000CF93DF93042FD22F90E020E0AB01BC01A9
:103640008BE790E00E94CC21D53030F48091DA01F4
:103650009091DB010F9780F0C0E010E0CD1760F48F
:10366000B8016C0F711D9B0140E850E08BE790E0C2
:103670000E94911ACE5FF2CFDF91CF911F910F91EF
:103680000895ECEDF1E0A0E0B8E000800EBC8111FF
:10369000012C1197A0FDFDCF0192B9F70DB408954B
:1036A0008FB7F8944091D6015091D7016091D8011D
:1036B0007091D9018FBF80911707942F981B80912B
:1036C0001807882331F0909319071092180780E0AB
:1036D000089520911607921740F49F5F9217A0F467
:1036E00091E093BF889513BE089581E080931807F9
:1036F00040931707809112079091130701969093BA
:1037000013078093120781E008952091150728235D
:1037100029F490911407982381E009F480E008953A
:10372000FC018091D501811103C08FEF9FEF0895B7
:103730009FB7F89482E08093E9002091F20030E096
:103740001216130614F421E030E02115310559F06A
:10375000289884E68093D4018091F1008083809141
:10376000F200882319F09FBFC90108958BE680936A
:10377000E800F9CF80911E0781110DC082E080938F
:103780001A0784E080931B0710921D0710921C07F4
:1037900081E080931E078AE197E00895FC0184850B
:1037A000958597FD0BC09FB7F89482E08093E90060
:1037B0008091F2009FBF90E0019608959FB7F89422
:1037C00082E08093E9008091F2009FBF90E008952D
:1037D000409188075091890720918607309187078B
:1037E00042175307B4F49091E8009570E1F390917B
:1037F000E80092FD19C08093F100809188079091B4
:10380000890701968F739927892B19F48EEF80937E
:10381000E800809188079091890701969093890725
:103820008093880781E0089580E00895DF92EF9209
:10383000FF920F931F93CF93DF93D82E8A017B01C2
:10384000E40EF51EEB01CE15DF0571F0D7FE03C0C7
:10385000FE01849101C088810E94E81B219681119C
:10386000F2CF8FEF9FEF01C0C801DF91CF911F9181
:103870000F91FF90EF90DF900895615030F020910C
:10388000F100FC0120830196F8CF289884E680930C
:10389000D4010895CF93DF931F92CDB7DEB7FC011B
:1038A0008485958597FD05C02FEF3FEF35872487E9
:1038B0000BC0CE0101960E94901B019719F48981DB
:1038C00090E002C08FEF9FEF0F90DF91CF910895AE
:1038D0000F931F93CF93DF931F92CDB7DEB78C0169
:1038E000FC018485958597FF0EC0CE0101960E944C
:1038F000901B019719F4298130E002C02FEF3FEFB0
:10390000F80135872487F801848595850F90DF912C
:10391000CF911F910F9108950F931F93CF93DF9332
:103920001F92CDB7DEB782E0898342E450E065E4C0
:103930007FE180E80E94161C0E94BA1BDC011296EF
:103940000D911C9113970115110569F0D801ED91A6
:10395000FC910280F381E02DBE016F5F7F4FC801B3
:10396000099597FF07C089810F90DF91CF911F9133
:103970000F910895F80100851185E5CF1F920F92F0
:103980000FB60F9211248F939F938091E100909135
:10399000E100937F9093E10083FF0FC01092E90054
:1039A00091E09093EB001092EC0092E39093ED0085
:1039B0001092D50198E09093F00082FF20C093E030
:1039C0009093E9009091F200992319F09AE3909373
:1039D000E8009091D201992339F09091D201915051
:1039E0009093D201992389F19091D401992339F0D0
:1039F0009091D40191509093D401992341F184FF87
:103A000010C08091E2008E7E81608093E200809100
:103A1000E1008F7E8093E1008091D3018E7E8061F2
:103A200011C080FF16C08091E2008E7E806180937D
:103A3000E2008091E1008E7E8093E1008091D301CD
:103A40008E7E81608093D30104C05D9ACDCF289A89
:103A5000D6CF9F918F910F900FBE0F901F9018950A
:103A60001F920F920FB60F921124CF92DF92EF9216
:103A7000FF920F931F932F933F934F935F936F93F7
:103A80007F938F939F93AF93BF93EF93FF93CF93C6
:103A9000DF93CDB7DEB76C97DEBFCDBF1092E900E4
:103AA0008091E80083FFEDC168E0CE0145960E9459
:103AB0003D1C82EF8093E8008D8987FF05C09091BF
:103AC000E80090FFFCCF03C09EEF9093E800982F92
:103AD000907609F0C6C09E892F89188D91110CC06F
:103AE000803829F4809185078093F10002C01092FC
:103AF000F1001092F10048C1422F50E0512B91305B
:103B000051F4811141C14130510509F03DC180910D
:103B100085078D7F0BC0933061F4811135C1413031
:103B2000510509F031C18091850782608093850736
:103B30002BC1953041F48091E80080FFFCCF2068D4
:103B40002093E30021C1963009F05FC0EB8CFC8C20
:103B50001092E9001092890710928807123091F5AF
:103B600010928707109286070E948C1C99E0BE0174
:103B70006F5F7F4FDB01E92F1D92EA95E9F799838B
:103B80001A8391E09E8390EA98879AEF9987209113
:103B9000880730918907275F3F4F3C832B838D83B4
:103BA0001092E9001092890710928807F092870717
:103BB000E092860749E050E080E00E94161C0E94D7
:103BC0008C1CE2C0F0928707E09286070E94BA1B25
:103BD000DC011296ED90FC901397E114F10409F4C6
:103BE000C0C0D701ED91FC910480F581E02DBE01AC
:103BF0006B5E7F4FC7010995009719F00CF0C4C0A8
:103C0000C7C0F701E084F184E8CF973009F4C0C061
:103C1000983021F481E08093F100B6C0993009F02A
:103C2000B3C0837009F0B4C0E4E9F1E081E021E0C1
:103C300036E39081992361F08093E9002093EB00B3
:103C400091919093EC003093ED008F5F873089F76E
:103C50008EE78093EA001092EA008F898093D50165
:103C600093C08B8D9C8D1092E90010928907109261
:103C700088079093870780938607898D811156C0A6
:103C80008E899D89913A59F4813209F081C047E0CB
:103C900050E06FE071E080E00E94161C75C0913228
:103CA00009F076C0833289F4888D90E0982F8827B8
:103CB0002F89822BA0E0B0E0809317019093180128
:103CC000A0931901B0931A015FC0803269F480910A
:103CD000E80082FFFCCF67E08FE091E00E943D1C8E
:103CE0008BEF8093E80006C0823209F04DC08F89C7
:103CF0008093160180918407882319F0EEEFFAE093
:103D000002C0E0E0F8E080910F0190911001A091D5
:103D10001101B0911201803B9440A105B10509F059
:103D20007BC08091160180FF93C076C00E94BA1BB1
:103D3000DC0112960D911C9113970115110541F1AB
:103D4000D801ED91FC910190F081E02DBE016B5EF8
:103D50007F4FC8010995811117C0F80100851185B1
:103D6000ECCF113009F44EC0133091F48F898823C1
:103D700009F445C0823081F440E860E189EA9FE1BE
:103D80000E942133882321F08EEF8093E80079C0D0
:103D900081E28093EB0075C0813029F440E86BE04C
:103DA0008DE99FE1EDCF833099F70E94BA1BDC01CA
:103DB0001296ED90FC9013978E010F5F1F4F6801D4
:103DC000E114F10479F0D701ED91FC910680F781BF
:103DD000E02DB801C7010995080F111DF701E08416
:103DE000F184EECFD8011C92F60101900020E9F792
:103DF0003197BF016C197D0940E0C601C1CF67E86A
:103E00007FE102C06BE87FE16115710509F2FB01FA
:103E1000449150E080E840CF0FB6F894A895809187
:103E20006000886180936000109260000FBEA895CA
:103E3000EE3F2AE0F20739F08091FE0A9091FF0AE6
:103E400091838083A1CF1092FF0A1092FE0A9CCF2B
:103E5000EE3F8AE0F80731F0808191819093FF0A6C
:103E60008093FE0A87E797E7918380839BE088E150
:103E70000FB6F894A895809360000FBE90936000F1
:103E800083CF6C960FB6F894DEBF0FBECDBFDF9127
:103E9000CF91FF91EF91BF91AF919F918F917F91C2
:103EA0006F915F914F913F912F911F910F91FF90D3
:103EB000EF90DF90CF900F900FBE0F901F9018954E
:103EC000CF92DF92EF92FF920F931F93CF93DF93E6
:103ED0006C017A018B01C0E0D0E0CE15DF0589F0DE
:103EE000D8016D918D01D601ED91FC910190F08189
:103EF000E02DC6010995892B11F47E0102C021969F
:103F0000ECCFC701DF91CF911F910F91FF90EF9000
:103F1000DF90CF90089580919007E0918E07F09107
:103F20008F07882349F0CF01029690938F078093E3
:103F30008E07859194910895CF01029690938F07F3
:103F400080938E07808191810895CF92DF92EF92C6
:103F5000FF920F931F93CF93DF930E948B1F8115C6
:103F600020E8920761F4809171008D7F8093710049
:103F700010929100469847981092C4018BC021E09E
:103F80002093C401813020E8920751F480918C077E
:103F900090918D0790938F0780938E070E948B1FBF
:103FA00097FD05C020918B07222309F43FC0209183
:103FB0008A0721113BC021E020939107EC01DF77B4
:103FC000209769F481E08093920746983FE9C32ED9
:103FD0003FE0D32EE12CF12CCAEFD0E014C08E01CB
:103FE00020E030E060E472E48FE090E0A901980105
:103FF0000E94DA3369017A0181E0C81AD108E10828
:10400000F10810929207E091DC05F091DD05099529
:10401000811103C081E080939207809191078823EA
:10402000B9F180919207811133C003C010929107BA
:10403000C5CF46992DC0479A0E948B1F009771F0FB
:104040009C01DE010E942E34DC01CB0129E0B595F4
:10405000A795979587952A95D1F703C08FEF9FEF86
:10406000DC01109290002AE020939100D0929900F8
:10407000C09298008093930790939407A09395071C
:10408000B09396078091710082608093710002C0A6
:104090004798D2CFDF91CF911F910F91FF90EF9072
:1040A000DF90CF9008958091B2010895089508950A
:1040B00080E090E008950E940537CF93DF9300D011
:1040C00000D0CDB7DEB7611571058105910579F096
:1040D0009B01AC0169833A834B835C830E94AC33C0
:1040E00029813A814B815C810E94DA3303C060E010
:1040F00070E0CB010F900F900F900F90DF91CF9158
:104100000895CF92DF92EF92FF920F931F93621761
:1041100073078407950784F489019A016B017C0178
:10412000C901B8016C197D098E099F090E945D20A3
:104130006C0D7D1D8E1D9F1D1F910F91FF90EF90A7
:10414000DF90CF9008953FB7F894809198079091B1
:104150009907A0919A07B0919B0726B5A89B05C027
:104160002F3F19F00196A11DB11D3FBFBA2FA92FF6
:10417000982F8827820F911DA11DB11DBC01CD0173
:1041800042E0660F771F881F991F4A95D1F708955F
:104190008F929F92AF92BF92CF92DF92EF92FF9257
:1041A0006B017C010E94A3204B015C01C114D1046E
:1041B000E104F104F1F00E94A320DC01CB01881995
:1041C0009909AA09BB09883E9340A105B10570F37E
:1041D00021E0C21AD108E108F10888EE880E83E0D8
:1041E000981EA11CB11CC114D104E104F10419F7FB
:1041F000DDCFFF90EF90DF90CF90BF90AF909F907A
:104200008F9008951F920F920FB60F9211242F9343
:104210003F938F939F93AF93BF938091D6019091DB
:10422000D701A091D801B091D9013091970723E02F
:10423000230F2D3720F40196A11DB11D05C026E8DE
:10424000230F0296A11DB11D209397078093D601DD
:104250009093D701A093D801B093D901809198078A
:1042600090919907A0919A07B0919B070196A11D83
:10427000B11D8093980790939907A0939A07B093E4
:104280009B07BF91AF919F918F913F912F910F907D
:104290000FBE0F901F9018951F920F920FB60F929E
:1042A00011242F933F934F935F936F937F938F933B
:1042B0009F93AF93BF93EF93FF9380919307909158
:1042C0009407A0919507B0919607892B8A2B8B2B89
:1042D00081F18091920781110BC098B180E4892708
:1042E00088B980919107882319F088B1805888B9DE
:1042F0008091930790919407A0919507B0919607AC
:10430000181619061A061B06B4F4809193079091AB
:104310009407A0919507B09196070197A109B1095B
:104320008093930790939407A0939507B093960773
:1043300002C00E94A51FFF91EF91BF91AF919F9185
:104340008F917F916F915F914F913F912F910F903E
:104350000FBE0F901F9018959C01E1E7F0E090814F
:104360009D7F908381E08093900730938F07209307
:104370008E0730938D0720938C070C94A51FEF9226
:104380000F931F933AEFE32E00E010E00E94001914
:104390001F910F91EF900895EF920F931F9332E0CA
:1043A000E32E00E010E00E9400191F910F91EF90A2
:1043B00008958FB18095807F669B88601C9B846088
:1043C000089560387105D0F440345105B8F4EEE337
:1043D000F0E280E1849FD001A0781124A60F4770FD
:1043E000E40FF11D8491A452BE4F222319F06C9169
:1043F000862B03C080956C9186238C930895CF9271
:10440000DF92EF92FF920F931F93CF93DF93EC0114
:104410008885882309F4EFC08E89882311F08150A4
:104420008E8B8E898111E7C02B8D2111AAC0498DF9
:104430005A8DEF88F88CF7013296E40FF51F04913E
:10444000FA01EE0DFF1D849197012F5F3F4FFA0196
:10445000E20FF31F14919D89292F207FC22EE82F90
:1044600009F0E1959F70D92E09F01195013809F4F2
:1044700086C0083008F051C06889062E000C770B02
:104480006E0F711DE7FD7A95072E000C880B990BB6
:104490000E94E23420E030E040E852E40E943E34E2
:1044A00020E030E040E857E40E946E350E94AA34D4
:1044B000688379838A839B836989062E000C770B36
:1044C000610F711D17FD7A95072E000C880B990B53
:1044D0000E94E23420E030E040E052E40E943E34AA
:1044E00020E030E040E857E40E946E350E94AA3494
:1044F0006C837D838E839F838D85833019F486E062
:104500008E8701C00E87CC2009F468C0EE85D110DB
:104510006CC0F0E0E655FE4F6BC0EC8F1D8F8E2F08
:10452000EE0F990BAA0BBB0BDC019927882748815A
:1045300059816A817B81840F951FA61FB71F8883CD
:104540009983AA83BB83812F110F990BAA0BBB0BF5
:10455000DC01992788274C815D816E817F81840FE2
:10456000951FA61FB71F8C839D83AE83BF83015009
:104570000B8F83E0E80EF11CF88EEF8A3CC01886A2
:104580003AC08C8D082E000C990BAA0BBB0BDC01DA
:1045900099278827488159816A817B81840F951FDB
:1045A000A61FB71F88839983AA83BB838D8D082E8E
:1045B000000C990BAA0BBB0BDC01992788274C81B7
:1045C0005D816E817F81840F951FA61FB71F8C832D
:1045D0009D83AE83BF8321502B8F0DC0DD2049F218
:1045E000EE85F0E0EE55FE4F03C0F0E0E656FE4FDC
:1045F00080818E87BECFDF91CF911F910F91FF9069
:10460000EF90DF90CF900895DC011B96ED91FC9127
:104610001C973E9685919491FC0184910895DC014C
:104620001B96ED91FC911C973C9685919491FC0111
:10463000849108950F931F93CF93DF9300D000D000
:1046400000D0CDB7DEB78C01FC0180819181A281C1
:10465000B381CD0101969A83898384819581A68156
:10466000B781CD0101969C838B83C8010E940F23E3
:104670008D83C8010E94042329813A814B815C818A
:104680006D81782F80E090E026960FB6F894DEBF1B
:104690000FBECDBFDF91CF911F910F910895FC0107
:1046A000108211821282138214821582168217825E
:1046B0001286118654874387138A128A658710866B
:1046C00083E0848B138E86E0878708950F93CF93C2
:1046D000DF93C0E0D0E0FE01EC54FE4F83818430D4
:1046E00059F4628170E000E02AEB3FE14BEF5FE1BB
:1046F000808191810E94641A2496C031D10559F7B6
:10470000DF91CF910F9108950F93CF93DF93C0E086
:10471000D0E0FE01EC54FE4F8381853059F4628174
:1047200070E000E02AEB3FE14BEF5FE18081918197
:104730000E94641A2496C031D10559F7DF91CF91B8
:104740000F910895CF93DF93CDB7DEB7A6970FB63D
:10475000F894DEBF0FBECDBF789484B5826084BD6F
:1047600084B5816084BD85B5826085BD85B5816075
:1047700085BD80916E00816080936E0010928100F3
:1047800080918100826080938100809181008160AE
:10479000809381008091800081608093800080916F
:1047A000910082608093910080919100816080935C
:1047B0009100809190008160809390008091C10071
:1047C00084608093C1008091C10082608093C100A9
:1047D0008091C10081608093C1008091C30081609D
:1047E0008093C3008091C00082608093C00080915C
:1047F000C20081608093C20080917A0084608093BF
:104800007A0080917A00826080937A0080917A00A9
:10481000816080937A0080917A00806880937A002A
:104820001092D501109285071092D3018091D70084
:1048300081608093D70080EA8093D80089B5806139
:1048400089BD89B5826089BD09B400FEFDCF61E0F4
:1048500070E080E090E00E94C8208091D8008F7CBA
:1048600080618093D8008091E000807F8093E00099
:104870008091E1008E7E8093E1008DE08093E200E4
:10488000559A209AEEEFFFE7859194918B3F9C4DCE
:1048900019F481E08093840780E00E944D1681EC3A
:1048A00080937C0085B1806F85B984B1877E84B99F
:1048B00084B1876E84B95E9A5F988AB1806D8AB937
:1048C000769A6E9881B3806F81BB899880B38D7022
:1048D00080BB80E58CBD81E08DBD0E94721A5F9A1D
:1048E0000E94721A5E985C98EAE5F1E08DE08E0F06
:1048F00094919EBD00000DB407FEFDCF31968E133E
:10490000F7CF5C9A81E880936400809165008160B4
:10491000809365000E94D92187FF15C05C9885EAC5
:104920008EBD00000DB407FEFDCF5C9A2E982F9827
:104930002D988091640080628093640081E083BF41
:10494000889513BEFCCF82E090E00E94BA338823A2
:1049500031F03E9A3F9A81E08093B20104C01092F8
:10496000B2013E983F988DE790E0909303018093C9
:1049700002018CE291E0909305018093040180E0B4
:104980009BE490930B0180930A0180E09EE090935A
:10499000070180930601909309018093080182E347
:1049A00090E0909301018093000180ED90E00E94DF
:1049B000BA338093C60184E1809316078091640026
:1049C0008E7F8093640080917A00806480937A0067
:1049D00080917A0086FDFCCF0091780010917900DB
:1049E0000E94A32020E030E0980111270027600FEB
:1049F000711F821F931F611571058105910511F0CB
:104A00000E94B13380916400816080936400AE01A4
:104A10004F5F5F4F5A8F498F0E94501B882309F4C4
:104A20008EC09091190780911607891710F45D9830
:104A30008EC05D9A8CC00091C9011091CA0120E01E
:104A40004CE253E0B80186E590E00E94CC2120E0E2
:104A500045E55BE063E070E08EE090E00E94CC21F1
:104A600020E04BEE52E06CE070E08EE090E00E94BF
:104A7000CC2166E470E0601B710B20E04AE959E14B
:104A800087E390E00E94CC2164E370E0601B710B2F
:104A900020E04AE959E189E290E00E94CC216EE1F0
:104AA00070E0601B710B20E04AE959E182E390E07D
:104AB0000E94CC2120E04DEB52E063E070E080E00A
:104AC00090E00E94CC21E090C601FF24F394FE0CFC
:104AD0002F2D42E65AE065E270E082E090E00E940D
:104AE000CC21015011091093CA010093C9010E375E
:104AF0001F4F34F480E590E09093CA018093C90180
:104B000081E00E94411B80E40E94851B81119EC0B0
:104B100080E20E94851B8111A5C084E00E94851B54
:104B2000882319F086E08093C70188E00E94851BE6
:104B3000882329F082E08093C7011092CB0180E0A6
:104B400090E0892B09F468CF0E94000065CF80E0D7
:104B5000ECEDF1E081118FEF00248193819381933B
:104B600081930394D1F780911407809315070E94D5
:104B7000D92180931407E091C7018E2F90E08730F0
:104B80009105E8F6FC01EA5AFF4F0C940F3610929B
:104B9000CB011092B30180EE9FEF9093CA018093F6
:104BA000C90111E01093C70187E691E00E94AC2192
:104BB000109209071092080710920E0780E09EE0FD
:104BC00090930C0780930B07909303078093020741
:104BD0002BE420930A071092070710920607109201
:104BE0000D0710930107A12CB12C6501C394A0926D
:104BF000F906B092FA06C092FB06D092FC0620E0BD
:104C000030E048E150E02093FD063093FE064093EB
:104C1000FF06509300072DE730E030930301209307
:104C200002012CE231E0309305012093040120E0E1
:104C30003BE430930B0120930A019093070180938A
:104C40000601909309018093080193C041E04E153D
:104C500010F0F092C6016091C60180ED90E00E94D4
:104C6000C23356CF8091C601882319F081508093BA
:104C7000C6016091C60180ED90E00E94C2334DCF25
:104C800010924D0610926B06109289061092A7069C
:104C90001092C5061092E306E8E0F6E080818F707E
:104CA0008083339656E0E533F507C1F7EAEEF5E089
:104CB00080818F708083339686E0E830F807C1F7F3
:104CC00010920E0700E01EE010930C0700930B07F4
:104CD00010930307009302078BE480930A07109256
:104CE00007071092060710920D0781E080930107D5
:104CF000A12CB12C6501C394A092F906B092FA06DA
:104D0000C092FB06D092FC0620E030E048E150E083
:104D10002093FD063093FE064093FF065093000754
:104D200010923B068EEC95E00E94AC2180E590E06D
:104D30009093CA018093C90183E08093C7018DE7F6
:104D400090E090930301809302018CE291E09093B4
:104D500005018093040180E09BE490930B01809314
:104D60000A011093070100930601109309010093B3
:104D7000080182E390E0909301018093000184E1B7
:104D800080931607DCCE8091CB01843630F48A30D4
:104D900038F406E0B02E09E206C0B12C0EE203C0E2
:104DA00013E0B12E0CE28091120781700E944E1028
:104DB000E090C901F090CA0130E5E316F104F4F483
:104DC00042E0E416F1040CF051C0EA94EF2809F037
:104DD000A8C08091CB0165E00E94DB35E92FF0E0AF
:104DE000EE0FFF1FE15EFE4F6081718181E00E9446
:104DF00085161092CA011092C90193C080E5E81689
:104E0000F10409F08EC080E890E09093B5018093A2
:104E1000B40184E18093B60183E08093B70186EB0F
:104E200090E09093B9018093B80189E18093BA0131
:104E300081E08093BB012CEE30E03093BD012093E4
:104E4000BC019EE19093BE0192E09093BF0122E2EB
:104E500031E03093C1012093C00193E29093C201ED
:104E60008093C3011092E7051092E2056B2D70E06C
:104E70006E5F7F4F20E048EA58E08CE390E00E94AC
:104E8000CC218091CB01C82ED12C10E0833678F054
:104E9000C601019664E670E00E94FB35262F42E6CB
:104EA0005AE0B8018CE390E00E94CC2102C0893026
:104EB000A8F0C60101966AE070E00E94FB35CB01C4
:104EC0006AE070E00E94FB35282F42E65AE0B80104
:104ED0006A5F7F4F8CE390E00E94CC21C60101966F
:104EE0006AE070E00E94FB35B801645F7F4F282FB5
:104EF00042E65AE08CE390E00E94CC2110E41B19BA
:104F000049E3612F8B2D0E94781A45E4612F8B2D88
:104F10000E94781A91E0E91AF108F092CA01E09231
:104F2000C90180910B0790910C07181619060CF017
:104F3000FEC32091020730910307121613060CF0EE
:104F4000F6C320910D072111F2C3029790930C072D
:104F500080930B07019621F410920C0710920B0717
:104F60000E94D92187FF1AC08091FD069091FE060C
:104F7000A091FF06B09100078D3CECEC9E07A105C7
:104F8000B10564F08C5C9C4CA109B1098093FD06CD
:104F90009093FE06A093FF06B09300070E94D921CC
:104FA00084FF19C08091FD069091FE06A091FF0636
:104FB000B09100070097FDE2AF07B10564F4845398
:104FC0009343AF4FBF4F8093FD069093FE06A0938F
:104FD000FF06B09300070E94D92185FF1AC0809177
:104FE000F9069091FA06A091FB06B091FC0687366F
:104FF00026EE9207A105B10564F08656964EA109EA
:10500000B1098093F9069093FA06A093FB06B0933A
:10501000FC060E94D92186FF19C08091F906909163
:10502000FA06A091FB06B091FC06009736E6A307AE
:10503000B10564F484539343AF4FBF4F8093F90697
:105040009093FA06A093FB06B093FC0684E00E94BE
:10505000851B882319F088E080930D0788E00E9463
:10506000851B882309F440C080910A078823E1F159
:105070008091C401811104C08AE998E00E94AC21AA
:10508000C090F906D090FA06E090FB06F090FC067E
:105090006701FF24D7FCF094EF2C8090FD069090E0
:1050A000FE06A090FF06B09000074501BB2497FCC8
:1050B000B094AB2C42E0682D8C2D0E94EF178091AC
:1050C0000E07882389F090910A07923068F081508A
:1050D00080930E0741E0682D8C2D0E94EF1743E06E
:1050E000682D8C2D0E94EF178091C9019091CA0103
:1050F000892B09F01CC380913B06882309F45DC00D
:105100004090330650903406609035067090360615
:105110002301772457FC7094672C80903706909079
:105120003806A0903906B0903A064501BB2497FC9A
:10513000B094AB2CE0914106F09142060491319677
:1051400014910E94C9182B8B3C8B4D8B5E8B6F8BFF
:10515000788F4B895C898D899E899A01260F311D34
:105160004216530654F5202F30E0420E531E4415CC
:1051700055051CF59C01270F311D82169306ECF492
:10518000E12FF0E0E80DF91D8E179F07B4F4C3C6B8
:10519000813008F0D0C680913E0690913F069093F2
:1051A0000C0780930B0710923B068091C40181117C
:1051B00004C084E796E00E94AC2158E0E52E56E05A
:1051C000F52E812C63E0962ED7018C91807FE9F13A
:1051D000F7013297C080D12C3196A080B12C05E424
:1051E00016E0F8018085882351F13801F9E06F0E4F
:1051F000711CD80119968D919C911A971816190651
:10520000F4F4C8010E941A232D873E874F87588BDC
:10521000698B7A8B2D853E858F859889C216D3063A
:1052200074F0260F311DC216D3064CF4A816B90629
:1052300034F0870F911DA816B9060CF4AEC6025EB5
:105240001F4FF6E0093F1F0761F623E0E20EF11C55
:1052500035E3E31636E0F30609F0B6CF80910D078B
:10526000811195C00E94C918872F29833A834B83E7
:105270005C836D837E8309811A81AB80BC80A80129
:10528000460F511DBA017501E80EF11CEAEEF5E07A
:1052900080E090E0D0802D2D207FC1F09F01225032
:1052A0003109D9014C9150E02F5F3F4FD9012C912A
:1052B00030E04017510754F0461757073CF42A15C1
:1052C0003B0524F02E153F050CF491C6019633964C
:1052D0008A309105F9F60E94C91829833A834B83D5
:1052E0005C836D837E8300E010E0C8018B5B994F87
:1052F000FC012085222309F444C02585233009F4CC
:1053000040C00E941A232F83388749875A876B87AA
:105310007C87E981FA814B815C81FE802F81388511
:1053200089859A85AD815F01AA0EB11C2A153B05BE
:1053300044F5260F311DE217F3071CF59A012F0DD6
:10534000311D82179307ECF4870F911D48175907F9
:10535000C4F480910207909103070C979093030780
:105360008093020797FF04C0109203071092020770
:105370008091C40181110BC088E996E00E94AC21A4
:1053800006C0025E1F4F043B110509F0AECF8091AD
:105390000E01815080930E01811121C135E4832ECD
:1053A00036E0932E4BE5242E46E0342E22E536E0FF
:1053B0003C8F2B8F412C512CC4010E941A2329832E
:1053C0003A834B835C836D837E8329813A818B8111
:1053D0009C81F1013E974081442309F4E0C0D10152
:1053E0004C914111DCC03C964081442309F4D7C064
:1053F000A901460F511D141615060CF0D0C0203817
:1054000031050CF0CCC09C01270F311D37FDC7C002
:10541000803491050CF0C3C08091F9069091FA0692
:10542000A091FB06B091FC063D01F9E06F0E711CE6
:105430008091FD069091FE06A091FF06B0910007B5
:105440007D0129E0E20EF11CD4010D911D912D91F9
:105450003C915901DD24B7FCD094CD2CEB8DFC8D13
:105460008081833009F46CC6C4010E940F238695A5
:10547000082F10E00A0D1B1DF40184819581A6817F
:10548000B7815D01DD24B7FCD094CD2CAB8DBC8DF4
:105490008C91833009F4C7C5C4010E94042386950A
:1054A00090E0601A710AA80EB91EF701EA19FB090B
:1054B000FAA3E9A36114710409F4B8C5CF01FF0F81
:1054C000AA0BBB0BDC01992788276C017D01FF0C1F
:1054D000CC08DC2C76019C01AD016C2D7C2D8C2D33
:1054E0009C2D00E10E94EC366301072C000CEE08B5
:1054F000FF088601FF24EE2457016801DD0CAA088D
:10550000BA2C6501AD8EBE8ECF8ED8A25701680130
:10551000ED8CFE2C0E2D1E2D0E941736F22FE32F40
:105520008F2F9E2FA42FB52FB7FF07C0B095A09542
:10553000909581959F4FAF4FBF4FEB8DFC8D308184
:10554000F101333009F077C537972081A9A0BAA0BF
:105550001A141B040CF48CC5161417040CF0F7C5B0
:10556000843B41E29407A105B1050CF466C5AC018A
:10557000BD014D56544C610971094F3259486105BE
:10558000710518F4213009F45BC5805E9749A74086
:10559000B10981329846AF4DB34008F4D4C58FEFBE
:1055A000481A580A9EE1890E911CAEE12A0E311C60
:1055B000EB8DFC8D7E96FC8FEB8FF6E04F16510441
:1055C00009F0FACE6AE070E080E090E00E945D2091
:1055D000DC01CB010A96A11DB11D80930E018091C3
:1055E0000C0190910D01019790930D0180930C0196
:1055F000892B09F09CC080913B06811198C064E022
:1056000070E080E090E00E945D20B62E80910B0754
:1056100090910C07813094400CF410C680910207E1
:1056200090910307813094400CF426C631E0B31208
:10563000DFC500910A0110910B01C801012E000C79
:10564000AA0BBB0B6627782F892F9A2F20E032E018
:1056500040E050E00E94DA3349016CEDE62E66E04E
:10566000F62E78E1C72E77E0D72EB092400681E083
:1056700080933B0680E090E0A0E8B0E080933306A2
:1056800090933406A0933506B093360666E370E037
:1056900080E090E00E945D20DB01992788278093BD
:1056A000370690933806A0933906B0933A060E94C5
:1056B000AC339B0177FF04C022273327261B370B0F
:1056C000C9019927939590933D0680933C060E94CB
:1056D000AC339B0177FF04C022273327261B370BEF
:1056E000B80168197909C9010E94FB359401280F96
:1056F000391F30933F0620933E06D0924206C09257
:105700004106F0924406E092430620910401309154
:10571000050140E050E0609102017091030180E0DA
:1057200090E00E94812070930D0160930C01F8E0DD
:105730008F2EF6E09F2EA6E0CA2EA6E0DA2EB7E066
:10574000AB2EB6E0BB2ED4012C912F70822F90E0AF
:105750008830910550F5FC01E35AFF4F0C940F3649
:10576000D6018C918F5F8C93F5018081815080836D
:105770001CC0D60105C0F60180818F5F8083D501F2
:105780008C918F5F11C0D6018C9181508C93F50163
:1057900080818F5FECCFD60105C0F60180818150FA
:1057A0008083D5018C9181508C93F601808189375B
:1057B00010F0D4012C93F5016081613420F0D40104
:1057C0009C919F709C93F4019081907F71F070E0A8
:1057D0006150710990E0E3E0EE2E00E010E020E07F
:1057E0004EE257E001970E940019F3E08F0E911CE2
:1057F00023E0C20ED11C33E0A30EB11C43E3C41658
:1058000046E0D40609F09FCF3AEE832E35E0932E82
:1058100048EEC42E45E0D42E59EEA52E55E0B52E07
:10582000D4012C912F70822F90E08830910550F593
:10583000FC01EB59FF4F0C940F36D6018C918E5F13
:105840008C93F5018081825080831CC0D60105C0F5
:10585000F60180818E5F8083D5018C918E5F11C0AF
:10586000D6018C9182508C93F50180818E5FECCFB4
:10587000D60105C0F601808182508083D5018C91CC
:1058800082508C93F6018081893710F0D4012C93DB
:10589000F5016081613420F0D4019C919F709C934C
:1058A000F4019081907F71F070E06150710990E097
:1058B00023E0E22E00E010E020E04EE257E0019706
:1058C0000E940019F3E08F0E911C23E0C20ED11C40
:1058D00033E0A30EB11C46E0C41646E0D40609F03E
:1058E0009FCF81E00E9404130E94F2150E9484233E
:1058F00080E00E9404136091120770911307C0901A
:10590000F906D090FA06E090FB06F090FC066701DD
:10591000FF24D7FCF094EF2C4090FD065090FE063B
:105920006090FF06709000072301772457FC709465
:10593000672CC60142968239910508F08AC0809191
:105940000B0790910C07181619063CF540910207B9
:105950005091030741158BEF58070CF0B5C41DC0DB
:10596000943008F0ECC4913009F0E0C45601A7E08F
:10597000AA0EB11C292F30E0F9013197379718F49E
:105980008F5F80930D0780910D07803411F4109282
:105990000D0741305D4F0CF0A5C480910207909136
:1059A0000307181619060CF442C00C9790930307CE
:1059B00080930207292F892F990F990B121614F43F
:1059C000019702C0809590952C3F3CF42A3F1CF52E
:1059D000263F69F5109201072AC02F3F09F03CF5D8
:1059E0004091040750910507FC01FF277496CF01F1
:1059F000880F991FFA01E80FF91F25913491FC01D6
:105A00003897E40FF51F4591549100E0B201C601AB
:105A10000E94641A0CC0E0910407F0910507B69645
:105A20004591549120E0B201C6010E94BF2120910E
:105A30000B0730910C07121613065CF080910207D9
:105A400090910307181619060CF48EC402C0109228
:105A500001070E9466230E94211281E00E94411BDF
:105A60008091C9019091CA01892B09F580E090E0ED
:105A7000FC01EB5BF94F2085211119C04E96843B48
:105A80009105B1F79091C5018091CB01992309F45B
:105A9000B6C465E00E94DB35E92FF0E0EE0FFF1F92
:105AA000E15EFE4F6081718180E00E9485168091E9
:105AB000020790910307181619063CF480910B0712
:105AC00090910C071816190644F08091C4018111B9
:105AD00004C086E397E00E94AC2180910107811108
