:100000000C941C0F0C94440F0C94440F0C94440F4C
:100010000C94440F0C94440F0C94440F0C94440F14
:100020000C94440F0C94440F0C94621B0C94D41B3E
:100030000C94440F0C94440F0C94440F0C94440FF4
:100040000C94440F0C94440F0C94440F0C94440FE4
:100050000C94440F0C94440F0C94440F0C94E81E21
:100060000C94440F0C94440F0C94440F0C94440FC4
:100070000C94440F0C94440F0C94440F0C94440FB4
:100080000C94321F0C94440F0C94440F0C94440FA6
:100090000C94440F0C94440F0C94440F0C94440F94
:1000A0000C94440F0C94440F0C94440FA82507267D
:1000B000A0262427C72DC72DEB2EF42BF02BF92BD0
:1000C000FB2B072C032C0B2C0D2C612C5D2C662C90
:1000D000682C742C702C782C7A2C2C312E313031E9
:1000E00035313A313A313A313A31433143314331A2
:1000F00043316F2D6F2D6F2D6F2D6D2D0E02111A47
:1001000007040C0008090D031B15060E0201171A3F
:10011000041C150008090D030B060E000204061846
:100120001A150C010307090B0D0E0E0708090D0027
:100130000102131A0B0C1415060E0001020314150C
:10014000060708191A0B0C0DD5F08D14A1C881CF24
:10015000D9F1AF20005504A8000000B0005504A854
:100160000000005C013F03A8005504A800DC030C5C
:10017000067003A8000000B0007003A80000005C37
:10018000017003A800E402A8007003A800A403E221
:1001900000E402E200A403E2001704E2003F03E2ED
:1001A000001704E2005504A8000000B0005504A8A0
:1001B0000000005C013F03A8005504A800DC030C0C
:1001C000067003A8000000B0007003A80000005CE7
:1001D000017003A800E402A8007003A800A403E2D1
:1001E00000E402E200A403E2001704E2003F03E29D
:1001F00000DD04E2007505CF08BA020604E402A897
:10020000001003A8003F035F05A403560300000786
:10021000001704A8005504A800DD04A80075055FB8
:1002200005C805560300000700490755017D06A8CB
:1002300000C8055F05DD04560300000700C805552A
:10024000017505A80055045603000007001704A80F
:1002500000A403A8003F03A800BA020604E402A811
:10026000001003A8003F035F05A403560300000726
:10027000001704A8005504A800DD04A80075055F58
:1002800005C805560300000700490755017D06A86B
:1002900000C8055F05DD04AE023F035501C805A88F
:1002A000007505A80055045F0500800B1E150004AD
:1002B0000E1F001F0E0400150000F20A7A8A720257
:1002C0000200000000089494A22200000000000038
:1002D0002F20272827202000000C3B00150011119B
:1002E0001F11110A0400150000008E504C42DC4022
:1002F0000000000000007924242419000000000000
:100300000000C121212BE520000000E01000E010DA
:100310001010E000000000000101792525251800DB
:100320000000000000009555D5558B00000000002E
:1003300000000700030403000000002A7A50A050C8
:10034000A010A090A08080808080004080408040ED
:1003500080408040804080408050A8542A954A24A4
:100360001010204080000055AA55AA00FF00000090
:100370000000000704050405040504050405040540
:10038000040504050405040506040000000000013E
:10039000FE01020102001F1010101010101E0202B8
:1003A000020202020202020202020202020202022D
:1003B000020202020202020202020354AA54AA0426
:1003C000F2141214121412101010F000A050A854BD
:1003D0002A944A2412141214121412141214101013
:1003E000204080000055AA55AA00FF000000000030
:1003F00000E020203F00AA5500FE0100000000E0C0
:100400002020A020A02020E0000000000001FE1518
:100410002A55AA00FF0000000000001F101412144B
:100420001215101F00000000001F101512151215E4
:10043000101F000000000000FF000000000001028B
:1004400004081020202020202020202020202020F0
:1004500020202020202020202020202020201008C4
:1004600004020100000000000000000000000094F1
:1004700068946814C814081408100810001040602C
:100480008080804000800000000000000040A0400C
:10049000A040204020000000002A55AA5500FF007F
:1004A00000000000F01090202040408081010302F5
:1004B000020504080810F055AA55AA00FF01010121
:1004C0000101011F101215101F00000000001F1075
:1004D000121512151214101111121E000000000046
:1004E000FF050A050A00FF808080808080F01010E0
:1004F0001010F08080808080F0101010101010100C
:10050000101010101010101010101F00000080406C
:10051000A040A040204000000000000000000000BB
:10052000000000000040A040A0402040204000000B
:10053000000000000054AA55AA05F2190C06030198
:1005400001010101FF00A040A040A0000000001533
:100550002A152A00FF010101010102040810E055DB
:10056000AA55AA00FF000000000000FE02422B5026
:100570002A5500FE0202020202FE00205028532AE1
:1005800002FE000000000000FF0102050A001F201B
:100590004080000000010101010101010101008012
:1005A0008000000101010101010101010000008042
:1005B00040201F00000000000000000001020202B5
:1005C0000202020202020202010000010202020211
:1005D0000202020202020202010000000000002CDE
:1005E000015D0152005D0152005D0152005D01524A
:1005F00000000003007201520072015200720152A9
:10060000007201520000000300880152008801526C
:10061000008801520088015200000003009F01522F
:10062000009F0152009F0152009F015200000003F1
:1006300000B8015200B8015200B8015200B801528E
:100640000000000300D2015200D2015200D2015238
:1006500000D201520000000300EE015200EE0152F0
:1006600000EE015200EE015200000003000B0252A6
:10067000000B0252000B0252000B0252000000035A
:10068000000080E4020200750506007D0608007582
:100690000504000080DC00090093000A00830006C6
:1006A00000AF000A000080AF00030026010400B87C
:1006B000010400A50001000080AF001600AF001685
:1006C00000AF0016000080387CFEFEFE7CFEFFBA04
:1006D00000000000000000010010387CFEFFFFFF5A
:1006E000FE6C0000000001010100001FFFFFFFFF82
:1006F000FFFFFEE4400001010101010101000009CA
:1007000009003844444428549200000000000000CE
:1007100000000009090010387CFEFEFE6C0000009D
:10072000000000000000000A09000EEEEEEEEAAA4A
:10073000A440000000000000000000000055046913
:100740000200000D005504690000000D0055046909
:1007500000000001001704AB01000001001704D5E0
:1007600000000001001704D50000000100DC038137
:100770000200000100DC03D50000000100A4031CFE
:100780000100000100A403460000006C00A4032245
:100790000000006C00A403220000006C00A40322EF
:1007A000000000480070031C0100000100E4021C6E
:1007B000010000010070031C01000001003F031C48
:1007C000010000010093021C01000001003F031C16
:1007D0000100000100E4028102000001006E0246F7
:1007E00000000001000B024600000001006E0246FE
:1007F00000000001002A027B030080E402F20100F5
:10080000009000E402220000004800E40222000000
:10081000004800E402B10000006C00E4026900003E
:10082000002400E4024600000048003F0369000085
:10083000002400A403690000002400DC030A040073
:1008400000FB00DC036900000024005504460000A2
:10085000004800DD0446000000480075055D020008
:1008600000240075052200000048007505220000E4
:10087000004800750522000000B3005504B10000D7
:100880000024007505460000004800C805750000FA
:100890000018007D06690000002400C805690600F4
:1008A00080570016005700160057001600008007FA
:1008B0002991111515951B11F301E111E100013C7E
:1008C0004138047900008E44444486000413141413
:1008D00034D300000101010100000009180000D11B
:1008E0009191DF1191111C20B9A4A4A4988000005B
:1008F0000004040404030000071C844444448415D9
:100900001F83444444F34040782538201900000EEA
:1009100004040404040607050E11131519110E0E24
:100920000404040406041F01010E10110E0E111020
:100930000C10110E08081F090A0C080E1110100FD8
:10094000011F0E11110F01021C0102040810101FDB
:100950000E11110E11110E0708101E11110E071D98
:100960008E51504E81110EE3141014E30000040563
:10097000054D3400000E011F110E0000132200006F
:1009800000FC00FE0101FDA955FD0101FE00000073
:1009900000C03008043261E0C0C1E0F1F98000031A
:1009A000040830C00F30408030181F0F0F1F3F7FEA
:1009B0000703038340300F000000FC01FE0000FE2F
:1009C00054AAFE0000FF000000000000000000012B
:1009D000020202020202020201000000000B3B15AB
:1009E0000011111F11110A0400150000E010101071
:1009F0001010E000000000384544443801000000B9
:100A0000000011111113CD000000000000E245416B
:100A100041670141000000004444444C34000000A0
:100A20000000009659D15191000000000000030021
:100A3000070403000000000A40004000A080D0C06E
:100A4000E86064041C21391B4B7347070F002050DA
:100A500050508888880000005E494E48C60000005B
:100A60000010157595957200000000002E24246476
:100A7000A6000400000038909092190010000000B9
:100A800073846014E3000000000C38F8A8A8A804E0
:100A900002DADADA0204F8000000000102020202BF
:100AA00002010000008282829EA2A29E000000003D
:100AB00000C828C809C6000000000000000B090992
:100AC000996800000000000080BC929C908C00009F
:100AD00000000000000006090906000000000009EF
:100AE00038D805FDFFFF76FC8804000505070703DD
:100AF000010001C282828EC2029E00005D48484809
:100B0000C8080C0000E5151515E20000000010A94A
:100B100089893C0808000007000F08070000000052
:100B200007294E5141C141110EE010F014E30000BD
:100B3000586445655840400E848484E680847982F8
:100B40007008F300000000000000000040000400F6
:100B50000150000081400005FF015000008140006D
:100B600006FF00251A0105FF0118031804000119EA
:100B7000000081400006FF0040FF0028FF005000F9
:100B8000008180C0E0F0F8F8FCFCFCFEFEFEFFFFF8
:100B9000FFFFFFFFFFFFFFFFFFFFFFFFFFFFFFFF65
:100BA000FFFEFEFEFCFCF8F0C0000103070F0F1F64
:100BB0001F1F3F3F3F7F7F7F7F7F7F7F7F7F7F7FC5
:100BC0007F7F7F7F7F7F7F7F3F3F3F1F1F0F07011B
:100BD000FFFFFFFFFFFFFFFFFF0101010101010117
:100BE00001010910FEFDC3BBBBBBC7FFFF01010133
:100BF000010101010101271080C060B058A85CAC60
:100C000054AEFA8EF7959FF5979DF7959FFDFFFDE2
:100C10007F7D3FDDDFDD3FFEFEFE0CFC18F0C000F7
:100C20000103060D0A1D1A153A2F3877547C5774A4
:100C30005C77547C5F7F5F7F5F7E5D7D5D7E3F3F45
:100C40003F181F0C07010910FF7F87BBBBBBC7FF05
:100C5000FF0001010101010101010910FFFFC7BBF4
:100C60003BBBC7FFFF0101010100010101010910A8
:100C7000FFFFC7BBBBBB877FFF0101010101010172
:100C800001000910FFFFC7BBBBBBC7EFEF010101AC
:100C90000101010101010910FFFFC7BBBBBBC3FD7F
:100CA000FE0101010101010101010910FFFFC7BBA4
:100CB000B8BBC7FFFF0101010101010101010000F3
:100CC000000000F0FEFFFFFEFCE00000000000005E
:100CD000000000008000000010387CFEFEFFFFFFD7
:100CE000FFFFFFFFFFFEFEFE7C7C7C7CFEFFFFFF24
:100CF000FE1000000000001FFFFFFFFF7F0F01003C
:100D000000000000000000010301000000000000DE
:100D100000000001010000000000000000000000D1
:100D20000000000000001A19000000000000F09E02
:100D30009EFCE00000000000000000000000000039
:100D400000000010387C547CFFBBBBBBBBFF7C7C2D
:100D50007C7C3838383828D6D7FE100000000000D8
:100D600000001FF3F37F0F010000000000000000EF
:100D70000000010000000000000000000000000072
:100D80000000000000000000000000000000000063
:100D9000111100001C3CFCD8B070E8C422120E00F7
:100DA000000000001C12110805030307074F6C30F8
:100DB000380C0000000000000000000000000000EF
:100DC0000000000000111100008080FC828CF08087
:100DD00080800000C0E00000000103037E82621FEB
:100DE0000303030101070F010000000000000000E1
:100DF00000000000000000000000111100709010C1
:100E000020408080C0C0E46C183860000000007092
:100E1000797E371B1D2F478990E0000000000000FD
:100E200000000000000000000000000000000011B1
:100E3000110000000000040CCCFECC0C04000000EB
:100E40000000000814141212127FE37F1212121411
:100E50001408000000000000000000000000000076
:100E600000000000111100006038186CE4C0C08060
:100E70008040201090700000000000E09089472F13
:100E80001D1B377E7970000000000000000000008C
:100E900000000000000000000011110000E0C00090
:100EA00000808080F08C82FC8080008000010F0731
:100EB00001010303031F62827E030301000000009F
:100EC0000000000000000000000000000000111100
:100ED000000000000E1222C4C870B0D8FC3C1C00F8
:100EE0000000000C38306C4F07070303050811128F
:100EF0001C000000000000000000000000000000D6
:100F0000000000111100205050909090FC8EFC9039
:100F10009090505020000000000000406067FF6784
:100F20006040000000000000000000000000000021
:100F30000000000000000000060002F0D0000000E9
:100F4000010002F0D010000001010000F0240000B8
:100F50000201000002240000020002F0204A000109
:100F6000010002F0205A000101050002F0D000004B
:100F700000010002F0D028000001010000F9440047
:100F800000020002002000010101000200202801EF
:100F90000101050002F0D0000000010002F0D0289D
:100FA000000001010000F9440000020002002000DE
:100FB00001010100020020280101010503000000D9
:100FC00004000005030000F43E0000050002F0D01C
:100FD000000000010002F0D0230000010002F0D068
:100FE0004600000106000000F012000001000000B1
:100FF000F9000000010000000212000001020000E0
:10100000E440000002020000F52C00000202000093
:101010000640000002060003D6D0000000010003D5
:10102000E6E000000001010000EB140000020100F6
:1010300000F9240000020100000734000002010052
:1010400000F940000002050002F0D000000001009D
:1010500002F0D028000001010000F9440000020065
:1010600002F020140001010002F0203C0001010404
:10107000000000F012000001000000F90000000173
:101080000000000212000001030000003000000A0E
:10109000050001000500000001000100051400002A
:1010A00001000100EC00000101000100EC1400014E
:1010B00001000000F92800010104000000E7000021
:1010C0000001000000F9000000010000000B00001A
:1010D0000001020000F51600000104000000F1000C
:1010E0000000010000000300000001010000F112F7
:1010F00000000201000003120000020500010005CB
:1011000000000101000100EC14000001010000E7F3
:1011100032000002010000F9320000020100000B61
:101120003200000205010000E72400000200000078
:10113000F012000001000000F900000001000000B2
:1011400002120000010100000B2400000202000056
:101150000005000000010000000018000001000070
:1011600000FB50000001000000F6680000010504CB
:1011700003040A0906050406090609060504020215
:1011800004080F05040609070106050407080701FE
:101190000F050404040F05060504060904090605E5
:1011A000040F0204090605040E04040604050406DF
:1011B00009090906AA0C960C820C6E0C5A0C460CF6
:1011C000F60BE20BD00BD00BD00BD00BD00BD00B0F
:1011D000820BD00B701B3E1B0C1BDA1AAA1A7A1A50
:1011E0004A1A1A1A260D260D260D260D260D260D35
:1011F000260D260DBE0CBE0CBE0CBE0CBE0CBE0CCD
:10120000BE0CBE0C701B3E1B0C1BDA1AAA1A7A1AF3
:101210004A1A1A1A030FCE0E990E640E2F0EFA0DEB
:10122000C50D900DB917861753172017ED16BA166E
:1012300087165416701B3E1B0C1BDA1AAA1A7A1A50
:101240004A1A1A1A0503050507050205056E1171EC
:10125000116E050301010301070505040E1F1F0A96
:1012600005050E041F0404541000000080C4E2F2BF
:101270006272703870727A327A347278706070701C
:101280007060706474727A7A783C583898BC9C3C70
:101290007C387D797A7264C060E0E8E8C8D0C0E04C
:1012A000F060F074F464727238787870327A3A6868
:1012B00072646020C0C080906000000000D8CCE75D
:1012C000F3F9F0FCDEFFFBFFFFFFFDFFFFFEFEEF8B
:1012D000FFFFFFFBFFFFFDFFFFFFFFDFFEFEFEFF47
:1012E000FFFBFFFFFFFDFFBFFFFAFEFEFEFEFEEE6F
:1012F000FEDEFEFEFEFAFEFEFEFEFFFFBDFFFFFF6E
:10130000FFFBFFFFFDFFBEFEFEFCECF9FB72E6EC0F
:10131000E854101737674EDF9F373F7F7F7DFFBF51
:10132000FFFFDFFFFFFFFFBDFFFF7F7F7F7F5F7F4F
:101330007F7F7B7F777F7F7F7F7F5FFFFDFFBFFFAB
:10134000FFFFDFFFFF7F7F7FFBFFFFFFFFBFFFFF91
:10135000DFFFFFFFF77F7FFFFFBFFFFFFFDFFF7BA9
:101360003F0F9FCFE7331B00000000060901030376
:101370000406264E165C5E4C0E1E1E1C4E4E262F7C
:101380002E0F060F07030B131717070603264E5ED3
:101390009EBE1C3E3C393D191C1A3C1E5E5E4E2E04
:1013A000260E060E0E0E060E1E4E2C5E4C5E4E0EC9
:1013B0001C0E4E464F47230100000022160442F245
:1013C000E2F270383C7C387D797A7264C06038789B
:1013D0007870327A3A68726460A040C08010608C85
:1013E0001F7FF1A04C9EBFAFBD3FB73FBABEBE2E20
:1013F0009DDF9F97BFBBBF2FBD3F1E8CC1E3FFBECC
:101400000C0102000000010109130517171303075F
:1014100007070100091317272F070F0F07031311E1
:101420001310080B0DF80681A6B0B81818306040EC
:101430000708101707070303010100090CF00E410C
:10144000CED0C08080800304080B03030101000993
:10145000102080000000000011040200000088201D
:101460000000000910000000110400004000882066
:10147000000000000004010080F8FC5EAFDEBC78D4
:10148000F0C000001E7FFFAAD7AB57AF5FFFFEF88A
:10149000E080EF7FBA55AB57AEDFFFF7E34007FFC1
:1014A000FDEA57EF77FFFF7F070300000003070DFA
:1014B00006070301000000000D24000080F85CAE68
:1014C000DCB870C0000000001E7FAAD7AB57AF5F2A
:1014D000FEF8E00000806FBA55AB57AEDFF7E3408F
:1014E000000007FDEA57EF77FF7F070300000000C9
:1014F000000305020301000000000007389E519917
:101500000181011E57525352B1000039057D453803
:101510000000E01010101010E010294545450100B2
:101520004E415FD14E000000000004030000073070
:101530008E51414181110E53545454B3000005356E
:101540004D4D340000E712F212E2020310A889891F
:10155000081C0807000F080700000720CF21E12121
:10156000C1010121508B8A8900009C023E221C008F
:101570008003010101010101074070888070088823
:10158000702CB2A2A2220000C7282028C700007138
:101590000AF88A7100009E201C823C000087888720
:1015A000C08F8000B0C888898802011C080808081C
:1015B000080C0728D1919595D51B913D40380478AA
:1015C0000000CF908E81DE00803944444438000012
:1015D000111111130D0000010204081020408008B1
:1015E0000B000202020100090400000102020000D7
:1015F000052400100105240101010424020605242C
:101600000600010705810310004009040100020AD9
:1016100000000007050202400000070583024000A9
:10162000000403090412010002EF020140412336C5
:101630008000010102030141726475696E6F204CE4
:101640004C430041726475696E6F204C656F6E612A
:1016500072646F00001E3EFEFEFCF8F8FCFEFF3FC9
:101660001F0F0000003C3E3F3F1F0F07070FCFFF3B
:10167000FF7C7C7E0E0000000000000000000000E7
:10168000000000000000000080C0FCFEFFFEFCF037
:10169000C0C080C0E0F0E0000103077FFFFFFF7FD4
:1016A0001F070703070F1F0F0100000000000100C4
:1016B0000000000000000000000078F8F8F8F0E0FA
:1016C000C0C0E0E6FEFE7C7CFCE00000F0F9FFFF1D
:1016D0007F3F3F7FFFFFF9F0E000000000000000C7
:1016E00000000000000001010101000000000000F6
:1016F00000040EDEFEFFFEDE0E0400000000081CEB
:101700003E3E3F3F7FFFFFFF7F3F3F3E3E1C0800C6
:1017100000000000000000010000000000000000C8
:1017200000E0FC7C7CFEFEE6E0C0C0E0F0F8F8F8EB
:1017300078000000E0F0F9FFFF7F3F3F7FFFFFF9F7
:10174000F0000000000101010100000000000000A5
:1017500000000000E0F0E0C080C0C0F0FCFEFFFE32
:10176000FCC08000010F1F0F070307071F7FFFFF4B
:10177000FF7F0703010000000000000000000000E0
:101780000100000000000000000F1F3FFFFEFCF8FA
:10179000F8FCFEFE3E1E00000E7E7C7CFFFFCF0F9D
:1017A00007070F1F3F3F3E3C000000000000000005
:1017B0000000000000000000002070F8F8F8F8FCBD
:1017C000FEFFFEFCF8F8F8F870200000000041E190
:1017D000F7FFFFFFF7E141000000000000000000FC
:1017E00000000001000000000000000011110000D6
:1017F0001C3CFCD8B070F8EC3E1E0E00000000004F
:101800001C1E1F0D07030307074F6C30380C000028
:1018100000000000000000000000000000000000C8
:1018200000111100008080FCEEFCF0808080000040
:10183000C0E00000000103037EEE7E1F03030301EE
:1018400001070F0100000000000000000000000080
:1018500000000000000011110070F0F060C08080F6
:10186000C0C0E46C1838600000000070797F371B3E
:101870001D3F6FF9F0E000000000000000000000D4
:101880000000000000000000000000111100000036
:101890000000040CCCFECC0C04000000000000088A
:1018A0001C1C161E1E7FE37F1E1E161C1C0800003B
:1018B0000000000000000000000000000000000028
:1018C000111100006038186CE4C0C08080C060F066
:1018D000F0700000000000E0F0F96F3F1D1B377F43
:1018E000797000000000000000000000000000000F
:1018F000000000000011110000E0C00000808080A6
:10190000F0FCEEFC8080008000010F070101030362
:10191000031F7EEE7E0303010000000000000000B4
:101920000000000000000000000011110000000095
:101930000E1E3EECF870B0D8FC3C1C000000000C01
:1019400038306C4F07070303070D1F1E1C000000F3
:101950000000000000000000000000000000001176
:101960001100207070D0F0F0FC8EFCF0F0D07070A0
:1019700020000000000000406067FF67604000003A
:101980000000000000000000000000000000000057
:101990000000000080E0F0E0000A3F7F3F0200000E
:1019A00000000040F0F8F000127FFF7F020000000E
:1019B000000040FCFEFC4017FFFFFF120001030186
:1019C0000060FEFFFE702037FFFFFF772200030755
:1019D00003000005130080E00000000A3F02000041
:1019E0000000000005130040F0000000127F02001C
:1019F000000000000005130040FC40000017FF122B
:101A000000000001000006130060FE2020000037E7
:101A1000FF2722000000030000000E0EEEE0E000B1
:101A200080DCDFFF677373700000E0E0FBBB3FE723
:101A3000E7E7070100C0DCDC1C0001030303000032
:101A4000000000000001010100000F1F6FF4E8FC1E
:101A5000DEFFFFE7F07F1F47E040C0E8FECF0F67E3
:101A6000F7FFFF9F3D10C0E2F76201010103010093
:101A70000000010000030303000000001C1C7CFCAC
:101A8000FCF8F8FC3C1C00000000000038383E1F49
:101A90000F0F070F1F1E1C000000000000000000B9
:101AA0000000000000000000000070F0F0FEFEFEEC
:101AB000F8F0F8F8FC7E3E0E000000F0FDFF7F7F9E
:101AC0003F1F0F1F3F3F7C707000000101010000AD
:101AD00000000000000000000000101200040040A0
:101AE00000000080884200012000000080400011BA
:101AF0000002400200000000800800000000010019
:101B00000000000000000000000000001012060F9E
:101B10000460C0C88C9EC7C060100200400080C036
:101B2000C806070363678F0D100000C06200000045
:101B30000001000000000000000001000000101281
:101B4000000000001070E0E0F0300800000000002D
:101B500000000010080E0707030706080000000039
:101B60000000000000000000000000000000000075
:101B700010122060E0E0FCF8F0E0F0F078380C00A3
:101B800000000000E07D3F3F1F0F070F1F1C3020AB
:101B90000000000000000000000000000000000045
:101BA000000060FEFFFE702037FFFFFF772200037A
:101BB00007030000000080F0FCFEFFFEFCF0F0F0E8
:101BC00070F0F8F8F02002070F7FFFFFFFFFFF7FA4
:101BD0007F7A70FFFFFFFF20000000000103070372
:101BE000010000000000000000000000A0FEFFFE59
:101BF000FC70F0F8F02002072FFFFFFFFF777FFF58
:101C00007F20000000030703010000000000707047
:101C1000FEFFFE707277FFFFFF77000003070300EF
:101C200070F8F8F870FCFEFFFEF0000070FFFFFF98
:101C300077FFFFFFFF7F070200000000000103079E
:101C40000300000070F8F8F8F870F0F0F0FCFEFF08
:101C5000FEFCF080000070FFFFFFFF707A7F7FFFC7
:101C6000FFFFFFFF7F0F07020000000000000000E1
:101C70000001030703010000000006130060FE20BE
:101C800020000037FF27220000000300000012138D
:101C90000000000060FCFEFC606060202020F0F08E
:101CA00020000002070737FFFFFF373732202020D0
:101CB0007F7F200000000000000103010000000001
:101CC0000000000000000C1300000020FEFC20209B
:101CD00020F0200000020727FFFF272220FF20001E
:101CE00000000000030100000000000006130020B7
:101CF00020FE6000002227FF3700000000030000E4
:101D00000C130020F0202060FCFE200000000020CA
:101D10007F202237FDFF25070200000000000000A1
:101D200001030000000012130020B0F0202020600A
:101D30006060BC66BC600030000000206F7F202027
:101D400020323735ED37ED3507670200000000001F
:101D5000000000000000010301000000000000205E
:101D6000B0F0202020606060BC66BC6000600000B5
:101D700000206F7F202020323735ED37ED350737D3
:101D8000020000000000000000000000010301004C
:101D9000000000007CFEFFFFFFFFFFFFFEFFFE7C58
:101DA0000000010101010101010100000C09007C9A
:101DB0008282AA92AA82848E740000000000000031
:101DC0000000000000005F192A19F518C0188B18D0
:101DD00056182118EC17B917861753172017ED1648
:101DE000BA1687165416701B3E1B0C1BDA1AAA1A59
:101DF0007A1A4A1A1A1A261D001DEC1CC61C8E1CC3
:101E0000C61C7A1C001D441C201C0E1CEA1BB41BA3
:101E1000EA1BA21B201C701B3E1B0C1BDA1AAA1A01
:101E20007A1A4A1A1A1A061AF519E419D319C11995
:101E3000B219A3199419973211241FBECFEFDAE01B
:101E4000DEBFCDBF11E0A0E0B1E0E6EDFDE602C0EF
:101E500005900D92AC3CB107D9F727E0ACECB1E0AE
:101E600001C01D92A13DB207E1F71FE0CCE1DFE028
:101E700004C02197FE010E94EE35CB31D107C9F78E
:101E80000E9413240C94E9360C9400008091CF0139
:101E900008950895089580E090E00895CF92DF922C
:101EA000EF92FF920F931F93CF93DF93EC018885FE
:101EB000882309F4EFC08E89882311F081508E8B1E
:101EC0008E898111E7C02B8D2111AAC0498D5A8DB1
:101ED000EF88F88CF7013296E40FF51F0491FA01B0
:101EE000EE0DFF1D849197012F5F3F4FFA01E20F26
:101EF000F31F14919D89292F207FC22EE82F09F00E
:101F0000E1959F70D92E09F01195013809F486C02A
:101F1000083008F051C06889062E000C770B6E0F50
:101F2000711DE7FD7A95072E000C880B990B0E9416
:101F3000C13420E030E040E852E40E941D3420E04B
:101F400030E040E857E40E944D350E9489346883B0
:101F500079838A839B836989062E000C770B610F36
:101F6000711D17FD7A95072E000C880B990B0E94A6
:101F7000C13420E030E040E052E40E941D3420E013
:101F800030E040E857E40E944D350E9489346C836C
:101F90007D838E839F838D85833019F486E08E87C1
:101FA00001C00E87CC2009F468C0EE85D1106CC04A
:101FB000F0E0E156FE4F6BC0EC8F1D8F8E2FEE0FC1
:101FC000990BAA0BBB0BDC01992788274881598103
:101FD0006A817B81840F951FA61FB71F8883998311
:101FE000AA83BB83812F110F990BAA0BBB0BDC01BA
:101FF000992788274C815D816E817F81840F951F91
:10200000A61FB71F8C839D83AE83BF8301500B8FA8
:1020100083E0E80EF11CF88EEF8A3CC018863AC0C7
:102020008C8D082E000C990BAA0BBB0BDC01992799
:102030008827488159816A817B81840F951FA61F5B
:10204000B71F88839983AA83BB838D8D082E000CCC
:10205000990BAA0BBB0BDC01992788274C815D816A
:102060006E817F81840F951FA61FB71F8C839D8370
:10207000AE83BF8321502B8F0DC0DD2049F2EE854A
:10208000F0E0E956FE4F03C0F0E0E157FE4F8081DB
:102090008E87BECFDF91CF911F910F91FF90EF9070
:1020A000DF90CF900895EF920F931F9332E0E32ECD
:1020B00000E010E00E94E91F1F910F91EF9008953A
:1020C0008FB18095807F669B88601C9B846008959B
:1020D00060387105D0F440345105B8F4E7EDF5E10E
:1020E00080E1849FD001A0781124A60F4770E40FEF
:1020F000F11D8491A85EBD4F222319F06C91862BAF
:1021000003C080956C9186238C930895DC011B9607
:10211000ED91FC911C973E9685919491FC018491E0
:102120000895DC011B96ED91FC911C973C968591DE
:102130009491FC01849108950F931F93CF93DF93A3
:1021400000D000D000D0CDB7DEB78C01FC0180817B
:102150009181A281B381CD0101969A838983848183
:102160009581A681B781CD0101969C838B83C8019F
:102170000E9491108D83C8010E94861029813A81A6
:102180004B815C816D81782F80E090E026960FB6C0
:10219000F894DEBF0FBECDBFDF91CF911F910F919D
:1021A0000895FC011082118212821382148215821A
:1021B000168217821286118654874387138A128AE1
:1021C0006587108683E0848B138E86E08787089569
:1021D000CF93C82F0E9475228823E1F38091F001EC
:1021E00020E0843071F442EB55E16EE070E085E769
:1021F00090E00E94531020E048E755E160E070E075
:102200000FC0CC2381F04AE555E161E170E085E73C
:1022100090E00E94531020E04EE255E16AE070E049
:102220008AE690E006C04BEF54E167E070E080E79B
:1022300090E00E94531046E660E480E00E945C2239
:102240004FE760E480E0CF910C945C220F93CF9332
:10225000DF93C0E0D0E0FE01EF52FE4F8381843077
:1022600059F4628170E000E027E734E148EB54E183
:10227000808191810E9403222596C431D10559F7AE
:10228000DF91CF910F9108950F93CF93DF93C0E02B
:10229000D0E0FE01EF52FE4F8381853059F4628118
:1022A00070E000E027E734E148EB54E18081918160
:1022B0000E9403222596C431D10559F7DF91CF91B1
:1022C0000F9108959F92AF92BF92CF92DF92EF92BB
:1022D000FF920F931F93CF93DF93982E01ED11E0A0
:1022E00023EDE22E21E0F22EE701680135E0A32E76
:1022F000B12C9981923001F128F4992361F1913048
:1023000061F039C0933069F196509330A0F568813F
:1023100070E020E04BEB53E129C08091AD07909134
:10232000AE07B5010E94C635892B29F1688170E09E
:1023300020E043E654E11AC08091AD079091AE07CA
:10234000B5010E94C635892BB1F0688170E020E0AC
:102350004FE454E10BC0688170E020E04BE354E1AE
:1023600005C0688170E020E043E254E1F60180811D
:1023700091810E94A51FF5E0CF0ED11C2FEFA21A6C
:10238000B20A259689E0A816B10409F0B2CF80916F
:10239000EE01882371F06091ED01062E000C770BA1
:1023A00020E041E153E18091EB019091EC010E942A
:1023B00053108091EA01882371F06091E901062EA3
:1023C000000C770B20E047E652E18091E701909105
:1023D000E8010E945310911046C1C4EDD1E0B12C28
:1023E00082EAC82ED12C96E0A92EF8018081918135
:1023F0000197918380838A3C9F4F0CF0C4C08091E9
:10240000F001843009F4BFC0F801D182C082BB2042
:1024100019F03297908002C09090E301692D70E02E
:1024200080E090E04AE00E94832386EC91E00E94E5
:102430006B23F5E0F91530F16091FA0170E080E06E
:1024400090E04AE00E94832386EC91E00E946B2397
:102450008091FA01882329F02DE030E040E050E03F
:1024600004C02EE030E040E050E060E070E0CB01DE
:102470000E94401B962E7727882799274AE00E94C2
:10248000832307C06DE070E080E090E00E941C1B99
:10249000962E86EC91E00E946B2388EC91E00E94DE
:1024A0006B23992D9695963030F0892D6A2D0E94D8
:1024B000BA359C5F28C0943030F598838091EA014A
:1024C000882361F02091E901022E000C330B285182
:1024D0003109032E000C440B550B04C028E230E0F8
:1024E00040E050E08091EE01882341F06091ED01E1
:1024F000062E000C770B685E7F4F39C064E070E0F9
:1025000080E090E03CC08CEF890F823078F49883B3
:1025100060E370E080E090E00E941C1BDC01CB01D6
:102520000897A109B109F70180832DC0A882A9826B
:102530008091EA01882361F02091E901022E000CCC
:10254000330B2E513109032E000C440B550B04C0E4
:1025500020E330E040E050E08091EE01882361F01C
:102560006091ED01062E000C770B605E7F4F072E09
:10257000000C880B990B03C060E070E0CB010E9457
:10258000401BF7016083B3940B5F1F4FF5E0EF0E24
:10259000F11C259624E0B21228CF8091EE01882309
:1025A00079F08091EB019091EC0101979093EC010F
:1025B0008093EB01863A9F4F1CF51092EE0120C0EC
:1025C00068E270E080E090E00E941C1B672B682BA3
:1025D000692BB1F481E08093EE0182EA90E0909360
:1025E000EC018093EB0169E070E080E090E00E94F4
:1025F0001C1BDC01CB010A97A109B1098093ED01F5
:102600008091EA01882379F08091E7019091E801B7
:1026100001979093E8018093E701863A9F4F1CF55C
:102620001092EA0120C068E270E080E090E00E9431
:102630001C1B672B682B692BB1F481E08093EA01A6
:1026400082EA90E09093E8018093E70168E070E00F
:1026500080E090E00E941C1BDC01CB01C496A11D10
:10266000B11D8093E901DF91CF911F910F91FF90F0
:10267000EF90DF90CF90BF90AF909F900895CF9351
:10268000DF93C82F88EC90E00E949933D82F89EC13
:1026900090E00E949933D43321F4833311F4CC2396
:1026A00019F164E388EC90E00E94A13363E389ECC4
:1026B00090E00E94A13360E08AEC90E00E94A13398
:1026C00060E070E08CEC90E00E94B33360E070E07A
:1026D0008EEC90E00E94B33360E070E080ED90E01B
:1026E000DF91CF910C94B333DF91CF910895CF93C5
:1026F000DF93809112029091130201968F31910520
:1027000028F4909313028093120204C010921302D3
:10271000109212028091F8019091F901019681398D
:1027200021E0920728F49093F9018093F80104C006
:102730001092F9011092F801C091A107D091A2075F
:1027400020E448E060E070E088E790E00E9420220A
:1027500020E430E049E750E060E070E089E790E095
:102760000E94B52220E040E652E160E070E08BE795
:1027700090E00E945310CE0164E670E00E94C635DE
:10278000EC01660F771FFB01E558FE4F4081518138
:1027900020E066E070E08BE790E00E945310CE01ED
:1027A0006AE070E00E94C635EC01660F771FFB01FE
:1027B000E558FE4F4081518120E06BE070E08BE7EF
:1027C00090E00E945310CC0FDD1FC558DE4F4881AA
:1027D000598120E060E170E08BE790E00E945310A7
:1027E0008091F8019091F90168EC70E00E94C63583
:1027F0006115710521F061307105F1F040C08091E3
:102800009D0790919E0797FD02C0292F01C020E0EF
:102810004EE169E572E187E10E943A238091A607C3
:102820009091A70797FD02C0292F01C020E043E344
:1028300062E572E18EE215C08091A907882331F02C
:1028400080911202909113020F9778F48091A5075E
:102850002BEA829F212D1124269547E264E472E140
:1028600082E2DF91CF910C943A2320E04BE452E1D5
:1028700068E170E08BE790E00E945310E7CFDF91B2
:10288000CF9108952F923F924F925F926F927F92D5
:102890008F929F92AF92BF92CF92DF92EF92FF9270
:1028A0000F931F93CF93DF93CDB7DEB762970FB629
:1028B000F894DEBF0FBECDBF8A8BADEE2A2EA6E008
:1028C0003A2EB0EE8B2EB6E09B2E88EE96E09F87D8
:1028D0008E87A6EFB6E0B98BA88BEFEEF6E0F9870E
:1028E000E887FA89F11105C0D1018C91833029F470
:1028F0001CC0F10180818330C1F4C4010E944E0FDD
:10290000C4010E949C1029833A834B835C832981F4
:102910003A818B819C81AE85BF854C91442329F0FF
:10292000A889B9894C91442399F1FEE12F0E311CFD
:102930002EE1820E911C8E859F854E969F878E87F5
:10294000A889B9895E96B98BA88BE885F9857E96AA
:10295000F987E887F1EA2F16F7E03F0611F662964D
:102960000FB6F894DEBF0FBECDBFDF91CF911F91A0
:102970000F91FF90EF90DF90CF90BF90AF909F901E
:102980008F907F906F905F904F903F902F90089521
:10299000A901460F511D141615063CF620383105C5
:1029A00024F69C01270F311D37FDBFCF80349105E0
:1029B0000CF0BBCFF101F081FF83F33009F031C19E
:1029C0008091940790919507A0919607B0919707F1
:1029D0003D01E9E06E0E711C809198079091990776
:1029E000A0919A07B0919B078D01075F1F4FF401DB
:1029F00080819181A281B3817D01FDE1EF0EF11C07
:102A0000F40184819581A681B7815D01DD24B7FC45
:102A1000D094CD2CC4010E9486106E187F08869534
:102A200090E08A0D9B1D2801481A590A611471040F
:102A300009F43FC0C201550CAA0BBB0BDC0199275E
:102A400088276C017D01FF0CCC08DC2C76019C01F1
:102A5000AD016C2D7C2D8C2D9C2D00E10E94CB3680
:102A60006301770CEE08FF088601FF24EE2457016E
:102A70006801DD0CAA08BA2C6501AA86BB86CC8643
:102A8000DD8657016801EA84FE2C0E2D1E2D0E9462
:102A9000F635F22FE32F8F2F9E2FA42FB52FB7FFE0
:102AA0000CC0B095A095909581959F4FAF4FBF4FAB
:102AB00004C080E090E0A7EEB3E014145CF11614BB
:102AC00074F4AC01BD0141505109610971094730ED
:102AD0005A466105710508F059C082E073C066204E
:102AE00071F0AC01BD0141505109610971094730D4
:102AF0005A466105710508F058C096E071C08B5FB9
:102B00009946A240B10985309649A44EB340C0F51C
:102B10001F8267C0161474F4AC01BD014150510905
:102B20006109710947305A466105710598F4B2E0B0
:102B3000BF8357C06620C9F0AC01BD0141505109A7
:102B40006109710947305A4661057105E8F5E6E00B
:102B5000EF8347C0AC01BD0149505A466109710974
:102B6000413F5F4F61407105E0F18B5F9946A240A4
:102B7000B10986309649A44EB34028F424E013C02E
:102B8000A9E0AF832EC0F9E0FF832BC0AC01BD01EB
:102B900049505A4661097109413F5F4F61407105D3
:102BA00008F0ADCF21E02F831CC0AC01BD0149501E
:102BB0005A4661097109413F5F4F6140710508F054
:102BC0009ECF87E08F830DC0AC01BD0149505A46AE
:102BD00061097109413F5F4F6140710530F695E031
:102BE0009F83A885B9858C91BF81B930B9F0B8179A
:102BF000A9F09F81692F70E0482F50E09B01241BB2
:102C0000350BF90133963797A8F512161306D4F150
:102C1000932F991F9927991F09F04BC0E885F985D3
:102C20008083D401CD90DD90ED90FC9013971496A5
:102C30004D905D906D907C901797EE85FF8580811B
:102C4000882309F472CEA889B9898C9181116DCE3F
:102C50006701FF24D7FCF094EF2C8601C4010E9489
:102C6000911090E08C0D9D1D97FD5FCE00381105F1
:102C700034F15BCE9B01285F3F4F241B350B1216AE
:102C800013067CF4873011F08F5F01C080E0482F7D
:102C900050E09B01241B350BF9013396379708F45C
:102CA000B7CF28EF3FEF241B350B620F731F972F11
:102CB000B0CF882311F08150B1CF87E0AFCF23018F
:102CC000772457FC7094672CD4011B964D915C912E
:102CD0001C97E885F9853197E081F0E03896CF01BF
:102CE000880F991FFA01E80FF91F25913491FC0113
:102CF0007097E40FF51F4591549100E0B201C601B1
:102D00000E940322F1018081833031F4A885B985C6
:102D1000EC91E63009F086C0F401818592851816A1
:102D200019060CF44CC08054910992878187228542
:102D3000822F022E000C990B97FF03C0919581956D
:102D400091092F3FDCF42D3F24F52C3F09F037C0CB
:102D5000D4011B968D919C911C97FC01BE962591E8
:102D60003491FC01B6964591549100E0B201C60140
:102D70000E940322EE85FF85108221C01216FCF00E
:102D8000D4011B964D915C911C97FC017496CF0168
:102D900004C0F401438554854496880F991FFA01B5
:102DA000E80FF91F25913491FC013897E40FF51FC6
:102DB0004591549100E0B201C6010E940322D40162
:102DC00052968D919C915397181619060CF0ADCD23
:102DD000923071F0933011F09130E1F4F401838579
:102DE0009485FC01B89625913491FC01B0960BC0F6
:102DF000D4011B968D919C911C97FC01BA9625914C
:102E00003491FC01B2964591549100E0B201C601A3
:102E10000E940322F4018289938980549140938B0C
:102E2000828B83CDD4011B964D915C911C97F0E071
:102E30003896CF01880F991FFA01E80FF91F2591E5
:102E40003491FC017097E40FF51F4591549100E017
:102E5000B2016D5F7F4FC60148960E9403225CCF8E
:102E6000CF92DF92EF92FF920F938091D606882344
:102E700009F44BC04091D7065091D806052E000C9E
:102E8000660B770B762F652F542F44278091CE0643
:102E90009091CF06A091D006B091D106841B950BDE
:102EA000A60BB70B8093CE069093CF06A093D006C7
:102EB000B093D106CD01BB2797FDB095AB2F9C01F8
:102EC000AC01485F5F4F48385105D0F42091DE06D1
:102ED0003091DF064091DC065091DD06C090D206AD
:102EE000D090D306E090D406F090D5066701FF2479
:102EF000D7FCF094EF2C00E0B6010E94032205C03D
:102F0000283F3F4F14F41092D6060F91FF90EF9098
:102F1000DF90CF9008957F928F929F92AF92BF9251
:102F2000CF92DF92EF92FF920F931F93CF93DF9395
:102F3000CDB7DEB76E970FB6F894DEBF0FBECDBF2C
:102F4000B82E882349F081E08093D001FB01849161
:102F50008093E6018093F7018091D00191E0980F72
:102F60009093D001FB01E80FF11D6491E62FEF7003
:102F7000E093F601607F6093FA01F0E0EE0FFF1F2F
:102F8000E35AFE4F0190F081E02D1092E806109276
:102F900006071092240710924207109260071092C1
:102FA0007E07849000EEE02E06E0F02E8F010E5F8B
:102FB0001F4F86EFC82E86E0D82E912C9EE1A92EB9
:102FC00025E0722E981409F480C0F8013197E4913D
:102FD000E130E1F0B8F0E23049F1E33059F544EB8B
:102FE00051E163E0CE0101960E94D110FE013196BD
:102FF000D7018A2D01900D928A95E1F7F601379756
:10300000708218C046EC5DE160E003C044E152E12B
:1030100061E0CE0101960E94D110FE013196D701E8
:103020008A2D01900D928A95E1F704C044EE51E19A
:1030300062E0EFCFF8018491E82FF0E0EE0FFF1F80
:10304000E35CFE4F80819181D7015A969C938E93C9
:10305000599758961C921E925797F8013196E49111
:10306000D6011697EC93F8013296E4911196EC9301
:10307000F8013396E491D601EC93F8013496E4918B
:10308000F60131971082F8013596E491F8013696F1
:10309000E491D70119961C9219971A96EC931A97F6
:1030A00053961C921E925297F6013E9781E08083C0
:1030B000C7010E944E0F9394BEE1EB0EF11C085F16
:1030C0001F4FEEE1CE0ED11C7DCF8091E6018150E5
:1030D0008093E601BB2009F474C08091EF0190E079
:1030E000FC01E65AFE4F20816091000170910101C0
:1030F000620F711D27FD7A957093010160930001A5
:10310000FC01E95AFE4F2081022E000C330B409146
:10311000020150910301420F531F5093030140934A
:1031200002014091040150910501240F351F309395
:1031300005012093040120910A0130910B012130F7
:10314000F5E23F076CF0FC01EE0FFF1FEF5AFE4F58
:1031500040815181241B350B30930B0120930A01D0
:103160002091060130910701213047E034076CF0CF
:10317000FC01EE0FFF1FE55BFE4F40815181241BD8
:10318000350B3093070120930601209108013091FF
:1031900009012130A7E03A076CF0880F991FFC0164
:1031A000EB5BFE4F80819181281B390B3093090125
:1031B00020930801772788EE93E00E94DA35609328
:1031C000B1076E960FB6F894DEBF0FBECDBFDF918C
:1031D000CF911F910F91FF90EF90DF90CF90BF9014
:1031E000AF909F908F907F9008959091F50124E08B
:1031F000929FF0011124EE56F94F8E5E8083675F37
:103200006183428381E083838091A507815080930D
:10321000A5079F5F9F3019F09093F50108951092D4
:10322000F501089540910F025091100220910D0276
:1032300030910E0242175307B4F49091E800957054
:10324000E1F39091E80092FD19C08093F100809124
:103250000F029091100201968F739927892B19F410
:103260008EEF8093E80080910F02909110020196FA
:103270009093100280930F0281E0089580E00895FA
:10328000DF92EF92FF920F931F93CF93DF93D82E8D
:103290008A017B01E40EF51EEB01CE15DF0571F00E
:1032A000D7FE03C0FE01849101C088810E941219DB
:1032B00021968111F2CF8FEF9FEF01C0C801DF91FE
:1032C000CF911F910F91FF90EF90DF900895615083
:1032D00030F02091F100FC0120830196F8CF28986E
:1032E00084E68093C3070895CF92DF92EF92FF9216
:1032F0000F931F93CF93DF936C017A018B01C0E092
:10330000D0E0CE15DF0589F0D8016D918D01D60191
:10331000ED91FC910190F081E02DC6010995892B7A
:1033200011F47E0102C02196ECCFC701DF91CF914D
:103330001F910F91FF90EF90DF90CF900895CF9362
:10334000DF931F92CDB7DEB76983DC01ED91FC916D
:103350000280F381E02D41E050E0BE016F5F7F4FBE
:1033600009950F90DF91CF91089583E08093E90054
:103370008091F200882319F08AE38093E800089591
:10338000FC018485958597FD0BC09FB7F89482E07A
:103390008093E9008091F2009FBF90E0019608952C
:1033A0009FB7F89482E08093E9008091F2009FBF7C
:1033B00090E0089580910102E091FF01F0910002F8
:1033C000882349F0CF010296909300028093FF0179
:1033D000859194910895CF01029690930002809375
:1033E000FF01808191810895CF92DF92EF92FF9249
:1033F0000F931F93CF93DF930E94DA19811520E872
:10340000920761F4809171008D7F8093710010921A
:103410009100469847981092E5018BC021E02093D7
:10342000E501813020E8920751F48091FD019091EF
:10343000FE01909300028093FF010E94DA1997FD2C
:1034400005C02091FC01222309F43FC02091FB011B
:1034500021113BC021E020930202EC01DF7720978D
:1034600069F481E08093030246983FE9C32E3FE070
:10347000D32EE12CF12CCAEFD0E014C08E0120E055
:1034800030E060E472E48FE090E0A90198010E94CE
:10349000B93369017A0181E0C81AD108E108F1085D
:1034A00010920302E0916806F09169060995811176
:1034B00003C081E080930302809102028823B9F166
:1034C00080910302811133C003C010920202C5CF64
:1034D00046992DC0479A0E94DA19009771F09C0115
:1034E000DE010E940D34DC01CB0129E0B595A795E2
:1034F000979587952A95D1F703C08FEF9FEFDC0151
:10350000109290002AE020939100D0929900C092EE
:1035100098008093040290930502A0930602B09352
:1035200007028091710082608093710002C0479809
:10353000D2CFDF91CF911F910F91FF90EF90DF904D
:10354000CF9008950E94E4360F931F93CF93DF939B
:103550001F92CDB7DEB782E0898342E450E06FED81
:1035600075E180E80E9440190E94FF23DC01129659
:103570000D911C9113970115110569F0D801ED917A
:10358000FC910280F381E02DBE016F5F7F4FC80187
:10359000099597FF07C089810F90DF91CF911F9107
:1035A0000F910895F80100851185E5CF0E94EE2363
:1035B00090E00895CF93DF931F92CDB7DEB7FC0163
:1035C0008485958597FD05C02FEF3FEF35872487CC
:1035D0000BC0CE0101960E94C423019719F4898182
:1035E00090E002C08FEF9FEF0F90DF91CF91089591
:1035F0000F931F93CF93DF931F92CDB7DEB78C014C
:10360000FC018485958597FF0EC0CE0101960E942E
:10361000C423019719F4298130E002C02FEF3FEF56
:10362000F80135872487F801848595850F90DF910F
:10363000CF911F910F910895CF93DF9300D000D0C9
:10364000CDB7DEB7611571058105910579F09B0154
:10365000AC0169833A834B835C830E948B3329815D
:103660003A814B815C810E94B93303C060E070E015
:10367000CB010F900F900F900F90DF91CF91089595
:10368000CF92DF92EF92FF920F931F93621773070F
:103690008407950784F489019A016B017C01C901B3
:1036A000B8016C197D098E099F090E941C1B6C0DC5
:1036B0007D1D8E1D9F1D1F910F91FF90EF90DF903C
:1036C000CF9008951F920F920FB60F9211248F93EF
:1036D0009F938091E1009091E100937F9093E100AE
:1036E00083FF0FC01092E90091E09093EB001092DD
:1036F000EC0092E39093ED001092C40798E0909351
:10370000F00082FF20C093E09093E9009091F200D6
:10371000992319F09AE39093E8009091110299236C
:1037200039F090911102915090931102992389F1EF
:103730009091C307992339F09091C30791509093CA
:10374000C307992341F184FF10C08091E2008E7E6F
:1037500081608093E2008091E1008F7E8093E100A0
:103760008091CD018E7E806111C080FF16C0809156
:10377000E2008E7E80618093E2008091E1008E7E87
:103780008093E1008091CD018E7E81608093CD0198
:1037900004C05D9ACDCF289AD6CF9F918F910F907C
:1037A0000FBE0F901F9018951F920F920FB60F9299
:1037B0001124CF92DF92EF92FF920F931F932F93DA
:1037C0003F934F935F936F937F938F939F93AF93A9
:1037D000BF93EF93FF93CF93DF93CDB7DEB76C9793
:1037E000DEBFCDBF1092E9008091E80083FFEDC1FC
:1037F00068E0CE0145960E94671982EF8093E80049
:103800008D8987FF05C09091E80090FFFCCF03C031
:103810009EEF9093E800982F907609F0C6C09E899D
:103820002F89188D91110CC0803829F48091CE0118
:103830008093F10002C01092F1001092F10048C193
:10384000422F50E0512B913051F4811141C1413050
:10385000510509F03DC18091CE018D7F0BC09330A1
:1038600061F4811135C14130510509F031C18091B8
:10387000CE0182608093CE012BC1953041F48091BE
:10388000E80080FFFCCF20682093E30021C1963040
:1038900009F05FC0EB8CFC8C1092E90010921002D2
:1038A00010920F02123091F510920E0210920D023A
:1038B0000E94A41A99E0BE016F5F7F4FDB01E92FE0
:1038C0001D92EA95E9F799831A8391E09E8390EA25
:1038D00098879AEF998720910F0230911002275F05
:1038E0003F4F3C832B838D831092E900109210028E
:1038F00010920F02F0920E02E0920D0249E050E0A9
:1039000080E00E9440190E94A41AE2C0F0920E02C8
:10391000E0920D020E94FF23DC011296ED90FC90D4
:103920001397E114F10409F4C0C0D701ED91FC91A3
:103930000480F581E02DBE016B5E7F4FC7010995C4
:10394000009719F00CF0C4C0C7C0F701E084F184FF
:10395000E8CF973009F4C0C0983021F481E080931B
:10396000F100B6C0993009F0B3C0837009F0B4C05B
:10397000E8EAF1E081E021E036E39081992361F00B
:103980008093E9002093EB0091919093EC003093A9
:10399000ED008F5F873089F78EE78093EA00109201
:1039A000EA008F898093C40793C08B8D9C8D109201
:1039B000E9001092100210920F0290930E02809371
:1039C0000D02898D811156C08E899D89913A59F4D5
:1039D000813209F081C047E050E063E171E080E0AE
:1039E0000E94401975C0913209F076C0833289F483
:1039F000888D90E0982F88272F89822BA0E0B0E057
:103A000080930F0190931001A0931101B0931201C4
:103A10005FC0803269F48091E80082FFFCCF67E0EC
:103A200083E191E00E9467198BEF8093E80006C064
:103A3000823209F04DC08F8980931A018091CC01A8
:103A4000882319F0EEEFFAE002C0E0E0F8E08091A0
:103A5000130190911401A0911501B0911601803BC2
:103A60009440A105B10509F07BC080911A0180FF47
:103A700093C076C00E94FF23DC0112960D911C9129
:103A800013970115110541F1D801ED91FC910190B9
:103A9000F081E02DBE016B5E7F4FC8010995811159
:103AA00017C0F80100851185ECCF113009F44EC024
:103AB000133091F48F89882309F445C0823081F452
:103AC00040E860E183E496E10E945A32882321F0C5
:103AD0008EEF8093E80079C081E28093EB0075C09F
:103AE000813029F440E86BE087E396E1EDCF833045
:103AF00099F70E94FF23DC011296ED90FC9013973A
:103B00008E010F5F1F4F6801E114F10479F0D701B6
:103B1000ED91FC910680F781E02DB801C701099570
:103B2000080F111DF701E084F184EECFD8011C923B
:103B3000F60101900020E9F73197BF016C197D096A
:103B400040E0C601C1CF61E276E102C065E276E104
:103B50006115710509F2FB01449150E080E840CF06
:103B60000FB6F894A89580916000886180936000FA
:103B7000109260000FBEA895EE3F2AE0F20739F0E0
:103B80008091FE0A9091FF0A91838083A1CF1092C9
:103B9000FF0A1092FE0A9CCFEE3F8AE0F80731F050
:103BA000808191819093FF0A8093FE0A87E797E7CF
:103BB000918380839BE088E10FB6F894A895809369
:103BC00060000FBE9093600083CF6C960FB6F894A0
:103BD000DEBF0FBECDBFDF91CF91FF91EF91BF91BF
:103BE000AF919F918F917F916F915F914F913F9195
:103BF0002F911F910F91FF90EF90DF90CF900F903A
:103C00000FBE0F901F9018953FB7F894809109024E
:103C100090910A02A0910B02B0910C0226B5A89BCC
:103C200005C02F3F19F00196A11DB11D3FBFBA2F4E
:103C3000A92F982F8827820F911DA11DB11DBC01AE
:103C4000CD0142E0660F771F881F991F4A95D1F773
:103C500008958F929F92AF92BF92CF92DF92EF9290
:103C6000FF926B017C010E94041E4B015C01C11498
:103C7000D104E104F104F1F00E94041EDC01CB0147
:103C800088199909AA09BB09883E9340A105B10585
:103C900070F321E0C21AD108E108F10888EE880E1D
:103CA00083E0981EA11CB11CC114D104E104F104ED
:103CB00019F7DDCFFF90EF90DF90CF90BF90AF90DE
:103CC0009F908F9008958F929F92AF92BF92CF92C4
:103CD000DF92EF92FF920F931F93CF93DF935C01DC
:103CE0006B017A0180911A01882309F45BC08091ED
:103CF000C407882309F456C08091CD0180FF05C018
:103D00008091E00082608093E000E70110E00AEF1C
:103D100083E0882E9AE3992E2097D9F10E94EE2312
:103D200081110AC0015009F43DC061E070E080E0FB
:103D300090E00E94291EF0CF282F30E0C217D30751
:103D40000CF48C2F4FB7F8948092E9009091E80022
:103D500095FF1DC0282F30E0C21BD30BF601982F12
:103D6000915020F081918093F100FACFC20ED31EC2
:103D7000112319F09092E80009C08091E80085FDB8
:103D800006C09092E80011E0209709F010E04FBFC4
:103D9000C3CF1111C3CF5D9884E6809311021E1426
:103DA0001F0444F081E090E0F5019383828380E07A
:103DB00090E001C0C701DF91CF911F910F91FF905B
:103DC000EF90DF90CF90BF90AF909F908F9008952D
:103DD0001F920F920FB60F9211242F933F938F9340
:103DE0009F93AF93BF938091140290911502A0917D
:103DF0001602B09117023091080223E0230F2D37ED
:103E000020F40196A11DB11D05C026E8230F0296DE
:103E1000A11DB11D209308028093140290931502F6
:103E2000A0931602B09317028091090290910A02A2
:103E3000A0910B02B0910C020196A11DB11D8093BF
:103E4000090290930A02A0930B02B0930C02BF9157
:103E5000AF919F918F913F912F910F900FBE0F9037
:103E60001F9018951F920F920FB60F9211242F9347
:103E70003F934F935F936F937F938F939F93AF93F2
:103E8000BF93EF93FF938091040290910502A0915C
:103E90000602B0910702892B8A2B8B2B81F180912E
:103EA000030281110BC098B180E4892788B9809101
:103EB0000202882319F088B1805888B980910402E1
:103EC00090910502A0910602B091070218161906FA
:103ED0001A061B06B4F48091040290910502A09189
:103EE0000602B09107020197A109B109809304026B
:103EF00090930502A0930602B093070202C00E94AD
:103F0000F419FF91EF91BF91AF919F918F917F91A4
:103F10006F915F914F913F912F910F900FBE0F9036
:103F20001F9018959C01E1E7F0E090819D7F9083C0
:103F300081E080930102309300022093FF013093CF
:103F4000FE012093FD010C94F419EF920F931F933F
:103F50003AEFE32E00E010E00E94E91F1F910F915D
:103F6000EF900895CF93DF9300D000D000D0CDB76D
:103F7000DEB7E4E9F7E080819181A281B381CD01D0
:103F80000196282F9A83898384819581A681B781A0
:103F9000CD010196482F9C838B8383859485FC01FA
:103FA00065917491FB0164916250FC01859194913B
:103FB000FC013196749172503A815C8180E090E00E
:103FC00026960FB6F894DEBF0FBECDBFDF91CF911E
:103FD00008956F927F928F929F92AF92BF92CF92ED
:103FE000DF92EF92FF920F931F93CF93DF9300D056
:103FF00000D0CDB7DEB7DC014B017E2D4115510558
:1040000009F4EEC1FA016491319694915A01F2E0FB
:10401000AF0EB11CC62ED12C222309F1492F469593
:1040200046954695E42FF0E041E050E0892F8770F7
:1040300011F440E050E04E0F5F1FC49EF001C59E9A
:10404000F00DD49EF00D1124733011F4EE0FFF1F0C
:104050002E9FA0012F9F500D1124A40EB51E7F3F4F
:1040600031F40115110511F071E001C072E0AD01EC
:104070004C0D5D1D141615060CF0B2C1A038B1052B
:104080000CF0AEC19401290F311D121613060CF06D
:10409000A7C180E4881691040CF0A2C1A114B10458
:1040A00009F49EC1382D3770F40197FC379623E050
:1040B000F595E7952A95E1F72E2F97FE04C0332357
:1040C00011F02FEF2E0FB7FF05C0EE27FF27EA1BD9
:1040D000FB0B02C0E0E0F0E04038510524F050E86E
:1040E0005A1B952E01C0962E9E1AE22E022E000C0F
:1040F000FF082F3F1CF45E2D509501C050E041E0B9
:10410000892F877009F440E0969596959695490F0A
:10411000E40EF11C99E0E916F10414F048E0421BAA
:10412000F42EF51A250F40E82403A00DB11D11242B
:10413000AE0FBF1F569FE00DF11D1124A5014E0FBC
:104140005F1F81E090E05C01032E02C0AA0CBB1C43
:104150000A94E2F7733009F400C1A0F4713009F455
:10416000B3C0723009F03CC18FEF8A9DB0018B9DC6
:10417000700D1124609570957C836B837C806F2C0F
:10418000620E29C07A3F29F07B3F09F029C1F20E67
:1041900087C0F20E51C0FA01E00FF11FE491EA9DD1
:1041A0007001EB9DF00C1124FA82E98227FD07C013
:1041B000FC01F080EF2DE623EE2AFC01E0823111B4
:1041C00013C00F5F1F4F0196091528F32F5F4C0D89
:1041D0005D1DA058BF4F261509F402C1CD01885EB0
:1041E0009D4F00E010E0F0CF27305CF7FC01E05875
:1041F000FF4FE080E7208A80E828E082E2CFFA01E2
:10420000E60FF71FE491EA9D8001EB9D100D11244C
:104210001A83098327FD04C0FC011081012B008350
:10422000311113C06F5F7F4F0196691540F32F5F07
:104230004C0D5D1DA058BF4F2F1509F4D1C0CD0105
:10424000885E9D4F60E070E0F0CF27305CF78C0116
:1042500000581F4FF801E080FA81EF2AF801E08250
:10426000E1CFFA01E00FF11FE491EA9DC001EB9D5F
:10427000900D11249A83898327FD05C08095FB0149
:10428000908189238083311114C00F5F1F4F6F5FAE
:104290007F4F091530F32F5F4C0D5D1DA058BF4FA8
:1042A0002F1509F49DC0BD01685E7D4F00E010E050
:1042B000F0CF273054F7FB01E058FF4F8A818095FB
:1042C000908189238083E1CF0E0F1F1F8F2C820ED8
:1042D000281509F485C0CD01885E9D4F7C0160E002
:1042E00070E0691590F5F801E60FF71FE491EA9D7B
:1042F000C001EB9D900D1124809590959C838B833C
:10430000FA01E60FF71FE491EA9D3001EB9D700C76
:1043100011247A82698227FD05C0F70190818923E3
:10432000682A6082332359F027304CF4F701E058B3
:10433000FF4F90818C8189239A81892B80836F5FC5
:104340007F4FFFEFEF1AFF0ACCCF2F5F4C0D5D1DA3
:104350000C0D1D1DA058BF4FBBCF892D90E0E40F61
:10436000F51FA85EBD4F60E870E0681B790BC81AA6
:10437000D90A8601000F111F592D4F2D792CE32EDC
:10438000CF93DF93ED01EF96EF9622968590C5903F
:10439000EE2059F08A9C4001CA9C600127302CF421
:1043A000F880D094FD20F928F99222233AF0FC906D
:1043B000C094FC20F828FD920C94DF2111965A95A8
:1043C00029F74A9551F0572D23951124E00FF11D3F
:1043D000A60FB11DC60FD11DD9CFDF91CF911124EA
:1043E0000F900F900F900F90DF91CF911F910F9131
:1043F000FF90EF90DF90CF90BF90AF909F908F9005
:104400007F906F900895EF920F931F93F901202FE3
:10441000EE24E3948F010E94E91F1F910F91EF900A
:104420000895E8E1F2E0A0E0B8E000800EBC811160
:10443000012C1197A0FDFDCF0192B9F70DB408959D
:10444000AF92BF92CF92DF92EF92FF920F931F93A2
:10445000CF93DF937B01EC015C01A40EB11C6B01D7
:10446000C20ED11CCA15DB05E4F48701F7FE0FC0AC
:1044700000E010E00CC0081719078CF420E0A80138
:10448000BE018AEA97E00E9468100F5F1F4FC601C5
:1044900021E4C216D1047CF380E490E0ECCF2196B5
:1044A000E1CFDF91CF911F910F91FF90EF90DF90BF
:1044B000CF90BF90AF9008950F931F93CF93DF934A
:1044C000C82FD62F042F10E0DC1750F04C2F50E0EF
:1044D00021E0B8018AEA97E00E946810CE5FF4CF2D
:1044E000DF91CF911F910F9108958FB7F89440916C
:1044F00014025091150260911602709117028FBF3D
:104500008091B207942F981B8091B307882331F0D4
:104510009093B4071092B30780E008952091B107FB
:10452000921740F49F5F9217A0F491E093BF889593
:1045300013BE089581E08093B3074093B207809142
:10454000AD079091AE0701969093AE078093AD07AB
:1045500081E008952091B007282329F49091AF07B6
:10456000982381E009F480E008955F926F927F9232
:104570008F929F92AF92BF92CF92DF92EF92FF9273
:104580000F931F93CF93DF93EC018B017A01A90165
:10459000461B570B57FF03C0519541955109C70161
:1045A0008C1B9D0B97FF03C0919581959109552414
:1045B00053948417950714F0512C0AC09E2D8F2D0B
:1045C0007901292F382F9C2F8D2FE801092F182FC3
:1045D000EC16FD0654F4902F812F8901292F382FD6
:1045E0009C2F8D2FE701E92EF82E37016C1A7D0ADA
:1045F0005901A01AB10AB7FE03C0B194A194B10841
:10460000630177FE03C08FEFC81AD80AD594C79408
:104610000217130714F08FEF01C081E0882E880F76
:104620009908EC16FD06B4F021E0552019F0AE0112
:10463000B80102C0A801BE018AEA97E00E94681092
:10464000CA18DB08D7FE04C0080D191DC60CD71CFC
:104650002196E7CFDF91CF911F910F91FF90EF90BF
:10466000DF90CF90BF90AF909F908F907F906F9092
:104670005F9008950F931F93CF93DF93042FD22F52
:1046800090E020E0AB01BC018BE790E00E9453106A
:10469000D53030F480911202909113020F9780F080
:1046A000C0E010E0CD1760F4B8016C0F711D9B01E4
:1046B00040E850E08BE790E00E94B522CE5FF2CF59
:1046C000DF91CF911F910F91089565E070E080E038
:1046D00090E00C94291EBC01009791F0FC01019020
:1046E0000020E9F73197AF01481B590BE0911806FC
:1046F000F09119060280F381E02D88E196E009949B
:1047000080E090E008958F929F92AF92BF920F93B6
:104710001F93CF93DF93CDB7DEB7A1970FB6F89471
:10472000DEBF0FBECDBF19A2423008F44AE08E01B1
:104730000F5D1F4F842E912CA12CB12CA50194014B
:104740000E94EB33E62FB901CA0101501109EA308A
:1047500014F4E05D01C0E95CD801EC93232B242B19
:10476000252B61F7C8010E946B23A1960FB6F89420
:10477000DEBF0FBECDBFDF91CF911F910F91BF90D4
:10478000AF909F908F900895FC018091C407811194
:1047900003C08FEF9FEF08959FB7F89482E0809356
:1047A000E9002091F20030E01216130614F421E023
:1047B00030E02115310559F0289884E68093C3072D
:1047C0008091F10080838091F200882319F09FBFCF
:1047D000C90108958BE68093E800F9CF2FB7F894CC
:1047E00083E08093E9009091E800892F807295FF23
:1047F00004C09091F20080E4891B2FBF089580913E
:10480000C90781110DC082E08093C50784E08093C1
:10481000C6071092C8071092C70781E08093C907A6
:1048200085EC97E00895CF93DF93CDB7DEB7A797D8
:104830000FB6F894DEBF0FBECDBF789484B582600A
:1048400084BD84B5816084BD85B5826085BD85B534
:10485000816085BD80916E00816080936E001092B2
:10486000810080918100826080938100809181002D
:1048700081608093810080918000816080938000BE
:10488000809191008260809391008091910081607D
:10489000809391008091900081608093900080913E
:1048A000C10084608093C1008091C10082608093C8
:1048B000C1008091C10081608093C1008091C300DC
:1048C00081608093C3008091C00082608093C000AB
:1048D0008091C20081608093C20080917A008460E0
:1048E00080937A0080917A00826080937A00809130
:1048F0007A00816080937A0080917A00806880934A
:104900007A001092C4071092CE011092CD018091CE
:10491000D70081608093D70080EA8093D80089B562
:10492000806189BD89B5826089BD09B400FEFDCF73
:1049300061E070E080E090E00E94291E8091D80044
:104940008F7C80618093D8008091E000807F80938D
:10495000E0008091E1008E7E8093E1008DE0809305
:10496000E200559A209AEEEFFFE7859194918B3FF4
:104970009C4D19F481E08093CC0180E00E943F13AC
:1049800081EC80937C0085B1806F85B984B1877E8E
:1049900084B984B1876E84B95E9A5F988AB1806D5C
:1049A0008AB9769A6E9881B3806F81BB899880B3FB
:1049B0008D7080BB80E58CBD81E08DBD0E9465233C
:1049C0005F9A0E9465235E985C98E8E4F1E08DE0D0
:1049D0008E0F94919EBD00000DB407FEFDCF319661
:1049E0008E13F7CF5C9A81E8809364008091650014
:1049F0008160809365000E94601087FF15C05C98FD
:104A000085EA8EBD00000DB407FEFDCF5C9A2E989E
:104A10002F982D988091640080628093640081E0DB
:104A200083BF889513BEFCCF82E090E00E9499334B
:104A3000882331F03E9A3F9A81E08093CF0104C0F1
:104A40001092CF013E983F988DE790E0909303013C
:104A5000809302018CE291E0909305018093040120
:104A600080E09BE490930B0180930A0180E09EE03C
:104A700090930701809306019093090180930801A8
:104A800082E390E0909301018093000180ED90E03B
:104A90000E9499338093EF0184E18093B107809164
:104AA00064008E7F8093640080917A00806480939C
:104AB0007A0080917A0086FDFCCF009178001091F9
:104AC00079000E94041E20E030E0980111270027A1
:104AD000600F711F821F931F61157105810591057C
:104AE00011F00E9490338091640081608093640093
:104AF000AE014F5F5F4F5A8F498F598D5C5F5FA347
:104B00000E947522882311F40C945D2F80E0E8E167
:104B1000F2E081118FEF002481938193819381933F
:104B20000394D1F78091AF078093B0070E94601083
:104B30008093AF07E091F0018E2F90E087309105D0
:104B400010F00C945D2FFC01EA5AFF4F0C94EE35E7
:104B50001092F4011092D00180EE9FEF9093F30138
:104B60008093F20111E01093F00185E591E00E943D
:104B7000921F1092A4071092A3071092A90780E039
:104B80009EE09093A7078093A60790939E0780933B
:104B90009D072BE42093A5071092A2071092A1076E
:104BA0001092A80710939C0740E050E061E070E08D
:104BB00040939407509395076093960770939707D7
:104BC00040E050E068E170E0409398075093990707
:104BD00060939A0770939B072DE730E030930301B1
:104BE000209302012CE231E030930501209304016F
:104BF00020E03BE430930B0120930A0190930701DE
:104C000080930601909309018093080112C10091DD
:104C1000F2011091F30120E04BE353E0B80186E587
:104C200090E00E94531020E049ED52E063E070E014
:104C30008EE090E00E94531066E470E0601B710B00
:104C400020E04BE858E187E390E00E94531064E3D2
:104C500070E0601B710B20E04BE858E189E290E0C6
:104C60000E9453106EE170E0601B710B20E04BE876
:104C700058E182E390E00E94531020E04BEA52E0BA
:104C800063E070E080E090E00E945310E090EF015C
:104C9000FF24F394FE0C2F2D46E159E065E270E00D
:104CA00082E090E00E945310015011090E378FEFFF
:104CB00018072CF01093F3010093F20106C080E571
:104CC00090E09093F3018093F20181E00E94112221
:104CD00080E40E94AA22882359F091E09E1510F0EA
:104CE000F092EF016091EF0180ED90E00E94A1331E
:104CF00080E20E94AA22882369F08091EF01882334
:104D000019F081508093EF016091EF0180ED90E008
:104D10000E94A13384E00E94AA22882319F086E031
:104D20008093F00188E00E94AA22882311F40C9459
:104D30005D2F82E08093F0011092F4010C945D2FBE
:104D40001092E8061092060710922407109242076C
:104D50001092600710927E0780E090E0FC01EE5612
:104D6000F94F138204968C339105C1F780E090E0EF
:104D7000FC01E659F94F1382049688329105C1F778
:104D80001092A90700E01EE01093A7070093A60762
:104D900010939E0700939D078BE48093A5071092C4
:104DA000A2071092A1071092A80781E080939C07A8
:104DB00080E090E0A1E0B0E08093940790939507A5
:104DC000A0939607B093970780E090E0A8E1B0E049
:104DD0008093980790939907A0939A07B0939B07A5
:104DE0001092D6068DED95E00E94921F80E590E02E
:104DF0009093F3018093F20183E08093F0018DE7BB
:104E000090E090930301809302018CE291E09093F3
:104E100005018093040180E09BE490930B01809353
:104E20000A011093070100930601109309010093F2
:104E3000080182E390E0909301018093000184E1F6
:104E40008093B1070C945D2F8091F401843630F487
:104E50008A3038F406E0B02E09E206C0B12C0EE22A
:104E600003C013E0B12E0CE28091AD0781700E9467
:104E70006211E090F201F090F301A0E5EA16F1046E
:104E8000F4F4B2E0EB16F1040CF046C0EA94EF281B
:104E900009F09DC08091F40165E00E94BA35E92FC8
:104EA000F0E0EE0FFF1FED5CFE4F6081718181E04D
:104EB0000E948B171092F3011092F20188C0F0E566
:104EC000EF16F10409F083C085E0EFE1F1E0A1ED18
:104ED000B1E001900D928A95E1F785E0E4E2F1E01E
:104EE000A6EDB1E001900D928A95E1F785E0E9E247
:104EF000F1E0ABEDB1E001900D928A95E1F785E02C
:104F0000EEE2F1E0A0EEB1E001900D928A95E1F7BA
:104F10001092EE011092EA016B2D70E06E5F7F4FF0
:104F200020E04FEA58E08CE390E00E94531080911B
:104F3000F401C82ED12C10E0833678F0C60101961A
:104F400064E670E00E94DA35262F46E159E0B801A8
:104F50008CE390E00E94531002C08930A8F0C60193
:104F600001966AE070E00E94DA35CB016AE070E0F9
:104F70000E94DA35282F46E159E0B8016A5F7F4F79
:104F80008CE390E00E945310C60101966AE070E045
:104F90000E94DA35B801645F7F4F282F46E159E05F
:104FA0008CE390E00E94531010E41B1949E3612F39
:104FB0008B2D0E945C2245E4612F8B2D0E945C2288
:104FC00021E0E21AF108F092F301E092F2018091FF
:104FD000A6079091A707181619060CF0EAC32091AE
:104FE0009D0730919E07121613060CF0E2C3209124
:104FF000A8072111DEC302978F3F3FEF930729F0E7
:105000009093A7078093A60704C01092A707109259
:10501000A6070E94601087FF1AC0809198079091A0
:105020009907A0919A07B0919B078D3C4CEC94078F
:10503000A105B10564F08C5C9C4CA109B109809379
:10504000980790939907A0939A07B0939B070E94A3
:10505000601084FF19C08091980790919907A091E2
:105060009A07B0919B0700975DE2A507B10564F42C
:1050700084539343AF4FBF4F809398079093990702
:10508000A0939A07B0939B070E94601085FF1AC0F7
:105090008091940790919507A0919607B0919707FA
:1050A0008736E6EE9E07A105B10564F08656964E5A
:1050B000A109B1098093940790939507A09396074F
:1050C000B09397070E94601086FF19C080919407E3
:1050D00090919507A0919607B09197070097F6E6F3
:1050E000AF07B10564F484539343AF4FBF4F809330
:1050F000940790939507A0939607B093970784E041
:105100000E94AA22882319F088E08093A80788E0EB
:105110000E94AA22882309F440C08091A507882311
:10512000E1F18091E501811104C081EA98E00E94DB
:10513000921FC0909407D0909507E0909607F0904A
:1051400097076701FF24D7FCF094EF2C8090980715
:1051500090909907A0909A07B0909B074501BB24B7
:1051600097FCB094AB2C42E0682D8C2D0E94F51872
:105170008091A907882389F09091A507923068F063
:1051800081508093A90741E0682D8C2D0E94F5186D
:1051900043E0682D8C2D0E94F5188091F2019091CA
:1051A000F301892B09F005C38091D606882309F401
:1051B0005DC04090CE065090CF066090D0067090B3
:1051C000D1062301772457FC7094672C8090D20677
:1051D0009090D306A090D406B090D5064501BB248C
:1051E00097FCB094AB2CE091DC06F091DD060491C5
:1051F000319614910E94B21F2B8B3C8B4D8B5E8B92
:105200006F8B788F4B895C898D899E899A01260FD7
:10521000311D4216530654F5202F30E0420E531E26
:10522000441555051CF59C01270F311D8216930668
:10523000ECF4E12FF0E0E80DF91D8E179F07B4F4B0
:1052400046C6813008F053C68091D9069091DA069F
:105250009093A7078093A6071092D6068091E50148
:10526000811104C083E896E00E94921F55E9E52E63
:1052700056E0F52E812C63E0962ED7018C91882381
:10528000E9F1F7013397C080D12C3196A080B12C81
:1052900000EE16E0F8018085882351F13801F9E02D
:1052A0006F0E711CD80119968D919C911A97181642
:1052B0001906F4F4C8010E949C102D873E874F8781
:1052C000588B698B7A8B2D853E858F859889C21680
:1052D000D30674F0260F311DC216D3064CF4A8165F
:1052E000B90634F0870F911DA816B9060CF431C623
:1052F000025E1F4FF7E004391F0761F624E0E20E5B
:10530000F11C31EDE31636E0F30609F0B6CF8091DB
:10531000A80781117DC00E94B21F872F29833A837D
:105320004B835C836D837E83C980DA804B815C8193
:10533000D601A60FB11DBD018A01080F111DEDE6B2
:10534000F6E080E090E020812223D9F09F012350F5
:105350003109D9012C9130E07F01B2E0EB1AF1085C
:10536000D701FC902C153D0564F0261737074CF447
:105370002F2D30E02417350724F0201731070CF4C7
:1053800010C6019634968A309105E9F60E94B21F44
:1053900029833A834B835C836D837E8300E010E036
:1053A000C8018052994FFC012085222361F1258597
:1053B000233049F10E949C102F83388749875A87F0
:1053C0006B877C87E981FA814B815C81FE802F812C
:1053D000388589859A85AD815F01AA0EB11C2A1591
:1053E0003B058CF4260F311DE217F30764F49A0194
:1053F0002F0D311D8217930734F4870F911D481725
:1054000059070CF4D2C7025E1F4F043B110541F649
:1054100080910E01815080930E01811122C130EEE6
:10542000832E36E0932E46EF442E46E0542E2DEE8A
:1054300036E03C8F2B8F212C312CC4010E949C1014
:1054400029833A834B835C836D837E8329813A81F0
:105450008B819C81F2013E974081442309F4E0C096
:10546000D2014C914111DCC03C964081442309F4A7
:10547000D7C0A901460F511D141615060CF0D0C057
:10548000203831050CF0CCC09C01270F311D37FDB1
:10549000C7C0803491050CF0C3C0809194079091EF
:1054A0009507A0919607B09197073D01F9E06F0E1F
:1054B000711C8091980790919907A0919A07B091DB
:1054C0009B077D0129E0E20EF11CD4010D911D9195
:1054D0002D913C915901DD24B7FCD094CD2CEB8D5E
:1054E000FC8D8081833009F48FC5C4010E94911026
:1054F0008695082F10E00A0D1B1DF401848195810B
:10550000A681B7815D01DD24B7FCD094CD2CAB8D95
:10551000BC8D8C91833009F45DC5C4010E94861056
:10552000869590E0601A710AA80EB91EF701EA1973
:10553000FB09FAA3E9A36114710409F44EC5CF0174
:10554000FF0FAA0BBB0BDC01992788276C017D019B
:10555000FF0CCC08DC2C76019C01AD016C2D7C2D60
:105560008C2D9C2D00E10E94CB366301072C000C92
:10557000EE08FF088601FF24EE2457016801DD0CC8
:10558000AA08BA2C6501AD8EBE8ECF8ED8A2570167
:105590006801ED8CFE2C0E2D1E2D0E94F635F22F8B
:1055A000E32F8F2F9E2FA42FB52FB7FF07C0B095E5
:1055B000A095909581959F4FAF4FBF4FEB8DFC8D80
:1055C0003081F201333009F00DC537972081A9A051
:1055D000BAA01A141B040CF40BC5161417040CF013
:1055E0001AC5843B41E29407A105B1050CF4FCC443
:1055F000AC01BD014D56544C610971094F325948F7
:105600006105710518F4213009F4E9C6805E9749F7
:10561000A740B10981329846AF4DB34008F4F7C4B2
:10562000AFEF2A1A3A0ABEE18B0E911CEEE14E0E44
:10563000511C2B8D3C8D225E3F4F3C8F2B8F36E0D3
:105640002316310409F0F9CE6AE070E080E090E0C2
:105650000E941C1BDC01CB010A96A11DB11D809389
:105660000E0180910C0190910D01019790930D0115
:1056700080930C01892B09F09CC08091D606811182
:1056800098C064E070E080E090E00E941C1BF62E61
:105690008091A6079091A707813094400CF432C501
:1056A00080919D0790919E07813094400CF448C5ED
:1056B00051E0F51201C500910A0110910B01C801DA
:1056C000012E000CAA0BBB0B6627782F892F9A2F6F
:1056D00020E032E040E050E00E94B93349013BEE67
:1056E000C32E36E0D32E47E2A42E47E0B42EF0922C
:1056F000DB0681E08093D60620E030E040E850E011
:105700002093CE063093CF064093D0065093D10617
:1057100066E370E080E090E00E941C1BDB019927AB
:1057200088278093D2069093D306A093D406B09393
:10573000D5060E948B339B0177FF04C022273327B5
:10574000261B370BC901992793959093D806809310
:10575000D7060E948B339B0177FF04C02227332793
:10576000261B370BB80168197909C9010E94DA357F
:105770009401280F391F3093DA062093D906B0928E
:10578000DD06A092DC06D092DF06C092DE062091F4
:1057900004013091050140E050E0609102017091F8
:1057A000030180E090E00E94401B70930D01609324
:1057B0000C0102E916E075E9C72E76E0D72EE3E981
:1057C000EE2EE6E0FE2EF6013197E0818E2F90E07E
:1057D0008830910550F5FC01E35AFF4F0C94EE35EB
:1057E000F80180818F5F8083D7018C9181508C93E9
:1057F0001CC0F80105C0D8018C918F5F8C93F70114
:1058000080818F5F11C0F801808181508083D70132
:105810008C918F5FECCFF80105C0D8018C9181503D
:105820008C93F701808181508083D8018C918937D6
:1058300010F0F6011082D7016C91613410F0F6017E
:105840001082D6019C919923A1F070E061507109FA
:1058500090E023E043E001970E942022F70140817D
:1058600050E0D8016C9170E021E08AEA97E00E9454
:1058700068100C5F1F4FB4E0CB0ED11CE4E0EE0EBD
:10588000F11CF6E00E3C1F0709F09DCF0AE616E07A
:105890005DE6C52E56E0D52E6BE6E62E66E0F62ECA
:1058A000F6013197E0818E2F90E08830910550F518
:1058B000FC01EB59FF4F0C94EE35F80180818E5FAF
:1058C0008083D7018C9182508C931CC0F80105C055
:1058D000D8018C918E5F8C93F70180818E5F11C00F
:1058E000F801808182508083D7018C918E5FECCF4C
:1058F000F80105C0D8018C9182508C93F70180810A
:1059000082508083D8018C91893710F0F601108283
:10591000D7018C91813410F0F6011082D6018C9160
:105920008823C1F0F701608170E061507109D801EE
:105930008C9190E023E043E001970E942022F70140
:10594000408150E0D8016C9170E021E08AEA97E054
:105950000E9468100C5F1F4FB4E0CB0ED11CE4E036
:10596000EE0EF11CF6E002391F0709F099CF81E035
:105970000E9442140E9430170E94441180E00E944D
:1059800042146091AD077091AE078090940790909B
:105990009507A0909607B09097074501BB2497FC08
:1059A000B094AB2C409098075090990760909A075C
:1059B00070909B07C40142968239910508F08FC010
:1059C0002301772457FC7094672C8091A60790914F
:1059D000A707181619063CF540919D0750919E07A0
:1059E00041152BEF52070CF0D3C31DC0943008F0C3
:1059F0000AC4913009F0FEC3740137E0E30EF11CD4
:105A0000292F30E0F9013197379718F48F5F809391
:105A1000A8078091A807803411F41092A80741309C
:105A20005D4F0CF0C3C380919D0790919E0718169F
:105A300019060CF442C00C9790939E0780939D0723
:105A4000292F892F990F990B121614F4019702C070
:105A5000809590952C3F3CF42A3F1CF5263F69F534
:105A600010929C072AC02F3F09F03CF540919F07F8
:105A70005091A007FC01FF277496CF01880F991F52
:105A8000FA01E80FF91F25913491FC013897E40FD2
:105A9000F51F4591549100E0B201C4010E94032218
:105AA0000CC0E0919F07F091A007B69645915491E4
:105AB00020E0B201C4010E94A51F2091A6073091E9
:105AC000A707121613065CF080919D0790919E0720
:105AD000181619060CF4ACC302C010929C070E9461
