:100000000C9424100C944C100C944C100C944C1028
:100010000C944C100C944C100C944C100C944C10F0
:100020000C944C100C944C100C9439210C94AB2172
:100030000C944C100C944C100C944C100C944C10D0
:100040000C944C100C944C100C944C100C944C10C0
:100050000C944C100C944C100C944C100C940E12EC
:100060000C944C100C944C100C944C100C944C10A0
:100070000C944C100C944C100C944C100C944C1090
:100080000C9458120C944C100C944C100C944C1072
:100090000C944C100C944C100C944C100C944C1070
:1000A0000C944C100C944C100C944C106D25CC25D9
:1000B0006C26F026952D952D0A2FC82BC42BCD2B01
:1000C000CF2BDB2BD72BDF2BE12B352C312C3A2CF4
:1000D0003C2C482C442C4C2C4E2C713173317531F6
:1000E0007A317F317F317F317F318831883188317A
:1000F00088313D2D3D2D3D2D3D2D3B2DF114D3144B
:10010000E214F71413151315FD14031509150E0247
:10011000111A07040C0008090D031B15060E020135
:10012000171A041C150008090D030B060E00020423
:1001300006181A150C010307090B0D0E0E07080906
:100140000D000102131A0B0C1415060E0001020318
:100150001415060708191A0B0C0DD5F08D14A1C83B
:1001600081CFD9F1AF20005504A8000000B00055A0
:1001700004A80000005C013F03A8005504A800DCAF
:10018000030C067003A8000000B0007003A8000074
:10019000005C017003A800E402A8007003A800A49A
:1001A00003E200E402E200A403E2001704E2003FDD
:1001B00003E2001704E2005504A8000000B0005557
:1001C00004A80000005C013F03A8005504A800DC5F
:1001D000030C067003A8000000B0007003A8000024
:1001E000005C017003A800E402A8007003A800A44A
:1001F00003E200E402E200A403E2001704E2003F8D
:1002000003E200DD04E2007505CF08BA020604E44B
:1002100002A8001003A8003F035F05A403560300D3
:100220000007001704A8005504A800DD04A8007505
:10023000055F05C805560300000700490755017D05
:1002400006A800C8055F05DD04560300000700C8C6
:100250000555017505A80055045603000007001751
:1002600004A800A403A8003F03A800BA020604E4FF
:1002700002A8001003A8003F035F05A40356030073
:100280000007001704A8005504A800DD04A80075A5
:10029000055F05C805560300000700490755017DA5
:1002A00006A800C8055F05DD04AE023F035501C87E
:1002B00005A8007505A80055045F0500800B1E15F4
:1002C00000040E1F001F0E0400150000F20A7A8AB7
:1002D00072020200000000089494A22200000000B4
:1002E00000002F20272827202000000938000000C8
:1002F000C7282621EE20000000BC9292928C0000BC
:100300000000601010157210708880F08888887066
:1003100000000000BC9292928C00000000CA2AEA01
:100320002AC5000000000300010201002A7A50A043
:1003300050A010A090A080808080800040804080ED
:100340004080408040804080408050A8542A954A98
:10035000241010204080000055AA55AA00FF00007C
:100360000000000007040504050405040504050455
:10037000050405040504050405060400000000004A
:1003800001FE01020102001F1010101010101E02C9
:10039000020202020202020202020202020202023D
:1003A00002020202020202020202020354AA54AA38
:1003B00004F2141214121412101010F000A050A81D
:1003C000542A944A241214121412141214121410DF
:1003D00010204080000055AA55AA00FF0000000030
:1003E0000000E020203F00AA5500FE0100000000B0
:1003F000E02020A020A02020E0000000000001FE5E
:10040000152A55AA00FF0000000000001F1014125A
:10041000141215101F00000000001F1015121512F5
:1004200015101F000000000000FF00000000000188
:10043000020408102020202020202020202020201E
:1004400020202020202020202020202020202010BC
:10045000080402010000000000000000000000008D
:100460009468946814C81408140810081000104008
:10047000608080804000800000000000000040A0FC
:1004800040A040204020000000002A55AA5500FF4F
:100490000000000000F01090202040408081010307
:1004A00002020504080810F055AA55AA00FF010130
:1004B000010101011F101215101F00000000001F94
:1004C00010121512151214101111121E0000000046
:1004D00000FF050A050A00FF808080808080F01000
:1004E000101010F08080808080F01010101010101C
:1004F00010101010101010101010101F00000080AD
:1005000040A040A04020400000000000000000008B
:1005100000000000000040A040A04020402040001B
:1005200000000000000054AA55AA05F2190C0603A9
:100530000101010101FF00A040A040A00000000057
:10054000152A152A00FF010101010102040810E02B
:1005500055AA55AA00FF000000000000FE02422B31
:10056000502A5500FE0202020202FE0020502853CB
:100570002A02FE000000000000FF0102050A001F21
:100580002040800000000101010101010101010082
:100590008080000001010101010101010100000052
:1005A0008040201F00000000000000000001020247
:1005B0000202020202020202020100000102020221
:1005C0000202020202020202020100000000000018
:1005D0002C015D0152005D0152005D0152005D0180
:1005E00052000000030072015200720152007201B9
:1005F000520072015200000003008801520088017D
:1006000052008801520088015200000003009F013F
:1006100052009F0152009F0152009F0152000000B2
:100620000300B8015200B8015200B8015200B801ED
:10063000520000000300D2015200D2015200D20148
:100640005200D201520000000300EE015200EE0100
:100650005200EE015200EE015200000003000B02B6
:1006600052000B0252000B0252000B02520000001B
:1006700003000080E4020200750506007D06080004
:10068000750504000080DC00090093000A00830067
:100690000600AF000A000080AF000300260104003E
:1006A000B8010400A50001000080AF001600AF00F3
:1006B0001600AF0016000080387CFEFEFE7CFEFFB8
:1006C000BA00000000000000010010387CFEFFFFAF
:1006D000FFFE6C0000000001010100001FFFFFFF92
:1006E000FFFFFFFEE44000010101010101010000E4
:1006F00009090038444444285492000000000000D6
:100700000000000009090010387CFEFEFE6C0000AD
:1007100000000000000000000A09000EEEEEEEEA04
:10072000AAA4400000000000000000000000030830
:100730000007020700075504690200000D00550478
:10074000690000000D005504690000000100170455
:10075000AB01000001001704D500000001001704E0
:10076000D50000000100DC03810200000100DC0371
:10077000D50000000100A4031C0100000100A40337
:10078000460000006C00A403220000006C00A403DB
:10079000220000006C00A403220000004800700347
:1007A0001C0100000100E4021C01000001007003B4
:1007B0001C01000001003F031C0100000100930226
:1007C0001C01000001003F031C0100000100E402C5
:1007D0008102000001006E024600000001000B02D1
:1007E0004600000001006E024600000001002A02DF
:1007F0007B030080E402F20100009000E40222008A
:1008000000004800E402220000004800E402B100B9
:1008100000006C00E402690000002400E4024600CD
:10082000000048003F03690000002400A4036900A1
:1008300000002400DC030A040000FB00DC03690064
:10084000000024005504460000004800DD04460076
:100850000000480075055D020000240075052200B7
:1008600000004800750522000000480075052200C0
:100870000000B3005504B1000000240075054600D7
:1008800000004800C8057500000018007D066900DA
:1008900000002400C80569060080570016005700B4
:1008A0001600570016000080072991111515951B99
:1008B00011F301E111E100013C4138047900008E9F
:1008C00044444486000413141434D300000101018D
:1008D00001000000154000004428387C1000000092
:1008E000FE0000A86C6E6E0E4E4C680000408080CA
:1008F000C000000000FF0000BB393D191A1A1C8C13
:10090000000004020307010000001F000075757558
:10091000757F777773384C142C94C8D0C4D1802A53
:100920000000372727070F272737001C366F6D7BFE
:10093000321E0D07000000286CEEEEEEEE6C280073
:10094000002040C0E080000000FE0000081C1C0CDD
:100950002E2E266F00000201010300000000FF00A0
:1009600000B7A7A7878FA7A7B7000022141C3E08CF
:100970000000007F0000737B3B3B0B3B3B1B0730C1
:100980008E51414181110E53545454B3000005352A
:100990004D4D340000E712F212E2020310A88989DB
:1009A000081C0807000F080700000720CF21E121DD
:1009B000C1010121508B8A8900009C023E221C004B
:1009C00080030101010101010740708880700888DF
:1009D000702CB2A2A2220000C7282028C7000071F4
:1009E0000AF88A7100009E201C823C0000878887DC
:1009F000C08F8000B0C888898802011C08080808D8
:100A0000080C0728D1919595D51B913D4038047865
:100A10000000CF908E81DE008039444444380000CD
:100A2000111111130D000009180000D19191DF116F
:100A300091111C20B9A4A4A498800000000404040F
:100A400004030000071C8444444484151F83444469
:100A500044F34040782538201900000E04040404B3
:100A6000040607050E11131519110E0E04040404D3
:100A700006041F01010E10110E0E11100C10110EA4
:100A800008081F090A0C080E1110100F011F0E1183
:100A9000110F01021C0102040810101F0E11110E8B
:100AA00011110E0708101E11110E071D8E51504E08
:100AB00081110EE3141014E300000405054D340009
:100AC000000E011F110E00001322000000FC00FEAA
:100AD0000101FDA955FD0101FE00000000C0300824
:100AE000043261E0C0C1E0F1F9800003040830C0C5
:100AF0000F30408030181F0F0F1F3F7F0703038305
:100B000040300F000000FC01FE0000FE54AAFE0071
:100B100000FF0000000000000000000102020202CD
:100B200002020202010000000007308E5141518E86
:100B3000000013141434D30000215111117C101043
:100B40002E242464A60004B2CA8A8A8900001C02EA
:100B50003E221C00000C0800150011111F11110A83
:100B60000400150A40004000A080D0C0E860640482
:100B70001C21391B4B7347070F00205050508888A9
:100B8000880000005E494E48C60000000010157540
:100B900095957200000000002E242464A600040035
:100BA00000003890909219001000000073846014C7
:100BB000E3000000000C38F8A8A8A80402DADADA8A
:100BC0000204F8000000000102020202020100001B
:100BD000008282829EA2A29E0000000000C828C857
:100BE00009C6000000000000000B09099968000018
:100BF0000000000080BC929C908C0000000000006F
:100C000000000609090600000000000938D805FDAB
:100C1000FFFF76FC8804000505070703010001C2F9
:100C200082828EC2029E00005D484848C8080C00BF
:100C300000E5151515E20000000010A989893C089F
:100C400008000007000F08070000000007294E51A8
:100C500041C141110EE010F014E3000058644565F5
:100C60005840400E848484E6808479827008F300C2
:100C70000000000000000000050403040A09060546
:100C80000406090609060504020204080F05040605
:100C9000090701060504070807010F050404040FEE
:100CA00005060504060904090605040F02040906E1
:100CB00005040E04040604050406090909060503D3
:100CC000050507050205056E1171116E0503010189
:100CD0000301070505040E1F1F0A05050E041F0466
:100CE000044C0B00C63ACAA4D5E968F4EAF2EAF269
:100CF000AAF4E9E9F4E874EAF29A649801464080BB
:100D00000084D2C258C898A0928ADAC852C49020EF
:100D100050B000000060108040A020A040804090B3
:100D20009040A020A020A04080905040A0A060044F
:100D30000603040107070707060507070703070659
:100D4000070707070707070607030406060707073D
:100D5000050607070702070705060705000200004A
:100D6000040402050607070607060706060702072A
:100D700006070607060605020403044C0B00C63AE4
:100D8000CAA4D5E968F4EAF2EAF2AAF4E9E9F4E8D7
:100D900074EAF29A6498014640800084D2C258C82E
:100DA00098A0928ADAC852C4902050B00000006027
:100DB000108040A020A0408040909040A020A02023
:100DC000A04080905040A0A06004060304010707E3
:100DD00007070605070707030706070707070707AB
:100DE00007060703040606070707050607070702A5
:100DF00007070506070500020000040402050607B0
:100E0000070607060706060702070607060706067F
:100E100005020403044C0B112E2912554B0B972B82
:100E2000272B272B174B4B174B172BA7AF137F00E5
:100E300055555555007F254F1F5F9FDF8B4F2FCF97
:100E40009FDD1B5D0F030B1117074B7F13AFA72B04
:100E5000174B174B4B172BA7AB272B970B4B551249
:100E6000292E110000000000000000010101010016
:100E70000000000000000000000002000000000070
:100E80000002000001020002020200000000020253
:100E9000010000000000010200000000000000004E
:100EA0000000000000000000000000000000004CF6
:100EB0000B312E2912554B0B172B272B272A174B9B
:100EC0004B170B172B272F130D42310100006A50CF
:100ED000254F1B559FDF8A4F2FCF9BD51F5F0F03D9
:100EE0000B111607CB37CF7FBF77BF7FBBBF7EAF5E
:100EF0007FBF7DBB7FB7BF5F2C99E61B0100000061
:100F000000000000000000000000000000000000E1
:100F100000000000000000000000000000000102CE
:100F200000020202000000000202010000000304AF
:100F30000001020202010001040401020202020295
:100F4000010004050102020300241608C43ACAA4E1
:100F5000D5E968D4D4D4E9E8F679F5E9D6A8E91456
:100F6000E21C01980000000000000000000000806A
:100F700038472897154B97972F554F574F572F1690
:100F800097AB25535C6300100080826098E8EAD23A
:100F900024C0000000000200000000000101000069
:100FA0000101020000001C200C1212152924320934
:100FB0002B0913150807001E10C0243ACAA4D5E94E
:100FC00068F4EAF2EAF2AAF4E9E9F4E874EAF29AD7
:100FD000649801464080000039472817156B97AF89
:100FE0009E6F17972B2B2B964B0B374F5D2F2F5642
:100FF000453906300022168040460198649AF2EA8C
:1010000074A834A969F4AAF2AAF2EA6AB26AF2EA06
:10101000F4A8E9D5A4CA3AC40070863945DE3FFE7B
:1010200057FBF3BBD79FD3BFFFFBFBBDFAFDDEEC45
:10103000C8EBDDF9DB7FFF2847388000081714096B
:101040002A25050A15131713170D0B020B1D0F2563
:10105000250B050B1513160906211800000B0DF8BA
:101060000681A6B0B81818306040070810170707A7
:101070000303010100090CF00E41CED0C080808036
:101080000304080B03030101000910208000000085
:101090000000110402000000882000000009100078
:1010A000000011040000400088200000000000043F
:1010B000010080F8FC5EAFDEBC78F0C000001E7F4F
:1010C000FFAAD7AB57AF5FFFFEF8E080EF7FBA55BE
:1010D000AB57AEDFFFF7E34007FFFDEA57EF77FFBF
:1010E000FF7F070300000003070D06070301000050
:1010F00000000D24000080F85CAEDCB870C0000079
:1011000000001E7FAAD7AB57AF5FFEF8E00000805B
:101110006FBA55AB57AEDFF7E340000007FDEA5763
:10112000EF77FF7F070300000000000305020301C3
:10113000000000000001020408102040804000046C
:10114000000150000081400005FF01500000814077
:101150000006FF00251A0105FF011803180400010D
:1011600019000081400006FF0040FF0028FF0050EA
:1011700000008180C0E0F0F8F8FCFCFCFEFEFEFF01
:10118000FFFFFFFFFFFFFFFFFFFFFFFFFFFFFFFF6F
:10119000FFFFFEFEFEFCFCF8F0C0000103070F0F8E
:1011A0001F1F1F3F3F3F7F7F7F7F7F7F7F7F7F7F2F
:1011B0007F7F7F7F7F7F7F7F7F3F3F3F1F1F0F07A7
:1011C00001FFFFFFFFFFFFFFFFFF01010101010121
:1011D0000101010910FEFDC3BBBBBBC7FFFF01013D
:1011E00001010101010101271080C060B058A85C15
:1011F000AC54AEFA8EF7959FF5979DF7959FFDFF3E
:10120000FD7F7D3FDDDFDD3FFEFEFE0CFC18F0C004
:10121000000103060D0A1D1A153A2F3877547C5722
:10122000745C77547C5F7F5F7F5F7E5D7D5D7E3F1A
:101230003F3F181F0C07010910FF7F87BBBBBBC7CF
:10124000FFFF0001010101010101010910FFFFC7BA
:10125000BB3BBBC7FFFF0101010100010101010907
:1012600010FFFFC7BBBBBB877FFF0101010101016D
:101270000101000910FFFFC7BBBBBBC7EFEF0101B6
:10128000010101010101010910FFFFC7BBBBBBC385
:10129000FDFE0101010101010101010910FFFFC76C
:1012A000BBB8BBC7FFFF0101010101010101010042
:1012B00000000000F0FEFFFFFEFCE0000000000068
:1012C00000000000008000000010387CFEFEFFFFE0
:1012D000FFFFFFFFFFFFFEFEFE7C7C7C7CFEFFFF2E
:1012E000FFFE1000000000001FFFFFFFFF7F0F0147
:1012F00000000000000000000103010000000000E9
:1013000000000000010100000000000000000000DB
:10131000000000000000001A19000000000000F0AA
:101320009E9EFCE0000000000000000000000000A5
:101330000000000010387C547CFFBBBBBBBBFF7CB3
:101340007C7C7C3838383828D6D7FE100000000066
:101350000000001FF3F37F0F0100000000000000F9
:10136000000000010000000000000000000000007C
:10137000000000000000000000000000000000006D
:1013800000111100001C3CFCD8B070E8C422120E01
:1013900000000000001C12110805030307074F6C32
:1013A00030380C00000000000000000000000000C9
:1013B000000000000000111100008080FC828CF011
:1013C0008080800000C0E00000000103037E826294
:1013D0001F0303030101070F0100000000000000CC
:1013E00000000000000000000000001111007090DB
:1013F0001020408080C0C0E46C18386000000000FD
:1014000070797E371B1D2F478990E0000000000097
:1014100000000000000000000000000000000000CC
:1014200011110000000000040CCCFECC0C040000E4
:10143000000000000814141212127FE37F1212122F
:10144000141408000000000000000000000000006C
:101450000000000000111100006038186CE4C0C0EA
:10146000808040201090700000000000E0908947CC
:101470002F1D1B377E797000000000000000000067
:101480000000000000000000000011110000E0C09A
:101490000000808080F08C82FC8080008000010F42
:1014A0000701010303031F62827E030301000000A2
:1014B000000000000000000000000000000000111B
:1014C00011000000000E1222C4C870B0D8FC3C1CF1
:1014D000000000000C38306C4F07070303050811AB
:1014E000121C0000000000000000000000000000CE
:1014F00000000000111100205050909090FC8EFCD4
:10150000909090505020000000000000406067FF65
:1015100067604000000000000000000000000000C4
:10152000000000000000000000060002F0D00000F3
:1015300000010002F0D010000001010000F02400C2
:10154000000201000002240000020002F0204A0014
:1015500001010002F0205A000101050002F0D00054
:101560000000010002F0D028000001010000F94451
:1015700000000200020020000101010002002028FA
:10158000010101050002F0D0000000010002F0D0CE
:1015900028000001010000F94400000200020020C0
:1015A00000010101000200202801010105030000E3
:1015B0000004000005030000F43E0000050002F0F6
:1015C000D0000000010002F0D0230000010002F072
:1015D000D04600000106000000F0120000010000EB
:1015E00000F90000000100000002120000010200EA
:1015F00000E440000002020000F52C00000202009E
:10160000000640000002060003D6D00000000100E2
:1016100003E6E000000001010000EB1400000201FD
:101620000000F9240000020100000734000002015C
:101630000000F940000002050002F0D000000001A7
:101640000002F0D028000001010000F9440000026F
:101650000002F020140001010002F0203C00010112
:1016600004000000F012000001000000F90000007A
:101670000100000002120000010300000030000021
:101680000A0500010005000000010001000514002A
:101690000001000100EC00000101000100EC140059
:1016A0000101000000F92800010104000000E7002A
:1016B000000001000000F9000000010000000B0024
:1016C000000001020000F51600000104000000F116
:1016D000000000010000000300000001010000F113
:1016E00012000002010000031200000205000100C8
:1016F0000500000101000100EC14000001010000E0
:10170000E732000002010000F9320000020100008F
:101710000B3200000205010000E724000002000077
:1017200000F012000001000000F9000000010000BC
:101730000002120000010100000B24000002020060
:10174000000005000000010000000018000001007A
:101750000000FB50000001000000F6680000019B43
:1017600012871273125F124B123712E711D311C195
:1017700011C111C111C111C111C1117311C1110BDD
:101780001DD91CA71C751C451C151CE51BB51B177A
:10179000131713171317131713171317131713AF61
:1017A00012AF12AF12AF12AF12AF12AF12AF120BD5
:1017B0001DD91CA71C751C451C151CE51BB51BF46D
:1017C00014BF148A1455142014EB13B61381135448
:1017D000192119EE18BB18881855182218EF170B85
:1017E0001DD91CA71C751C451C151CE51BB51B0031
:1017F0001E3EFEFEFCF8F8FCFEFF3F1F0F0000003F
:101800003C3E3F3F1F0F07070FCFFFFF7C7C7E0E44
:1018100000000000000000000000000000000000C8
:1018200000000080C0FCFEFFFEFCF0C0C080C0E0F5
:10183000F0E0000103077FFFFFFF7F1F070703079B
:101840000F1F0F0100000000000100000000000059
:10185000000000000078F8F8F8F0E0C0C0E0E6FE14
:10186000FE7C7CFCE00000F0F9FFFF7F3F3F7FFF44
:10187000FFF9F0E0000000000000000000000000A0
:10188000000101010100000000000000040EDEFE66
:10189000FFFEDE0E0400000000081C3E3E3F3F7FBE
:1018A000FFFFFF7F3F3F3E3E1C080000000000009E
:1018B000000001000000000000000000E0FC7C7C53
:1018C000FEFEE6E0C0C0E0F0F8F8F878000000E0C6
:1018D000F0F9FFFF7F3F3F7FFFFFF9F000000000BE
:1018E000010101010000000000000000000000E014
:1018F000F0E0C080C0C0F0FCFEFFFEFCC080000134
:101900000F1F0F070307071F7FFFFFFF7F0703015D
:1019100000000000000000000000000100000000C6
:10192000000000000F1F3FFFFEFCF8F8FCFEFE3E2B
:101930001E00000E7E7C7CFFFFCF0F07070F1F3FAE
:101940003F3E3C00000000000000000000000000DE
:10195000000000002070F8F8F8F8FCFEFFFEFCF82C
:10196000F8F8F870200000000041E1F7FFFFFFF7F2
:10197000E141000000000000000000000000010044
:1019800000000000000000111100001C3CFCD8B059
:1019900070F8EC3E1E0E00000000001C1E1F0D071C
:1019A000030307074F6C30380C00000000000000F4
:1019B0000000000000000000000000001111000005
:1019C0008080FCEEFCF08080800000C0E000000021
:1019D0000103037EEE7E1F0303030101070F0100D5
:1019E00000000000000000000000000000000000F7
:1019F0000011110070F0F060C08080C0C0E46C186D
:101A000038600000000070797F371B1D3F6FF9F0D0
:101A1000E0000000000000000000000000000000E6
:101A200000000000000011110000000000040CCCB8
:101A3000FECC0C04000000000000081C1C161E1E3A
:101A40007FE37F1E1E161C1C080000000000000023
:101A50000000000000000000000000111100006004
:101A600038186CE4C0C08080C060F0F070000000E6
:101A70000000E0F0F96F3F1D1B377F797000000018
:101A80000000000000000000000000000000000056
:101A900011110000E0C00000808080F0FCEEFC80AE
:101AA00080008000010F0701010303031F7EEE7E0B
:101AB000030301000000000000000000000000001F
:101AC00000000000001111000000000E1E3EECF8A6
:101AD00070B0D8FC3C1C000000000C38306C4F0784
:101AE000070303070D1F1E1C00000000000000007C
:101AF00000000000000000000000111100207070C4
:101B0000D0F0F0FC8EFCF0F0D070702000000000EF
:101B10000000406067FF67604000000000000000B8
:101B20000000000000000000000000000000008035
:101B3000E0F0E0000A3F7F3F02000000000040F0BC
:101B4000F8F000127FFF7F02000000000040FCFE62
:101B5000FC4017FFFFFF12000103010060FEFFFEC3
:101B6000702037FFFFFF77220003070300000513F3
:101B70000080E00000000A3F0200000000000005B5
:101B8000130040F0000000127F020000000000007F
:101B900005130040FC40000017FF12000000010088
:101BA0000006130060FE2020000037FF27220000FF
:101BB00000030000000E0EEEE0E00080DCDFFF67B7
:101BC0007373700000E0E0FBBB3FE7E7E70701004D
:101BD000C0DCDC1C00010303030000000000000067
:101BE00001010100000F1F6FF4E8FCDEFFFFE7F0CA
:101BF0007F1F47E040C0E8FECF0F67F7FFFF9F3D24
:101C000010C0E2F7620101010301000000010000C1
:101C1000030303000000001C1C7CFCFCF8F8FC3CE7
:101C20001C00000000000038383E1F0F0F070F1F78
:101C30001E1C00000000000000000000000000006A
:101C4000000000000070F0F0FEFEFEF8F0F8F8FC76
:101C50007E3E0E000000F0FDFF7F7F3F1F0F1F3F05
:101C60003F7C7070000001010100000000000000D6
:101C700000000000001012000400400000008088F6
:101C800042000120000000804000110002400200DC
:101C900000000080080000000001000000000000BB
:101CA000000000000000001012060F0460C0C88C85
:101CB0009EC7C060100200400080C0C806070363D2
:101CC000678F0D100000C0620000000001000000DE
:101CD00000000000000100000010120000000010D1
:101CE00070E0E0F030080000000000000000100884
:101CF0000E070703070608000000000000000000B0
:101D0000000000000000000000000010122060E051
:101D1000E0FCF8F0E0F0F078380C0000000000E0A3
:101D20007D3F3F1F0F070F1F1C30200000000000E9
:101D30000000000000000000000000000060FEFF46
:101D4000FE702037FFFFFF7722000307030000002B
:101D50000080F0FCFEFFFEFCF0F0F070F0F8F8F010
:101D60002002070F7FFFFFFFFFFF7F7F7A70FFFFDB
:101D7000FFFF200000000001030703010000000036
:101D800000000000000000A0FEFFFEFC70F0F8F074
:101D90002002072FFFFFFFFF777FFF7F200000005B
:101DA0000307030100000000007070FEFFFE707268
:101DB00077FFFFFF7700000307030070F8F8F87063
:101DC000FCFEFFFEF0000070FFFFFF77FFFFFFFF4C
:101DD0007F070200000000000103070300000070FD
:101DE000F8F8F8F870F0F0F0FCFEFFFEFCF0800070
:101DF0000070FFFFFFFF707A7F7FFFFFFFFFFF7F15
:101E00000F070200000000000000000001030703AC
:101E1000010000000006130060FE2020000037FFD4
:101E200027220000000300000012130000000060E1
:101E3000FCFEFC606060202020F0F0200000020723
:101E40000737FFFFFF3737322020207F7F20000039
:101E5000000000000103010000000000000000007D
:101E6000000C1300000020FEFC202020F0200000C9
:101E7000020727FFFF272220FF20000000000003A9
:101E8000010000000000000613002020FE6000009A
:101E90002227FF37000000000300000C130020F091
:101EA000202060FCFE2000000000207F202237FD63
:101EB000FF250702000000000000000103000000F1
:101EC0000012130020B0F0202020606060BC66BCCF
:101ED000600030000000206F7F202020323735ED79
:101EE00037ED350767020000000000000000000029
:101EF0000001030100000000000020B0F0202020BD
:101F0000606060BC66BC600060000000206F7F20E5
:101F10002020323735ED37ED35073702000000005D
:101F20000000000000000001030100000000007C30
:101F3000FEFFFFFFFFFFFFFEFFFE7C00000101012F
:101F4000010101010100000C09007C8282AA92AA11
:101F500082848E7400000000000000000000000079
:101F600000FA1AC51A901A5B1A261AF119BC1987B9
:101F70001954192119EE18BB18881855182218EF92
:101F8000170B1DD91CA71C751C451C151CE51BB582
:101F90001BC11E9B1E871E611E291E611E151E9BD6
:101FA0001EDF1DBB1DA91D851D4F1D851D3D1DBBB4
:101FB0001D0B1DD91CA71C751C451C151CE51BB54C
:101FC0001BA11B901B7F1B6E1B5C1B4D1B3E1B2F05
:101FD0001B080B00020202010009040000010202BA
:101FE000000005240010010524010101042402065B
:101FF00005240600010705810310004009040100C3
:10200000020A0000000705020240000007058302E3
:102010004000000403090412010002EF02014041E4
:1020200023368000010102030141726475696E6FFD
:10203000204C4C430041726475696E6F204C656F93
:102040006E6172646F00A63211241FBECFEFDAE01A
:10205000DEBFCDBF11E0A0E0B1E0E2E8FEE602C0E5
:1020600005900D92A23BB107D9F727E0A2EBB1E0B2
:1020700001C01D92AC39B207E1F710E1C4E2D0E132
:1020800004C02197FE010E944436C332D107C9F72C
:102090000E94DB230C943F370C940000CF92DF9218
:1020A000EF92FF920F931F93CF93DF936C017A010E
:1020B0008B01C0E0D0E0CE15DF0589F0D8016D912D
:1020C0008D01D601ED91FC910190F081E02DC601CA
:1020D0000995892B11F47E0102C02196ECCFC7012E
:1020E000DF91CF911F910F91FF90EF90DF90CF90F4
:1020F00008958091D501E091D301F091D401882316
:1021000049F0CF0102969093D4018093D301859139
:1021100094910895CF0102969093D4018093D301B6
:10212000808191810895CF92DF92EF92FF920F9379
:102130001F93CF93DF930E947910811520E89207B7
:1021400061F4809171008D7F8093710010929100F5
:10215000469847981092C4018BC021E02093C40197
:10216000813020E8920751F48091D1019091D20101
:102170009093D4018093D3010E94791097FD05C0FC
:102180002091D001222309F43FC02091CF012111D9
:102190003BC021E02093D601EC01DF77209769F462
:1021A00081E08093D70146983FE9C32E3FE0D32ECC
:1021B000E12CF12CCAEFD0E014C08E0120E030E019
:1021C00060E472E48FE090E0A90198010E940F346E
:1021D00069017A0181E0C81AD108E108F10810927A
:1021E000D701E091EE05F091EF050995811103C04B
:1021F00081E08093D7018091D6018823B9F1809145
:10220000D701811133C003C01092D601C5CF4699C2
:102210002DC0479A0E947910009771F09C01DE0151
:102220000E946334DC01CB0129E0B595A795979511
:1022300087952A95D1F703C08FEF9FEFDC011092AD
:1022400090002AE020939100D0929900C0929800CB
:102250008093D8019093D901A093DA01B093DB0168
:102260008091710082608093710002C04798D2CF44
:10227000DF91CF911F910F91FF90EF90DF90CF9062
:1022800008958091B20108950895089580E090E046
:1022900008950E943A37CF93DF9300D000D0CDB796
:1022A000DEB7611571058105910579F09B01AC01DF
:1022B00069833A834B835C830E94E13329813A81AD
:1022C0004B815C810E940F3403C060E070E0CB0161
:1022D0000F900F900F900F90DF91CF910895CF92B4
:1022E000DF92EF92FF920F931F9362177307840799
:1022F000950784F489019A016B017C01C901B80139
:102300006C197D098E099F090E944B116C0D7D1D72
:102310008E1D9F1D1F910F91FF90EF90DF90CF902A
:102320000895CF93DF93E90121E02C83998388837B
:10233000242F440F330B440B550B062E000C770B48
:10234000880B990B0E946F116A8362E070E080E055
:1023500090E00E944B116B83DF91CF9108953FB7BE
:10236000F8948091DD019091DE01A091DF01B091A0
:10237000E00126B5A89B05C02F3F19F00196A11DCD
:10238000B11D3FBFBA2FA92F982F8827820F911D0B
:10239000A11DB11DBC01CD0142E0660F771F881F52
:1023A000991F4A95D1F708958F929F92AF92BF924D
:1023B000CF92DF92EF92FF926B017C010E94AF11EE
:1023C0004B015C01C114D104E104F104F1F00E945D
:1023D000AF11DC01CB0188199909AA09BB09883E14
:1023E0009340A105B10570F321E0C21AD108E108BC
:1023F000F10888EE880E83E0981EA11CB11CC11460
:10240000D104E104F10419F7DDCFFF90EF90DF90E4
:10241000CF90BF90AF909F908F9008951F920F9292
:102420000FB60F9211242F933F938F939F93AF93E7
:10243000BF938091E8019091E901A091EA01B091E8
:10244000EB013091DC0123E0230F2D3720F40196BE
:10245000A11DB11D05C026E8230F0296A11DB11DC7
:102460002093DC018093E8019093E901A093EA01B5
:10247000B093EB018091DD019091DE01A091DF012D
:10248000B091E0010196A11DB11D8093DD019093F3
:10249000DE01A093DF01B093E001BF91AF919F9166
:1024A0008F913F912F910F900FBE0F901F90189515
:1024B0001F920F920FB60F9211242F933F934F93B9
:1024C0005F936F937F938F939F93AF93BF93EF939C
:1024D000FF938091D8019091D901A091DA01B09138
:1024E000DB01892B8A2B8B2B81F18091D701811104
:1024F0000BC098B180E4892788B98091D6018823E0
:1025000019F088B1805888B98091D8019091D9018B
:10251000A091DA01B091DB01181619061A061B0604
:10252000B4F48091D8019091D901A091DA01B091D1
:10253000DB010197A109B1098093D8019093D901DA
:10254000A093DA01B093DB0102C00E949310FF91C7
:10255000EF91BF91AF919F918F917F916F915F911B
:102560004F913F912F910F900FBE0F901F90189594
:102570009C01E1E7F0E090819D7F908381E0809372
:10258000D5013093D4012093D3013093D20120930D
:10259000D1010C949310EF920F931F933AEFE32E17
:1025A00000E010E00E947B1D1F910F91EF900895B5
:1025B000EF920F931F9332E0E32E00E010E00E94B1
:1025C0007B1D1F910F91EF9008958FB18095807FB3
:1025D000669B88601C9B8460089560387105D0F408
:1025E00040345105B8F4E5E3F1E180E1849FD00186
:1025F000A0781124A60F4770E40FF11D8491A25119
:10260000BE4F222319F06C91862B03C080956C91EC
:1026100086238C930895CF92DF92EF92FF920F93CF
:102620001F93CF93DF93EC018885882309F4EFC0D3
:102630008E89882311F081508E8B8E898111E7C09D
:102640002B8D2111AAC0498D5A8DEF88F88CF70186
:102650003296E40FF51F0491FA01EE0DFF1D8491EF
:1026600097012F5F3F4FFA01E20FF31F14919D89ED
:10267000292F207FC22EE82F09F0E1959F70D92ED7
:1026800009F01195013809F486C0083008F051C0EE
:102690006889062E000C770B6E0F711DE7FD7A9589
:1026A000072E000C880B990B0E94173520E030E0B4
:1026B00040E852E40E94733420E030E040E857E400
:1026C0000E94A3350E94DF34688379838A839B83C9
:1026D0006989062E000C770B610F711D17FD7A9525
:1026E000072E000C880B990B0E94173520E030E074
:1026F00040E052E40E94733420E030E040E857E4C8
:102700000E94A3350E94DF346C837D838E839F8378
:102710008D85833019F486E08E8701C00E87CC202A
:1027200009F468C0EE85D1106CC0F0E0E35BFE4FA9
:102730006BC0EC8F1D8F8E2FEE0F990BAA0BBB0B6E
:10274000DC0199278827488159816A817B81840F20
:10275000951FA61FB71F88839983AA83BB83812FE8
:10276000110F990BAA0BBB0BDC01992788274C8111
:102770005D816E817F81840F951FA61FB71F8C839B
:102780009D83AE83BF8301500B8F83E0E80EF11C65
:10279000F88EEF8A3CC018863AC08C8D082E000C4B
:1027A000990BAA0BBB0BDC0199278827488159811B
:1027B0006A817B81840F951FA61FB71F8883998329
:1027C000AA83BB838D8D082E000C990BAA0BBB0B23
:1027D000DC01992788274C815D816E817F81840F80
:1027E000951FA61FB71F8C839D83AE83BF83215087
:1027F0002B8F0DC0DD2049F2EE85F0E0EB5BFE4F44
:1028000003C0F0E0E35CFE4F80818E87BECFDF9196
:10281000CF911F910F91FF90EF90DF90CF9008958F
:10282000DC011B96ED91FC911C973E96859194914D
:10283000FC0184910895DC011B96ED91FC911C979D
:102840003C9685919491FC01849108950F931F9378
:10285000CF93DF9300D000D000D0CDB7DEB78C018E
:10286000FC0180819181A281B381CD0101969A837F
:10287000898384819581A681B781CD0101969C834E
:102880008B83C8010E941B148D83C8010E94101401
:1028900029813A814B815C816D81782F80E090E0C5
:1028A00026960FB6F894DEBF0FBECDBFDF91CF9155
:1028B0001F910F910895FC011082118212821382E0
:1028C00014821582168217821286118654874387D6
:1028D000138A128A6587108683E0848B138E86E0C4
:1028E000878708950F93CF93DF93C0E0D0E0FE0178
:1028F000EC54FE4F8381843059F4628170E000E033
:1029000021EB30E142EF50E1808191810E94DF1E96
:102910002496C031D10559F7DF91CF910F910895D9
:102920000F93CF93DF93C0E0D0E0FE01EC54FE4F55
:102930008381853059F4628170E000E021EB30E161
:1029400042EF50E1808191810E94DF1E2496C031C8
:10295000D10559F7DF91CF910F9108959F92AF92D2
:10296000BF92CF92DF92EF92FF920F931F93CF937C
:10297000DF93982E94EBE92E91E0F92E26EBC22EF0
:1029800021E0D22EE601870135E0A32EB12CE981AA
:102990004E2F50E04930510508F045C0FA01E25889
:1029A000FF4F0C9444368091240790912507B50180
:1029B0000E941C36892BB9F1688170E020E04DE956
:1029C00050E12CC08091240790912507B5010E9409
:1029D0001C36892B41F1688170E020E049E850E124
:1029E0001DC0688170E020E045E750E117C06881B4
:1029F00070E020E04DE550E111C0688170E020E01A
:102A000045EF5FE00BC0688170E020E047EB5FE0DE
:102A100005C0688170E020E049E45FE0F801808152
:102A200091810E94CB120C5F1F4FFFEFAF1ABF0ABC
:102A3000249629E0A216B10409F0A9CF8091F905E6
:102A40008823A9F08091F805882319F045E15EE01C
:102A500002C04FEA5EE06091F705062E000C770B8E
:102A600020E08091F5059091F6050E94D8128091A2
:102A7000F4058823A9F08091F305882319F041EE2D
:102A80005CE002C04BE75DE06091F205062E000CB1
:102A9000770B20E08091F0059091F1050E94D8120B
:102AA00091103EC1C7EBD1E0B12C02EA10E086E004
:102AB000A82EF70180819181019791838083863AC6
:102AC0009F4F0CF0CDC08091C701843009F4C8C07D
:102AD000F70111830083BB2019F03197808102C078
:102AE0008091C301863098F48091CC01882329F02D
:102AF0002DE030E040E050E004C020E130E040E074
:102B000050E060E070E0CB010E946F1106C06DE004
:102B100070E080E090E00E944B11962F96959630E1
:102B200028F0862F6A2D0E9410369A5F943088F024
:102B30009630E8F5988360E470E080E090E00E94D1
:102B40004B11DC01CB014097A109B109F60180834B
:102B500087C098838091F405882361F02091F20565
:102B6000022E000C330B28513109032E000C440BAC
:102B7000550B04C028E230E040E050E08091F905B8
:102B8000882361F06091F705062E000C770B685ED4
:102B90007F4F072E000C880B990B04C064E070E097
:102BA00080E090E00E946F11F601608359C0988325
:102BB0008091F405882361F02091F205022E000C2B
:102BC000330B26523109032E000C440B550B04C065
:102BD00020E330E040E050E08091F905882361F087
:102BE0006091F705062E000C770B685E7F4F072E6D
:102BF000000C880B990B04C06AEF7FEF8FEF9FEFFB
:102C00000E946F11F60160838091F905811112C055
:102C100062E370E080E090E00E944B11DC01CB01A8
:102C200088539F4FAF4FBF4F25EF35E040E06CEF2B
:102C30000E9491118091F405811112C062E370E04D
:102C400080E090E00E944B11DC01CB0188539F4F44
:102C5000AF4FBF4F20EF35E049E365E30E9491118C
:102C6000B394F4E0EF0EF11C24E0C20ED11C2496C4
:102C700084E0B8121ECF8091F905882379F0809105
:102C8000F5059091F60501979093F6058093F5056B
:102C9000863A9F4FACF41092F90512C068E270E0DA
:102CA00080E090E00E944B11672B682B692B41F468
:102CB00025EF35E040E06CEF82EA90E00E94911150
:102CC0008091F405882379F08091F0059091F105C9
:102CD00001979093F1058093F005863A9F4F04F594
:102CE0001092F4051DC068E270E080E090E00E9460
:102CF0004B11672B682B692B99F420EF35E049E3E2
:102D000065E382EA90E0DF91CF911F910F91FF90F0
:102D1000EF90DF90CF90BF90AF909F900C94911167
:102D2000DF91CF911F910F91FF90EF90DF90CF90A7
:102D3000BF90AF909F900895EF92FF920F931F93D3
:102D4000CF93DF938091EC019091ED0101968F314B
:102D5000910528F49093ED018093EC0104C010924A
:102D6000ED011092EC018091CD019091CE01019680
:102D7000813921E0920728F49093CE018093CD0110
:102D800004C01092CE011092CD01E0901807F0908F
:102D9000190708E710E0C0E0D0E020E0AE01B8017C
:102DA00081E297E00E94ED122196C034D105A9F787
:102DB0000F5F1F4F0038110571F720E430E049E73D
:102DC00050E060E070E089E790E00E940C1F20E096
:102DD0004AED5CE060E070E08BE790E00E94D81282
:102DE000C70164E670E00E941C36EC01660F771F95
:102DF000FB01E75DFE4F4081518120E066E070E01D
:102E00008BE790E00E94D812CE016AE070E00E9449
:102E10001C36EC01660F771FFB01E75DFE4F40811A
:102E2000518120E06BE070E08BE790E00E94D812C7
:102E3000CC0FDD1FC75DDE4F4881598120E060E186
:102E400070E08BE790E00E94D8128091CD019091C4
:102E5000CE0168EC70E00E941C366115710521F00E
:102E600061307105F1F044C080911407909115070D
:102E700097FD02C0292F01C020E04EE163ED7CE008
:102E800087E10E94911F80911D0790911E0797FD79
:102E900002C0292F01C020E043E36CEC7CE08EE20D
:102EA00015C080912007882331F08091EC0190912A
:102EB000ED010F9798F480911C072BEA829F212D3A
:102EC0001124269547E26EEB7CE082E2DF91CF9100
:102ED0001F910F91FF90EF900C94911F20E045EC13
:102EE0005CE068E170E08BE790E00E94D812E3CFED
:102EF000DF91CF911F910F91FF90EF9008952F9246
:102F00003F924F925F926F927F928F929F92AF9279
:102F1000BF92CF92DF92EF92FF920F931F93CF93C6
:102F2000DF93CDB7DEB762970FB6F894DEBF0FBE62
:102F3000CDBF8A8BA4E62A2EA6E03A2EB7E58B2ECB
:102F4000B6E09B2E8FE596E09F878E87ADE6B6E0D4
:102F5000B98BA88BE6E6F6E0F987E887FA89F111E4
:102F600005C0D1018C91833029F41CC0F10180810E
:102F70008330C1F4C4010E940B13C4010E942614C3
:102F800029833A834B835C8329813A818B819C819D
:102F9000AE85BF854C91442329F0A889B9894C910D
:102FA000442399F1FEE12F0E311C2EE1820E911C7B
:102FB0008E859F854E969F878E87A889B9895E9654
:102FC000B98BA88BE885F9857E96F987E887F8E1C3
:102FD0002F16F7E03F0611F662960FB6F894DEBFA3
:102FE0000FBECDBFDF91CF911F910F91FF90EF905A
:102FF000DF90CF90BF90AF909F908F907F906F9019
:103000005F904F903F902F900895A901460F511D5A
:10301000141615063CF62038310524F69C01270FBE
:10302000311D37FDBFCF803491050CF0BBCFF101CE
:10303000F081FF83F33009F031C180910B0790914B
:103040000C07A0910D07B0910E073D01E9E06E0E4F
:10305000711C80910F0790911007A0911107B091FA
:1030600012078D01075F1F4FF40180819181A281BA
:10307000B3817D01FDE1EF0EF11CF40184819581A6
:10308000A681B7815D01DD24B7FCD094CD2CC401AD
:103090000E9410146E187F08869590E08A0D9B1D83
:1030A0002801481A590A6114710409F43FC0C20189
:1030B000550CAA0BBB0BDC01992788276C017D01FD
:1030C000FF0CCC08DC2C76019C01AD016C2D7C2D15
:1030D0008C2D9C2D00E10E9421376301770CEE08B6
:1030E000FF088601FF24EE2457016801DD0CAA08C1
:1030F000BA2C6501AA86BB86CC86DD86570168019D
:10310000EA84FE2C0E2D1E2D0E944C36F22FE32F4A
:103110008F2F9E2FA42FB52FB7FF0CC0B095A09571
:10312000909581959F4FAF4FBF4F04C080E090E0D6
:10313000A7EEB3E014145CF1161474F4AC01BD01F5
:10314000415051096109710947305A4661057105BD
:1031500008F059C082E073C0662071F0AC01BD0177
:10316000415051096109710947305A46610571059D
:1031700008F058C096E071C08B5F9946A240B10933
:1031800085309649A44EB340C0F51F8267C016141F
:1031900074F4AC01BD014150510961097109473016
:1031A0005A466105710598F4B2E0BF8357C06620A6
:1031B000C9F0AC01BD0141505109610971094730A5
:1031C0005A4661057105E8F5E6E0EF8347C0AC01BA
:1031D000BD0149505A4661097109413F5F4F614045
:1031E0007105E0F18B5F9946A240B109863096499E
:1031F000A44EB34028F424E013C0A9E0AF832EC04E
:10320000F9E0FF832BC0AC01BD0149505A4661096A
:103210007109413F5F4F6140710508F0ADCF21E07A
:103220002F831CC0AC01BD0149505A466109710988
:10323000413F5F4F6140710508F09ECF87E08F836B
:103240000DC0AC01BD0149505A4661097109413FA9
:103250005F4F6140710530F695E09F83A885B98581
:103260008C91BF81B930B9F0B817A9F09F81692F4F
:1032700070E0482F50E09B01241B350BF901339679
:103280003797A8F512161306D4F1932F991F992793
:10329000991F09F04BC0E885F9858083D401CD9052
:1032A000DD90ED90FC90139714964D905D906D908D
:1032B0007C901797EE85FF858081882309F472CE74
:1032C000A889B9898C9181116DCE6701FF24D7FC43
:1032D000F094EF2C8601C4010E941B1490E08C0D29
:1032E0009D1D97FD5FCE0038110534F15BCE9B012B
:1032F000285F3F4F241B350B121613067CF48730D2
:1033000011F08F5F01C080E0482F50E09B01241B2B
:10331000350BF9013396379708F4B7CF28EF3FEF15
:10332000241B350B620F731F972FB0CF882311F02A
:103330008150B1CF87E0AFCF2301772457FC709441
:10334000672CD4011B964D915C911C97E885F985FB
:103350003197E081F0E03896CF01880F991FFA018C
:10336000E80FF91F25913491FC017097E40FF51FC8
:103370004591549100E0B201C6010E94DF1EF101A7
:103380008081833031F4A885B985EC91E63009F06D
:1033900086C0F40181859285181619060CF44CC07C
:1033A00080549109928781872285822F022E000CFA
:1033B000990B97FF03C09195819591092F3FDCF4FC
:1033C0002D3F24F52C3F09F037C0D4011B968D9179
:1033D0009C911C97FC01BE9625913491FC01B696F8
:1033E0004591549100E0B201C6010E94DF1EEE85B6
:1033F000FF85108221C01216FCF0D4011B964D915E
:103400005C911C97FC017496CF0104C0F4014385C4
:1034100054854496880F991FFA01E80FF91F2591EA
:103420003491FC013897E40FF51F4591549100E069
:10343000B201C6010E94DF1ED40152968D919C916B
:103440005397181619060CF0ADCD923071F09330E9
:1034500011F09130E1F4F40183859485FC01B89674
:1034600025913491FC01B0960BC0D4011B968D912F
:103470009C911C97FC01BA9625913491FC01B2965F
:103480004591549100E0B201C6010E94DF1EF40193
:103490008289938980549140938B828B83CDD40110
:1034A0001B964D915C911C97F0E03896CF01880FE8
:1034B000991FFA01E80FF91F25913491FC017097CB
:1034C000E40FF51F4591549100E0B2016D5F7F4F0D
:1034D000C60148960E94DF1E5CCFCF92DF92EF922A
:1034E000FF920F9380914D06882309F44BC04091C1
:1034F0004E0650914F06052E000C660B770B762F6B
:10350000652F542F44278091450690914606A0913F
:103510004706B0914806841B950BA60BB70B80930A
:10352000450690934606A0934706B0934806CD0102
:10353000BB2797FDB095AB2F9C01AC01485F5F4F57
:1035400048385105D0F420915506309156064091E7
:10355000530650915406C0904906D0904A06E09018
:103560004B06F0904C066701FF24D7FCF094EF2C3B
:1035700000E0B6010E94DF1E05C0283F3F4F14F453
:1035800010924D060F91FF90EF90DF90CF9008952D
:10359000CF93DF93C82F88EC90E00E94EF33D82FB1
:1035A00089EC90E00E94EF33D43321F4833311F49B
:1035B000CC2319F164E388EC90E00E94F73363E3D5
:1035C00089EC90E00E94F73360E08AEC90E00E9482
:1035D000F73360E070E08CEC90E00E94093460E02A
:1035E00070E08EEC90E00E94093460E070E080EDC5
:1035F00090E0DF91CF910C940934DF91CF91089541
:103600007F928F929F92AF92BF92CF92DF92EF9272
:10361000FF920F931F93CF93DF93CDB7DEB76E97D3
:103620000FB6F894DEBF0FBECDBFB82E882349F089
:1036300081E08093B301FB0184918093C501809365
:10364000E3018091B30191E0980F9093B301FB01E6
:10365000E80FF11D6491E62FEF70E093E201607FC7
:103660006093CC01F0E0EE0FFF1FEB58FE4F01908E
:10367000F081E02D10925F0610927D0610929B065D
:103680001092B9061092D7061092F506849007E5BD
:10369000E02E06E0F02E8F010E5F1F4F8DE6C82E44
:1036A00086E0D82E912C9EE1A92E25E0722E98144A
:1036B00009F480C0F8013197E491E130E1F0B8F00D
:1036C000E23049F1E33059F54FE557E163E0CE01CF
:1036D00001960E945B14FE013196D7018A2D01905C
:1036E0000D928A95E1F7F6013797708218C041E68E
:1036F0005FE160E003C04FEB57E161E0CE0101966E
:103700000E945B14FE013196D7018A2D01900D9223
:103710008A95E1F704C04FE857E162E0EFCFF80186
:103720008491E82FF0E0EE0FFF1FEB5AFE4F8081EF
:103730009181D7015A969C938E93599758961C92D3
:103740001E925797F8013196E491D6011697EC93A3
:10375000F8013296E4911196EC93F8013396E491D6
:10376000D601EC93F8013496E491F601319710827A
:10377000F8013596E491F8013696E491D70119964F
:103780001C9219971A96EC931A9753961C921E92B4
:103790005297F6013E9781E08083C7010E940B1388
:1037A0009394BEE1EB0EF11C085F1F4FEEE1CE0ECD
:1037B000D11C7DCF8091C50181508093C501BB2074
:1037C00009F474C08091C60190E0FC01EE58FE4FF0
:1037D00020816091000170910101620F711D27FD30
:1037E0007A957093010160930001FC01E159FE4F4D
:1037F0002081022E000C330B4091020150910301F5
:10380000420F531F50930301409302014091040162
:1038100050910501240F351F3093050120930401B9
:1038200020910A0130910B012130F5E23F076CF045
:10383000FC01EE0FFF1FE759FE4F40815181241B11
:10384000350B30930B0120930A0120910601309132
:103850000701213047E034076CF0FC01EE0FFF1F39
:10386000ED59FE4F40815181241B350B30930701E8
:103870002093060120910801309109012130A7E031
:103880003A076CF0880F991FFC01E35AFE4F8081C4
:103890009181281B390B3093090120930801772768
:1038A00088EE93E00E943036609328076E960FB63C
:1038B000F894DEBF0FBECDBFDF91CF911F910F9166
:1038C000FF90EF90DF90CF90BF90AF909F908F9040
:1038D0007F9008959091E101E92FF0E09F01220F80
:1038E000331FE20FF31FE85EF94F8E5E8083675F40
:1038F0006183406F428380911C07815080931C0735
:103900009F5F9F3019F09093E10108951092E101BB
:1039100008952FB7F89483E08093E9009091E80030
:10392000892F807295FF04C09091F20080E4891B7A
:103930002FBF0895CF93DF931F92CDB7DEB7698372
:10394000DC01ED91FC910280F381E02D41E050E03B
:10395000BE016F5F7F4F09950F90DF91CF91089562
:1039600083E08093E9008091F200882319F08AE3D4
:103970008093E80008950E94891C90E008958F923A
:103980009F92AF92BF92CF92DF92EF92FF920F93EE
:103990001F93CF93DF935C016B017A018091160135
:1039A000882309F45BC08091E701882309F456C09D
:1039B0008091E50180FF05C08091E00082608093E6
:1039C000E000E70110E00AEF83E0882E9AE3992EE9
:1039D0002097D9F10E94891C81110AC0015009F475
:1039E0003DC061E070E080E090E00E94D411F0CF33
:1039F000282F30E0C217D3070CF48C2F4FB7F89460
:103A00008092E9009091E80095FF1DC0282F30E0DA
:103A1000C21BD30BF601982F915020F08191809317
:103A2000F100FACFC20ED31E112319F09092E800D4
:103A300009C08091E80085FD06C09092E80011E081
:103A4000209709F010E04FBFC3CF1111C3CF5D988D
:103A500084E68093E4011E141F0444F081E090E0AA
:103A6000F5019383828380E090E001C0C701DF917C
:103A7000CF911F910F91FF90EF90DF90CF90BF906B
:103A8000AF909F908F900895CF93DF9300D000D098
:103A900000D0CDB7DEB7EBE0F7E080819181A28165
:103AA000B381CD010196282F9A83898384819581E2
:103AB000A681B781CD010196482F9C838B83838596
:103AC0009485FC0165917491FB0164916250FC0145
:103AD00085919491FC013196749172503A815C8188
:103AE00080E090E026960FB6F894DEBF0FBECDBF03
:103AF000DF91CF9108952F923F924F925F926F92F4
:103B00007F928F929F92AF92BF92CF92DF92EF926D
:103B1000FF920F931F93CF93DF9300D000D000D07C
:103B2000CDB7DEB7ED824115510509F42FC1FA0179
:103B300034913196E4914E5F5F4FC32ED12C2223F6
:103B400011F1AE2FA695A695A695AA2EB12CA1E0AF
:103B5000B0E0FE2FF77011F4A0E0B0E0AA0DBB1D9D
:103B6000CA9E5001CB9EB00CDA9EB00C1124FD8190
:103B7000F33011F4AA0CBB1C2A9DD0012B9DB00D73
:103B800011244A0F5B1F2D812F3F39F401151105B8
:103B900011F021E001C022E02D835C01AC0CBD1CC2
:103BA0001A141B040CF0F2C0803891050CF0EEC022
:103BB000DB01AE0FB11D1A161B060CF0E7C0603416
:103BC00071050CF0E3C04115510509F4DFC0F62F73
:103BD000F7706F2EDB0177FD179623E0B595A7955B
:103BE0002A95E1F7FA2F77FF04C0662011F0FFEF66
:103BF000FA0F97FF05C0AA27BB27A81BB90B02C065
:103C0000A0E0B0E020E8A216B10424F020E8722E73
:103C1000781A01C0732E7A1A6F2F0F2E000C770BB3
:103C2000FF3F1CF4E62EE09401C0E12C992493940C
:103C30002E2F277009F4912CE695E695E6959E0EB9
:103C4000690D711D693071051CF0E8E09E2E9F1A08
:103C5000FE2CFF0E6F2D20E86203800D911D1124B4
:103C60008A0F9B1F61E070E0062C02C0660F771F71
:103C70000A94E2F72D81233011F0E1E001C0E2E087
:103C8000C718D108EC9D802C1124CE2ED12CE39E98
:103C9000A00DB11D1124CA9E9001CB9E300DDA9E5D
:103CA000300D11245A01A20EB31E0115110509F0A1
:103CB000A801D60111972A0F3B1F420F531FAFEFE8
:103CC000A69F9001A79F300D112429014094509484
:103CD000F90DFE83282D30E0E79D200D311D1124C4
:103CE000EE81FE1609F452C0DC01A251BE4F4A011A
:103CF0008501E12CE71409F441C0F8013490369EA7
:103D0000F001379EF00D1124FA83E983E095F095D8
:103D1000FC83EB83FD81F23019F45C824B8211C08D
:103D2000ED81EB3F19F41A8219820BC0F401349033
:103D3000369EF001379EF00D1124E095F095FC833E
:103D4000EB83F7FC06C0FC91EB81EF23F981EF2BAD
:103D5000EC93662061F0F6E0FF154CF0FD01E058B1
:103D6000FF4F20803C8023203A80322830828C0C08
:103D70009D1C0C0D1D1DE3941196BCCFF394A20E57
:103D8000B31E420F531F80589F4FAACF26960FB6DF
:103D9000F894DEBF0FBECDBFDF91CF911F910F9181
:103DA000FF90EF90DF90CF90BF90AF909F908F905B
:103DB0007F906F905F904F903F902F900895EF927B
:103DC0000F931F93F901202FEE24E3948F010E949B
:103DD0007B1D1F910F91EF90089565E070E080E0EA
:103DE00090E00C94D4110F931F93CF93DF93C82FBF
:103DF000D62F042F10E0DC1750F04C2F50E021E0BC
:103E0000B80181E297E00E94ED12CE5FF4CFDF911E
:103E1000CF911F910F9108955F926F927F928F9231
:103E20009F92AF92BF92CF92DF92EF92FF920F9349
:103E30001F93CF93DF93EC018B017A01A901461BFD
:103E4000570B57FF03C0519541955109C7018C1B72
:103E50009D0B97FF03C0919581959109552453942B
:103E60008417950714F0512C0AC09E2D8F2D7901CF
:103E7000292F382F9C2F8D2FE801092F182FEC1692
:103E8000FD0654F4902F812F8901292F382F9C2F64
:103E90008D2FE701E92EF82E37016C1A7D0A5901A2
:103EA000A01AB10AB7FE03C0B194A194B10863018E
:103EB00077FE03C08FEFC81AD80AD594C7940217AB
:103EC000130714F08FEF01C081E0882E880F990846
:103ED000EC16FD06B4F021E0552019F0AE01B80152
:103EE00002C0A801BE0181E297E00E94ED12CA184B
:103EF000DB08D7FE04C0080D191DC60CD71C21967F
:103F0000E7CFDF91CF911F910F91FF90EF90DF905E
:103F1000CF90BF90AF909F908F907F906F905F9069
:103F200008950F931F93CF93DF93042FD22F90E028
:103F300020E0AB01BC018BE790E00E94D812D530A5
:103F400030F48091EC019091ED010F9780F0C0E08A
:103F500010E0CD1760F4B8016C0F711D9B0140E8B3
:103F600050E08BE790E00E940C1FCE5FF2CFDF9114
:103F7000CF911F910F910895EEEEF1E0A0E0B8E02F
:103F800000800EBC8111012C1197A0FDFDCF019284
:103F9000B9F70DB408958FB7F8944091E8015091A6
:103FA000E9016091EA017091EB018FBF80912907CF
:103FB000942F981B80912A07882331F090932B0728
:103FC00010922A0780E0089520912807921740F464
:103FD0009F5F9217A0F491E093BF889513BE089558
:103FE00081E080932A0740932907809124079091CC
:103FF00025070196909325078093240781E0089573
:1040000020912707282329F490912607982381E0FF
:1040100009F480E00895FC018091E701811103C05B
:104020008FEF9FEF08959FB7F89482E08093E900A7
:104030002091F20030E01216130614F421E030E073
:104040002115310559F0289884E68093E601809186
:10405000F10080838091F200882319F09FBFC9018D
:1040600008958BE68093E800F9CF809130078111A5
:104070000DC082E080932C0784E080932D0710927E
:104080002F0710922E0781E0809330078CE297E093
:104090000895FC018485958597FD0BC09FB7F89422
:1040A00082E08093E9008091F2009FBF90E001964A
:1040B00008959FB7F89482E08093E9008091F20020
:1040C0009FBF90E0089540919A0750919B072091DF
:1040D00098073091990742175307B4F49091E8007C
:1040E0009570E1F39091E80092FD19C08093F10082
:1040F00080919A0790919B0701968F739927892B3E
:1041000019F48EEF8093E80080919A0790919B07B5
:10411000019690939B0780939A0781E0089580E031
:104120000895DF92EF92FF920F931F93CF93DF9347
:10413000D82E8A017B01E40EF51EEB01CE15DF05BA
:1041400071F0D7FE03C0FE01849101C088810E94F6
:10415000632021968111F2CF8FEF9FEF01C0C8013C
:10416000DF91CF911F910F91FF90EF90DF90089515
:10417000615030F02091F100FC0120830196F8CFCE
:10418000289884E68093E6010895CF93DF931F92E9
:10419000CDB7DEB7FC018485958597FD05C02FEF6F
:1041A0003FEF358724870BC0CE0101960E940B207C
:1041B000019719F4898190E002C08FEF9FEF0F9073
:1041C000DF91CF9108950F931F93CF93DF931F92A9
:1041D000CDB7DEB78C01FC018485958597FF0EC0B5
:1041E000CE0101960E940B20019719F4298130E03D
:1041F00002C02FEF3FEFF80135872487F80184854F
:1042000095850F90DF91CF911F910F9108950F9396
:104210001F93CF93DF931F92CDB7DEB782E08983E0
:1042200042E450E061ED7FE180E80E9491200E942D
:104230003520DC0112960D911C9113970115110583
:1042400069F0D801ED91FC910280F381E02DBE016F
:104250006F5F7F4FC801099597FF07C089810F9055
:10426000DF91CF911F910F910895F801008511857D
:10427000E5CF1F920F920FB60F9211248F939F9349
:104280008091E1009091E100937F9093E10083FFA2
:104290000FC01092E90091E09093EB001092EC00B7
:1042A00092E39093ED001092E70198E09093F00074
:1042B00082FF20C093E09093E9009091F20099234F
:1042C00019F09AE39093E8009091E401992339F072
:1042D0009091E40191509093E401992389F1909198
:1042E000E601992339F09091E60191509093E6010F
:1042F000992341F184FF10C08091E2008E7E81609D
:104300008093E2008091E1008F7E8093E1008091B4
:10431000E5018E7E806111C080FF16C08091E200B1
:104320008E7E80618093E2008091E1008E7E80939A
:10433000E1008091E5018E7E81608093E50104C0FB
:104340005D9ACDCF289AD6CF9F918F910F900FBEB7
:104350000F901F9018951F920F920FB60F92112475
:10436000CF92DF92EF92FF920F931F932F933F9381
:104370004F935F936F937F938F939F93AF93BF936D
:10438000EF93FF93CF93DF93CDB7DEB76C97DEBF8C
:10439000CDBF1092E9008091E80083FFEDC168E095
:1043A000CE0145960E94B82082EF8093E8008D8967
:1043B00087FF05C09091E80090FFFCCF03C09EEFFF
:1043C0009093E800982F907609F0C6C09E892F89B7
:1043D000188D91110CC0803829F480919707809333
:1043E000F10002C01092F1001092F10048C1422F7A
:1043F00050E0512B913051F4811141C141305105B0
:1044000009F03DC1809197078D7F0BC0933061F417
:10441000811135C14130510509F031C180919707B3
:104420008260809397072BC1953041F48091E8001A
:1044300080FFFCCF20682093E30021C1963009F073
:104440005FC0EB8CFC8C1092E90010929B071092DD
:104450009A07123091F510929907109298070E94CE
:10446000072199E0BE016F5F7F4FDB01E92F1D92AD
:10447000EA95E9F799831A8391E09E8390EA9887F9
:104480009AEF998720919A0730919B07275F3F4FBA
:104490003C832B838D831092E90010929B0710922E
:1044A0009A07F0929907E092980749E050E080E07F
:1044B0000E9491200E940721E2C0F0929907E092A9
:1044C00098070E943520DC011296ED90FC9013971E
:1044D000E114F10409F4C0C0D701ED91FC9104800E
:1044E000F581E02DBE016B5E7F4FC70109950097F6
:1044F00019F00CF0C4C0C7C0F701E084F184E8CF24
:10450000973009F4C0C0983021F481E08093F10025
:10451000B6C0993009F0B3C0837009F0B4C0ECEABA
:10452000F1E081E021E036E39081992361F080930E
:10453000E9002093EB0091919093EC003093ED0013
:104540008F5F873089F78EE78093EA001092EA0048
:104550008F898093E70193C08B8D9C8D1092E90029
:1045600010929B0710929A0790939907809398074F
:10457000898D811156C08E899D89913A59F4813275
:1045800009F081C047E050E06FE071E080E00E94F8
:10459000912075C0913209F076C0833289F4888DFC
:1045A00090E0982F88272F89822BA0E0B0E080939D
:1045B000170190931801A0931901B0931A015FC0DD
:1045C000803269F48091E80082FFFCCF67E08FE0E1
:1045D00091E00E94B8208BEF8093E80006C0823201
:1045E00009F04DC08F89809316018091960788232A
:1045F00019F0EEEFFAE002C0E0E0F8E080910F0180
:1046000090911001A0911101B0911201803B944052
:10461000A105B10509F07BC08091160180FF93C010
:1046200076C00E943520DC0112960D911C911397E3
:104630000115110541F1D801ED91FC910190F08136
:10464000E02DBE016B5E7F4FC8010995811117C037
:10465000F80100851185ECCF113009F44EC01330FC
:1046600091F48F89882309F445C0823081F440E8B1
:1046700060E185E390E20E945633882321F08EEFBB
:104680008093E80079C081E28093EB0075C08130AF
:1046900029F440E86BE089E290E2EDCF833099F7AE
:1046A0000E943520DC011296ED90FC9013978E014C
:1046B0000F5F1F4F6801E114F10479F0D701ED910C
:1046C000FC910680F781E02DB801C7010995080F1C
:1046D000111DF701E084F184EECFD8011C92F601A0
:1046E00001900020E9F73197BF016C197D0940E086
:1046F000C601C1CF63E170E202C067E170E26115FB
:10470000710509F2FB01449150E080E840CF0FB6FB
:10471000F894A89580916000886180936000109261
:1047200060000FBEA895EE3F2AE0F20739F08091B5
:10473000FE0A9091FF0A91838083A1CF1092FF0A15
:104740001092FE0A9CCFEE3F8AE0F80731F080819C
:1047500091819093FF0A8093FE0A87E797E7918300
:1047600080839BE088E10FB6F894A8958093600061
:104770000FBE9093600083CF6C960FB6F894DEBFA7
:104780000FBECDBFDF91CF91FF91EF91BF91AF9160
:104790009F918F917F916F915F914F913F912F9159
:1047A0001F910F91FF90EF90DF90CF900F900FBE71
:1047B0000F901F901895CF93DF93CDB7DEB7A697D4
:1047C0000FB6F894DEBF0FBECDBF789484B582607B
:1047D00084BD84B5816084BD85B5826085BD85B5A5
:1047E000816085BD80916E00816080936E00109223
:1047F000810080918100826080938100809181009E
:10480000816080938100809180008160809380002E
:1048100080919100826080939100809191008160ED
:1048200080939100809190008160809390008091AE
:10483000C10084608093C1008091C1008260809338
:10484000C1008091C10081608093C1008091C3004C
:1048500081608093C3008091C00082608093C0001B
:104860008091C20081608093C20080917A00846050
:1048700080937A0080917A00826080937A008091A0
:104880007A00816080937A0080917A0080688093BA
:104890007A001092E701109297071092E50180913B
:1048A000D70081608093D70080EA8093D80089B5D3
:1048B000806189BD89B5826089BD09B400FEFDCFE4
:1048C00061E070E080E090E00E94D4118091D80017
:1048D0008F7C80618093D8008091E000807F8093FE
:1048E000E0008091E1008E7E8093E1008DE0809376
:1048F000E200559A209AEEEFFFE7859194918B3F65
:104900009C4D19F481E08093960780E00E94C81ABC
:1049100081EC80937C0085B1806F85B984B1877EFE
:1049200084B984B1876E84B95E9A5F988AB1806DCC
:104930008AB9769A6E9881B3806F81BB899880B36B
:104940008D7080BB80E58CBD81E08DBD0E94ED1E29
:104950005F9A0E94ED1E5E985C98EAE5F1E08DE0BA
:104960008E0F94919EBD00000DB407FEFDCF3196D1
:104970008E13F7CF5C9A81E8809364008091650084
:104980008160809365000E94E51287FF15C05C98E6
:1049900085EA8EBD00000DB407FEFDCF5C9A2E980F
:1049A0002F982D988091640080628093640081E04C
:1049B00083BF889513BEFCCF82E090E00E94EF3366
:1049C000882331F03E9A3F9A81E08093B20104C07F
:1049D0001092B2013E983F988DE790E090930301CA
:1049E000809302018CE291E0909305018093040191
:1049F00080E09BE490930B0180930A0180E09EE0AD
:104A00009093070180930601909309018093080118
:104A100082E390E0909301018093000180ED90E0AB
:104A20000E94EF338093C60184E180932807809130
:104A300064008E7F8093640080917A00806480930C
:104A40007A0080917A0086FDFCCF00917800109169
:104A500079000E94AF1120E030E098011127002773
:104A6000600F711F821F931F6115710581059105EC
:104A700011F00E94E63380916400816080936400AD
:104A8000AE014F5F5F4F5A8F498F0E94CB1F882323
:104A900011F40C949D2F80E0EEEEF1E081118FEF88
:104AA000002481938193819381930394D1F7809122
:104AB0002607809327070E94E51280932607E0913E
:104AC000C7018E2F90E08730910510F00C949D2F38
:104AD000FC01EA5AFF4F0C9444361092CB0110921D
:104AE000B30180EE9FEF9093CA018093C90111E05A
:104AF0001093C70187E691E00E94B81210921B073D
:104B000010921A071092200780E09EE090931E07F3
:104B100080931D0790931507809314072BE420932F
:104B20001C07109219071092180710921F07109374
:104B3000130740E050E061E070E040930B075093B2
:104B40000C0760930D0770930E0740E050E068E19A
:104B500070E040930F075093100760931107709314
:104B600012072DE730E030930301209302012CE27D
:104B700031E0309305012093040120E03BE43093C1
:104B80000B0120930A0190930701809306019093F3
:104B900009018093080119C10091C9011091CA014E
:104BA00020E04CE253E0B80186E590E00E94D81284
:104BB00020E045E55BE063E070E08EE090E00E947D
:104BC000D81220E04BEE52E06CE070E08EE090E016
:104BD0000E94D81266E470E0601B710B20E046E290
:104BE0005AE187E390E00E94D81264E370E0601B12
:104BF000710B20E046E25AE189E290E00E94D8126F
:104C00006EE170E0601B710B20E046E25AE182E346
:104C100090E00E94D81220E04DEB52E063E070E09B
:104C200080E090E00E94D812E090C601FF24F39447
:104C3000FE0C2F2D42E65AE065E270E082E090E043
:104C40000E94D812015011091093CA010093C901A2
:104C50000E371F4F34F480E590E09093CA018093A3
:104C6000C90181E00E94BC1F80E40E9400208823CB
:104C700059F081E08E1510F0F092C6016091C601E6
:104C800080ED90E00E94F73380E20E9400208823AC
:104C900069F08091C601882319F081508093C60184
:104CA0006091C60180ED90E00E94F73384E00E949D
:104CB0000020882319F086E08093C70188E00E94D5
:104CC0000020882311F40C949D2F82E08093C7016B
:104CD0001092CB010C949D2F10925F0610927D06CE
:104CE00010929B061092B9061092D7061092F50604
:104CF000EAE1F6E080818F708083339696E0E734B6
:104D0000F907C1F7ECEFF5E080818F70808333966F
:104D1000A6E0EA31FA07C1F71092200700E01EE092
:104D200010931E0700931D07109315070093140797
:104D30008BE480931C0710921907109218071092A9
:104D40001F0781E08093130780E090E0A1E0B0E0CE
:104D500080930B0790930C07A0930D07B0930E0759
:104D600080E090E0A8E1B0E080930F0790931007F7
:104D7000A0931107B093120710924D068EEC95E0A8
:104D80000E94B81280E590E09093CA018093C90117
:104D900083E08093C7018DE790E0909303018093B7
:104DA00002018CE291E0909305018093040180E080
:104DB0009BE490930B0180930A01109307010093E9
:104DC0000601109309010093080182E390E090939B
:104DD00001018093000184E1809328070C949D2FAA
:104DE0008091CB01843630F48A3038F406E0B02E5E
:104DF00009E206C0B12C0EE203C013E0B12E0CE2B2
:104E00008091240781700E94AE14E090C901F09057
:104E1000CA01B0E5EB16F104F4F4E2E0EE16F10499
:104E20000CF051C0EA94EF2809F0A8C08091CB01A2
:104E300065E00E941036E92FF0E0EE0FFF1FE15E03
:104E4000FE4F6081718181E00E94001B1092CA01B7
:104E50001092C90193C020E5E216F10409F08EC05A
:104E600080E890E09093B5018093B40184E1809351
:104E7000B60183E08093B70186EB90E09093B9018F
:104E80008093B80189E18093BA0181E08093BB01EE
:104E90002CEE30E03093BD012093BC019EE1909355
:104EA000BE0192E09093BF0122E231E03093C10154
:104EB0002093C00193E29093C2018093C3011092AA
:104EC000F9051092F4056B2D70E06E5F7F4F20E0C6
:104ED00048EA58E08CE390E00E94D8128091CB0120
:104EE000C82ED12C10E0833678F0C601019664E616
:104EF00070E00E943036262F42E65AE0B8018CE37B
:104F000090E00E94D81202C08930A8F0C601019634
:104F10006AE070E00E943036CB016AE070E00E94E7
:104F20003036282F42E65AE0B8016A5F7F4F8CE3A3
:104F300090E00E94D812C60101966AE070E00E94DB
:104F40003036B801645F7F4F282F42E65AE08CE389
:104F500090E00E94D81210E41B1949E3612F8B2DB9
:104F60000E94F31E45E4612F8B2D0E94F31E31E059
:104F7000E31AF108F092CA01E092C90180911D077D
:104F800090911E07181619060CF0E5C3209114071E
:104F900030911507121613060CF0DDC320911F0780
:104FA0002111D9C3029790931E0780931D07019684
:104FB00021F410921E0710921D070E94E51287FF30
:104FC0001AC080910F0790911007A0911107B0911E
:104FD00012078D3C5CEC9507A105B10564F08C5C73
:104FE0009C4CA109B10980930F0790931007A093DF
:104FF0001107B09312070E94E51284FF19C0809137
:105000000F0790911007A0911107B0911207009718
:10501000EDE2AE07B10564F484539343AF4FBF4F45
:1050200080930F0790931007A0931107B093120776
:105030000E94E51285FF1AC080910B0790910C0722
:10504000A0910D07B0910E078736F6EE9F07A105D8
:10505000B10564F08656964EA109B10980930B07FD
:1050600090930C07A0930D07B0930E070E94E512D2
:1050700086FF19C080910B0790910C07A0910D0736
:10508000B0910E07009726E6A207B10564F4845399
:105090009343AF4FBF4F80930B0790930C07A093A0
:1050A0000D07B0930E0784E00E940020882319F0BA
:1050B00088E080931F0788E00E940020882309F47D
:1050C00040C080911C078823E1F18091C4018111C7
:1050D00004C08AE998E00E94B812C0900B07D090F3
:1050E0000C07E0900D07F0900E076701FF24D7FC36
:1050F000F094EF2C80900F0790901007A09011076C
:10510000B09012074501BB2497FCB094AB2C42E051
:10511000682D8C2D0E946A1C80912007882389F0BD
:1051200090911C07923068F081508093200741E0F5
:10513000682D8C2D0E946A1C43E0682D8C2D0E94E6
:105140006A1C8091C9019091CA01892B09F003C39F
:1051500080914D06882309F45DC04090450650902B
:10516000460660904706709048062301772457FC56
:105170007094672CC0904906D0904A06E0904B0688
:10518000F0904C066701FF24D7FCF094EF2CE091DF
:105190005306F09154060491319614910E94441DD7
:1051A0002B8B3C8B4D8B5E8B6F8B788F4B895C8907
:1051B0008D899E899A01260F311D4216530654F59A
:1051C000202F30E0420E531E441555051CF59C015E
:1051D000270F311DC216D306ECF4E12FF0E0EC0DE1
:1051E000FD1D8E179F07B4F4B2C6813008F0BFC60C
:1051F000809150069091510690931E0780931D0751
:1052000010924D068091C401811104C084E796E09C
:105210000E94B8125AE1E52E56E0F52E812C63E08B
:10522000962ED7018C91807FE9F1F7013297C080EB
:10523000D12C3196A080B12C07E516E0F8018085CD
:10524000882351F13801F9E06F0E711CD8011996CD
:105250008D919C911A9718161906F4F4C8010E94B2
:1052600026142D873E874F87588B698B7A8B2D8527
:105270003E858F859889C216D30674F0260F311D9E
:10528000C216D3064CF4A816B90634F0870F911D48
:10529000A816B9060CF49DC6025E1F4FF7E00B304E
:1052A0001F0761F623E0E20EF11C37E4E31636E057
:1052B000F30609F0B6CF80911F0781117CC00E94D0
:1052C000441D872F29833A834B835C836D837E83C0
:1052D00009811A81AB80BC80A801460F511DBA011B
:1052E0007501E80EF11CECEFF5E080E090E0D08075
:1052F0002D2D207FC1F09F0122503109D9014C9101
:1053000050E02F5F3F4FD9012C9130E040175107FB
:1053100054F0461757073CF42A153B0524F02E1588
:105320003F050CF480C6019633968A309105F9F654
:105330000E94441D29833A834B835C836D837E8363
:1053400000E010E0C801895A994FFC012085222312
:1053500069F12585233051F10E9426142F83388767
:1053600049875A876B877C87E981FA814B815C8109
:10537000FE802F81388589859A85AD815F01AA0ECF
:10538000B11C2A153B0594F4260F311DE217F307D3
:105390006CF49A012F0D311D821793073CF4870F8F
:1053A000911D4817590714F40C941A32025E1F4FCE
:1053B000043B110539F680910E01815080930E0156
:1053C000811121C137E5832E36E0932E4DE6242E40
:1053D00046E0342E24E636E03C8F2B8F412C512CB6
:1053E000C4010E94261429833A834B835C836D8316
:1053F0007E8329813A818B819C81F1013E97408196
:10540000442309F4E0C0D1014C914111DCC03C9629
:105410004081442309F4D7C0A901460F511D141639
:1054200015060CF0D0C0203831050CF0CCC09C0122
:10543000270F311D37FDC7C0803491050CF0C3C064
:1054400080910B0790910C07A0910D07B0910E076A
:105450003D01F9E06F0E711C80910F0790911007CC
:10546000A0911107B09112077D0129E0E20EF11C15
:10547000D4010D911D912D913C915901DD24B7FC72
:10548000D094CD2CEB8DFC8D8081833009F401C646
:10549000C4010E941B148695082F10E00A0D1B1DE5
:1054A000F40184819581A681B7815D01DD24B7FC7B
:1054B000D094CD2CAB8DBC8D8C91833009F4CFC5AD
:1054C000C4010E941014869590E0601A710AA80E1B
:1054D000B91EF701EA19FB09FAA3E9A361147104E3
:1054E00009F4C0C5CF01FF0FAA0BBB0BDC01992744
:1054F00088276C017D01FF0CCC08DC2C76019C0117
:10550000AD016C2D7C2D8C2D9C2D00E10E9421374E
:105510006301072C000CEE08FF088601FF24EE242F
:1055200057016801DD0CAA08BA2C6501AD8EBE8E4C
:10553000CF8ED8A257016801ED8CFE2C0E2D1E2DAA
:105540000E944C36F22FE32F8F2F9E2FA42FB52FC2
:10555000B7FF07C0B095A095909581959F4FAF4F2D
:10556000BF4FEB8DFC8D3081F101333009F07FC5E9
:1055700037972081A9A0BAA01A141B040CF47DC58A
:10558000161417040CF08CC5843B41E29407A10566
:10559000B1050CF46EC5AC01BD014D56544C61090A
:1055A00071094F3259486105710518F4213009F429
:1055B0005BC7805E9749A740B10981329846AF4DDD
:1055C000B34008F469C58FEF481A580A9EE1890E66
:1055D000911CAEE12A0E311CEB8DFC8D7E96FC8F6A
:1055E000EB8FF6E04F16510409F0FACE6AE070E056
:1055F00080E090E00E944B11DC01CB010A96A11DD6
:10560000B11D80930E0180910C0190910D010197C5
:1056100090930D0180930C01892B09F09CC080911F
:105620004D06811198C064E070E080E090E00E9437
:105630004B11B62E80911D0790911E07813094402A
:105640000CF4A5C580911407909115078130944002
:105650000CF4BBC531E0B31274C500910A0110917E
:105660000B01C801012E000CAA0BBB0B6627782F7B
:10567000892F9A2F20E032E040E050E00E940F3462
:1056800049016CEDE62E66E0F62E78E1C72E77E054
:10569000D72EB092520681E080934D0680E090E0D4
:1056A000A0E8B0E08093450690934606A093470695
:1056B000B093480666E370E080E090E00E944B11F2
:1056C000DB01992788278093490690934A06A09387
:1056D0004B06B0934C060E94E1339B0177FF04C058
:1056E00022273327261B370BC901992793959093BF
:1056F0004F0680934E060E94E1339B0177FF04C062
:1057000022273327261B370BB80168197909C901ED
:105710000E9430369401280F391F30935106209390
:105720005006D0925406C0925306F0925606E0926C
:105730005506209104013091050140E050E0609150
:1057400002017091030180E090E00E946F1170935C
:105750000D0160930C01FAE18F2EF6E09F2EA8E177
:10576000CA2EA6E0DA2EB9E1AB2EB6E0BB2ED401EC
:105770002C912F70822F90E08830910550F5FC011C
:10578000E35AFF4F0C944436D6018C918F5F8C9373
:10579000F5018081815080831CC0D60105C0F601CF
:1057A00080818F5F8083D5018C918F5F11C0D6017E
:1057B0008C9181508C93F50180818F5FECCFD60165
:1057C00005C0F601808181508083D5018C91815084
:1057D0008C93F6018081893710F0D4012C93F50168
:1057E0006081613420F0D4019C919F709C93F401FE
:1057F0009081907F71F070E06150710990E0E3E07A
:10580000EE2E00E010E020E04EE257E001970E940B
:105810007B1DF3E08F0E911C23E0C20ED11C33E000
:10582000A30EB11C45E4C41646E0D40609F09FCF90
:105830003CEF832E35E0932E4AEFC42E45E0D42E64
:105840005BEFA52E55E0B52ED4012C912F70822F41
:1058500090E08830910550F5FC01EB59FF4F0C9416
:105860004436D6018C918E5F8C93F50180818250F5
:1058700080831CC0D60105C0F60180818E5F8083C5
:10588000D5018C918E5F11C0D6018C9182508C9382
:10589000F50180818E5FECCFD60105C0F6018081D5
:1058A00082508083D5018C9182508C93F601808147
:1058B000893710F0D4012C93F5016081613420F018
:1058C000D4019C919F709C93F4019081907F71F022
:1058D00070E06150710990E023E0E22E00E010E0FA
:1058E00020E04EE257E001970E947B1DF3E08F0E0F
:1058F000911C23E0C20ED11C33E0A30EB11C48E181
:10590000C41646E0D40609F09FCF81E00E947F17BD
:105910000E946D1A0E94901480E00E947F1760918F
:1059200024077091250780900B0790900C07A0909A
:105930000D07B0900E074501BB2497FCB094AB2C2B
:1059400040900F0750901007609011077090120759
:105950002301772457FC7094672CC4014296823946
:10596000910508F08AC080911D0790911E071816B6
:1059700019063CF5409114075091150741158BEF1E
:1059800058070CF04AC41DC0943008F081C491300F
:1059900009F075C47401A7E0EA0EF11C292F30E06C
:1059A000F9013197379718F48F5F80931F07809123
:1059B0001F07803411F410921F0741305D4F0CF027
:1059C0003AC48091140790911507181619060CF423
:1059D00042C00C979093150780931407292F892FA5
:1059E000990F990B121614F4019702C080959095A7
:1059F0002C3F3CF42A3F1CF5263F69F51092130713
:105A00002AC02F3F09F03CF5409116075091170727
:105A1000FC01FF277496CF01880F991FFA01E80F48
:105A2000F91F25913491FC013897E40FF51F45913A
:105A3000549100E0B201C4010E94DF1E0CC0E0914D
:105A40001607F0911707B6964591549120E0B201E0
:105A5000C4010E94CB1220911D0730911E0712161F
:105A600013065CF08091140790911507181619061B
:105A70000CF423C402C0109213070E9472140E94F7
:105A80009C1681E00E94BC1F8091C9019091CA01BF
:105A9000892B09F580E090E0FC01E95AF94F208557
:105AA000211119C04E96843B9105B1F79091C50123
:105AB0008091CB01992309F44BC465E00E94103614
:105AC000E92FF0E0EE0FFF1FE15EFE4F6081718174
:105AD00080E00E94001B8091140790911507181612
