:100000000C94CF0F0C94F70F0C94F70F0C94F70F80
:100010000C94F70F0C94F70F0C94F70F0C94F70F48
:100020000C94F70F0C94F70F0C94F0200C946221B1
:100030000C94F70F0C94F70F0C94F70F0C94F70F28
:100040000C94F70F0C94F70F0C94F70F0C94F70F18
:100050000C94F70F0C94F70F0C94F70F0C949F1758
:100060000C94F70F0C94F70F0C94F70F0C94F70FF8
:100070000C94F70F0C94F70F0C94F70F0C94F70FE8
:100080000C94E9170C94F70F0C94F70F0C94F70FDE
:100090000C94F70F0C94F70F0C94F70F0C94F70FC8
:1000A0000C94F70F0C94F70F0C94F70F7325D225CF
:1000B000C1266A27152A152A732B51284D28562840
:1000C00058286428602868286A28BE28BA28C328C7
:1000D000C528D128CD28D528D728902C922C942C0F
:1000E000992C9E2C9E2C9E2C9E2CA72CA72CA72CAA
:1000F000A72CC629C629C629C629C4296B1AAB1A3A
:100100007A1AAB1A891A8F1A951A9B1AA11A0E021B
:10011000111A07040C0008090D031B15060E020135
:10012000171A041C150008090D030B060E00020423
:1001300006181A150C010307090B0D0E0E07080906
:100140000D000102131A0B0C1415060E0001020318
:100150001415060708191A0B0C0DD5F08D14A1C83B
:1001600081CFD9F1AF20000A40004000A080D0C06C
:10017000E86064041C21391B4B7347070F002050B3
:1001800050508888880000005E494E48C600000034
:100190000010157595957200000000002E2424644F
:1001A000A600040000003890909219001000000092
:1001B00073846014E3000000000C38F8A8A8A804B9
:1001C00002DADADA0204F800000000010202020298
:1001D00002010000008282829EA2A29E0000000016
:1001E00000C828C809C6000000000000000B09096B
:1001F000996800000000000080BC929C908C000078
:1002000000000000000006090906000000000009C7
:1002100038D805FDFFFF76FC8804000505070703B5
:10022000010001C282828EC2029E00005D484848E1
:10023000C8080C0000E5151515E20000000010A923
:1002400089893C0808000007000F0807000000002B
:1002500007294E5141C141110EE010F014E3000096
:10026000586445655840400E848484E680847982D1
:100270007008F300000000000000000015400000BE
:100280004428387C10000000FE0000A86C6E6E0E42
:100290004E4C680000408080C000000000FF00005D
:1002A000BB393D191A1A1C8C000004020307010017
:1002B00000001F0000757575757F777773384C14D3
:1002C0002C94C8D0C4D1802A0000372727070F27D5
:1002D0002737001C366F6D7B321E0D07000000288B
:1002E0006CEEEEEEEE6C2800002040C0E0800000D6
:1002F00000FE0000081C1C0C2E2E266F00000201C0
:10030000010300000000FF0000B7A7A7878FA7A781
:10031000B7000022141C3E080000007F0000737B21
:100320003B3B0B3B3B1B07308E51414181110E5330
:10033000545454B3000005354D4D340000E712F21B
:1003400012E2020310A88989081C0807000F080799
:1003500000000720CF21E121C1010121508B8A89B2
:1003600000009C023E221C008003010101010101EA
:100370000740708880700888702CB2A2A22200000A
:10038000C7282028C70000710AF88A7100009E2043
:100390001C823C0000878887C08F8000B0C8888995
:1003A0008802011C08080808080C0728D1919595B7
:1003B000D51B913D403804780000CF908E81DE003F
:1003C0008039444444380000111111130D00000716
:1003D000308E5141518E000013141434D30000218B
:1003E0005111117C10102E242464A60004B2CA8A74
:1003F0008A8900001C023E221C00000C0800150027
:1004000011111F11110A04001509180000D1919152
:10041000DF1191111C20B9A4A4A49880000000044D
:10042000040404030000071D8E51504E81110EE399
:10043000141014E300000405054D3400000E011FE4
:10044000110E00001322000000FC00FE0101FDA9B6
:1004500055FD0101FE00000000C03008043261E0DB
:10046000C0C1E0F1F9800003040830C00F304080C3
:1004700030181F0F0F1F3F7F0703038340300F000B
:100480000000FC01FE0000FE54AAFE0000FF000078
:10049000000000000000000102020202020202024B
:1004A0000100000000E4020200750506007D060858
:1004B00000750504000080DC00090093000A008339
:1004C000000600AF000A000080AF00030026010410
:1004D00000B8010400A50001000080AF001600AFC5
:1004E000001600AF00160000800C0E00A8FC0202EF
:1004F00052520A4202FC00000A17081809190A1889
:100500000807000C0E00A8FC0242E2F2FAB202FC5C
:1005100000000A17081808190B190807000C0E002C
:10052000A8FC02BABAAAAA1202FC00000A17081B09
:100530000B1A0A19080700030800070207000755ED
:1005400004690200000D005504690000000D00550B
:10055000046900000001001704AB0100000100174E
:1005600004D500000001001704D50000000100DCE4
:1005700003810200000100DC03D50000000100A49B
:10058000031C0100000100A403460000006C00A44D
:1005900003220000006C00A403220000006C00A4F1
:1005A0000322000000480070031C0100000100E469
:1005B000021C010000010070031C01000001003F4B
:1005C000031C010000010093021C01000001003F18
:1005D000031C0100000100E4028102000001006E22
:1005E000024600000001000B024600000001006E00
:1005F000024600000001002A027B030080E402F2B0
:100600000100009000E402220000004800E4022201
:100610000000004800E402B10000006C00E4026940
:100620000000002400E4024600000048003F036987
:100630000000002400A403690000002400DC030A79
:10064000040000FB00DC03690000002400550446A0
:100650000000004800DD0446000000480075055D0C
:1006600002000024007505220000004800750522E4
:100670000000004800750522000000B3005504B1D9
:1006800000000024007505460000004800C80575FC
:1006900000000018007D06690000002400C80569FC
:1006A000060080570016005700160057001600007D
:1006B0008007050E11131519110E0E04040404060B
:1006C000041F01010E10110E0E11100C10110E0856
:1006D000081F090A0C080E1110100F011F0E11112E
:1006E0000F01021C0102040810101F0E11110E113F
:1006F000110E0708101E11110E07299111151595DD
:100700001B11F301E111E100013C413804790000C3
:100710008E44444486000413141434D300000101B1
:10072000010100000000002C015D0152005D01523A
:10073000005D0152005D0152000000030072015291
:100740000072015200720152007201520000000357
:10075000008801520088015200880152008801522D
:1007600000000003009F0152009F0152009F0152B0
:10077000009F01520000000300B8015200B801526E
:1007800000B8015200B801520000000300D201522B
:1007900000D2015200D2015200D2015200000003E7
:1007A00000EE015200EE015200EE015200EE015245
:1007B00000000003000B0252000B0252000B025219
:1007C000000B02520000000300008003077D3A1472
:1007D0000307143A7D060307020202030207010120
:1007E000020403030404070403081300722A4A32B4
:1007F00002020000E25595650000000002020202BC
:100800000202000A210002024A52D24E00000000F9
:100810000000B814A4190000000000003B330833A6
:10082000000000007C82AABAAABA827C0000000004
:10083000000000000000001040FFFBFDDFF7FE5548
:10084000AA413E800000000000FFFFFE77BFBF6AA4
:10085000558A70010000000000FFF7C6D18C0081AE
:10086000014484020000000000FFFDBBFD8710AAC8
:10087000CE00E1000000000000BF2DBB2DA730AA74
:1008800001042200000000000077F0D75037D01795
:10089000C00010000000000000FFFD4AB54A813092
:1008A000000000000000000000FB7E956A900FC071
:1008B00000000000000000000010400000000000E8
:1008C00000000000803E41AA55EEFF00000000003D
:1008D0000000006001708A556AFDFF000000000002
:1008E00000810000BD81BD81BD81BD000000000010
:1008F00000E80470AA013CF6BBF6FF00000000000F
:100900000030400E2A013C777BF7FF00000000001A
:1009100008C42450D0A0A6D1ECFDFF0000000000C8
:1009200030814AB56ADF7FFDEFFFFF000000000065
:10093000C00F916A957FFFDFF7FBFF063828C4C41C
:100940008C885087020614043E756D756566C6F77F
:1009500022664444CC313276B62673ED4B7355692A
:10096000590E0C0C1C246E0638E746C684A4BFFE44
:10097000246DCE48DDF12260C140C3ED4971516262
:10098000438E0C0C0848FEF323634252FF7D8A1805
:100990007010F01B3D00AA540AF418102850A890BB
:1009A000A890A890A890A890AA9482F4101020C0B3
:1009B000000205803FA020A09088880848A848A889
:1009C00088A888A888A8888808080F00AA5502FD6A
:1009D00002010000F80F0055FE030100F8080808A6
:1009E00008F8000102FC0000010003040810509107
:1009F0005111D15150505091911151915110080401
:100A0000030055AA05F2141010254A55407F000036
:100A10000078505061614242040808F000010280F1
:100A20005F90109088A494043CA020A03C8454249F
:100A300094A4848404040700AA5502FD0201000066
:100A4000F80F2001FC050405FC01000F08F8000167
:100A500002FC000001000304081010111111111113
:100A6000100810111111111111100804035504A8D8
:100A7000000000B0005504A80000005C013F03A87E
:100A8000005504A800DC030C067003A8000000B0A9
:100A9000007003A80000005C017003A800E402A835
:100AA000007003A800A403E200E402E200A403E251
:100AB000001704E2003F03E2001704E2005504A817
:100AC000000000B0005504A80000005C013F03A82E
:100AD000005504A800DC030C067003A8000000B059
:100AE000007003A80000005C017003A800E402A8E5
:100AF000007003A800A403E200E402E200A403E201
:100B0000001704E2003F03E200DD04E2007505CFB8
:100B100008BA020604E402A8001003A8003F035F1D
:100B200005A4035603000007001704A8005504A8F5
:100B300000DD04A80075055F05C805560300000721
:100B400000490755017D06A800C8055F05DD04566C
:100B50000300000700C80555017505A80055045697
:100B600003000007001704A800A403A8003F03A87F
:100B700000BA020604E402A8001003A8003F035FC5
:100B800005A4035603000007001704A8005504A895
:100B900000DD04A80075055F05C8055603000007C1
:100BA00000490755017D06A800C8055F05DD04AEB4
:100BB000023F035501C805A8007505A80055045F4C
:100BC000050080400004000150000081400005FF46
:100BD0000150000081400006FF00251A0105FF01B9
:100BE00018031804000119000081400006FF0040AE
:100BF000FF0028FF005000008180C0E0F0F8F8FC02
:100C0000FCFCFEFEFEFFFFFFFFFFFFFFFFFFFFFFFD
:100C1000FFFFFFFFFFFFFFFFFEFEFEFCFCF8F0C042
:100C2000000103070F0F1F1F1F3F3F3F7F7F7F7F85
:100C30007F7F7F7F7F7F7F7F7F7F7F7F7F7F7F3F04
:100C40003F3F1F1F0F0701FFFFFFFFFFFFFFFFFFDA
:100C50000101010101010101010910FEFDC3BBBB3E
:100C6000BBC7FFFF01010101010101010127108044
:100C7000C060B058A85CAC54AEFA8EF7959FF5975B
:100C80009DF7959FFDFFFD7F7D3FDDDFDD3FFEFE94
:100C9000FE0CFC18F0C0000103060D0A1D1A153ADF
:100CA0002F3877547C57745C77547C5F7F5F7F5F0D
:100CB0007E5D7D5D7E3F3F3F181F0C07010910FFE1
:100CC0007F87BBBBBBC7FFFF000101010101010121
:100CD000010910FFFFC7BB3BBBC7FFFF01010101BB
:100CE00000010101010910FFFFC7BBBBBB877FFFEC
:100CF0000101010101010101000910FFFFC7BBBB98
:100D0000BBC7EFEF0101010101010101010910FF62
:100D1000FFC7BBBBBBC3FDFE010101010101010116
:100D2000010910FFFFC7BBB8BBC7FFFF01010101ED
:100D300001010101010000000000F0FEFFFFFEFCC8
:100D4000E000000000000000000000800000001033
:100D5000387CFEFEFFFFFFFFFFFFFFFFFEFEFE7C75
:100D60007C7C7CFEFFFFFFFE1000000000001FFFE8
:100D7000FFFFFF7F0F0100000000000000000103E3
:100D80000100000000000000000001010000000060
:100D9000000000000000000000000000001A190020
:100DA0000000000000F09E9EFCE00000000000003B
:100DB0000000000000000000000010387C547CFFA0
:100DC000BBBBBBBBFF7C7C7C7C3838383828D6D793
:100DD000FE10000000000000001FF3F37F0F010071
:100DE0000000000000000000000100000000000002
:100DF00000000000000000000000000000000000F3
:100E000000000000000000111100001C3CFCD8B0E4
:100E100070E8C422120E00000000001C1211080528
:100E2000030307074F6C30380C000000000000007F
:100E30000000000000000000000000001111000090
:100E40008080FC828CF08080800000C0E000000088
:100E50000103037E82621F0303030101070F0100E8
:100E60000000000000000000000000000000000082
:100E70000011110070901020408080C0C0E46C18F8
:100E800038600000000070797E371B1D2F47899065
:100E9000E000000000000000000000000000000072
:100EA00000000000000011110000000000040CCC44
:100EB000FECC0C04000000000000081414121212F2
:100EC0007FE37F12121214140800000000000000DB
:100ED0000000000000000000000000111100006090
:100EE00038186CE4C0C08080402010907000000072
:100EF0000000E09089472F1D1B377E7970000000AD
:100F000000000000000000000000000000000000E1
:100F100011110000E0C00000808080F08C82FC8015
:100F200080008000010F0701010303031F62827E1E
:100F300003030100000000000000000000000000AA
:100F400000000000001111000000000E1222C4C8B1
:100F500070B0D8FC3C1C000000000C38306C4F070F
:100F6000070303050811121C000000000000000028
:100F7000000000000000000000001111002050508F
:100F8000909090FC8EFC90909050502000000000BB
:100F90000000406067FF6760400000000000000044
:100FA000000000000000000000000000000000063B
:100FB0000002F0D0000000010002F0D0100000019B
:100FC000010000F0240000020100000224000002E1
:100FD0000002F0204A0001010002F0205A00010145
:100FE000050002F0D0000000010002F0D02800004F
:100FF00001010000F944000002000200200001018C
:10100000010002002028010101050002F0D00000CB
:1010100000010002F0D028000001010000F94400A6
:10102000000200020020000101010002002028014E
:101030000101050300000004000005030000F43E68
:101040000000050002F0D0000000010002F0D023F3
:101050000000010002F0D04600000106000000F090
:1010600012000001000000F9000000010000000271
:1010700012000001020000E440000002020000F53E
:101080002C0000020200000640000002060003D609
:10109000D0000000010003E6E000000001010000B4
:1010A000EB14000002010000F9240000020100001E
:1010B0000734000002010000F940000002050002B0
:1010C000F0D0000000010002F0D028000001010073
:1010D00000F9440000020002F020140001010002A7
:1010E000F0203C00010104000000F01200000100AB
:1010F0000000F900000001000000021200000103DE
:101100000000003000000A05000100050000000199
:101110000001000514000001000100EC00000101C5
:10112000000100EC14000101000000F92800010199
:1011300004000000E700000001000000F9000000CA
:10114000010000000B00000001020000F516000085
:101150000104000000F10000000100000003000095
:101160000001010000F11200000201000003120062
:101170000002050001000500000101000100EC145F
:10118000000001010000E732000002010000F93216
:101190000000020100000B3200000205010000E720
:1011A00024000002000000F012000001000000F91D
:1011B0000000000100000002120000010100000B0D
:1011C00024000002020000000500000001000000F1
:1011D0000018000001000000FB50000001000000AA
:1011E000F668000001210D0D0DF90CE50CD10CBDC8
:1011F0000C6D0C590C470C470C470C470C470C471F
:101200000CF90B470C781C461C141CE21BB21B8209
:101210001B521B221B9D0D9D0D9D0D9D0D9D0D9D1A
:101220000D9D0D9D0D350D350D350D350D350D35DE
:101230000D350D350D781C461C141CE21BB21B82AB
:101240001B521B221B7A0F450F100FDB0EA60E71CF
:101250000E3C0E070EC1188E185B182818F517C221
:10126000178F175C17781C461C141CE21BB21B82DC
:101270001B521B221BF8FCFEFFFFFFFFFFFFFFFEC0
:10128000FC0F1F3F3F3F3F3F3F3F1F0F070F0F0F19
:1012900003040006000707070707070707070707F4
:1012A00007070707070711060002000200020002F5
:1012B0000002000200020002000503010103010711
:1012C0000505040E1F1F0A0F0F0F0F0F0504060957
:1012D0000909060E040406040F020409060609049F
:1012E000090604040F0506070807010F0609070190
:1012F00006020204080F060906090603040A090685
:101300004C0B00C63ACAA4D5E968F4EAF2EAF2AA9C
:10131000F4E9E9F4E874EAF29A649801464080003E
:1013200084D2C258C898A0928ADAC852C490205079
:10133000B000000060108040A020A040804090904D
:1013400040A020A020A04080905040A0A0600406B3
:101350000304010707070706050707070307060732
:101360000707070707070607030406060707070519
:101370000607070702070705060705000200000425
:101380000402050607070607060706060702070602
:10139000070607060605020403044C0B00C63ACAFA
:1013A000A4D5E968F4EAF2EAF2AAF4E9E9F4E87407
:1013B000EAF29A6498014640800084D2C258C898E4
:1013C000A0928ADAC852C4902050B0000000601089
:1013D0008040A020A0408040909040A020A020A06D
:1013E0004080905040A0A060040603040107070756
:1013F0000706050707070307060707070707070785
:10140000060703040606070707050607070702077E
:101410000705060705000200000404020506070789
:10142000060706070606070207060706070606055B
:10143000020403044C0B112E2912554B0B972B273A
:101440002B272B174B4B174B172BA7AF137F005591
:10145000555555007F254F1F5F9FDF8B4F2FCF9F27
:10146000DD1B5D0F030B1117074B7F13AFA72B1766
:101470004B174B4B172BA7AB272B970B4B55122911
:101480002E11000000000000000001010101000019
:10149000000000000000000000020000000000004A
:1014A000020000010200020202000000000202012C
:1014B0000000000000010200000000000000000029
:1014C00000000000000000000000000000004C0BC5
:1014D000312E2912554B0B172B272B272A174B4B35
:1014E000170B172B272F130D42310100006A5025CF
:1014F0004F1B559FDF8A4F2FCF9BD51F5F0F030BCD
:10150000111607CB37CF7FBF77BF7FBBBF7EAF7FC3
:10151000BF7DBB7FB7BF5F2C99E61B0100000000B9
:1015200000000000000000000000000000000000BB
:1015300000000000000000000000000000010200A8
:101540000202020000000002020100000003040089
:10155000010202020100010404010202020202016E
:101560000004050102020300241608C43ACAA4D5E7
:10157000E968D4D4D4E9E8F679F5E9D6A8E914E223
:101580001C019800000000000000000000008038EE
:10159000472897154B97972F554F574F572F16970B
:1015A000AB25535C6300100080826098E8EAD22487
:1015B000C000000000020000000000010100000166
:1015C00001020000001C200C121215292432092BE4
:1015D0000913150807001E10C0243ACAA4D5E968EB
:1015E000F4EAF2EAF2AAF4E9E9F4E874EAF29A64B5
:1015F0009801464080000039472817156B97AF9E29
:101600006F17972B2B2B964B0B374F5D2F2F564574
:101610003906300022168040460198649AF2EA7436
:10162000A834A969F4AAF2AAF2EA6AB26AF2EAF460
:10163000A8E9D5A4CA3AC40070863945DE3FFE57F2
:10164000FBF3BBD79FD3BFFFFBFBBDFAFDDEECC8AE
:10165000EBDDF9DB7FFF2847388000081714092AE3
:1016600025050A15131713170D0B020B1D0F252542
:101670000B050B1513160906211800000B0DF806B3
:1016800081A6B0B818183060400708101707070384
:1016900003010100090CF00E41CED0C08080800310
:1016A00004080B0303010100091020800000000062
:1016B0000011040200000088200000000910000052
:1016C0000011040000400088200000000000040118
:1016D0000080F8FC5EAFDEBC78F0C000001E7FFF2B
:1016E000AAD7AB57AF5FFFFEF8E080EF7FBA55ABEC
:1016F00057AEDFFFF7E34007FFFDEA57EF77FFFF45
:101700007F070300000003070D0607030100000028
:10171000000D24000080F85CAEDCB870C000000052
:10172000001E7FAAD7AB57AF5FFEF8E00000806FC6
:10173000BA55AB57AEDFF7E340000007FDEA57EFBD
:1017400077FF7F070300000000000305020301008C
:10175000000000000102040810204080001E3EFE30
:10176000FEFCF8F8FCFEFF3F1F0F0000003C3E3F70
:101770003F1F0F07070FCFFFFF7C7C7E0E0000008E
:101780000000000000000000000000000000000059
:1017900080C0FCFEFFFEFCF0C0C080C0E0F0E000B6
:1017A0000103077FFFFFFF7F1F070703070F1F0FBF
:1017B0000100000000000100000000000000000027
:1017C000000078F8F8F8F0E0C0C0E0E6FEFE7C7CAF
:1017D000FCE00000F0F9FFFF7F3F3F7FFFFFF9F0E3
:1017E000E000000000000000000000000000010117
:1017F000010100000000000000040EDEFEFFFEDE1E
:101800000E0400000000081C3E3E3F3F7FFFFFFF2C
:101810007F3F3F3E3E1C080000000000000000012A
:10182000000000000000000000E0FC7C7CFEFEE602
:10183000E0C0C0E0F0F8F8F878000000E0F0F9FF50
:10184000FF7F3F3F7FFFFFF9F00000000001010133
:10185000010000000000000000000000E0F0E0C017
:1018600080C0C0F0FCFEFFFEFCC08000010F1F0F17
:10187000070307071F7FFFFFFF7F0703010000002B
:101880000000000000000000010000000000000057
:10189000000F1F3FFFFEFCF8F8FCFEFE3E1E00009E
:1018A0000E7E7C7CFFFFCF0F07070F1F3F3F3E3CA4
:1018B0000000000000000000000000000000000028
:1018C000002070F8F8F8F8FCFEFFFEFCF8F8F8F8D5
:1018D00070200000000041E1F7FFFFFFF7E1410049
:1018E00000000000000000000000000100000000F7
:1018F00000000000111100001C3CFCD8B070F8EC96
:101900003E1E0E00000000001C1E1F0D07030307F3
:10191000074F6C30380C0000000000000000000091
:10192000000000000000000000111100008080FC99
:10193000EEFCF08080800000C0E0000000010303A6
:101940007EEE7E1F0303030101070F01000000006C
:101950000000000000000000000000000000111165
:101960000070F0F060C08080C0C0E46C1838600087
:1019700000000070797F371B1D3F6FF9F0E0000019
:101980000000000000000000000000000000000057
:1019900000000011110000000000040CCCFECC0C73
:1019A00004000000000000081C1C161E1E7FE37FC0
:1019B0001E1E161C1C080000000000000000000095
:1019C0000000000000000000111100006038186CD9
:1019D000E4C0C08080C060F0F0700000000000E053
:1019E000F0F96F3F1D1B377F797000000000000089
:1019F00000000000000000000000000000111100C5
:101A000000E0C00000808080F0FCEEFC8080008060
:101A100000010F0701010303031F7EEE7E03030194
:101A200000000000000000000000000000000000B6
:101A300000001111000000000E1E3EECF870B0D83E
:101A4000FC3C1C000000000C38306C4F07070303FF
:101A5000070D1F1E1C000000000000000000000019
:101A600000000000000000111100207070D0F0F0A4
:101A7000FC8EFCF0F0D070702000000000000040F0
:101A80006067FF6760400000000000000000000089
:101A900000000000000000000000000080E0F0E016
:101AA000000A3F7F3F02000000000040F0F8F00015
:101AB000127FFF7F02000000000040FCFEFC401788
:101AC000FFFFFF12000103010060FEFFFE702037E0
:101AD000FFFFFF772200030703000005130080E0EB
:101AE0000000000A3F020000000000000513004053
:101AF000F0000000127F020000000000000513004B
:101B000040FC40000017FF12000000010000061317
:101B10000060FE2020000037FF27220000000300A5
:101B200000000E0EEEE0E00080DCDFFF67737370F4
:101B30000000E0E0FBBB3FE7E7E7070100C0DCDCBB
:101B40001C0001030303000000000000000101016C
:101B500000000F1F6FF4E8FCDEFFFFE7F07F1F4778
:101B6000E040C0E8FECF0F67F7FFFF9F3D10C0E2E7
:101B7000F7620101010301000000010000030303FB
:101B8000000000001C1C7CFCFCF8F8FC3C1C000065
:101B90000000000038383E1F0F0F070F1F1E1C00EB
:101BA0000000000000000000000000000000000035
:101BB000000070F0F0FEFEFEF8F0F8F8FC7E3E0E3D
:101BC000000000F0FDFF7F7F3F1F0F1F3F3F7C7035
:101BD0007000000101010000000000000000000092
:101BE0000000101200040040000000808842000144
:101BF00020000000804000110002400200000000B0
:101C0000800800000000010000000000000000004B
:101C1000000000001012060F0460C0C88C9EC7C0F0
:101C200060100200400080C0C806070363678F0D84
:101C3000100000C062000000000100000000000071
:101C40000000010000001012000000001070E0E031
:101C5000F03008000000000000000010080E070728
:101C6000030706080000000000000000000000005C
:101C7000000000000000000010122060E0E0FCF80E
:101C8000F0E0F0F078380C0000000000E07D3F3F0D
:101C90001F0F070F1F1C3020000000000000000075
:101CA0000000000000000000000060FEFFFE702049
:101CB00037FFFFFF7722000307030000000080F0DA
:101CC000FCFEFFFEFCF0F0F070F0F8F8F0200207E8
:101CD0000F7FFFFFFFFFFF7F7F7A70FFFFFFFF2077
:101CE00000000000010307030100000000000000E5
:101CF00000000000A0FEFFFEFC70F0F8F0200207DC
:101D00002FFFFFFFFF777FFF7F2000000003070307
:101D10000100000000007070FEFFFE707277FFFF90
:101D2000FF7700000307030070F8F8F870FCFEFF6F
:101D3000FEF0000070FFFFFF77FFFFFFFF7F07024D
:101D400000000000000103070300000070F8F8F82D
:101D5000F870F0F0F0FCFEFFFEFCF080000070FF79
:101D6000FFFFFF707A7F7FFFFFFFFFFF7F0F0702FC
:101D70000000000000000000000103070301000054
:101D8000000006130060FE2020000037FF2722001D
:101D900000000300000012130000000060FCFEFCC5
:101DA000606060202020F0F020000002070737FF6D
:101DB000FFFF3737322020207F7F20000000000007
:101DC00000010301000000000000000000000C13EF
:101DD00000000020FEFC202020F020000002072749
:101DE000FFFF272220FF2000000000000301000069
:101DF000000000000613002020FE6000002227FFE4
:101E000037000000000300000C130020F0202060C9
:101E1000FCFE2000000000207F202237FDFF250768
:101E20000200000000000000010300000000121387
:101E30000020B0F0202020606060BC66BC600030F4
:101E4000000000206F7F202020323735ED37ED3540
:101E5000076702000000000000000000000001030E
:101E60000100000000000020B0F020202060606031
:101E7000BC66BC600060000000206F7F2020203224
:101E80003735ED37ED350737020000000000000060
:101E90000000000001030100000000000C0E00A87B
:101EA000FC0222226222E202FC00000A1708180843
:101EB000180818080700671A321AFD19C81993196B
:101EC0005E192919F418C1188E185B182818F5170F
:101ED000C2178F175C17781C461C141CE21BB21B20
:101EE000821B521B221B2E1E081EF41DCE1D961D8A
:101EF000CE1D821D081E4C1D281D161DF21CBC1C6B
:101F0000F21CAA1C281D781C461C141CE21BB21BC8
:101F1000821B521B221B0E1BFD1AEC1ADB1AC91A5C
:101F2000BA1AAB1A9C1A080B00020202010009043B
:101F30000000010202000005240010010524010137
:101F40000104240206052406000107058103100090
:101F50004009040100020A000000070502024000D7
:101F60000007058302400000040309041201000277
:101F7000EF0201404123368000010102030141725A
:101F80006475696E6F204C4C430041726475696ED4
:101F90006F204C656F6E6172646F0000C132112456
:101FA0001FBECFEFDAE0DEBFCDBF11E0A0E0B1E0B1
:101FB000E4EFFEE602C005900D92A03AB107D9F712
:101FC00027E0A0EAB1E001C01D92A638B207E1F710
:101FD0001FE0CFECDFE004C02197FE010E947D36B8
:101FE000CE3CD107C9F70E9492230C9478370C9409
:101FF00000008F929F92AF92BF92CF92DF92EF92AA
:10200000FF920F931F93CF93DF9300D000D0CDB7F3
:10201000DEB78091DA019091DB0101968F31910555
:1020200028F49093DB018093DA0104C01092DB0165
:102030001092DA018091BE01882319F081508093BB
:10204000BE01D09004071091050748E7A42EB12CDB
:10205000E12CF12C20E0A701B5018BE097E00E9474
:1020600083188FEFE81AF80A90E4E916F10491F763
:10207000EFEFAE1ABE0AF0E8AF16B10449F720E45C
:1020800030E049E750E060E070E089E790E00E94CE
:10209000131E19821A821B821C82CE0101967C01BA
:1020A000FC013AE0A32EB12C24E0280F8D2D912FB6
:1020B000B5010E9455368193D62E172F2E13F6CFD9
:1020C0001FE0F70101917F01612F70E027EC32E101
:1020D0004CEC52E18BE790E00E94EC1D15501B3F49
:1020E00081F7809100079091010797FD02C0292F89
:1020F00001C020E04EE160EC72E187E10E94981E91
:10210000809107079091080797FD02C0292F01C011
:1021100020E043E369EB72E18EE20E94981E809119
:10212000BE01882309F466C010910607C090F70627
:10213000D090F806E090F906F090FA06C701BB27A8
:1021400097FDB095AB2F4091FB065091FC06609136
:10215000FD067091FE06AB01772757FD7095672F3E
:1021600020910F01473028F4222351F010920F01E3
:1021700007C04B3228F0211103C021E020930F014A
:1021800020910F01211102C023E101C02AEF552740
:102190007A01E20EF11C27FDFA946C01DD2400E0C7
:1021A00025E932E146EA52E1B701C6010E94EC1D81
:1021B000113130F48091DA019091DB010F97D0F06A
:1021C000812C912CA12EB12CF2E0EF0EF11C8A147F
:1021D0009B0484F400E02DE832E140E952E1B701CC
:1021E000C6010E94EC1D8AE0880E911C92E0C90E87
:1021F000D11CEDCF0F900F900F900F90DF91CF91EA
:102200001F910F91FF90EF90DF90CF90BF90AF9014
:102210009F908F9008952F923F924F925F926F926E
:102220007F928F929F92AF92BF92CF92DF92EF9266
:10223000FF920F931F93CF93DF93CDB7DEB76297D3
:102240000FB6F894DEBF0FBECDBF8A8B10E5212EEE
:1022500016E0312E03E4802E06E0902E8BE496E00B
:102260009F878E87A9E5B6E0B98BA88BE2E5F6E0FB
:10227000F987E887FA89F11105C0D1018C91833083
:1022800029F41CC0F10180818330C1F4C4010E9493
:10229000A118C4010E94BC1929833A834B835C8333
:1022A00029813A818B819C81AE85BF854C914423E5
:1022B00029F0A889B9894C91442399F1FEE12F0EA8
:1022C000311C2EE1820E911C8E859F854E969F8734
:1022D0008E87A889B9895E96B98BA88BE885F98520
:1022E0007E96F987E887F4E02F16F7E03F0611F6AF
:1022F00062960FB6F894DEBF0FBECDBFDF91CF91CF
:102300001F910F91FF90EF90DF90CF90BF90AF9013
:102310009F908F907F906F905F904F903F902F9005
:102320000895A901460F511D141615063CF62038D4
:10233000310524F69C01270F311D37FDBFCF8034B6
:1023400091050CF0BBCFF101F081FF83F33009F070
:102350002BC14091F906F9E0AF2EA40E2091FD06A5
:10236000A9E0BA2EB20EF40180819181A281B381DD
:102370008D01035E1F4FC480D580E680F780670122
:10238000FF24D7FCF094EF2CC4010E94A6194A2D1B
:10239000AA0C550B3A01601A710A2B2DBB0C330B9A
:1023A000869590E0C80ED91E29014C185D0861146D
:1023B000710409F43FC0C201550CAA0BBB0BDC0130
:1023C000992788276C017D01FF0CCC08DC2C760155
:1023D0009C01AD016C2D7C2D8C2D9C2D00E10E946B
:1023E0005A376301770CEE08FF088601FF24EE24BC
:1023F00057016801DD0CAA08BA2C6501AA86BB86C4
:10240000CC86DD8657016801EA84FE2C0E2D1E2D38
:102410000E948536F22FE32F8F2F9E2FA42FB52FEA
:10242000B7FF0CC0B095A095909581959F4FAF4F89
:10243000BF4F04C080E090E0A7EEB3E014145CF15D
:10244000161474F4AC01BD014150510961097109C0
:1024500047305A466105710508F059C082E073C0E3
:10246000662071F0AC01BD0141505109610971094B
:1024700047305A466105710508F058C096E071C0B2
:102480008B5F9946A240B10985309649A44EB3406E
:10249000C0F51F8267C0161474F4AC01BD01415031
:1024A00051096109710947305A466105710598F46F
:1024B000B2E0BF8357C06620C9F0AC01BD014150F6
:1024C00051096109710947305A4661057105E8F5FE
:1024D000E6E0EF8347C0AC01BD0149505A466109AF
:1024E0007109413F5F4F61407105E0F18B5F994693
:1024F000A240B10986309649A44EB34028F424E0A6
:1025000013C0A9E0AF832EC0F9E0FF832BC0AC015C
:10251000BD0149505A4661097109413F5F4F614011
:10252000710508F0ADCF21E02F831CC0AC01BD01C7
:1025300049505A4661097109413F5F4F6140710539
:1025400008F09ECF87E08F830DC0AC01BD014950DC
:102550005A4661097109413F5F4F6140710530F68C
:1025600095E09F83A885B9858C91BF81B930C9F06A
:10257000B817B9F09F81E92FF0E0482F50E09F0194
:10258000241B350BB9016D5F7F4F67307105A8F5CE
:1025900012161306D4F1932F991F9927991F09F04A
:1025A0004CC0E885F9858083D401CD90DD90ED9015
:1025B000FC90139714964D905D906D907C901797BA
:1025C000EE85FF858081882309F478CEA889B989B2
:1025D0008C91811173CE6701FF24D7FCF094EF2C0E
:1025E0008601C4010E94B11990E08C0D9D1D97FDDC
:1025F00065CE003811053CF161CEBF01685F7F4FA9
:10260000641B750B161617068CF4873011F08F5F5C
:1026100001C080E0482F50E09F01241B350BB90119
:102620006D5F7F4F6730710508F4B5CF28EF3FEF3E
:10263000241B350B2E0F3F1FAECF882311F0815086
:10264000B0CF87E0AECF2301772457FC7094672C7E
:10265000D4011B964D915C911C97E885F9853197C3
:10266000E081F0E03896CF01880F991FFA01E80F5A
:10267000F91F25913491FC017097E40FF51F4591E6
:10268000549100E0B201C6010E94EC1DF10180816D
:10269000833031F4A885B985EC91E63009F086C025
:1026A000F40181859285181619060CF44CC08054EB
:1026B0009109928781872285822F022E000C990B27
:1026C00097FF03C09195819591092F3FDCF42D3F31
:1026D00024F52C3F09F037C0D4011B968D919C91B5
:1026E0001C97FC01BE9625913491FC01B69645914C
:1026F000549100E0B201C6010E94EC1DEE85FF85F9
:10270000108221C01216FCF0D4011B964D915C91F1
:102710001C97FC017496CF0104C0F40143855485D5
:102720004496880F991FFA01E80FF91F25913491FB
:10273000FC013897E40FF51F4591549100E0B20178
:10274000C6010E94EC1DD40152968D919C91539725
:10275000181619060CF0B2CD923071F0933011F0CA
:102760009130E1F4F40183859485FC01B8962591BC
:102770003491FC01B0960BC0D4011B968D919C91B5
:102780001C97FC01BA9625913491FC01B2964591B3
:10279000549100E0B201C6010E94EC1DF40182894F
:1027A000938980549140938B828B88CDD4011B9662
:1027B0004D915C911C97F0E03896CF01880F991FDE
:1027C000FA01E80FF91F25913491FC017097E40F8D
:1027D000F51F4591549100E0B2016D5F7F4FC60136
:1027E00048960E94EC1D5CCFCF92DF92EF92FF9251
:1027F0000F9380913B06882309F449C040913C0621
:1028000050913D06052E000C660B770B762F652F39
:10281000542F44278091330690913406A0913506B9
:10282000B0913606841B950BA60BB70B809333062D
:1028300090933406A0933506B0933606CD01BB279E
:1028400097FDB095AB2F9C01AC01485F5F4F4838B6
:102850005105C0F44091410650914206C0903706A0
:10286000D0903806E0903906F0903A066701FF24D0
:10287000D7FCF094EF2C00E025E732E1B6010E948E
:10288000EC1D05C0283F3F4F14F410923B060F91FA
:10289000FF90EF90DF90CF9008958F929F92AF922C
:1028A000BF92CF92DF92EF92FF920F931F93CF933D
:1028B000DF93CDB7DEB76E970FB6F894DEBF0FBECD
:1028C000CDBFD82E882349F081E08093B301FB016E
:1028D00084918093A2018093BD018091B30191E026
:1028E000980F9093B301FB01E80FF11D6491E62F5F
:1028F000EF70E093BC01607F6093BF01F0E0EE0FEA
:10290000FF1FE65BFE4F0190F081E02D10924B0619
:1029100010926906109287061092A5061092C306BF
:102920001092E106849003E4E02E06E0F02E8F0181
:102930000E5F1F4F89E5A82E86E0B82E912C9EE1F0
:10294000C92E981409F470C0F8013197E491E13070
:1029500069F040F0E23071F0E330D9F445EE51E136
:1029600063E00BC046EB5EE160E007C045E452E186
:1029700061E003C045E152E162E0CE0101960E94B0
:10298000F319FE013196D7018C2D01900D928A9595
:10299000E1F7F8018491E82FF0E0EE0FFF1FE65D0C
:1029A000FE4F80819181D7015A969C938E935997BF
:1029B00058961C921E925797F8013196E491D501D2
:1029C0001697EC93F8013296E4911196EC93F80186
:1029D0003396E491D501EC93F8013496E491F50136
:1029E00031971082F8013596E491F8013696E4911A
:1029F000D70119961C9219971A96EC931A97539629
:102A00001C921E925297F5013E9781E08083C70188
:102A10000E94A1189394BEE1EB0EF11C085F1F4FBA
:102A2000EEE1AE0EB11C8DCF8091A201815080935A
:102A3000A201DD2009F474C08091B40190E0FC0192
:102A4000E95BFE4F20816091030170910401620FE8
:102A5000711D27FD7A957093040160930301FC01B9
:102A6000EC5BFE4F2081022E000C330B40910D01D8
:102A700050910E01420F531F50930E0140930D01D0
:102A800040910B0150910C01240F351F30930C0124
:102A900020930B012091090130910A012130F5E2C8
:102AA0003F076CF0FC01EE0FFF1FE25CFE4F408120
:102AB0005181241B350B30930A0120930901209189
:102AC000070130910801213047E034076CF0FC0128
:102AD000EE0FFF1FE85CFE4F40815181241B350B38
:102AE00030930801209307012091050130910601E0
:102AF0002130A7E03A076CF0880F991FFC01EE5CCB
:102B0000FE4F80819181281B390B30930601209361
:102B10000501772788EE93E00E94693660931207DB
:102B20006E960FB6F894DEBF0FBECDBFDF91CF918A
:102B30001F910F91FF90EF90DF90CF90BF90AF90DB
:102B40009F908F9008959091BB01E92FF0E09F0135
:102B5000220F331FE20FF31FEA5FF94F8E5E80836F
:102B6000675F6183406F4283809106078150809345
:102B700006079F5F9F3019F09093BB0102C010922F
:102B8000BB0184E18093BE010895CF93DF93D82FDA
:102B900088EC90E00E940434C82F89EC90E00E94F9
:102BA0000434D11104C0C43311F4833319F164E344
:102BB00088EC90E00E94123463E389EC90E00E947C
:102BC000123460E080ED90E00E94123460E070E02A
:102BD0008AEC90E00E94243460E070E08CEC90E09D
:102BE0000E94243460E070E08EEC90E0DF91CF91A1
:102BF0000C942434DF91CF910895CF92DF92EF921D
:102C0000FF920F931F93CF93DF936C017A018B0197
:102C1000C0E0D0E0CE15DF0589F0D8016D918D01BF
:102C2000D601ED91FC910190F081E02DC60109954E
:102C3000892B11F47E0102C02196ECCFC701DF91F0
:102C4000CF911F910F91FF90EF90DF90CF9008955B
:102C50008091C601E091C401F091C501882349F03B
:102C6000CF0102969093C5018093C4018591949100
:102C70000895CF0102969093C5018093C40180818D
:102C800091810895CF92DF92EF92FF920F931F935D
:102C9000CF93DF930E942816811520E8920761F4F4
:102CA000809171008D7F8093710010929100469801
:102CB00047981092A1018BC021E02093A10181309F
:102CC00020E8920751F48091C2019091C301909342
:102CD000C5018093C4010E94281697FD05C020916C
:102CE000C101222309F43FC02091C00121113BC042
:102CF00021E02093C701EC01DF77209769F481E0A0
:102D00008093C80146983FE9C32E3FE0D32EE12CC3
:102D1000F12CCAEFD0E014C08E0120E030E060E476
:102D200072E48FE090E0A90198010E9448346901A3
:102D30007A0181E0C81AD108E108F1081092C801AF
:102D4000E091DC05F091DD050995811103C081E07A
:102D50008093C8018091C7018823B9F18091C8018F
:102D6000811133C003C01092C701C5CF46992DC051
:102D7000479A0E942816009771F09C01DE010E947C
:102D80009C34DC01CB0129E0B595A79597958795F3
:102D90002A95D1F703C08FEF9FEFDC0110929000CE
:102DA0002AE020939100D0929900C09298008093DD
:102DB000C9019093CA01A093CB01B093CC0180913B
:102DC000710082608093710002C04798D2CFDF917A
:102DD000CF911F910F91FF90EF90DF90CF900895CA
:102DE0008091A00108950895089580E090E00895ED
:102DF0000E947337CF93DF9300D000D0CDB7DEB7FA
:102E0000611571058105910579F09B01AC0169831C
:102E10003A834B835C830E94F63329813A814B814C
:102E20005C810E94483403C060E070E0CB010F90E9
:102E30000F900F900F90DF91CF910895CF92DF9276
:102E4000EF92FF920F931F93621773078407950702
:102E500084F489019A016B017C01C901B8016C19E4
:102E60007D098E099F090E94FA166C0D7D1D8E1D2D
:102E70009F1D1F910F91FF90EF90DF90CF900895CD
:102E80003FB7F8948091CE019091CF01A091D001ED
:102E9000B091D10126B5A89B05C02F3F19F001962E
:102EA000A11DB11D3FBFBA2FA92F982F8827820FD0
:102EB000911DA11DB11DBC01CD0142E0660F771F20
:102EC000881F991F4A95D1F708958F929F92AF92CC
:102ED000BF92CF92DF92EF92FF926B017C010E9432
:102EE00040174B015C01C114D104E104F104F1F07D
:102EF0000E944017DC01CB0188199909AA09BB0976
:102F0000883E9340A105B10570F321E0C21AD108B3
:102F1000E108F10888EE880E83E0981EA11CB11C20
:102F2000C114D104E104F10419F7DDCFFF90EF9053
:102F3000DF90CF90BF90AF909F908F9008951F9299
:102F40000F920FB60F9211242F933F938F939F935D
:102F5000AF93BF938091D6019091D701A091D801F2
:102F6000B091D9013091CD0123E0230F2D3720F40A
:102F70000196A11DB11D05C026E8230F0296A11DD3
:102F8000B11D2093CD018093D6019093D701A093DA
:102F9000D801B093D9018091CE019091CF01A09139
:102FA000D001B091D1010196A11DB11D8093CE0138
:102FB0009093CF01A093D001B093D101BF91AF9175
:102FC0009F918F913F912F910F900FBE0F901F9067
:102FD00018951F920F920FB60F9211242F933F93C3
:102FE0004F935F936F937F938F939F93AF93BF9311
:102FF000EF93FF938091C9019091CA01A091CB01F9
:10300000B091CC01892B8A2B8B2B81F18091C80147
:1030100081110BC098B180E4892788B98091C701DC
:10302000882319F088B1805888B98091C90190919E
:10303000CA01A091CB01B091CC01181619061A064D
:103040001B06B4F48091C9019091CA01A091CB01F3
:10305000B091CC010197A109B1098093C901909366
:10306000CA01A093CB01B093CC0102C00E944216CA
:10307000FF91EF91BF91AF919F918F917F916F9150
:103080005F914F913F912F910F900FBE0F901F9026
:1030900018959C01E1E7F0E090819D7F908381E0AD
:1030A0008093C6013093C5012093C4013093C301BE
:1030B0002093C2010C944216EF920F931F933AEFA4
:1030C000E32E00E010E00E94881C1F910F91EF900A
:1030D0000895EF920F931F9332E0E32E00E010E08B
:1030E0000E94881C1F910F91EF900895BC0180E011
:1030F00090E00C9465178FB18095807F669B886007
:103100001C9B8460089560387105D0F440345105EB
:10311000B8F4E4E5F7E180E1849FD001A0781124C0
:10312000A60F4770E40FF11D8491A452BE4F2223D5
:1031300019F06C91862B03C080956C9186238C933B
:103140000895CF92DF92EF92FF920F931F93CF9348
:10315000DF93EC018885882309F4EFC08E898823EA
:1031600011F081508E8B8E898111E7C02B8D21113A
:10317000AAC0498D5A8DEF88F88CF7013296E40F7A
:10318000F51F0491FA01EE0DFF1D849197012F5F49
:103190003F4FFA01E20FF31F14919D89292F207FE1
:1031A000C22EE82F09F0E1959F70D92E09F01195F4
:1031B000013809F486C0083008F051C06889062E2D
:1031C000000C770B6E0F711DE7FD7A95072E000C32
:1031D000880B990B0E94503520E030E040E852E423
:1031E0000E94AC3420E030E040E857E40E94DC3537
:1031F0000E941835688379838A839B836989062EA8
:10320000000C770B610F711D17FD7A95072E000CCE
:10321000880B990B0E94503520E030E040E052E4EA
:103220000E94AC3420E030E040E857E40E94DC35F6
:103230000E9418356C837D838E839F838D858330B8
:1032400019F486E08E8701C00E87CC2009F468C08F
:10325000EE85D1106CC0F0E0E858FE4F6BC0EC8FEB
:103260001D8F8E2FEE0F990BAA0BBB0BDC0199273C
:103270008827488159816A817B81840F951FA61F09
:10328000B71F88839983AA83BB83812F110F990B62
:10329000AA0BBB0BDC01992788274C815D816E81CD
:1032A0007F81840F951FA61FB71F8C839D83AE83DC
:1032B000BF8301500B8F83E0E80EF11CF88EEF8A7C
:1032C0003CC018863AC08C8D082E000C990BAA0BB6
:1032D000BB0BDC0199278827488159816A817B8152
:1032E000840F951FA61FB71F88839983AA83BB836A
:1032F0008D8D082E000C990BAA0BBB0BDC019927B6
:1033000088274C815D816E817F81840F951FA61F68
:10331000B71F8C839D83AE83BF8321502B8F0DC03D
:10332000DD2049F2EE85F0E0E059FE4F03C0F0E009
:10333000E859FE4F80818E87BECFDF91CF911F91DC
:103340000F91FF90EF90DF90CF900895DC011B96D6
:10335000ED91FC911C973E9685919491FC0184918E
:103360000895DC011B96ED91FC911C973C9685918C
:103370009491FC01849108950F931F93CF93DF9351
:1033800000D000D000D0CDB7DEB78C01FC01808129
:103390009181A281B381CD0101969A838983848131
:1033A0009581A681B781CD0101969C838B83C8014D
:1033B0000E94B11982508D83C8010E94A6197EEF28
:1033C000780F29813A814B815C816D8180E090E0AA
:1033D00026960FB6F894DEBF0FBECDBFDF91CF911A
:1033E0001F910F910895FC011082118212821382A5
:1033F000148215821682178212861186548743879B
:10340000138A128A6587108683E0848B138E86E088
:10341000878708950F93CF93DF93C0E0D0E0FE013C
:10342000ED55FE4F8381813059F4628170E000E0F8
:1034300020ED36E141E157E1808191810E94EC1D50
:103440002496C031D10559F7DF91CF910F9108959E
:103450000F93CF93DF93C0E0D0E0FE01ED55FE4F18
:103460008381833059F4628170E000E020ED36E121
:1034700041E157E1808191810E94EC1D2496C03189
:10348000D10559F7DF91CF910F9108959F92AF9297
:10349000BF92CF92DF92EF92FF920F931F93CF9341
:1034A000DF93982E93EAE92E91E0F92E25EAC22EB9
:1034B00021E0D22EE601870135E0A32EB12CE9816F
:1034C0004E2F50E04930510508F045C0FA01E2584E
:1034D000FF4F0C947D3680910E0790910F07B50138
:1034E0000E945536892BB9F1688170E020E04CEBE1
:1034F00056E12CC080910E0790910F07B5010E94F4
:103500005536892B41F1688170E020E048EA56E1A8
:103510001DC0688170E020E044E956E117C0688171
:1035200070E020E04CE756E111C0688170E020E0D7
:1035300044E156E10BC0688170E020E046ED55E1C2
:1035400005C0688170E020E048E655E1F80180811F
:1035500091810E945C180C5F1F4FFFEFAF1ABF0AEA
:10356000249629E0A216B10409F0A9CF8091E705BD
:103570008823A9F08091E605882319F044E354E1FB
:1035800002C04EEC54E16091E505062E000C770B6D
:1035900020E08091E3059091E4050E9469188091F4
:1035A000E2058823A9F08091E105882319F040E025
:1035B00053E102C04AE953E16091E005062E000C98
:1035C000770B20E08091DE059091DF050E9469185D
:1035D00091105BC1C6EAD1E0B12C02EA10E0AA2446
:1035E000A39485E3982EF701808191810197863A13
:1035F000FFEF9F0724F0F70191838083DAC0F70182
:1036000011830083BB2019F03197808102C0809123
:10361000B2018630B8F48091BF01811109C029E060
:1036200030E040E050E062E070E080E090E007C011
:1036300024E030E040E050E060E070E0CB010E9428
:103640001E1706C064E070E080E090E00E94FA1669
:10365000613008F441C0643080F16630E8F5688379
:103660008091E205882361F02091E005022E000C94
:10367000330B28513109032E000C440B550B04C0A9
:1036800028E230E040E050E08091E705882361F0D7
:103690006091E505062E000C770B685E7F4F072EC4
:1036A000000C880B990B04C064E070E080E090E0AF
:1036B0000E941E17F60160837CC0688360E470E09E
:1036C00080E090E00E94FA16DC01CB014097A1094E
:1036D000B109F60180836DC068838091E20588237B
:1036E00061F02091E005022E000C330B26523109C7
:1036F000032E000C440B550B04C020E330E040E0E7
:1037000050E08091E705882361F06091E505062E81
:10371000000C770B685E7F4F072E000C880B990B0F
:1037200004C06AEF7FEF8FEF9FEF0E941E17F60134
:1037300060838091E70581111CC062E370E080E046
:1037400090E00E94FA16A092E705DC01CB018853B5
:103750009F4FAF4FBF4F9093E4058093E3051092C6
:10376000E50562E070E080E090E00E94FA16609368
:10377000E6058091E20581111CC062E370E080E003
:1037800090E00E94FA16A092E205DC01CB0188537A
:103790009F4FAF4FBF4F9093DF058093DE05909210
:1037A000E00562E070E080E090E00E94FA1660932D
:1037B000E105B394F4E0EF0EF11C24E0C20ED11C3D
:1037C000249684E0B8120FCF8091E705882379F022
:1037D0008091E3059091E40501979093E40580932F
:1037E000E305863A9F4F04F51092E7051DC068E295
:1037F00070E080E090E00E94FA16672B682B692B3E
:1038000099F481E08093E70582EA90E09093E405E3
:103810008093E3051092E50562E070E080E090E0BF
:103820000E94FA166093E6058091E205882379F0FC
:103830008091DE059091DF0501979093DF058093DD
:10384000DE05863A9F4F0CF51092E2051EC068E235
:1038500070E080E090E00E94FA16672B682B692BDD
:10386000A1F481E08093E20582EA90E09093DF0585
:103870008093DE0585E38093E00562E070E080E000
:1038800090E00E94FA166093E105DF91CF911F91BD
:103890000F91FF90EF90DF90CF90BF90AF909F90EF
:1038A0000895CF93DF9300D000D000D0CDB7DEB71E
:1038B000E7EFF6E080819181A281B381CD0101968D
:1038C000282F9A83898384819581A681B781CD0130
:1038D0000196482F9C838B8383859485FC01659199
:1038E0007491FB0164916250FC0185919491FC01FB
:1038F0003196749172503A815C8180E090E0269616
:103900000FB6F894DEBF0FBECDBFDF91CF91089503
:103910002F923F924F925F926F927F928F929F92DF
:10392000AF92BF92CF92DF92EF92FF920F931F93CD
:10393000CF93DF9300D000D000D0CDB7DEB7ED82BB
:103940004115510509F42FC1FA0134913196E491E2
:103950004E5F5F4FC32ED12C222311F1AE2FA695BF
:10396000A695A695AA2EB12CA1E0B0E0FE2FF77087
:1039700011F4A0E0B0E0AA0DBB1DCA9E5001CB9E81
:10398000B00CDA9EB00C1124FD81F33011F4AA0CB6
:10399000BB1C2A9DD0012B9DB00D11244A0F5B1F2B
:1039A0002D812F3F39F40115110511F021E001C0DF
:1039B00022E02D835C01AC0CBD1C1A141B040CF01E
:1039C000F2C0803891050CF0EEC0DB01AE0FB11DE6
:1039D0001A161B060CF0E7C0603471050CF0E3C04A
:1039E0004115510509F4DFC0F62FF7706F2EDB018A
:1039F00077FD179623E0B595A7952A95E1F7FA2F5D
:103A000077FF04C0662011F0FFEFFA0F97FF05C0A3
:103A1000AA27BB27A81BB90B02C0A0E0B0E020E892
:103A2000A216B10424F020E8722E781A01C0732E79
:103A30007A1A6F2F0F2E000C770BFF3F1CF4E62E27
:103A4000E09401C0E12C992493942E2F277009F45F
:103A5000912CE695E695E6959E0E690D711D6930EF
:103A600071051CF0E8E09E2E9F1AFE2CFF0E6F2DB4
:103A700020E86203800D911D11248A0F9B1F61E0D5
:103A800070E0062C02C0660F771F0A94E2F72D81C2
:103A9000233011F0E1E001C0E2E0C718D108EC9D4D
:103AA000802C1124CE2ED12CE39EA00DB11D11240B
:103AB000CA9E9001CB9E300DDA9E300D11245A0122
:103AC000A20EB31E0115110509F0A801D601119728
:103AD0002A0F3B1F420F531FAFEFA69F9001A79FD6
:103AE000300D1124290140945094F90DFE83282DA6
:103AF00030E0E79D200D311D1124EE81FE1609F402
:103B000052C0DC01A452BE4F4A018501E12CE714EA
:103B100009F441C0F8013490369EF001379EF00D53
:103B20001124FA83E983E095F095FC83EB83FD8112
:103B3000F23019F45C824B8211C0ED81EB3F19F435
:103B40001A8219820BC0F4013490369EF001379E20
:103B5000F00D1124E095F095FC83EB83F7FC06C093
:103B6000FC91EB81EF23F981EF2BEC93662061F060
:103B7000F6E0FF154CF0FD01E058FF4F20803C803F
:103B800023203A80322830828C0C9D1C0C0D1D1D88
:103B9000E3941196BCCFF394A20EB31E420F531FB1
:103BA00080589F4FAACF26960FB6F894DEBF0FBE5F
:103BB000CDBFDF91CF911F910F91FF90EF90DF90DC
:103BC000CF90BF90AF909F908F907F906F905F90BD
:103BD0004F903F902F900895EF920F931F93F9010C
:103BE000202FEE24E3948F010E94881C1F910F91D7
:103BF000EF9008950F931F93CF93DF93C82FD62F85
:103C0000042F10E0DC1750F04C2F50E021E0B801F9
:103C10008BE097E00E948318CE5FF4CFDF91CF91C5
:103C20001F910F9108955F926F927F928F929F9252
:103C3000AF92BF92CF92DF92EF92FF920F931F93BA
:103C4000CF93DF93EC018B017A01A901461B570B3F
:103C500057FF03C0519541955109C7018C1B9D0B1E
:103C600097FF03C09195819591095524539484172A
:103C7000950714F0512C0AC09E2D8F2D7901292F04
:103C8000382F9C2F8D2FE801092F182FEC16FD06D9
:103C900054F4902F812F8901292F382F9C2F8D2F9D
:103CA000E701E92EF82E37016C1A7D0A5901A01A96
:103CB000B10AB7FE03C0B194A194B108630177FEC5
:103CC00003C08FEFC81AD80AD594C79402171307F8
:103CD00014F08FEF01C081E0882E880F9908EC1650
:103CE000FD06B4F021E0552019F0AE01B80102C084
:103CF000A801BE018BE097E00E948318CA18DB0878
:103D0000D7FE04C0080D191DC60CD71C2196E7CF9D
:103D1000DF91CF911F910F91FF90EF90DF90CF90A7
:103D2000BF90AF909F908F907F906F905F9008951D
:103D30000F931F93CF93DF93042FD22F90E020E0B7
:103D4000AB01BC018BE790E00E946918D53030F4DC
:103D50008091DA019091DB010F9780F0C0E010E0D4
:103D6000CD1760F4B8016C0F711D9B0140E850E065
:103D70008BE790E00E94131ECE5FF2CFDF91CF91D0
:103D80001F910F910895ECEDF1E0A0E0B8E0008004
:103D90000EBC8111012C1197A0FDFDCF0192B9F746
:103DA0000DB408958FB7F8944091D6015091D70182
:103DB0006091D8017091D9018FBF80911307942F22
:103DC000981B80911407882331F090931507109267
:103DD000140780E0089520911207921740F49F5F26
:103DE0009217A0F491E093BF889513BE089581E0E7
:103DF000809314074093130780910E0790910F074B
:103E0000019690930F0780930E0781E00895FC01BF
:103E10008091D501811103C08FEF9FEF08959FB767
:103E2000F89482E08093E9002091F20030E01216CD
:103E3000130614F421E030E02115310559F02898DB
:103E400084E68093D4018091F10080838091F20018
:103E5000882319F09FBFC90108958BE68093E8007D
:103E6000F9CF2FB7F89483E08093E9009091E800B0
:103E7000892F807295FF04C09091F20080E4891B25
:103E80002FBF08958F929F92AF92BF92CF92DF92F1
:103E9000EF92FF920F931F93CF93DF935C016B011F
:103EA0007A0180911701882309F45BC08091D501C4
:103EB000882309F456C08091D30180FF05C080910A
:103EC000E00082608093E000E70110E00AEF83E009
:103ED000882E9AE3992E2097D9F10E94311F8111E3
:103EE0000AC0015009F43DC061E070E080E090E05C
:103EF0000E946517F0CF282F30E0C217D3070CF4CB
:103F00008C2F4FB7F8948092E9009091E80095FFCC
:103F10001DC0282F30E0C21BD30BF601982F915003
:103F200020F081918093F100FACFC20ED31E1123AD
:103F300019F09092E80009C08091E80085FD06C064
:103F40009092E80011E0209709F010E04FBFC3CF36
:103F50001111C3CF5D9884E68093D2011E141F0413
:103F600044F081E090E0F5019383828380E090E06B
:103F700001C0C701DF91CF911F910F91FF90EF908A
:103F8000DF90CF90BF90AF909F908F9008958091D9
:103F90001A0781110DC082E08093160784E0809398
:103FA0001707109219071092180781E080931A07DB
:103FB00086E197E00895CF93DF931F92CDB7DEB7E8
:103FC0006983DC01ED91FC910280F381E02D41E0F9
:103FD00050E0BE016F5F7F4F09950F90DF91CF9149
:103FE000089583E08093E9008091F200882319F01E
:103FF0008AE38093E8000895FC018485958597FD08
:104000000BC09FB7F89482E08093E9008091F200A2
:104010009FBF90E0019608959FB7F89482E0809347
:10402000E9008091F2009FBF90E0089540918407DD
:1040300050918507209182073091830742175307DB
:10404000B4F49091E8009570E1F39091E80092FD4E
:1040500019C08093F10080918407909185070196A3
:104060008F739927892B19F48EEF8093E800809144
:104070008407909185070196909385078093840724
:1040800081E0089580E00895DF92EF92FF920F9310
:104090001F93CF93DF93D82E8A017B01E40EF51E88
:1040A000EB01CE15DF0571F0D7FE03C0FE01849150
:1040B00001C088810E94162021968111F2CF8FEFD6
:1040C0009FEF01C0C801DF91CF911F910F91FF9029
:1040D000EF90DF900895615030F02091F100FC01E5
:1040E00020830196F8CF289884E68093D401089520
:1040F0000E94311F90E008950F931F93CF93DF9399
:104100001F92CDB7DEB78C01FC018485958597FFA2
:104110000EC0CE0101960E94071F019719F4298154
:1041200030E002C02FEF3FEFF80135872487F80118
:10413000848595850F90DF91CF911F910F91089500
:10414000CF93DF931F92CDB7DEB7FC0184859585B1
:1041500097FD05C02FEF3FEF358724870BC0CE01B9
:1041600001960E94071F019719F4898190E002C00F
:104170008FEF9FEF0F90DF91CF9108950F931F93D3
:10418000CF93DF931F92CDB7DEB782E0898342E4FD
:1041900050E066E27FE180E80E9444200E94C71F51
:1041A000DC0112960D911C9113970115110569F010
:1041B000D801ED91FC910280F381E02DBE016F5F8B
:1041C0007F4FC801099597FF07C089810F90DF9144
:1041D000CF911F910F910895F80100851185E5CFCA
:1041E0001F920F920FB60F9211248F939F9380917D
:1041F000E1009091E100937F9093E10083FF0FC075
:104200001092E90091E09093EB001092EC0092E3A1
:104210009093ED001092D50198E09093F00082FF0A
:1042200020C093E09093E9009091F200992319F057
:104230009AE39093E8009091D201992339F09091FC
:10424000D20191509093D201992389F19091D40198
:10425000992339F09091D40191509093D4019923EE
:1042600041F184FF10C08091E2008E7E81608093D6
:10427000E2008091E1008F7E8093E1008091D30184
:104280008E7E806111C080FF16C08091E2008E7E1C
:1042900080618093E2008091E1008E7E8093E10056
:1042A0008091D3018E7E81608093D30104C05D9A9A
:1042B000CDCF289AD6CF9F918F910F900FBE0F90A0
:1042C0001F9018951F920F920FB60F921124CF9244
:1042D000DF92EF92FF920F931F932F933F934F9391
:1042E0005F936F937F938F939F93AF93BF93EF935E
:1042F000FF93CF93DF93CDB7DEB76C97DEBFCDBF13
:104300001092E9008091E80083FFEDC168E0CE01E2
:1043100045960E946B2082EF8093E8008D8987FF8D
:1043200005C09091E80090FFFCCF03C09EEF9093F2
:10433000E800982F907609F0C6C09E892F89188DC5
:1043400091110CC0803829F4809181078093F1008D
:1043500002C01092F1001092F10048C1422F50E0CB
:10436000512B913051F4811141C14130510509F077
:104370003DC1809181078D7F0BC0933061F4811125
:1043800035C14130510509F031C18091810782600A
:10439000809381072BC1953041F48091E80080FF24
:1043A000FCCF20682093E30021C1963009F05FC064
:1043B000EB8CFC8C1092E900109285071092840718
:1043C000123091F510928307109282070E94BE204E
:1043D00099E0BE016F5F7F4FDB01E92F1D92EA95E7
:1043E000E9F799831A8391E09E8390EA98879AEF80
:1043F00099872091840730918507275F3F4F3C8341
:104400002B838D831092E900109285071092840708
:10441000F0928307E092820749E050E080E00E943A
:1044200044200E94BE20E2C0F0928307E0928207FF
:104430000E94C71FDC011296ED90FC901397E114C7
:10444000F10409F4C0C0D701ED91FC910480F5811D
:10445000E02DBE016B5E7F4FC7010995009719F0F3
:104460000CF0C4C0C7C0F701E084F184E8CF9730F6
:1044700009F4C0C0983021F481E08093F100B6C007
:10448000993009F0B3C0837009F0B4C0E9E9F1E0F4
:1044900081E021E036E39081992361F08093E90087
:1044A0002093EB0091919093EC003093ED008F5F9F
:1044B000873089F78EE78093EA001092EA008F89AF
:1044C0008093D50193C08B8D9C8D1092E900109242
:1044D0008507109284079093830780938207898DC4
:1044E000811156C08E899D89913A59F4813209F023
:1044F00081C047E050E060E171E080E00E9444202C
:1045000075C0913209F076C0833289F4888D90E0CD
:10451000982F88272F89822BA0E0B0E08093180184
:1045200090931901A0931A01B0931B015FC08032D0
:1045300069F48091E80082FFFCCF67E080E191E0C0
:104540000E946B208BEF8093E80006C0823209F056
:104550004DC08F898093170180918007882319F0BF
:10456000EEEFFAE002C0E0E0F8E0809110019091F7
:104570001101A0911201B0911301803B9440A1055B
:10458000B10509F07BC08091170180FF93C076C010
:104590000E94C71FDC0112960D911C911397011503
:1045A000110541F1D801ED91FC910190F081E02DD0
:1045B000BE016B5E7F4FC8010995811117C0F801DC
:1045C00000851185ECCF113009F44EC0133091F401
:1045D0008F89882309F445C0823081F440E860E186
:1045E0008AE89FE10E946B33882321F08EEF80934D
:1045F000E80079C081E28093EB0075C0813029F436
:1046000040E86BE08EE79FE1EDCF833099F70E94A1
:10461000C71FDC011296ED90FC9013978E010F5F7F
:104620001F4F6801E114F10479F0D701ED91FC917D
:104630000680F781E02DB801C7010995080F111D0B
:10464000F701E084F184EECFD8011C92F6010190CD
:104650000020E9F73197BF016C197D0940E0C601E0
:10466000C1CF68E67FE102C06CE67FE161157105AC
:1046700009F2FB01449150E080E840CF0FB6F89476
:10468000A89580916000886180936000109260001E
:104690000FBEA895EE3F2AE0F20739F08091FE0A9E
:1046A0009091FF0A91838083A1CF1092FF0A10920C
:1046B000FE0A9CCFEE3F8AE0F80731F080819181BD
:1046C0009093FF0A8093FE0A87E797E791838083A0
:1046D0009BE088E10FB6F894A895809360000FBE28
:1046E0009093600083CF6C960FB6F894DEBF0FBE38
:1046F000CDBFDF91CF91FF91EF91BF91AF919F918E
:104700008F917F916F915F914F913F912F911F9169
:104710000F91FF90EF90DF90CF900F900FBE0F9012
:104720001F901895CF93DF93CDB7DEB7A7970FB63D
:10473000F894DEBF0FBECDBF789484B5826084BD8F
:1047400084B5816084BD85B5826085BD85B5816095
:1047500085BD80916E00816080936E001092810013
:1047600080918100826080938100809181008160CE
:10477000809381008091800081608093800080918F
:10478000910082608093910080919100816080937C
:104790009100809190008160809390008091C10091
:1047A00084608093C1008091C10082608093C100C9
:1047B0008091C10081608093C1008091C3008160BD
:1047C0008093C3008091C00082608093C00080917C
:1047D000C20081608093C20080917A0084608093DF
:1047E0007A0080917A00826080937A0080917A00CA
:1047F000816080937A0080917A00806880937A004B
:104800001092D501109281071092D3018091D700A8
:1048100081608093D70080EA8093D80089B5806159
:1048200089BD89B5826089BD09B400FEFDCF61E014
:1048300070E080E090E00E9465178091D8008F7C46
:1048400080618093D8008091E000807F8093E000B9
:104850008091E1008E7E8093E1008DE08093E20004
:10486000559A209AEEEFFFE7859194918B3F9C4DEE
:1048700019F481E08093800780E00E94C51581ECE7
:1048800080937C0085B1806F85B984B1877E84B9BF
:1048900084B1876E84B95E9A5F988AB1806D8AB957
:1048A000769A6E9881B3806F81BB899880B38D7042
:1048B00080BB80E58CBD81E08DBD85E090E00E94ED
:1048C00076185F9A85E090E00E9476185E985C9872
:1048D000EAE5F1E08DE08E0F94919EBD00000DB4ED
:1048E00007FEFDCF31968E13F7CF5C9A81E8809357
:1048F0006400809165008160809365000E947B1850
:1049000087FF24C05C9885EA8EBD00000DB407FEC9
:10491000FDCF5C9A2E982F982D988091640080622C
:104920008093640081E083BF889513BEFCCF2D98EF
:104930000E947B188478843871F00E947B188471FF
:10494000843129F188EC90E00E9476180E947B184F
:1049500082FDEDCF38C02D9A88EC90E00E94761849
:104960002F9882E090E00E9404348F3F29F06FEF8F
:1049700082E090E00E942A3484EF91E00E94761851
:104980002F9A0E947B1884788438D9F3D6CF2D9A39
:1049900088EC90E00E9476182E9882E090E00E94C9
:1049A0000434882329F060E082E090E00E942A34F9
:1049B00084EF91E00E9476182E9A0E947B188471F1
:1049C0008431D9F3BFCF2D9A82E090E00E94043465
:1049D000882331F03E9A3F9A81E08093A00104C081
:1049E0001092A0013E983F988DE790E090930E01C1
:1049F00080930D018CE291E090930C0180930B0168
:104A000080E09BE490930A018093090180E09EE09E
:104A1000909308018093070190930601809305010C
:104A200082E390E0909304018093030180ED90E095
:104A30000E9404348093B40184E180931207809132
:104A400064008E7F8093640080917A0080648093FC
:104A50007A0080917A0086FDFCCF00917800109159
:104A600079000E94401720E030E0980111270027CC
:104A7000600F711F821F931F6115710581059105DC
:104A800011F00E94FB338091640081608093640088
:104A9000AE014F5F5F4F5A8F498F0E94D21E88230D
:104AA00009F4D2C680E0ECEDF1E081118FEF002433
:104AB00081938193819381930394D1F7809110071F
:104AC000809311070E947B1880931007E091BA0130
:104AD0008E2F90E08730910508F0A2C6FC01EA5ABB
:104AE000FF4F0C947D361092B8011092B3011092D2
:104AF000B70111E01093BA018DE69AE00E944918BF
:104B0000109205071092040710920A0780E09EE0B9
:104B100090930807809307079093010780930007FD
:104B20002BE420930607109209071093FF0640E03C
:104B300050E061E070E04093F7065093F806609310
:104B4000F9067093FA0640E050E068E170E04093A7
:104B5000FB065093FC066093FD067093FE062DE75E
:104B600030E030930E0120930D012CE231E03093C0
:104B70000C0120930B0120E03BE430930A012093C9
:104B80000901909308018093070190930601809397
:104B9000050182E390E0909304018093030184E196
:104BA0008093120720E043E959E061E070E089E476
:104BB00090E00E94691820E047E659E064E070E068
:104BC0008BE390E00E94691820E04BE359E064E039
:104BD00070E081E390E00E94691820E049EB58E022
:104BE00060E070E080E790E00E94691820E047E311
:104BF00058E060E070E080E090E00E946918109159
:104C0000B701812F82958695877021F0843008F056
:104C100053C00AC020E043E058E06FE070E087E155
:104C200090E00E94691848C020E049EE57E064E136
:104C300070E089E190E00E9469182091B40145ED8F
:104C400057E069E270E08AE190E00E946918812FE4
:104C5000887190E043E0959587954A95E1F781301A
:104C600029F0823029F483E135E204C081E101C0FA
:104C700083E133E2012F077020E040ED57E06CE163
:104C800070E090E03FA30E94691820E04BEC57E0F1
:104C90006CE170E03FA1832F90E00E94691800232F
:104CA00059F00150812F887F802B8093B70101112B
:104CB00003C0807E8093B70181E00E94C31E0091F3
:104CC000110700958091100708231091B7011295E4
:104CD0001695177006FF20C0113091F020F01230A9
:104CE000D9F487E70EC08091B40190E0019635E0D9
:104CF000880F991F3A95E1F787608093B7010CC040
:104D000087E58093B7016091B4016F5F6093B40150
:104D100080ED90E00E94123405FF21C0123089F02E
:104D2000133089F011111BC08091B40190E00196FD
:104D300025E0880F991F2A95E1F787608093B701D6
:104D40000EC08FE201C08FE48093B7016091B4017F
:104D500061506093B40180ED90E00E94123402FF34
:104D600008C0112319F01092B70103C086E08093A8
:104D7000BA0103FF55C582E08093BA011092B801D1
:104D80004FC510924B06109269061092870610923A
:104D9000A5061092C3061092E106E8E0F6E08081D5
:104DA0008F708083339656E0E533F507C1F7EAEE5E
:104DB000F5E080818F708083339686E0E830F807D5
:104DC000C1F780E890E09093A4018093A30184E16F
:104DD000F82EF092A50185E08093A60186EB90E085
:104DE0009093A8018093A70189E18093A901109273
:104DF000AA018CEE90E09093AC018093AB018EE120
:104E00008093AD0182E08093AE0182E291E09093C5
:104E1000B0018093AF0183E28093B1011092B2019F
:104E200010920A0700E01EE010930807009307079E
:104E300010930107009300078BE4809306071092FC
:104E4000090781E08093FF0680E090E0A1E0B0E0F8
:104E50008093F7069093F806A093F906B093FA06AC
:104E600080E090E0A8E1B0E08093FB069093FC0620
:104E7000A093FD06B093FE0610923B0685E297E0F4
:104E80000E94491880E58093B60183E08093BA01BF
:104E90008DE790E090930E0180930D018CE291E0FC
:104EA00090930C0180930B0180E09BE490930A01A6
:104EB00080930901109308010093070110930601E4
:104EC0000093050182E390E0909304018093030135
:104ED000F09212078091B801833630F4893038F4AB
:104EE00006E0E02E09E206C0E12C0EE203C013E06A
:104EF000E12E0CE280910E0781700E94461AF0901C
:104F0000B6019FE49F15C8F0A2E0FA16E8F4B1E0FC
:104F1000FB1271C08091B80165E00E944936E92F0B
:104F2000F0E0EE0FFF1FE05EFE4F6081718181E0D7
:104F30000E944D141092B6015EC0E0E5FE125BC007
:104F40001092E7051092E2056E2D70E06E5F7F4FC4
:104F500020E049EF56E08CE390E00E9469188091D0
:104F6000B801C82ED12C10E0833678F0C601019626
:104F700064E670E00E946936262F41EB56E0B801E6
:104F80008CE390E00E94691802C08930A8F0C60145
:104F900001966AE070E00E946936CB016AE070E039
:104FA0000E946936282F41EB56E0B8016A5F7F4FB7
:104FB0008CE390E00E946918C60101966AE070E0F7
:104FC0000E946936B801645F7F4F282F41EB56E09D
:104FD0008CE390E00E94691810E41E1949E3612FE8
:104FE0008E2D0E94FA1D45E4612F8E2D0E94FA1D20
:104FF000FA94F092B6012091070730910807121633
:10500000130694F580910007909101071816190670
:105010005CF580910907811127C09091100780915C
:105020001107809589232250310930930807209376
:1050300007072F3F3F4F21F41092080710920707F0
:1050400097FDFEC494FD18C595FD32C596FD4CC56F
:1050500082FF03C098E09093090783FD61C58091AA
:10506000B601882309F4A0C508E0802E06E0902E42
:1050700086E0C82E86E0D82E97E0A92E96E0B92EBD
:10508000D4012C912F70822F90E08830910550F53B
:10509000FC01E35AFF4F0C947D36D6018C918F5F53
:1050A0008C93F5018081815080831CC0D60105C09E
:1050B000F60180818F5F8083D5018C918F5F11C055
:1050C000D6018C9181508C93F50180818F5FECCF5C
:1050D000D60105C0F601808181508083D5018C9175
:1050E00081508C93F6018081893710F0D4012C9384
:1050F000F5016081613420F0D4019C919F709C93F4
:10510000F4019081907F71F070E06150710990E03E
:1051100013E0E12E00E010E020E047E355E00197C6
:105120000E94881CF3E08F0E911C23E0C20ED11C5C
:1051300033E0A30EB11C43E3C41646E0D40609F0E5
:105140009FCFFAEE8F2EF5E09F2EA8EECA2EA5E097
:10515000DA2EB9EEAB2EB5E0BB2ED4012C912F7018
:10516000822F90E08830910550F5FC01EB59FF4FFC
:105170000C947D36D6018C918E5F8C93F5018081E5
:10518000825080831CC0D60105C0F60180818E5FED
:105190008083D5018C918E5F11C0D6018C91825095
:1051A0008C93F50180818E5FECCFD60105C0F601AE
:1051B000808182508083D5018C9182508C93F6013E
:1051C0008081893710F0D4012C93F501608161341E
:1051D00020F0D4019C919F709C93F4019081907F6A
:1051E00071F070E06150710990E0E3E0EE2E00E0B4
:1051F00010E020E047E355E001970E94881CF3E0AF
:105200008F0E911C23E0C20ED11C33E0A30EB11C03
:1052100046E0C41646E0D40609F09FCF81E00E9424
:105220000B110E94F4130E94281A80E00E940B11B7
:1052300060910E0770910F078090F7069090F80626
:10524000A090F906B090FA064501BB2497FCB094F3
:10525000AB2C4090FB065090FC066090FD067090D1
:10526000FE06C40142968239910508F08FC02301E1
:10527000772457FC7094672C80910707909108075A
:10528000181619063CF54091000750910107411589
:105290008BEF58070CF0E0C21DC0943008F017C324
:1052A000913009F00BC37401A7E0EA0EF11C292F1D
:1052B00030E0F9013197379718F48F5F8093090731
:1052C00080910907803411F41092090741305D4F35
:1052D0000CF0D0C2809100079091010718161906B2
:1052E0000CF442C00C979093010780930007292F7C
:1052F000892F990F990B121614F4019702C080950B
:1053000090952C3F3CF42A3F1CF5263F69F51092FE
:10531000FF062AC02F3F09F03CF54091020750914B
:105320000307FC01FF277496CF01880F991FFA012C
:10533000E80FF91F25913491FC013897E40FF51F10
:105340004591549100E0B201C4010E94EC1D0CC0D3
:10535000E0910207F0910307B6964591549120E041
:10536000B201C4010E945C18209107073091080720
:10537000121613065CF08091000790910107181631
:1053800019060CF4B9C202C01092FF060E940A1A54
:105390000E94F90F81E00E94C31E8091B601811125
:1053A00028C08091000790910107181619060CF586
:1053B00080E090E0FC01ED5BF94F2085211119C0E0
:1053C0004E96843B9105B1F79091A2018091B8016E
:1053D000992309F4DCC265E00E944936E92FF0E028
:1053E000EE0FFF1FE05EFE4F6081718180E00E9442
:1053F0004D148091000790910107181619063CF48E
:1054000080910707909108071816190644F08091BB
:10541000A101811104C08FE395E00E944918809199
:10542000FF068111FDC185E04AC18091B40181115F
:1054300005C09091B8019E3161F406C0813049F4F5
:105440009091B8019C3329F495E09093BA0111E052
:1054500001C010E0C82ED12CB5E6CB0ED11CCC0C6F
:10546000DD1CC6010E940C347C0160910407709120
:1054700005078617970738F4C6010E942434E09088
:105480000407F09005070CEE498CE4E04E0E342C36
:105490000E94D21E8823E1F38091100780931107A8
:1054A0000E947B18809310075090BA01F4E020E02E
:1054B0005F120EC04AEA53E06EE070E085E790E0CC
:1054C0000E94691820E040E753E060E070E00FC000
:1054D000112399F042E553E061E170E085E790E047
:1054E0000E94691820E046E253E06AE070E08AE634
:1054F00090E00E94691846E609C04CE752E060E07F
:1055000070E085E690E00E94691841E660E480E082
:105510000E94FA1D4FE760E480E00E94FA1D043605
:105520000CF040C0602E002E000C7708430122E1F1
:10553000821A9108A1E6AA2EB12C640197FE02C03E
:10554000C12CD12C40E4C416D1045CF420E0A601A7
:10555000B5018BE097E00E9483183FEFC31AD30A8E
:10556000F1CF5FEFA51AB50A80EEA816B10429F7AE
:1055700094E0591629F0111103C081E690E002C0B1
:1055800086E690E020E043E959E1B4010E94691801
:1055900020E043E959E1B3018FE690E00E946918E9
:1055A0000F5F7BC020E044E454E06FE070E082E4F1
:1055B00090E00E94691820E046E254E064E070E068
:1055C0008DE290E00E94691819821A821B821C8267
:1055D0008091040790910507DE0111965D01FD01A0
:1055E0006AE070E00E9455368193CB014E12F8CFED
:1055F000F8E3CF2ED12CF50121915F0141EB56E06C
:10560000B6018DE290E00E945C18F6E0CF1AD10856
:1056100020E2C216D10479F719821A821B821C82F9
:1056200020E049E054E064E070E08EE190E00E9408
:105630006918AE014F5F5F4F5A01FA01C7016AE076
:1056400070E00E9455368193CB013E12F8CFE8E31B
:10565000CE2ED12CD5012D915D0141EB56E0B60146
:1056600080E290E00E945C18B6E0CB1AD108E0E23C
:10567000CE16D10479F720E04BEF53E063E070E001
:1056800082E090E00E94691820E04FEC53E06CE06B
:1056900070E085E090E00E94691881E00E94C31EDE
:1056A00080911007D0901107D0949D2D9823987069
:1056B000D92EF4E05F1206C009F4EACE82E08093AE
:1056C000BA01AEC087FF0BC084FF09C081E00E9411
:1056D000C5151092050710920407E12CF12CDD206E
:1056E00009F4D6CE9BC00CEE1FEF72E0972E0E94FD
:1056F000D21E8823E1F320E040E552E06CE070E048
:1057000084E790E00E9469184EE660E480E00E9421
:10571000FA1D4FE760E480E00E94FA1D580122E183
:10572000A21AB1086EE6C62ED12C7501B7FE02C0D2
:10573000E12CF12C40E4E416F1045CF420E0A70134
:10574000B6018BE097E00E9483183FEFE31AF30A5B
:10575000F1CF5FEFC51AD50A8DEEC816D10429F72F
:1057600020E043E959E1B50188E690E00E9469181C
:1057700020E043E959E1B80181E790E00E9469180F
:1057800080E00E94C31E9092BA010F5F1F4F043643
:10579000110509F0ACCF20E04FE052E062E070E08C
:1057A0008BE490E00E94691820E049EB51E062E050
:1057B00070E089E390E00E94691820E047E651E03C
:1057C00060E070E089E290E00E94691820E04BEF11
:1057D00053E063E070E080E090E00E94691820E010
:1057E0004FEC53E06CE070E083E090E00E946918B9
:1057F00081E00E94C31E0E947B1883FD07C064E6FF
:1058000070E080E090E00E946517F5CF809110076E
:10581000809311070E947B18809310071092BA01A1
:105820008091B901882381F081508093B901811161
:105830000BC083E884BD8FEF87BD81EF809380002C
:105840001092880010928A0080E090E0892B09F481
:1058500024C90E94000021C980910907982F9695BC
:1058600096959695933009F018CD7401E7E0EE0E09
:10587000F11C1DCD911108C0CB0166E070E00E94C3
:10588000553601E0049708F400E0809102079091FA
:105890000307F9013896AF01440F551FFC01E40FCF
:1058A000F51F25913491FA017097E80FF91F459182
:1058B0005491B201C7010E94EC1D0CCD923029F425
:1058C0007401BEE0EB0EF11CF2CC7401F0CC96300A
:1058D00029F4740122E0E21AF108E9CC973029F4A6
:1058E000740131E0E31AF108E2CC953071F77401EC
:1058F000F1E0EF1AF108DBCC2C50310930930807A6
:1059000020930707932F97FD9195492F50E0413140
:10591000510508F03BCDFA01E359FF4F0C947D3659
:10592000A6E003C0ABE001C0AEE0A80D99E081E0C5
:1059300013C0A4E1A80D9EE086E00EC09924882D36
:10594000831BA2E1A80F84E1890F985E05C0A4E142
:10595000A80D88E0890F945F5091020740910307DA
:10596000E52FF42FE90FF11DE90FF11D2591349179
:10597000E52FF42FE80FF11DE80FF11D459154912B
:1059800000E0B2018A2F90E00E94EC1DFFCC8F5FF7
:105990008093B80188E28093B6018DEF95E00E9474
:1059A000491884E08093BA01E12CF12C16E00E2D09
:1059B000A0E8EA16F10409F41CCD0E94F4130E9439
:1059C000281A80E00E940B118E2D81700E94461AC9
:1059D0008090FB069090FC06A090FD06B090FE061D
:1059E0004501BB2497FCB094AB2C4090F706509037
:1059F000F8066090F9067090FA06802F612F0E94D9
:105A0000493601E0933008F000E02CE43DE14EE23D
:105A10005EE1B401C701860D971D0E94EC1D0E9436
:105A20000A1A0E94F90F81E00E94C31E64E170E02F
:105A300080E090E00E9465179FEFE91AF90AB7CF5E
:105A40004091FB065091FC066091FD067091FE06A8
:105A50004D3CFCEC5F07610571050CF4F3CA4C5C2E
:105A60005C4C610971094093FB065093FC066093FE
:105A7000FD067093FE06E6CA4091FB065091FC06B7
:105A80006091FD067091FE06411551052DE26207F9
:105A900071050CF0D9CA445353436F4F7F4F409365
:105AA000FB065093FC066093FD067093FE06CCCA7D
:105AB0004091F7065091F8066091F9067091FA0648
:105AC000473636EE5307610571050CF4BFCA4656DA
:105AD000564E610971094093F7065093F80660939A
